{"abi":[{"type":"constructor","inputs":[{"name":"_registry","type":"address","internalType":"address"},{"name":"_coreImplementation","type":"address","internalType":"address"}],"stateMutability":"nonpayable"},{"type":"function","name":"coreImplementation","inputs":[],"outputs":[{"name":"","type":"address","internalType":"address"}],"stateMutability":"view"},{"type":"function","name":"createCircle","inputs":[{"name":"name","type":"string","internalType":"string"},{"name":"initialMembers","type":"address[]","internalType":"address[]"}],"outputs":[{"name":"circleAddress","type":"address","internalType":"address"}],"stateMutability":"nonpayable"},{"type":"function","name":"isCircle","inputs":[{"name":"","type":"address","internalType":"address"}],"outputs":[{"name":"","type":"bool","internalType":"bool"}],"stateMutability":"view"},{"type":"function","name":"lendingModule","inputs":[],"outputs":[{"name":"","type":"address","internalType":"contract LendingModule"}],"stateMutability":"view"},{"type":"function","name":"nameExists","inputs":[{"name":"","type":"string","internalType":"string"}],"outputs":[{"name":"","type":"bool","internalType":"bool"}],"stateMutability":"view"},{"type":"function","name":"registry","inputs":[],"outputs":[{"name":"","type":"address","internalType":"contract CircleRegistry"}],"stateMutability":"view"},{"type":"function","name":"swapModule","inputs":[],"outputs":[{"name":"","type":"address","internalType":"contract SwapModule"}],"stateMutability":"view"},{"type":"event","name":"CircleCreated","inputs":[{"name":"circleAddress","type":"address","indexed":true,"internalType":"address"},{"name":"name","type":"string","indexed":false,"internalType":"string"},{"name":"creator","type":"address","indexed":true,"internalType":"address"}],"anonymous":false}],"bytecode":{"object":"0x610100604052348015610010575f80fd5b50604051611f3f380380611f3f83398101604081905261002f916100e3565b6001600160a01b03808316608052811660a05260405161004e906100ae565b604051809103905ff080158015610067573d5f803e3d5ffd5b506001600160a01b031660c052604051610080906100bb565b604051809103905ff080158015610099573d5f803e3d5ffd5b506001600160a01b031660e052506101149050565b610a6180610c1c83390190565b6108c28061167d83390190565b80516001600160a01b03811681146100de575f80fd5b919050565b5f80604083850312156100f4575f80fd5b6100fd836100c8565b915061010b602084016100c8565b90509250929050565b60805160a05160c05160e051610aae61016e5f395f81816083015281816103a2015261053b01525f81816101870152818161032e015261051901525f818160ee015261029801525f818160c701526105ef0152610aae5ff3fe608060405234801561000f575f80fd5b506004361061007a575f3560e01c8063a1015a0911610058578063a1015a0914610110578063cc637afe14610142578063d1d4f3da1461016f578063fa716b3f14610182575f80fd5b80637044dda71461007e5780637b103999146100c25780639d492a2c146100e9575b5f80fd5b6100a57f000000000000000000000000000000000000000000000000000000000000000081565b6040516001600160a01b0390911681526020015b60405180910390f35b6100a57f000000000000000000000000000000000000000000000000000000000000000081565b6100a57f000000000000000000000000000000000000000000000000000000000000000081565b61013261011e3660046106c7565b60016020525f908152604090205460ff1681565b60405190151581526020016100b9565b610132610150366004610798565b80516020818301810180515f8252928201919093012091525460ff1681565b6100a561017d3660046107d2565b6101a9565b6100a57f000000000000000000000000000000000000000000000000000000000000000081565b5f808351116101ef5760405162461bcd60e51b815260206004820152600d60248201526c13985b59481c995c5d5a5c9959609a1b60448201526064015b60405180910390fd5b5f836040516101fe91906108bf565b9081526040519081900360200190205460ff161561024c5760405162461bcd60e51b815260206004820152600b60248201526a4e616d652065786973747360a81b60448201526064016101e6565b5f833342604051602001610262939291906108da565b60408051808303601f190181528282528051602091820120733d602d80600a3d3981f3363d3d373d3d3d363d7360601b828501527f000000000000000000000000000000000000000000000000000000000000000060601b6bffffffffffffffffffffffff191660348501526e5af43d82803e903d91602b57fd5bf360881b6048850152825160378186030181526057909401909252825191935083919083015ff592508261030f575f80fd5b604051634a81067d60e01b81526001600160a01b0384811660048301527f00000000000000000000000000000000000000000000000000000000000000001690634a81067d906024015f604051808303815f87803b15801561036f575f80fd5b505af1158015610381573d5f803e3d5ffd5b5050604051634a81067d60e01b81526001600160a01b0386811660048301527f0000000000000000000000000000000000000000000000000000000000000000169250634a81067d91506024015f604051808303815f87803b1580156103e5575f80fd5b505af11580156103f7573d5f803e3d5ffd5b505050505f8451600161040a919061092c565b67ffffffffffffffff811115610422576104226106e7565b60405190808252806020026020018201604052801561044b578160200160208202803683370190505b50905033815f815181106104615761046161093f565b60200260200101906001600160a01b031690816001600160a01b0316815250505f5b85518110156104ee5785818151811061049e5761049e61093f565b6020026020010151828260016104b4919061092c565b815181106104c4576104c461093f565b6001600160a01b0390921660209283029190910190910152806104e681610953565b915050610483565b5060405163e821fd2f60e01b81526001600160a01b0385169063e821fd2f90610563908990859030907f0000000000000000000000000000000000000000000000000000000000000000907f0000000000000000000000000000000000000000000000000000000000000000906004016109d8565b5f604051808303815f87803b15801561057a575f80fd5b505af115801561058c573d5f803e3d5ffd5b5050505060015f876040516105a191906108bf565b908152604080519182900360209081018320805494151560ff199586161790556001600160a01b038089165f908152600192839052929092208054909416179092556318e4ed3d60e21b81527f000000000000000000000000000000000000000000000000000000000000000090911690636393b4f49061062a9087908a908690600401610a27565b5f604051808303815f87803b158015610641575f80fd5b505af1158015610653573d5f803e3d5ffd5b50505050336001600160a01b0316846001600160a01b03167f15e639cb5334ee5b47e49005d0ff7b1c2f39098dd2da49668b9085d0659757cc8860405161069a9190610a66565b60405180910390a35050505b92915050565b80356001600160a01b03811681146106c2575f80fd5b919050565b5f602082840312156106d7575f80fd5b6106e0826106ac565b9392505050565b634e487b7160e01b5f52604160045260245ffd5b604051601f8201601f1916810167ffffffffffffffff81118282101715610724576107246106e7565b604052919050565b5f82601f83011261073b575f80fd5b813567ffffffffffffffff811115610755576107556106e7565b610768601f8201601f19166020016106fb565b81815284602083860101111561077c575f80fd5b816020850160208301375f918101602001919091529392505050565b5f602082840312156107a8575f80fd5b813567ffffffffffffffff8111156107be575f80fd5b6107ca8482850161072c565b949350505050565b5f80604083850312156107e3575f80fd5b823567ffffffffffffffff808211156107fa575f80fd5b6108068683870161072c565b935060209150818501358181111561081c575f80fd5b8501601f8101871361082c575f80fd5b80358281111561083e5761083e6106e7565b8060051b925061084f8484016106fb565b8181529282018401928481019089851115610868575f80fd5b928501925b8484101561088d5761087e846106ac565b8252928501929085019061086d565b8096505050505050509250929050565b5f5b838110156108b757818101518382015260200161089f565b50505f910152565b5f82516108d081846020870161089d565b9190910192915050565b5f84516108eb81846020890161089d565b60609490941b6bffffffffffffffffffffffff191691909301908152601481019190915260340192915050565b634e487b7160e01b5f52601160045260245ffd5b808201808211156106a6576106a6610918565b634e487b7160e01b5f52603260045260245ffd5b5f6001820161096457610964610918565b5060010190565b5f815180845261098281602086016020860161089d565b601f01601f19169290920160200192915050565b5f8151808452602080850194508084015f5b838110156109cd5781516001600160a01b0316875295820195908201906001016109a8565b509495945050505050565b60a081525f6109ea60a083018861096b565b82810360208401526109fc8188610996565b6001600160a01b03968716604085015294861660608401525050921660809092019190915292915050565b6001600160a01b03841681526060602082018190525f90610a4a9083018561096b565b8281036040840152610a5c8185610996565b9695505050505050565b602081525f6106e0602083018461096b56fea2646970667358221220be106ef2c8da1f929ac1d5cefd30ec3a226e82b513e4a02678bb28b4e9d700f064736f6c6343000814003360c060405234801561000f575f80fd5b50734200000000000000000000000000000000000006608052739c69e0b64a63aa7daa0b5dc61df3cc77ea05bcb360a052600180546001600160a01b0319163317905560805160a0516109d461008d5f395f8181608301528181610389015261048e01525f818160c70152818161031301526106d701526109d45ff3fe608060405234801561000f575f80fd5b506004361061007a575f3560e01c8063536fff6c11610058578063536fff6c146100fe5780638da5cb5b14610130578063eb84d05a14610143578063fa461e3314610164575f80fd5b806316f0115b1461007e5780633fc8cef3146100c25780634a81067d146100e9575b5f80fd5b6100a57f000000000000000000000000000000000000000000000000000000000000000081565b6040516001600160a01b0390911681526020015b60405180910390f35b6100a57f000000000000000000000000000000000000000000000000000000000000000081565b6100fc6100f7366004610768565b610177565b005b61012061010c366004610768565b5f6020819052908152604090205460ff1681565b60405190151581526020016100b9565b6001546100a5906001600160a01b031681565b61015661015136600461078a565b6101e6565b6040519081526020016100b9565b6100fc6101723660046107a1565b610649565b6001546001600160a01b031633146101c35760405162461bcd60e51b815260206004820152600a60248201526927b7363c9037bbb732b960b11b60448201526064015b60405180910390fd5b6001600160a01b03165f908152602081905260409020805460ff19166001179055565b335f9081526020819052604081205460ff166102335760405162461bcd60e51b815260206004820152600c60248201526b155b985d5d1a1bdc9a5e995960a21b60448201526064016101ba565b6040516323b872dd60e01b8152336004820152306024820152604481018390526006602160991b01906323b872dd906064016020604051808303815f875af1158015610281573d5f803e3d5ffd5b505050506040513d601f19601f820116820180604052508101906102a5919061082e565b6102e35760405162461bcd60e51b815260206004820152600f60248201526e151c985b9cd9995c8819985a5b1959608a1b60448201526064016101ba565b60405163095ea7b360e01b8152739c69e0b64a63aa7daa0b5dc61df3cc77ea05bcb36004820152602481018390527f00000000000000000000000000000000000000000000000000000000000000006001600160a01b03169063095ea7b3906044016020604051808303815f875af1158015610361573d5f803e3d5ffd5b505050506040513d601f19601f82011682018060405250810190610385919061082e565b505f7f00000000000000000000000000000000000000000000000000000000000000006001600160a01b0316633850c7bd6040518163ffffffff1660e01b815260040160e060405180830381865afa1580156103e3573d5f803e3d5ffd5b505050506040513d601f19601f820116820180604052508101906104079190610858565b50505050505090505f603290505f61271082846001600160a01b031661042d91906108ff565b610437919061091c565b905060015f610446838661093b565b604051630251596160e31b81523060048201528315156024820152604481018990526001600160a01b03828116606483015260a060848301525f60a4830181905292935082917f00000000000000000000000000000000000000000000000000000000000000009091169063128acb089060c40160408051808303815f875af11580156104d5573d5f803e3d5ffd5b505050506040513d601f19601f820116820180604052508101906104f99190610962565b915091508061050790610984565b97505f88116105465760405162461bcd60e51b815260206004820152600b60248201526a14ddd85c0819985a5b195960aa1b60448201526064016101ba565b60405163a9059cbb60e01b8152336004820152602481018990527376d8de471f54aaa87784119c60df1bbfc852c4159063a9059cbb906044016020604051808303815f875af115801561059b573d5f803e3d5ffd5b505050506040513d601f19601f820116820180604052508101906105bf919061082e565b6106045760405162461bcd60e51b81526020600482015260166024820152751ddcdd115512081d1c985b9cd9995c8819985a5b195960521b60448201526064016101ba565b604080518a8152602081018a90527f4f73e5828387c436ef01a51b03853873e76d7a5551556837d452cbeb6f285cb5910160405180910390a150505050505050919050565b33739c69e0b64a63aa7daa0b5dc61df3cc77ea05bcb31461069f5760405162461bcd60e51b815260206004820152601060248201526f496e76616c69642063616c6c6261636b60801b60448201526064016101ba565b5f84131561074b5760405163a9059cbb60e01b8152739c69e0b64a63aa7daa0b5dc61df3cc77ea05bcb36004820152602481018590527f00000000000000000000000000000000000000000000000000000000000000006001600160a01b03169063a9059cbb906044016020604051808303815f875af1158015610725573d5f803e3d5ffd5b505050506040513d601f19601f82011682018060405250810190610749919061082e565b505b50505050565b6001600160a01b0381168114610765575f80fd5b50565b5f60208284031215610778575f80fd5b813561078381610751565b9392505050565b5f6020828403121561079a575f80fd5b5035919050565b5f805f80606085870312156107b4575f80fd5b8435935060208501359250604085013567ffffffffffffffff808211156107d9575f80fd5b818701915087601f8301126107ec575f80fd5b8135818111156107fa575f80fd5b88602082850101111561080b575f80fd5b95989497505060200194505050565b80518015158114610829575f80fd5b919050565b5f6020828403121561083e575f80fd5b6107838261081a565b805161ffff81168114610829575f80fd5b5f805f805f805f60e0888a03121561086e575f80fd5b875161087981610751565b8097505060208801518060020b8114610890575f80fd5b955061089e60408901610847565b94506108ac60608901610847565b93506108ba60808901610847565b925060a088015160ff811681146108cf575f80fd5b91506108dd60c0890161081a565b905092959891949750929550565b634e487b7160e01b5f52601160045260245ffd5b8082028115828204841417610916576109166108eb565b92915050565b5f8261093657634e487b7160e01b5f52601260045260245ffd5b500490565b6001600160a01b0382811682821603908082111561095b5761095b6108eb565b5092915050565b5f8060408385031215610973575f80fd5b505080516020909101519092909150565b5f600160ff1b8201610998576109986108eb565b505f039056fea264697066735822122021d47d8acc2e7c024db382666363ce79e088222dc529b915d131ba35bb9ef9ee64736f6c6343000814003360e060405234801561000f575f80fd5b507342000000000000000000000000000000000000066080527376d8de471f54aaa87784119c60df1bbfc852c41560a05273fbd7b8e2fc0ac7a43c70d96b903f4a5dadfa4d6660c052600180546001600160a01b0319163317905560805160a05160c0516108146100ae5f395f81816101bb0152818161044f015261054801525f818160fe015261038601525f8181608d01526105d101526108145ff3fe608060405260043610610071575f3560e01c8063536fff6c1161004c578063536fff6c146101205780638da5cb5b1461015e57806390c0d5961461017d578063d8fbc833146101aa575f80fd5b80633fc8cef31461007c5780634a81067d146100cc5780634aa07e64146100ed575f80fd5b3661007857005b5f80fd5b348015610087575f80fd5b506100af7f000000000000000000000000000000000000000000000000000000000000000081565b6040516001600160a01b0390911681526020015b60405180910390f35b3480156100d7575f80fd5b506100eb6100e636600461074b565b6101dd565b005b3480156100f8575f80fd5b506100af7f000000000000000000000000000000000000000000000000000000000000000081565b34801561012b575f80fd5b5061014e61013a36600461074b565b5f6020819052908152604090205460ff1681565b60405190151581526020016100c3565b348015610169575f80fd5b506001546100af906001600160a01b031681565b348015610188575f80fd5b5061019c61019736600461076b565b61024c565b6040519081526020016100c3565b3480156101b5575f80fd5b506100af7f000000000000000000000000000000000000000000000000000000000000000081565b6001546001600160a01b031633146102295760405162461bcd60e51b815260206004820152600a60248201526927b7363c9037bbb732b960b11b60448201526064015b60405180910390fd5b6001600160a01b03165f908152602081905260409020805460ff19166001179055565b335f9081526020819052604081205460ff166102995760405162461bcd60e51b815260206004820152600c60248201526b155b985d5d1a1bdc9a5e995960a21b6044820152606401610220565b6040516323b872dd60e01b8152336004820152306024820152604481018590527376d8de471f54aaa87784119c60df1bbfc852c415906323b872dd906064016020604051808303815f875af11580156102f4573d5f803e3d5ffd5b505050506040513d601f19601f82011682018060405250810190610318919061079d565b6103565760405162461bcd60e51b815260206004820152600f60248201526e151c985b9cd9995c8819985a5b1959608a1b6044820152606401610220565b60405163095ea7b360e01b815273fbd7b8e2fc0ac7a43c70d96b903f4a5dadfa4d666004820152602481018590527f00000000000000000000000000000000000000000000000000000000000000006001600160a01b03169063095ea7b3906044016020604051808303815f875af11580156103d4573d5f803e3d5ffd5b505050506040513d601f19601f820116820180604052508101906103f8919061079d565b506040516374c6881f60e11b81527fd1cf8c315f54e808c89be488b51ad2a6949bc8a5f83f62d30e0ab0290e3260f06004820152602481018590525f6044820181905233606483015260a0608483015260a48201527f00000000000000000000000000000000000000000000000000000000000000006001600160a01b03169063e98d103e9060c40160408051808303815f875af115801561049c573d5f803e3d5ffd5b505050506040513d601f19601f820116820180604052508101906104c091906107bc565b5050604080518581523360208201527fc746ea777b1da0310da2ae713c73990a15d4b72d2e723fcb283b8b9e81f79d80910160405180910390a1604051633809a9cf60e01b81527fd1cf8c315f54e808c89be488b51ad2a6949bc8a5f83f62d30e0ab0290e3260f06004820152602481018490525f60448201523360648201523060848201527f00000000000000000000000000000000000000000000000000000000000000006001600160a01b031690633809a9cf9060a40160408051808303815f875af1158015610595573d5f803e3d5ffd5b505050506040513d601f19601f820116820180604052508101906105b991906107bc565b5050604051632e1a7d4d60e01b8152600481018490527f00000000000000000000000000000000000000000000000000000000000000006001600160a01b031690632e1a7d4d906024015f604051808303815f87803b15801561061a575f80fd5b505af115801561062c573d5f803e3d5ffd5b505050505f826001600160a01b0316846040515f6040518083038185875af1925050503d805f8114610679576040519150601f19603f3d011682016040523d82523d5f602084013e61067e565b606091505b50509050806106c55760405162461bcd60e51b8152602060048201526013602482015272115512081d1c985b9cd9995c8819985a5b1959606a1b6044820152606401610220565b604080518581526001600160a01b03851660208201527f6e02acee5001c9c48e033cce6e7193e2717a4dc1d239424dcf41e995471f6385910160405180910390a1507fd1cf8c315f54e808c89be488b51ad2a6949bc8a5f83f62d30e0ab0290e3260f0949350505050565b80356001600160a01b0381168114610746575f80fd5b919050565b5f6020828403121561075b575f80fd5b61076482610730565b9392505050565b5f805f6060848603121561077d575f80fd5b833592506020840135915061079460408501610730565b90509250925092565b5f602082840312156107ad575f80fd5b81518015158114610764575f80fd5b5f80604083850312156107cd575f80fd5b50508051602090910151909290915056fea26469706673582212204249fadeafd856f5f2a30d5f7508862388a85d0861fe12eb6eb60ae88c94fb0d64736f6c63430008140033","linkReferences":{}},"methodIdentifiers":{"coreImplementation()":"9d492a2c","createCircle(string,address[])":"d1d4f3da","isCircle(address)":"a1015a09","lendingModule()":"7044dda7","nameExists(string)":"cc637afe","registry()":"7b103999","swapModule()":"fa716b3f"},"id":18}