{"abi":[{"type":"constructor","inputs":[{"name":"_registry","type":"address","internalType":"address"},{"name":"_circleImplementation","type":"address","internalType":"address"}],"stateMutability":"nonpayable"},{"type":"function","name":"circleImplementation","inputs":[],"outputs":[{"name":"","type":"address","internalType":"address"}],"stateMutability":"view"},{"type":"function","name":"createCircle","inputs":[{"name":"name","type":"string","internalType":"string"},{"name":"initialMembers","type":"address[]","internalType":"address[]"}],"outputs":[{"name":"","type":"address","internalType":"address"}],"stateMutability":"nonpayable"},{"type":"function","name":"getCircleCount","inputs":[],"outputs":[{"name":"","type":"uint256","internalType":"uint256"}],"stateMutability":"view"},{"type":"function","name":"getUserCircles","inputs":[{"name":"user","type":"address","internalType":"address"}],"outputs":[{"name":"","type":"address[]","internalType":"address[]"}],"stateMutability":"view"},{"type":"function","name":"nameExists","inputs":[{"name":"","type":"string","internalType":"string"}],"outputs":[{"name":"","type":"bool","internalType":"bool"}],"stateMutability":"view"},{"type":"function","name":"registry","inputs":[],"outputs":[{"name":"","type":"address","internalType":"contract CircleRegistry"}],"stateMutability":"view"},{"type":"event","name":"CircleCreated","inputs":[{"name":"circleAddress","type":"address","indexed":true,"internalType":"address"},{"name":"name","type":"string","indexed":false,"internalType":"string"},{"name":"creator","type":"address","indexed":true,"internalType":"address"}],"anonymous":false}],"bytecode":{"object":"0x60c060405234801561000f575f80fd5b50604051610bb4380380610bb483398101604081905261002e91610060565b6001600160a01b039182166080521660a052610091565b80516001600160a01b038116811461005b575f80fd5b919050565b5f8060408385031215610071575f80fd5b61007a83610045565b915061008860208401610045565b90509250929050565b60805160a051610ae86100cc5f395f818160cd01526103a401525f8181606901528181610177015281816104e0015261059e0152610ae85ff3fe608060405234801561000f575f80fd5b5060043610610060575f3560e01c80637b1039991461006457806388e81d8a146100a8578063c595b5a0146100c8578063cc637afe146100ef578063d1d4f3da1461012c578063e1f2dfce1461013f575b5f80fd5b61008b7f000000000000000000000000000000000000000000000000000000000000000081565b6040516001600160a01b0390911681526020015b60405180910390f35b6100bb6100b6366004610638565b610155565b60405161009f919061069c565b61008b7f000000000000000000000000000000000000000000000000000000000000000081565b61011c6100fd36600461075f565b80516020818301810180515f8252928201919093012091525460ff1681565b604051901515815260200161009f565b61008b61013a3660046107bc565b6101ea565b61014761059b565b60405190815260200161009f565b6040516344740ec560e11b81526001600160a01b0382811660048301526060917f0000000000000000000000000000000000000000000000000000000000000000909116906388e81d8a906024015f60405180830381865afa1580156101bd573d5f803e3d5ffd5b505050506040513d5f823e601f3d908101601f191682016040526101e4919081019061087f565b92915050565b5f808351116102305760405162461bcd60e51b815260206004820152600d60248201526c13985b59481c995c5d5a5c9959609a1b60448201526064015b60405180910390fd5b5f8360405161023f9190610936565b9081526040519081900360200190205460ff161561028d5760405162461bcd60e51b815260206004820152600b60248201526a4e616d652065786973747360a81b6044820152606401610227565b5f8251600161029c9190610965565b67ffffffffffffffff8111156102b4576102b46106ae565b6040519080825280602002602001820160405280156102dd578160200160208202803683370190505b50905033815f815181106102f3576102f3610978565b60200260200101906001600160a01b031690816001600160a01b0316815250505f5b83518110156103805783818151811061033057610330610978565b6020026020010151828260016103469190610965565b8151811061035657610356610978565b6001600160a01b0390921660209283029190910190910152806103788161098c565b915050610315565b5060408051733d602d80600a3d3981f3363d3d373d3d3d363d7360601b60208201527f000000000000000000000000000000000000000000000000000000000000000060601b6bffffffffffffffffffffffff191660348201526e5af43d82803e903d91602b57fd5bf360881b604882015281516037818303018152605782019092525f908190610419908890339042906077016109a4565b604051602081830303815290604052805190602001209050808351602085015ff560405163461e681560e11b81529092506001600160a01b03831690638c3cd02a9061046d908a9088903090600401610a0d565b5f604051808303815f87803b158015610484575f80fd5b505af1158015610496573d5f803e3d5ffd5b5050505060015f886040516104ab9190610936565b908152604051908190036020018120805492151560ff19909316929092179091556318e4ed3d60e21b81526001600160a01b037f00000000000000000000000000000000000000000000000000000000000000001690636393b4f4906105199085908b908990600401610a4a565b5f604051808303815f87803b158015610530575f80fd5b505af1158015610542573d5f803e3d5ffd5b50505050336001600160a01b0316826001600160a01b03167f15e639cb5334ee5b47e49005d0ff7b1c2f39098dd2da49668b9085d0659757cc896040516105899190610a89565b60405180910390a35095945050505050565b5f7f00000000000000000000000000000000000000000000000000000000000000006001600160a01b031663e1f2dfce6040518163ffffffff1660e01b8152600401602060405180830381865afa1580156105f8573d5f803e3d5ffd5b505050506040513d601f19601f8201168201806040525081019061061c9190610a9b565b905090565b6001600160a01b0381168114610635575f80fd5b50565b5f60208284031215610648575f80fd5b813561065381610621565b9392505050565b5f8151808452602080850194508084015f5b838110156106915781516001600160a01b03168752958201959082019060010161066c565b509495945050505050565b602081525f610653602083018461065a565b634e487b7160e01b5f52604160045260245ffd5b604051601f8201601f1916810167ffffffffffffffff811182821017156106eb576106eb6106ae565b604052919050565b5f82601f830112610702575f80fd5b813567ffffffffffffffff81111561071c5761071c6106ae565b61072f601f8201601f19166020016106c2565b818152846020838601011115610743575f80fd5b816020850160208301375f918101602001919091529392505050565b5f6020828403121561076f575f80fd5b813567ffffffffffffffff811115610785575f80fd5b610791848285016106f3565b949350505050565b5f67ffffffffffffffff8211156107b2576107b26106ae565b5060051b60200190565b5f80604083850312156107cd575f80fd5b823567ffffffffffffffff808211156107e4575f80fd5b6107f0868387016106f3565b9350602091508185013581811115610806575f80fd5b85019050601f81018613610818575f80fd5b803561082b61082682610799565b6106c2565b81815260059190911b82018301908381019088831115610849575f80fd5b928401925b8284101561087057833561086181610621565b8252928401929084019061084e565b80955050505050509250929050565b5f6020808385031215610890575f80fd5b825167ffffffffffffffff8111156108a6575f80fd5b8301601f810185136108b6575f80fd5b80516108c461082682610799565b81815260059190911b820183019083810190878311156108e2575f80fd5b928401925b828410156109095783516108fa81610621565b825292840192908401906108e7565b979650505050505050565b5f5b8381101561092e578181015183820152602001610916565b50505f910152565b5f8251610947818460208701610914565b9190910192915050565b634e487b7160e01b5f52601160045260245ffd5b808201808211156101e4576101e4610951565b634e487b7160e01b5f52603260045260245ffd5b5f6001820161099d5761099d610951565b5060010190565b5f84516109b5818460208901610914565b60609490941b6bffffffffffffffffffffffff191691909301908152601481019190915260340192915050565b5f81518084526109f9816020860160208601610914565b601f01601f19169290920160200192915050565b606081525f610a1f60608301866109e2565b8281036020840152610a31818661065a565b91505060018060a01b0383166040830152949350505050565b6001600160a01b03841681526060602082018190525f90610a6d908301856109e2565b8281036040840152610a7f818561065a565b9695505050505050565b602081525f61065360208301846109e2565b5f60208284031215610aab575f80fd5b505191905056fea2646970667358221220f4e32416e9442f291d6d921ea1d597f07c6de47de56d58bab1cdb7384b2c4a9564736f6c63430008140033","linkReferences":{}},"methodIdentifiers":{"circleImplementation()":"c595b5a0","createCircle(string,address[])":"d1d4f3da","getCircleCount()":"e1f2dfce","getUserCircles(address)":"88e81d8a","nameExists(string)":"cc637afe","registry()":"7b103999"},"id":42}