{"abi":[{"type":"function","name":"testSwap","inputs":[],"outputs":[],"stateMutability":"payable"},{"type":"function","name":"uniswapV3SwapCallback","inputs":[{"name":"amount0Delta","type":"int256","internalType":"int256"},{"name":"amount1Delta","type":"int256","internalType":"int256"},{"name":"","type":"bytes","internalType":"bytes"}],"outputs":[],"stateMutability":"nonpayable"},{"type":"event","name":"TestResult","inputs":[{"name":"message","type":"string","indexed":false,"internalType":"string"},{"name":"success","type":"bool","indexed":false,"internalType":"bool"}],"anonymous":false}],"bytecode":{"object":"0x608060405234801561000f575f80fd5b506108c98061001d5f395ff3fe608060405260043610610028575f3560e01c80636e008a031461002c578063fa461e3314610036575b5f80fd5b610034610055565b005b348015610041575f80fd5b506100346100503660046105af565b610381565b5f6006602160991b019050806001600160a01b031663d0e30db0346040518263ffffffff1660e01b81526004015f604051808303818588803b158015610099575f80fd5b505af11580156100ab573d5f803e3d5ffd5b50506040516370a0823160e01b81523060048201525f93506001600160a01b03851692506370a082319150602401602060405180830381865afa1580156100f4573d5f803e3d5ffd5b505050506040513d601f19601f820116820180604052508101906101189190610628565b9050655af3107a40008110156101755760405162461bcd60e51b815260206004820152601860248201527f4e656564206174206c6561737420302e3030303120455448000000000000000060448201526064015b60405180910390fd5b5f739c69e0b64a63aa7daa0b5dc61df3cc77ea05bcb390505f655af3107a400090505f826001600160a01b0316633850c7bd6040518163ffffffff1660e01b815260040160e060405180830381865afa1580156101d4573d5f803e3d5ffd5b505050506040513d601f19601f820116820180604052508101906101f89190610664565b5050604051630251596160e31b815230600482015260016024820152604481018890526401000276a46064820181905260a060848301525f60a48301529596506001600160a01b038916945063128acb08935060c40191506102579050565b60408051808303815f875af1925050508015610290575060408051601f3d908101601f1916820190925261028d91810190610702565b60015b6103305761029c610724565b806308c379a0036102e757506102b0610776565b806102bb57506102e9565b5f80516020610874833981519152815f6040516102d99291906107ff565b60405180910390a150610379565b505b60408051818152600d818301526c2ab735b737bbb71032b93937b960991b60608201525f602082015290515f805160206108748339815191529181900360800190a1610379565b604080518181526010818301526f53776170207375636365737366756c2160801b60608201526001602082015290515f805160206108748339815191529181900360800190a150505b505050505050565b33739c69e0b64a63aa7daa0b5dc61df3cc77ea05bcb3146103cc5760405162461bcd60e51b8152602060048201526005602482015264085c1bdbdb60da1b604482015260640161016c565b60408051818152600f818301526e10d85b1b189858dac818d85b1b1959608a1b60608201526001602082015290515f805160206108748339815191529181900360800190a15f8413156105065760405163a9059cbb60e01b8152336004820152602481018590525f906006602160991b019063a9059cbb906044016020604051808303815f875af1158015610463573d5f803e3d5ffd5b505050506040513d601f19601f820116820180604052508101906104879190610853565b9050806104c25760405162461bcd60e51b815260206004820152600960248201526810ba3930b739b332b960b91b604482015260640161016c565b60408051818152600c818301526b05061696420616d6f756e74360a41b60608201526001602082015290515f805160206108748339815191529181900360800190a1505b5f8313156105615760408051818152601b818301527f556e657870656374656420616d6f756e743144656c7461203e2030000000000060608201525f602082015290515f805160206108748339815191529181900360800190a15b604080518181526012818301527110d85b1b189858dac818dbdb5c1b195d195960721b60608201526001602082015290515f805160206108748339815191529181900360800190a150505050565b5f805f80606085870312156105c2575f80fd5b8435935060208501359250604085013567ffffffffffffffff808211156105e7575f80fd5b818701915087601f8301126105fa575f80fd5b813581811115610608575f80fd5b886020828501011115610619575f80fd5b95989497505060200194505050565b5f60208284031215610638575f80fd5b5051919050565b805161ffff81168114610650575f80fd5b919050565b80518015158114610650575f80fd5b5f805f805f805f60e0888a03121561067a575f80fd5b87516001600160a01b0381168114610690575f80fd5b8097505060208801518060020b81146106a7575f80fd5b95506106b56040890161063f565b94506106c36060890161063f565b93506106d16080890161063f565b925060a088015160ff811681146106e6575f80fd5b91506106f460c08901610655565b905092959891949750929550565b5f8060408385031215610713575f80fd5b505080516020909101519092909150565b5f60033d111561073a5760045f803e505f5160e01c5b90565b601f8201601f1916810167ffffffffffffffff8111828210171561076f57634e487b7160e01b5f52604160045260245ffd5b6040525050565b5f60443d10156107835790565b6040516003193d81016004833e81513d67ffffffffffffffff81602484011181841117156107b357505050505090565b82850191508151818111156107cb5750505050505090565b843d87010160208285010111156107e55750505050505090565b6107f46020828601018761073d565b509095945050505050565b604081525f83518060408401525f5b8181101561082b576020818701810151606086840101520161080e565b505f606082850101526060601f19601f83011684010191505082151560208301529392505050565b5f60208284031215610863575f80fd5b61086c82610655565b939250505056fe455e322fddc6a66ebfe6e627a9a6cf7ff47ee8e427f8db45ded2a19cec3dd7f0a26469706673582212200a6a97f5d654da68e8b9250d29bc5584cd109245f7e93e79413c4c4e7c1aff1c64736f6c63430008140033","linkReferences":{}},"methodIdentifiers":{"testSwap()":"6e008a03","uniswapV3SwapCallback(int256,int256,bytes)":"fa461e33"},"id":28}