{"abi":[{"type":"constructor","inputs":[{"name":"_deployer","type":"address","internalType":"address"}],"stateMutability":"nonpayable"},{"type":"function","name":"circles","inputs":[{"name":"","type":"uint256","internalType":"uint256"}],"outputs":[{"name":"","type":"address","internalType":"address"}],"stateMutability":"view"},{"type":"function","name":"createCircle","inputs":[{"name":"name","type":"string","internalType":"string"},{"name":"initialMembers","type":"address[]","internalType":"address[]"}],"outputs":[{"name":"","type":"address","internalType":"address"}],"stateMutability":"nonpayable"},{"type":"function","name":"deployer","inputs":[],"outputs":[{"name":"","type":"address","internalType":"contract ICircleDeployer"}],"stateMutability":"view"},{"type":"function","name":"getCircle","inputs":[{"name":"index","type":"uint256","internalType":"uint256"}],"outputs":[{"name":"","type":"address","internalType":"address"}],"stateMutability":"view"},{"type":"function","name":"getCircleCount","inputs":[],"outputs":[{"name":"","type":"uint256","internalType":"uint256"}],"stateMutability":"view"},{"type":"function","name":"getUserCircles","inputs":[{"name":"user","type":"address","internalType":"address"}],"outputs":[{"name":"","type":"address[]","internalType":"address[]"}],"stateMutability":"view"},{"type":"function","name":"nameExists","inputs":[{"name":"","type":"string","internalType":"string"}],"outputs":[{"name":"","type":"bool","internalType":"bool"}],"stateMutability":"view"},{"type":"function","name":"notifyMemberAdded","inputs":[{"name":"member","type":"address","internalType":"address"}],"outputs":[],"stateMutability":"nonpayable"},{"type":"function","name":"userCircles","inputs":[{"name":"","type":"address","internalType":"address"},{"name":"","type":"uint256","internalType":"uint256"}],"outputs":[{"name":"","type":"address","internalType":"address"}],"stateMutability":"view"},{"type":"event","name":"CircleCreated","inputs":[{"name":"circleAddress","type":"address","indexed":true,"internalType":"address"},{"name":"name","type":"string","indexed":false,"internalType":"string"},{"name":"creator","type":"address","indexed":true,"internalType":"address"}],"anonymous":false}],"bytecode":{"object":"0x60a060405234801561000f575f80fd5b50604051610ccd380380610ccd83398101604081905261002e9161008c565b6001600160a01b03811661007b5760405162461bcd60e51b815260206004820152601060248201526f24b73b30b634b2103232b83637bcb2b960811b604482015260640160405180910390fd5b6001600160a01b03166080526100b9565b5f6020828403121561009c575f80fd5b81516001600160a01b03811681146100b2575f80fd5b9392505050565b608051610bf56100d85f395f818161016001526104de0152610bf55ff3fe608060405234801561000f575f80fd5b5060043610610090575f3560e01c8063cc637afe11610063578063cc637afe1461010a578063d1d4f3da14610148578063d5f394881461015b578063e1f2dfce14610182578063e8ba43bf14610192575f80fd5b80630950dc1f1461009457806364ccecde146100c457806388e81d8a146100d7578063bc5e0f30146100f7575b5f80fd5b6100a76100a2366004610828565b6101a7565b6040516001600160a01b0390911681526020015b60405180910390f35b6100a76100d2366004610852565b6101db565b6100ea6100e5366004610869565b610253565b6040516100bb91906108cd565b6100a7610105366004610852565b6102c6565b610138610118366004610990565b805160208183018101805160028252928201919093012091525460ff1681565b60405190151581526020016100bb565b6100a76101563660046109ca565b6102ed565b6100a77f000000000000000000000000000000000000000000000000000000000000000081565b5f546040519081526020016100bb565b6101a56101a0366004610869565b6106d1565b005b6001602052815f5260405f2081815481106101c0575f80fd5b5f918252602090912001546001600160a01b03169150829050565b5f805482106102275760405162461bcd60e51b8152602060048201526013602482015272496e646578206f7574206f6620626f756e647360681b60448201526064015b60405180910390fd5b5f828154811061023957610239610a9a565b5f918252602090912001546001600160a01b031692915050565b6001600160a01b0381165f908152600160209081526040918290208054835181840281018401909452808452606093928301828280156102ba57602002820191905f5260205f20905b81546001600160a01b0316815260019091019060200180831161029c575b50505050509050919050565b5f81815481106102d4575f80fd5b5f918252602090912001546001600160a01b0316905081565b5f8083511161032e5760405162461bcd60e51b815260206004820152600d60248201526c13985b59481c995c5d5a5c9959609a1b604482015260640161021e565b60028360405161033e9190610ad0565b9081526040519081900360200190205460ff161561038c5760405162461bcd60e51b815260206004820152600b60248201526a4e616d652065786973747360a81b604482015260640161021e565b6032825111156103d15760405162461bcd60e51b815260206004820152601060248201526f546f6f206d616e79206d656d6265727360801b604482015260640161021e565b5f825160016103e09190610aff565b67ffffffffffffffff8111156103f8576103f86108df565b604051908082528060200260200182016040528015610421578160200160208202803683370190505b50905033815f8151811061043757610437610a9a565b60200260200101906001600160a01b031690816001600160a01b0316815250505f5b83518110156104c45783818151811061047457610474610a9a565b60200260200101518282600161048a9190610aff565b8151811061049a5761049a610a9a565b6001600160a01b0390921660209283029190910190910152806104bc81610b12565b915050610459565b50604051634054435d60e01b81525f906001600160a01b037f00000000000000000000000000000000000000000000000000000000000000001690634054435d9061051790889086903090600401610b55565b6020604051808303815f875af1158015610533573d5f803e3d5ffd5b505050506040513d601f19601f820116820180604052508101906105579190610b92565b5f8054600181810183557f290decd9548b62a8d60345a988386fc84ba6bc95484008f6362f93160ef3e56390910180546001600160a01b0385166001600160a01b0319918216811790925533845260208381526040808620805480870182559087529190952001805490911690911790559051919250906002906105dc908890610ad0565b908152604051908190036020019020805491151560ff199092169190911790555f5b845181101561067b5760015f86838151811061061c5761061c610a9a565b6020908102919091018101516001600160a01b0390811683528282019390935260409091015f90812080546001810182559082529190200180546001600160a01b0319169184169190911790558061067381610b12565b9150506105fe565b50336001600160a01b0316816001600160a01b03167f15e639cb5334ee5b47e49005d0ff7b1c2f39098dd2da49668b9085d0659757cc876040516106bf9190610bad565b60405180910390a39150505b92915050565b5f805b5f5481101561072d57336001600160a01b03165f82815481106106f9576106f9610a9a565b5f918252602090912001546001600160a01b03160361071b576001915061072d565b8061072581610b12565b9150506106d4565b508061077b5760405162461bcd60e51b815260206004820152601760248201527f4f6e6c7920636972636c65732063616e206e6f74696679000000000000000000604482015260640161021e565b6001600160a01b0382165f908152600160205260408120905b81548110156107ea57336001600160a01b03168282815481106107b9576107b9610a9a565b5f918252602090912001546001600160a01b0316036107d85750505050565b806107e281610b12565b915050610794565b5080546001810182555f91825260209091200180546001600160a01b031916331790555050565b6001600160a01b0381168114610825575f80fd5b50565b5f8060408385031215610839575f80fd5b823561084481610811565b946020939093013593505050565b5f60208284031215610862575f80fd5b5035919050565b5f60208284031215610879575f80fd5b813561088481610811565b9392505050565b5f8151808452602080850194508084015f5b838110156108c25781516001600160a01b03168752958201959082019060010161089d565b509495945050505050565b602081525f610884602083018461088b565b634e487b7160e01b5f52604160045260245ffd5b604051601f8201601f1916810167ffffffffffffffff8111828210171561091c5761091c6108df565b604052919050565b5f82601f830112610933575f80fd5b813567ffffffffffffffff81111561094d5761094d6108df565b610960601f8201601f19166020016108f3565b818152846020838601011115610974575f80fd5b816020850160208301375f918101602001919091529392505050565b5f602082840312156109a0575f80fd5b813567ffffffffffffffff8111156109b6575f80fd5b6109c284828501610924565b949350505050565b5f80604083850312156109db575f80fd5b823567ffffffffffffffff808211156109f2575f80fd5b6109fe86838701610924565b9350602091508185013581811115610a14575f80fd5b8501601f81018713610a24575f80fd5b803582811115610a3657610a366108df565b8060051b9250610a478484016108f3565b8181529282018401928481019089851115610a60575f80fd5b928501925b84841015610a8a5783359250610a7a83610811565b8282529285019290850190610a65565b8096505050505050509250929050565b634e487b7160e01b5f52603260045260245ffd5b5f5b83811015610ac8578181015183820152602001610ab0565b50505f910152565b5f8251610ae1818460208701610aae565b9190910192915050565b634e487b7160e01b5f52601160045260245ffd5b808201808211156106cb576106cb610aeb565b5f60018201610b2357610b23610aeb565b5060010190565b5f8151808452610b41816020860160208601610aae565b601f01601f19169290920160200192915050565b606081525f610b676060830186610b2a565b8281036020840152610b79818661088b565b91505060018060a01b0383166040830152949350505050565b5f60208284031215610ba2575f80fd5b815161088481610811565b602081525f6108846020830184610b2a56fea2646970667358221220061da2f2beb30527ba5bb49a5503db50ef0b1614d682dfac1677e34fdf93fde064736f6c63430008140033","linkReferences":{}},"methodIdentifiers":{"circles(uint256)":"bc5e0f30","createCircle(string,address[])":"d1d4f3da","deployer()":"d5f39488","getCircle(uint256)":"64ccecde","getCircleCount()":"e1f2dfce","getUserCircles(address)":"88e81d8a","nameExists(string)":"cc637afe","notifyMemberAdded(address)":"e8ba43bf","userCircles(address,uint256)":"0950dc1f"},"id":51}