{"abi":[{"type":"function","name":"allCircles","inputs":[{"name":"","type":"uint256","internalType":"uint256"}],"outputs":[{"name":"","type":"address","internalType":"address"}],"stateMutability":"view"},{"type":"function","name":"circleByName","inputs":[{"name":"","type":"string","internalType":"string"}],"outputs":[{"name":"","type":"address","internalType":"address"}],"stateMutability":"view"},{"type":"function","name":"getCircleCount","inputs":[],"outputs":[{"name":"","type":"uint256","internalType":"uint256"}],"stateMutability":"view"},{"type":"function","name":"getUserCircles","inputs":[{"name":"user","type":"address","internalType":"address"}],"outputs":[{"name":"","type":"address[]","internalType":"address[]"}],"stateMutability":"view"},{"type":"function","name":"isCircle","inputs":[{"name":"circle","type":"address","internalType":"address"}],"outputs":[{"name":"","type":"bool","internalType":"bool"}],"stateMutability":"view"},{"type":"function","name":"isRegisteredCircle","inputs":[{"name":"","type":"address","internalType":"address"}],"outputs":[{"name":"","type":"bool","internalType":"bool"}],"stateMutability":"view"},{"type":"function","name":"notifyMemberAdded","inputs":[{"name":"member","type":"address","internalType":"address"}],"outputs":[],"stateMutability":"nonpayable"},{"type":"function","name":"registerCircle","inputs":[{"name":"circle","type":"address","internalType":"address"},{"name":"name","type":"string","internalType":"string"},{"name":"members","type":"address[]","internalType":"address[]"}],"outputs":[],"stateMutability":"nonpayable"},{"type":"function","name":"userCircles","inputs":[{"name":"","type":"address","internalType":"address"},{"name":"","type":"uint256","internalType":"uint256"}],"outputs":[{"name":"","type":"address","internalType":"address"}],"stateMutability":"view"},{"type":"event","name":"CircleRegistered","inputs":[{"name":"circle","type":"address","indexed":true,"internalType":"address"},{"name":"name","type":"string","indexed":false,"internalType":"string"},{"name":"creator","type":"address","indexed":true,"internalType":"address"}],"anonymous":false}],"bytecode":{"object":"0x608060405234801561000f575f80fd5b50610a0e8061001d5f395ff3fe608060405234801561000f575f80fd5b5060043610610090575f3560e01c806388e81d8a1161006357806388e81d8a1461013f578063a1015a091461015f578063e1908c6e1461018a578063e1f2dfce1461019d578063e8ba43bf146101ad575f80fd5b80630950dc1f146100945780631d5660a9146100c45780633db2d826146100f65780636393b4f41461012a575b5f80fd5b6100a76100a23660046106be565b6101c0565b6040516001600160a01b0390911681526020015b60405180910390f35b6100e66100d23660046106e6565b60026020525f908152604090205460ff1681565b60405190151581526020016100bb565b6100a76101043660046107b7565b80516020818301810180516003825292820191909301209152546001600160a01b031681565b61013d6101383660046107f1565b6101f4565b005b61015261014d3660046106e6565b610517565b6040516100bb91906108ce565b6100e661016d3660046106e6565b6001600160a01b03165f9081526002602052604090205460ff1690565b6100a761019836600461091a565b61058a565b5f546040519081526020016100bb565b61013d6101bb3660046106e6565b6105b1565b6001602052815f5260405f2081815481106101d9575f80fd5b5f918252602090912001546001600160a01b03169150829050565b6001600160a01b0383166102485760405162461bcd60e51b8152602060048201526016602482015275496e76616c696420636972636c65206164647265737360501b60448201526064015b60405180910390fd5b6001600160a01b0383165f9081526002602052604090205460ff16156102b05760405162461bcd60e51b815260206004820152601960248201527f436972636c6520616c7265616479207265676973746572656400000000000000604482015260640161023f565b5f6001600160a01b03166003836040516102ca9190610953565b908152604051908190036020019020546001600160a01b0316146103255760405162461bcd60e51b81526020600482015260126024820152712730b6b29030b63932b0b23c903a30b5b2b760711b604482015260640161023f565b5f825111801561033757506032825111155b6103725760405162461bcd60e51b815260206004820152600c60248201526b496e76616c6964206e616d6560a01b604482015260640161023f565b5f8054600180820183557f290decd9548b62a8d60345a988386fc84ba6bc95484008f6362f93160ef3e56390910180546001600160a01b0319166001600160a01b03871690811790915582526002602052604091829020805460ff191690911790555183906003906103e5908590610953565b90815260405190819003602001902080546001600160a01b03929092166001600160a01b03199092169190911790555f5b81518110156104c6575f6001600160a01b031682828151811061043b5761043b61096e565b60200260200101516001600160a01b0316146104b45760015f8383815181106104665761046661096e565b6020908102919091018101516001600160a01b0390811683528282019390935260409091015f90812080546001810182559082529190200180546001600160a01b0319169186169190911790555b806104be81610982565b915050610416565b50336001600160a01b0316836001600160a01b03167f82ca5d1c3e8b70d734650837732d4db8ca0877240d905a367d27cba08be3b87a8460405161050a91906109a6565b60405180910390a3505050565b6001600160a01b0381165f9081526001602090815260409182902080548351818402810184019094528084526060939283018282801561057e57602002820191905f5260205f20905b81546001600160a01b03168152600190910190602001808311610560575b50505050509050919050565b5f8181548110610598575f80fd5b5f918252602090912001546001600160a01b0316905081565b335f9081526002602052604090205460ff1661060f5760405162461bcd60e51b815260206004820152601760248201527f4f6e6c79207265676973746572656420636972636c6573000000000000000000604482015260640161023f565b6001600160a01b0381165f908152600160205260408120905b815481101561067d57336001600160a01b031682828154811061064d5761064d61096e565b5f918252602090912001546001600160a01b03160361066b57505050565b8061067581610982565b915050610628565b5080546001810182555f91825260209091200180546001600160a01b0319163317905550565b80356001600160a01b03811681146106b9575f80fd5b919050565b5f80604083850312156106cf575f80fd5b6106d8836106a3565b946020939093013593505050565b5f602082840312156106f6575f80fd5b6106ff826106a3565b9392505050565b634e487b7160e01b5f52604160045260245ffd5b604051601f8201601f1916810167ffffffffffffffff8111828210171561074357610743610706565b604052919050565b5f82601f83011261075a575f80fd5b813567ffffffffffffffff81111561077457610774610706565b610787601f8201601f191660200161071a565b81815284602083860101111561079b575f80fd5b816020850160208301375f918101602001919091529392505050565b5f602082840312156107c7575f80fd5b813567ffffffffffffffff8111156107dd575f80fd5b6107e98482850161074b565b949350505050565b5f805f60608486031215610803575f80fd5b61080c846106a3565b925060208085013567ffffffffffffffff80821115610829575f80fd5b6108358883890161074b565b9450604087013591508082111561084a575f80fd5b818701915087601f83011261085d575f80fd5b81358181111561086f5761086f610706565b8060051b915061088084830161071a565b818152918301840191848101908a841115610899575f80fd5b938501935b838510156108be576108af856106a3565b8252938501939085019061089e565b8096505050505050509250925092565b602080825282518282018190525f9190848201906040850190845b8181101561090e5783516001600160a01b0316835292840192918401916001016108e9565b50909695505050505050565b5f6020828403121561092a575f80fd5b5035919050565b5f5b8381101561094b578181015183820152602001610933565b50505f910152565b5f8251610964818460208701610931565b9190910192915050565b634e487b7160e01b5f52603260045260245ffd5b5f6001820161099f57634e487b7160e01b5f52601160045260245ffd5b5060010190565b602081525f82518060208401526109c4816040850160208701610931565b601f01601f1916919091016040019291505056fea26469706673582212201d8dd44cf08e54f285120a028c6e38b0aa2d82293926caed5e518657afbe244e64736f6c63430008140033","linkReferences":{}},"methodIdentifiers":{"allCircles(uint256)":"e1908c6e","circleByName(string)":"3db2d826","getCircleCount()":"e1f2dfce","getUserCircles(address)":"88e81d8a","isCircle(address)":"a1015a09","isRegisteredCircle(address)":"1d5660a9","notifyMemberAdded(address)":"e8ba43bf","registerCircle(address,string,address[])":"6393b4f4","userCircles(address,uint256)":"0950dc1f"},"id":4}