{"abi":[{"type":"constructor","inputs":[],"stateMutability":"nonpayable"},{"type":"receive","stateMutability":"payable"},{"type":"function","name":"authorizeCircle","inputs":[{"name":"circle","type":"address","internalType":"address"}],"outputs":[],"stateMutability":"nonpayable"},{"type":"function","name":"authorizedCallers","inputs":[{"name":"","type":"address","internalType":"address"}],"outputs":[{"name":"","type":"bool","internalType":"bool"}],"stateMutability":"view"},{"type":"function","name":"morpho","inputs":[],"outputs":[{"name":"","type":"address","internalType":"contract IMorphoCorrect"}],"stateMutability":"view"},{"type":"function","name":"owner","inputs":[],"outputs":[{"name":"","type":"address","internalType":"address"}],"stateMutability":"view"},{"type":"function","name":"supplyCollateralAndBorrow","inputs":[{"name":"wstETHAmount","type":"uint256","internalType":"uint256"},{"name":"wethToBorrow","type":"uint256","internalType":"uint256"},{"name":"borrower","type":"address","internalType":"address"}],"outputs":[{"name":"","type":"bytes32","internalType":"bytes32"}],"stateMutability":"nonpayable"},{"type":"function","name":"weth","inputs":[],"outputs":[{"name":"","type":"address","internalType":"contract IWETH_Lending"}],"stateMutability":"view"},{"type":"function","name":"wstETH","inputs":[],"outputs":[{"name":"","type":"address","internalType":"contract IWstETH_Lending"}],"stateMutability":"view"},{"type":"event","name":"CollateralSupplied","inputs":[{"name":"wstETHAmount","type":"uint256","indexed":false,"internalType":"uint256"},{"name":"onBehalf","type":"address","indexed":false,"internalType":"address"}],"anonymous":false},{"type":"event","name":"LoanBorrowed","inputs":[{"name":"wethAmount","type":"uint256","indexed":false,"internalType":"uint256"},{"name":"borrower","type":"address","indexed":false,"internalType":"address"}],"anonymous":false}],"bytecode":{"object":"0x60e060405234801561000f575f80fd5b507342000000000000000000000000000000000000066080527376d8de471f54aaa87784119c60df1bbfc852c41560a05272cd58deebd7a2f1c55daec715faf8aed5b27bf860c052600180546001600160a01b0319163317905560805160a05160c0516107f96100ad5f395f81816101bb01528181610447015261052d01525f818160fe015261038501525f8181608d01526105b601526107f95ff3fe608060405260043610610071575f3560e01c8063536fff6c1161004c578063536fff6c146101205780638da5cb5b1461015e57806390c0d5961461017d578063d8fbc833146101aa575f80fd5b80633fc8cef31461007c5780634a81067d146100cc5780634aa07e64146100ed575f80fd5b3661007857005b5f80fd5b348015610087575f80fd5b506100af7f000000000000000000000000000000000000000000000000000000000000000081565b6040516001600160a01b0390911681526020015b60405180910390f35b3480156100d7575f80fd5b506100eb6100e6366004610730565b6101dd565b005b3480156100f8575f80fd5b506100af7f000000000000000000000000000000000000000000000000000000000000000081565b34801561012b575f80fd5b5061014e61013a366004610730565b5f6020819052908152604090205460ff1681565b60405190151581526020016100c3565b348015610169575f80fd5b506001546100af906001600160a01b031681565b348015610188575f80fd5b5061019c610197366004610750565b61024c565b6040519081526020016100c3565b3480156101b5575f80fd5b506100af7f000000000000000000000000000000000000000000000000000000000000000081565b6001546001600160a01b031633146102295760405162461bcd60e51b815260206004820152600a60248201526927b7363c9037bbb732b960b11b60448201526064015b60405180910390fd5b6001600160a01b03165f908152602081905260409020805460ff19166001179055565b335f9081526020819052604081205460ff166102995760405162461bcd60e51b815260206004820152600c60248201526b155b985d5d1a1bdc9a5e995960a21b6044820152606401610220565b6040516323b872dd60e01b8152336004820152306024820152604481018590527376d8de471f54aaa87784119c60df1bbfc852c415906323b872dd906064016020604051808303815f875af11580156102f4573d5f803e3d5ffd5b505050506040513d601f19601f820116820180604052508101906103189190610782565b6103565760405162461bcd60e51b815260206004820152600f60248201526e151c985b9cd9995c8819985a5b1959608a1b6044820152606401610220565b60405163095ea7b360e01b815272cd58deebd7a2f1c55daec715faf8aed5b27bf86004820152602481018590527f00000000000000000000000000000000000000000000000000000000000000006001600160a01b03169063095ea7b3906044016020604051808303815f875af11580156103d3573d5f803e3d5ffd5b505050506040513d601f19601f820116820180604052508101906103f79190610782565b506040516382fa827d60e01b81527faf10335b50689207d1fd37afd98e87aa0eb209c9074d8655642636223cc5f3a0600482015260248101859052336044820152608060648201525f60848201527f00000000000000000000000000000000000000000000000000000000000000006001600160a01b0316906382fa827d9060a4015f604051808303815f87803b158015610490575f80fd5b505af11580156104a2573d5f803e3d5ffd5b5050604080518781523360208201527fc746ea777b1da0310da2ae713c73990a15d4b72d2e723fcb283b8b9e81f79d80935001905060405180910390a1604051633809a9cf60e01b81527faf10335b50689207d1fd37afd98e87aa0eb209c9074d8655642636223cc5f3a06004820152602481018490525f60448201523360648201523060848201527f00000000000000000000000000000000000000000000000000000000000000006001600160a01b031690633809a9cf9060a40160408051808303815f875af115801561057a573d5f803e3d5ffd5b505050506040513d601f19601f8201168201806040525081019061059e91906107a1565b5050604051632e1a7d4d60e01b8152600481018490527f00000000000000000000000000000000000000000000000000000000000000006001600160a01b031690632e1a7d4d906024015f604051808303815f87803b1580156105ff575f80fd5b505af1158015610611573d5f803e3d5ffd5b505050505f826001600160a01b0316846040515f6040518083038185875af1925050503d805f811461065e576040519150601f19603f3d011682016040523d82523d5f602084013e610663565b606091505b50509050806106aa5760405162461bcd60e51b8152602060048201526013602482015272115512081d1c985b9cd9995c8819985a5b1959606a1b6044820152606401610220565b604080518581526001600160a01b03851660208201527f6e02acee5001c9c48e033cce6e7193e2717a4dc1d239424dcf41e995471f6385910160405180910390a1507faf10335b50689207d1fd37afd98e87aa0eb209c9074d8655642636223cc5f3a0949350505050565b80356001600160a01b038116811461072b575f80fd5b919050565b5f60208284031215610740575f80fd5b61074982610715565b9392505050565b5f805f60608486031215610762575f80fd5b833592506020840135915061077960408501610715565b90509250925092565b5f60208284031215610792575f80fd5b81518015158114610749575f80fd5b5f80604083850312156107b2575f80fd5b50508051602090910151909290915056fea264697066735822122025ffb87a86e46103119b401547c554efb7c9cf7ee1baf438c68e2b6f893cfbe364736f6c63430008140033","linkReferences":{}},"methodIdentifiers":{"authorizeCircle(address)":"4a81067d","authorizedCallers(address)":"536fff6c","morpho()":"d8fbc833","owner()":"8da5cb5b","supplyCollateralAndBorrow(uint256,uint256,address)":"90c0d596","weth()":"3fc8cef3","wstETH()":"4aa07e64"},"id":17}