{"abi":[{"type":"constructor","inputs":[{"name":"_registry","type":"address","internalType":"address"},{"name":"_implementation","type":"address","internalType":"address"}],"stateMutability":"nonpayable"},{"type":"function","name":"createCircle","inputs":[{"name":"name","type":"string","internalType":"string"},{"name":"initialMembers","type":"address[]","internalType":"address[]"}],"outputs":[{"name":"circleAddress","type":"address","internalType":"address"}],"stateMutability":"nonpayable"},{"type":"function","name":"getCircleCount","inputs":[],"outputs":[{"name":"","type":"uint256","internalType":"uint256"}],"stateMutability":"view"},{"type":"function","name":"getUserCircles","inputs":[{"name":"user","type":"address","internalType":"address"}],"outputs":[{"name":"","type":"address[]","internalType":"address[]"}],"stateMutability":"view"},{"type":"function","name":"implementation","inputs":[],"outputs":[{"name":"","type":"address","internalType":"address"}],"stateMutability":"view"},{"type":"function","name":"nameExists","inputs":[{"name":"","type":"string","internalType":"string"}],"outputs":[{"name":"","type":"bool","internalType":"bool"}],"stateMutability":"view"},{"type":"function","name":"registry","inputs":[],"outputs":[{"name":"","type":"address","internalType":"contract CircleRegistry"}],"stateMutability":"view"},{"type":"event","name":"CircleCreated","inputs":[{"name":"circleAddress","type":"address","indexed":true,"internalType":"address"},{"name":"name","type":"string","indexed":false,"internalType":"string"},{"name":"creator","type":"address","indexed":true,"internalType":"address"}],"anonymous":false}],"bytecode":{"object":"0x60c060405234801561000f575f80fd5b50604051610c30380380610c3083398101604081905261002e91610060565b6001600160a01b039182166080521660a052610091565b80516001600160a01b038116811461005b575f80fd5b919050565b5f8060408385031215610071575f80fd5b61007a83610045565b915061008860208401610045565b90509250929050565b60805160a051610b646100cc5f395f8181606901526102d901525f818160ad015281816101770152818161055c015261061a0152610b645ff3fe608060405234801561000f575f80fd5b5060043610610060575f3560e01c80635c60da1b146100645780637b103999146100a857806388e81d8a146100cf578063cc637afe146100ef578063d1d4f3da1461012c578063e1f2dfce1461013f575b5f80fd5b61008b7f000000000000000000000000000000000000000000000000000000000000000081565b6040516001600160a01b0390911681526020015b60405180910390f35b61008b7f000000000000000000000000000000000000000000000000000000000000000081565b6100e26100dd3660046106b4565b610155565b60405161009f9190610718565b61011c6100fd3660046107db565b80516020818301810180515f8252928201919093012091525460ff1681565b604051901515815260200161009f565b61008b61013a366004610838565b6101ea565b610147610617565b60405190815260200161009f565b6040516344740ec560e11b81526001600160a01b0382811660048301526060917f0000000000000000000000000000000000000000000000000000000000000000909116906388e81d8a906024015f60405180830381865afa1580156101bd573d5f803e3d5ffd5b505050506040513d5f823e601f3d908101601f191682016040526101e491908101906108fb565b92915050565b5f808351116102305760405162461bcd60e51b815260206004820152600d60248201526c13985b59481c995c5d5a5c9959609a1b60448201526064015b60405180910390fd5b5f8360405161023f91906109b2565b9081526040519081900360200190205460ff161561028d5760405162461bcd60e51b815260206004820152600b60248201526a4e616d652065786973747360a81b6044820152606401610227565b5f8333426040516020016102a3939291906109cd565b60408051808303601f190181528282528051602091820120733d602d80600a3d3981f3363d3d373d3d3d363d7360601b828501527f000000000000000000000000000000000000000000000000000000000000000060601b6bffffffffffffffffffffffff191660348501526e5af43d82803e903d91602b57fd5bf360881b6048850152825160378186030181526057909401909252825191935083919083015ff5925082610350575f80fd5b5f8451600161035f9190610a1f565b67ffffffffffffffff8111156103775761037761072a565b6040519080825280602002602001820160405280156103a0578160200160208202803683370190505b50905033815f815181106103b6576103b6610a32565b60200260200101906001600160a01b031690816001600160a01b0316815250505f5b8551811015610443578581815181106103f3576103f3610a32565b6020026020010151828260016104099190610a1f565b8151811061041957610419610a32565b6001600160a01b03909216602092830291909101909101528061043b81610a46565b9150506103d8565b505f846001600160a01b031687833060405160240161046493929190610a89565b60408051601f198184030181529181526020820180516001600160e01b031663461e681560e11b1790525161049991906109b2565b5f604051808303815f865af19150503d805f81146104d2576040519150601f19603f3d011682016040523d82523d5f602084013e6104d7565b606091505b50509050806105165760405162461bcd60e51b815260206004820152600b60248201526a125b9a5d0819985a5b195960aa1b6044820152606401610227565b60015f8860405161052791906109b2565b908152604051908190036020018120805492151560ff19909316929092179091556318e4ed3d60e21b81526001600160a01b037f00000000000000000000000000000000000000000000000000000000000000001690636393b4f4906105959088908b908790600401610ac6565b5f604051808303815f87803b1580156105ac575f80fd5b505af11580156105be573d5f803e3d5ffd5b50505050336001600160a01b0316856001600160a01b03167f15e639cb5334ee5b47e49005d0ff7b1c2f39098dd2da49668b9085d0659757cc896040516106059190610b05565b60405180910390a35050505092915050565b5f7f00000000000000000000000000000000000000000000000000000000000000006001600160a01b031663e1f2dfce6040518163ffffffff1660e01b8152600401602060405180830381865afa158015610674573d5f803e3d5ffd5b505050506040513d601f19601f820116820180604052508101906106989190610b17565b905090565b6001600160a01b03811681146106b1575f80fd5b50565b5f602082840312156106c4575f80fd5b81356106cf8161069d565b9392505050565b5f8151808452602080850194508084015f5b8381101561070d5781516001600160a01b0316875295820195908201906001016106e8565b509495945050505050565b602081525f6106cf60208301846106d6565b634e487b7160e01b5f52604160045260245ffd5b604051601f8201601f1916810167ffffffffffffffff811182821017156107675761076761072a565b604052919050565b5f82601f83011261077e575f80fd5b813567ffffffffffffffff8111156107985761079861072a565b6107ab601f8201601f191660200161073e565b8181528460208386010111156107bf575f80fd5b816020850160208301375f918101602001919091529392505050565b5f602082840312156107eb575f80fd5b813567ffffffffffffffff811115610801575f80fd5b61080d8482850161076f565b949350505050565b5f67ffffffffffffffff82111561082e5761082e61072a565b5060051b60200190565b5f8060408385031215610849575f80fd5b823567ffffffffffffffff80821115610860575f80fd5b61086c8683870161076f565b9350602091508185013581811115610882575f80fd5b85019050601f81018613610894575f80fd5b80356108a76108a282610815565b61073e565b81815260059190911b820183019083810190888311156108c5575f80fd5b928401925b828410156108ec5783356108dd8161069d565b825292840192908401906108ca565b80955050505050509250929050565b5f602080838503121561090c575f80fd5b825167ffffffffffffffff811115610922575f80fd5b8301601f81018513610932575f80fd5b80516109406108a282610815565b81815260059190911b8201830190838101908783111561095e575f80fd5b928401925b828410156109855783516109768161069d565b82529284019290840190610963565b979650505050505050565b5f5b838110156109aa578181015183820152602001610992565b50505f910152565b5f82516109c3818460208701610990565b9190910192915050565b5f84516109de818460208901610990565b60609490941b6bffffffffffffffffffffffff191691909301908152601481019190915260340192915050565b634e487b7160e01b5f52601160045260245ffd5b808201808211156101e4576101e4610a0b565b634e487b7160e01b5f52603260045260245ffd5b5f60018201610a5757610a57610a0b565b5060010190565b5f8151808452610a75816020860160208601610990565b601f01601f19169290920160200192915050565b606081525f610a9b6060830186610a5e565b8281036020840152610aad81866106d6565b91505060018060a01b0383166040830152949350505050565b6001600160a01b03841681526060602082018190525f90610ae990830185610a5e565b8281036040840152610afb81856106d6565b9695505050505050565b602081525f6106cf6020830184610a5e565b5f60208284031215610b27575f80fd5b505191905056fea26469706673582212204fca4c5c11ecd1dc0a1ce0c9716edbb79419ed8bb592630c0e589fd8eebfab9164736f6c63430008140033","linkReferences":{}},"methodIdentifiers":{"createCircle(string,address[])":"d1d4f3da","getCircleCount()":"e1f2dfce","getUserCircles(address)":"88e81d8a","implementation()":"5c60da1b","nameExists(string)":"cc637afe","registry()":"7b103999"},"id":23}