{"abi":[{"type":"function","name":"getMemberCount","inputs":[],"outputs":[{"name":"","type":"uint256","internalType":"uint256"}],"stateMutability":"view"},{"type":"function","name":"initialize","inputs":[{"name":"_name","type":"string","internalType":"string"},{"name":"initialMembers","type":"address[]","internalType":"address[]"},{"name":"","type":"address","internalType":"address"}],"outputs":[],"stateMutability":"nonpayable"},{"type":"function","name":"isCircleMember","inputs":[{"name":"","type":"address","internalType":"address"}],"outputs":[{"name":"","type":"bool","internalType":"bool"}],"stateMutability":"view"},{"type":"function","name":"members","inputs":[{"name":"","type":"uint256","internalType":"uint256"}],"outputs":[{"name":"","type":"address","internalType":"address"}],"stateMutability":"view"},{"type":"function","name":"name","inputs":[],"outputs":[{"name":"","type":"string","internalType":"string"}],"stateMutability":"view"}],"bytecode":{"object":"0x608060405234801561000f575f80fd5b506106e88061001d5f395ff3fe608060405234801561000f575f80fd5b5060043610610055575f3560e01c806306fdde03146100595780631aeb4908146100775780635daf08ca146100a95780638c3cd02a146100d4578063997072f7146100e9575b5f80fd5b6100616100fa565b60405161006e9190610312565b60405180910390f35b610099610085366004610378565b60016020525f908152604090205460ff1681565b604051901515815260200161006e565b6100bc6100b7366004610398565b610185565b6040516001600160a01b03909116815260200161006e565b6100e76100e2366004610478565b6101ad565b005b60025460405190815260200161006e565b5f805461010690610538565b80601f016020809104026020016040519081016040528092919081815260200182805461013290610538565b801561017d5780601f106101545761010080835404028352916020019161017d565b820191905f5260205f20905b81548152906001019060200180831161016057829003601f168201915b505050505081565b60028181548110610194575f80fd5b5f918252602090912001546001600160a01b0316905081565b5f80546101b990610538565b1590506102025760405162461bcd60e51b8152602060048201526013602482015272105b1c9958591e481a5b9a5d1a585b1a5e9959606a1b604482015260640160405180910390fd5b5f61020d84826105be565b505f5b825181101561030c5760015f84838151811061022e5761022e61067a565b6020908102919091018101516001600160a01b031682528101919091526040015f205460ff166102fa576001805f85848151811061026e5761026e61067a565b60200260200101516001600160a01b03166001600160a01b031681526020019081526020015f205f6101000a81548160ff02191690831515021790555060028382815181106102bf576102bf61067a565b60209081029190910181015182546001810184555f938452919092200180546001600160a01b0319166001600160a01b039092169190911790555b806103048161068e565b915050610210565b50505050565b5f6020808352835180828501525f5b8181101561033d57858101830151858201604001528201610321565b505f604082860101526040601f19601f8301168501019250505092915050565b80356001600160a01b0381168114610373575f80fd5b919050565b5f60208284031215610388575f80fd5b6103918261035d565b9392505050565b5f602082840312156103a8575f80fd5b5035919050565b634e487b7160e01b5f52604160045260245ffd5b604051601f8201601f1916810167ffffffffffffffff811182821017156103ec576103ec6103af565b604052919050565b5f82601f830112610403575f80fd5b8135602067ffffffffffffffff82111561041f5761041f6103af565b8160051b61042e8282016103c3565b9283528481018201928281019087851115610447575f80fd5b83870192505b8483101561046d5761045e8361035d565b8252918301919083019061044d565b979650505050505050565b5f805f6060848603121561048a575f80fd5b833567ffffffffffffffff808211156104a1575f80fd5b818601915086601f8301126104b4575f80fd5b81356020828211156104c8576104c86103af565b6104da601f8301601f191682016103c3565b82815289828487010111156104ed575f80fd5b82828601838301375f928101820192909252909550860135915080821115610513575f80fd5b50610520868287016103f4565b92505061052f6040850161035d565b90509250925092565b600181811c9082168061054c57607f821691505b60208210810361056a57634e487b7160e01b5f52602260045260245ffd5b50919050565b601f8211156105b9575f81815260208120601f850160051c810160208610156105965750805b601f850160051c820191505b818110156105b5578281556001016105a2565b5050505b505050565b815167ffffffffffffffff8111156105d8576105d86103af565b6105ec816105e68454610538565b84610570565b602080601f83116001811461061f575f84156106085750858301515b5f19600386901b1c1916600185901b1785556105b5565b5f85815260208120601f198616915b8281101561064d5788860151825594840194600190910190840161062e565b508582101561066a57878501515f19600388901b60f8161c191681555b5050505050600190811b01905550565b634e487b7160e01b5f52603260045260245ffd5b5f600182016106ab57634e487b7160e01b5f52601160045260245ffd5b506001019056fea2646970667358221220116c752d3207d000b31ef5ca83d7183217ea8ebedb74feb801f6c6c01baecf9964736f6c63430008140033","linkReferences":{}},"methodIdentifiers":{"getMemberCount()":"997072f7","initialize(string,address[],address)":"8c3cd02a","isCircleMember(address)":"1aeb4908","members(uint256)":"5daf08ca","name()":"06fdde03"},"id":30}