{"abi":[{"type":"constructor","inputs":[],"stateMutability":"nonpayable"},{"type":"receive","stateMutability":"payable"},{"type":"function","name":"allLoanIds","inputs":[{"name":"","type":"uint256","internalType":"uint256"}],"outputs":[{"name":"","type":"bytes32","internalType":"bytes32"}],"stateMutability":"view"},{"type":"function","name":"allRequestIds","inputs":[{"name":"","type":"uint256","internalType":"uint256"}],"outputs":[{"name":"","type":"bytes32","internalType":"bytes32"}],"stateMutability":"view"},{"type":"function","name":"collateralRequests","inputs":[{"name":"","type":"bytes32","internalType":"bytes32"}],"outputs":[{"name":"borrower","type":"address","internalType":"address"},{"name":"amount","type":"uint256","internalType":"uint256"},{"name":"collateralNeeded","type":"uint256","internalType":"uint256"},{"name":"totalContributed","type":"uint256","internalType":"uint256"},{"name":"executed","type":"bool","internalType":"bool"},{"name":"purpose","type":"string","internalType":"string"},{"name":"timestamp","type":"uint256","internalType":"uint256"}],"stateMutability":"view"},{"type":"function","name":"contributeToRequest","inputs":[{"name":"requestId","type":"bytes32","internalType":"bytes32"}],"outputs":[],"stateMutability":"nonpayable"},{"type":"function","name":"deposit","inputs":[],"outputs":[],"stateMutability":"payable"},{"type":"function","name":"emergencyWithdraw","inputs":[],"outputs":[],"stateMutability":"nonpayable"},{"type":"function","name":"executeRequest","inputs":[{"name":"requestId","type":"bytes32","internalType":"bytes32"}],"outputs":[{"name":"","type":"bytes32","internalType":"bytes32"}],"stateMutability":"nonpayable"},{"type":"function","name":"getAllLoanIds","inputs":[],"outputs":[{"name":"","type":"bytes32[]","internalType":"bytes32[]"}],"stateMutability":"view"},{"type":"function","name":"getAllRequestIds","inputs":[],"outputs":[{"name":"","type":"bytes32[]","internalType":"bytes32[]"}],"stateMutability":"view"},{"type":"function","name":"getMembers","inputs":[],"outputs":[{"name":"","type":"address[]","internalType":"address[]"}],"stateMutability":"view"},{"type":"function","name":"getUserBalance","inputs":[{"name":"user","type":"address","internalType":"address"}],"outputs":[{"name":"","type":"uint256","internalType":"uint256"}],"stateMutability":"view"},{"type":"function","name":"initialize","inputs":[{"name":"","type":"string","internalType":"string"},{"name":"_members","type":"address[]","internalType":"address[]"},{"name":"","type":"address","internalType":"address"}],"outputs":[],"stateMutability":"nonpayable"},{"type":"function","name":"isMember","inputs":[{"name":"","type":"address","internalType":"address"}],"outputs":[{"name":"","type":"bool","internalType":"bool"}],"stateMutability":"view"},{"type":"function","name":"loans","inputs":[{"name":"","type":"bytes32","internalType":"bytes32"}],"outputs":[{"name":"borrower","type":"address","internalType":"address"},{"name":"amount","type":"uint256","internalType":"uint256"},{"name":"collateralAmount","type":"uint256","internalType":"uint256"},{"name":"timestamp","type":"uint256","internalType":"uint256"},{"name":"repaid","type":"bool","internalType":"bool"}],"stateMutability":"view"},{"type":"function","name":"members","inputs":[{"name":"","type":"uint256","internalType":"uint256"}],"outputs":[{"name":"","type":"address","internalType":"address"}],"stateMutability":"view"},{"type":"function","name":"morphoWethVault","inputs":[],"outputs":[{"name":"","type":"address","internalType":"contract IMorphoVault"}],"stateMutability":"view"},{"type":"function","name":"requestCollateral","inputs":[{"name":"amount","type":"uint256","internalType":"uint256"},{"name":"collateralNeeded","type":"uint256","internalType":"uint256"},{"name":"contributors","type":"address[]","internalType":"address[]"},{"name":"amounts","type":"uint256[]","internalType":"uint256[]"},{"name":"purpose","type":"string","internalType":"string"}],"outputs":[{"name":"","type":"bytes32","internalType":"bytes32"}],"stateMutability":"nonpayable"},{"type":"function","name":"totalShares","inputs":[],"outputs":[{"name":"","type":"uint256","internalType":"uint256"}],"stateMutability":"view"},{"type":"function","name":"userShares","inputs":[{"name":"","type":"address","internalType":"address"}],"outputs":[{"name":"","type":"uint256","internalType":"uint256"}],"stateMutability":"view"},{"type":"function","name":"weth","inputs":[],"outputs":[{"name":"","type":"address","internalType":"contract IWETH"}],"stateMutability":"view"},{"type":"function","name":"wstETH","inputs":[],"outputs":[{"name":"","type":"address","internalType":"contract IWstETH"}],"stateMutability":"view"},{"type":"event","name":"CollateralRequested","inputs":[{"name":"requestId","type":"bytes32","indexed":true,"internalType":"bytes32"},{"name":"borrower","type":"address","indexed":true,"internalType":"address"},{"name":"amount","type":"uint256","indexed":false,"internalType":"uint256"}],"anonymous":false},{"type":"event","name":"ContributionMade","inputs":[{"name":"requestId","type":"bytes32","indexed":true,"internalType":"bytes32"},{"name":"contributor","type":"address","indexed":true,"internalType":"address"},{"name":"amount","type":"uint256","indexed":false,"internalType":"uint256"}],"anonymous":false},{"type":"event","name":"Deposit","inputs":[{"name":"user","type":"address","indexed":true,"internalType":"address"},{"name":"amount","type":"uint256","indexed":false,"internalType":"uint256"},{"name":"shares","type":"uint256","indexed":false,"internalType":"uint256"}],"anonymous":false},{"type":"event","name":"LoanExecuted","inputs":[{"name":"loanId","type":"bytes32","indexed":true,"internalType":"bytes32"},{"name":"requestId","type":"bytes32","indexed":true,"internalType":"bytes32"},{"name":"borrower","type":"address","indexed":true,"internalType":"address"},{"name":"amount","type":"uint256","indexed":false,"internalType":"uint256"}],"anonymous":false},{"type":"event","name":"MemberAdded","inputs":[{"name":"member","type":"address","indexed":true,"internalType":"address"}],"anonymous":false},{"type":"error","name":"ReentrancyGuardReentrantCall","inputs":[]}],"bytecode":{"object":"0x60e060405234801561000f575f80fd5b5060015f5573420000000000000000000000000000000000000660805273458ed78eb972a369799fb278c0243b25e5242a8360a05273f4b3da4676064d1a98de8e3759b9d0a1231835bc60c05260805160a05160c05161209f6100d35f395f81816101ad015281816107fb01528181610d6b01528181610f4701528181610fe801528181611353015281816113ee015261162a01525f61024a01525f81816101f801528181610c3d01528181610cd70152818161109501526114c6015261209f5ff3fe608060405260043610610129575f3560e01c8063968e5a0d116100a8578063d0e30db01161006d578063d0e30db014610404578063db2e21bc1461040c578063de69b3aa14610420578063e9c241661461044b578063ec1e6bd61461046a578063f290badb1461047e575f80fd5b8063968e5a0d146102cb5780639a4131d3146102ea5780639eab52531461031c578063a230c5241461033d578063c4a908151461037b575f80fd5b806347734892116100ee578063477348921461021a5780634aa07e64146102395780635c1bf8651461026c5780635daf08ca1461028d5780638c3cd02a146102ac575f80fd5b8063222ff53d1461013457806325f6a624146101665780633a98ef39146101875780633b17bb881461019c5780633fc8cef3146101e7575f80fd5b3661013057005b5f80fd5b34801561013f575f80fd5b5061015361014e366004611a40565b61049d565b6040519081526020015b60405180910390f35b348015610171575f80fd5b50610185610180366004611a40565b6104bc565b005b348015610192575f80fd5b5061015360045481565b3480156101a7575f80fd5b506101cf7f000000000000000000000000000000000000000000000000000000000000000081565b6040516001600160a01b03909116815260200161015d565b3480156101f2575f80fd5b506101cf7f000000000000000000000000000000000000000000000000000000000000000081565b348015610225575f80fd5b50610153610234366004611a6d565b6107d3565b348015610244575f80fd5b506101cf7f000000000000000000000000000000000000000000000000000000000000000081565b348015610277575f80fd5b506102806108a7565b60405161015d9190611a86565b348015610298575f80fd5b506101cf6102a7366004611a40565b6108fd565b3480156102b7575f80fd5b506101856102c6366004611c0c565b610925565b3480156102d6575f80fd5b506101536102e5366004611a40565b610a81565b3480156102f5575f80fd5b50610309610304366004611a40565b610a90565b60405161015d9796959493929190611c7b565b348015610327575f80fd5b50610330610b62565b60405161015d9190611cff565b348015610348575f80fd5b5061036b610357366004611a6d565b60026020525f908152604090205460ff1681565b604051901515815260200161015d565b348015610386575f80fd5b506103d0610395366004611a40565b60066020525f9081526040902080546001820154600283015460038401546004909401546001600160a01b0390931693919290919060ff1685565b604080516001600160a01b03909616865260208601949094529284019190915260608301521515608082015260a00161015d565b610185610bc1565b348015610417575f80fd5b50610185610e64565b34801561042b575f80fd5b5061015361043a366004611a6d565b60036020525f908152604090205481565b348015610456575f80fd5b50610153610465366004611a40565b61117f565b348015610475575f80fd5b50610280611774565b348015610489575f80fd5b50610153610498366004611d3f565b6117c8565b600881815481106104ac575f80fd5b5f91825260209091200154905081565b6104c4611968565b5f81815260056020526040902080546001600160a01b03166105215760405162461bcd60e51b815260206004820152601160248201527014995c5d595cdd081b9bdd08199bdd5b99607a1b60448201526064015b60405180910390fd5b600781015460ff16156105695760405162461bcd60e51b815260206004820152601060248201526f105b1c9958591e48195e1958dd5d195960821b6044820152606401610518565b335f9081526002602052604090205460ff166105975760405162461bcd60e51b815260040161051890611e29565b5f805b600383015481101561061557336001600160a01b03168360030182815481106105c5576105c5611e4f565b5f918252602090912001546001600160a01b031603610603578260040181815481106105f3576105f3611e4f565b905f5260205f2001549150610615565b8061060d81611e77565b91505061059a565b505f81116106655760405162461bcd60e51b815260206004820152601860248201527f4e6f20636f6e747269627574696f6e2061737369676e656400000000000000006044820152606401610518565b335f908152600583016020526040902054156106b95760405162461bcd60e51b8152602060048201526013602482015272105b1c9958591e4818dbdb9d1c9a589d5d1959606a1b6044820152606401610518565b6040516323b9a44960e11b81523360048201525f903090634773489290602401602060405180830381865afa1580156106f4573d5f803e3d5ffd5b505050506040513d601f19601f820116820180604052508101906107189190611e8f565b9050818110156107615760405162461bcd60e51b8152602060048201526014602482015273496e73756666696369656e742062616c616e636560601b6044820152606401610518565b335f9081526005840160205260408120839055600684018054849290610788908490611ea6565b9091555050604051828152339085907fb736b18814da81a1581cd71e835c12a580034bd300493d2c7a455ce69a50f7a09060200160405180910390a35050506107d060015f55565b50565b5f6004545f036107e457505f919050565b6040516370a0823160e01b81523060048201525f907f00000000000000000000000000000000000000000000000000000000000000006001600160a01b0316906370a0823190602401602060405180830381865afa158015610848573d5f803e3d5ffd5b505050506040513d601f19601f8201168201806040525081019061086c9190611e8f565b6004546001600160a01b0385165f9081526003602052604090205491925090610896908390611ebf565b6108a09190611ed6565b9392505050565b606060088054806020026020016040519081016040528092919081815260200182805480156108f357602002820191905f5260205f20905b8154815260200190600101908083116108df575b5050505050905090565b6001818154811061090c575f80fd5b5f918252602090912001546001600160a01b0316905081565b6001541561096b5760405162461bcd60e51b8152602060048201526013602482015272105b1c9958591e481a5b9a5d1a585b1a5e9959606a1b6044820152606401610518565b5f5b8251811015610a7b57600183828151811061098a5761098a611e4f565b6020908102919091018101518254600180820185555f9485529284200180546001600160a01b0319166001600160a01b03909216919091179055845190916002918690859081106109dd576109dd611e4f565b60200260200101516001600160a01b03166001600160a01b031681526020019081526020015f205f6101000a81548160ff021916908315150217905550828181518110610a2c57610a2c611e4f565b60200260200101516001600160a01b03167fb251eb052afc73ffd02ffe85ad79990a8b3fed60d76dbc2fa2fdd7123dffd91460405160405180910390a280610a7381611e77565b91505061096d565b50505050565b600781815481106104ac575f80fd5b60056020525f90815260409020805460018201546002830154600684015460078501546008860180546001600160a01b039096169694959394929360ff9092169291610adb90611ef5565b80601f0160208091040260200160405190810160405280929190818152602001828054610b0790611ef5565b8015610b525780601f10610b2957610100808354040283529160200191610b52565b820191905f5260205f20905b815481529060010190602001808311610b3557829003601f168201915b5050505050908060090154905087565b606060018054806020026020016040519081016040528092919081815260200182805480156108f357602002820191905f5260205f20905b81546001600160a01b03168152600190910190602001808311610b9a575050505050905090565b610bc9611968565b5f3411610c0d5760405162461bcd60e51b81526020600482015260126024820152710416d6f756e74206d757374206265203e20360741b6044820152606401610518565b335f9081526002602052604090205460ff16610c3b5760405162461bcd60e51b815260040161051890611e29565b7f00000000000000000000000000000000000000000000000000000000000000006001600160a01b031663d0e30db0346040518263ffffffff1660e01b81526004015f604051808303818588803b158015610c94575f80fd5b505af1158015610ca6573d5f803e3d5ffd5b505060405163095ea7b360e01b815273f4b3da4676064d1a98de8e3759b9d0a1231835bc60048201523460248201527f00000000000000000000000000000000000000000000000000000000000000006001600160a01b0316935063095ea7b3925060440190506020604051808303815f875af1158015610d29573d5f803e3d5ffd5b505050506040513d601f19601f82011682018060405250810190610d4d9190611f2d565b50604051636e553f6560e01b81523460048201523060248201525f907f00000000000000000000000000000000000000000000000000000000000000006001600160a01b031690636e553f65906044016020604051808303815f875af1158015610db9573d5f803e3d5ffd5b505050506040513d601f19601f82011682018060405250810190610ddd9190611e8f565b335f90815260036020526040812080549293508392909190610e00908490611ea6565b925050819055508060045f828254610e189190611ea6565b9091555050604080513481526020810183905233917f90890809c654f11d6e72a28fa60149770a0d11ec6c92319d6ceb2bb0a4ea1a15910160405180910390a250610e6260015f55565b565b335f9081526002602052604090205460ff16610e925760405162461bcd60e51b815260040161051890611e29565b6040516323b9a44960e11b81523360048201525f903090634773489290602401602060405180830381865afa158015610ecd573d5f803e3d5ffd5b505050506040513d601f19601f82011682018060405250810190610ef19190611e8f565b90505f8111610f2f5760405162461bcd60e51b815260206004820152600a6024820152694e6f2062616c616e636560b01b6044820152606401610518565b604051630a28a47760e01b8152600481018290525f907f00000000000000000000000000000000000000000000000000000000000000006001600160a01b031690630a28a47790602401602060405180830381865afa158015610f94573d5f803e3d5ffd5b505050506040513d601f19601f82011682018060405250810190610fb89190611e8f565b604051635d043b2960e11b815260048101829052306024820181905260448201529091505f906001600160a01b037f0000000000000000000000000000000000000000000000000000000000000000169063ba087652906064016020604051808303815f875af115801561102e573d5f803e3d5ffd5b505050506040513d601f19601f820116820180604052508101906110529190611e8f565b335f90815260036020526040812081905560048054929350849290919061107a908490611f4c565b9091555050604051632e1a7d4d60e01b8152600481018290527f00000000000000000000000000000000000000000000000000000000000000006001600160a01b031690632e1a7d4d906024015f604051808303815f87803b1580156110de575f80fd5b505af11580156110f0573d5f803e3d5ffd5b50506040515f925033915083908381818185875af1925050503d805f8114611133576040519150601f19603f3d011682016040523d82523d5f602084013e611138565b606091505b5050905080610a7b5760405162461bcd60e51b8152602060048201526013602482015272115512081d1c985b9cd9995c8819985a5b1959606a1b6044820152606401610518565b5f611188611968565b5f82815260056020526040902080546001600160a01b03166111e05760405162461bcd60e51b815260206004820152601160248201527014995c5d595cdd081b9bdd08199bdd5b99607a1b6044820152606401610518565b600781015460ff16156112285760405162461bcd60e51b815260206004820152601060248201526f105b1c9958591e48195e1958dd5d195960821b6044820152606401610518565b8060020154816006015410156112805760405162461bcd60e51b815260206004820152601a60248201527f496e73756666696369656e7420636f6e747269627574696f6e730000000000006044820152606401610518565b60078101805460ff191660011790556040515f906112ad9085904290602001918252602082015260400190565b60408051601f1981840301815282825280516020918201205f8181526006909252918120855481546001600160a01b0319166001600160a01b0391821617825560018088018054828501556002808a01549085015542600385015560088054928301815585527ff3f7a9fe364faab93b216da50a3214154f22a0a2b415b23a84c8169e8b636ee390910185905554630a28a47760e01b86526004860181905293955090937f000000000000000000000000000000000000000000000000000000000000000090911690630a28a47790602401602060405180830381865afa15801561139a573d5f803e3d5ffd5b505050506040513d601f19601f820116820180604052508101906113be9190611e8f565b604051635d043b2960e11b815260048101829052306024820181905260448201529091505f906001600160a01b037f0000000000000000000000000000000000000000000000000000000000000000169063ba087652906064016020604051808303815f875af1158015611434573d5f803e3d5ffd5b505050506040513d601f19601f820116820180604052508101906114589190611e8f565b9050828110156114aa5760405162461bcd60e51b815260206004820152601d60248201527f496e73756666696369656e74207661756c74207769746864726177616c0000006044820152606401610518565b6001860154604051632e1a7d4d60e01b815260048101919091527f00000000000000000000000000000000000000000000000000000000000000006001600160a01b031690632e1a7d4d906024015f604051808303815f87803b15801561150f575f80fd5b505af1158015611521573d5f803e3d5ffd5b5050875460018901546040515f94506001600160a01b039092169250908381818185875af1925050503d805f8114611574576040519150601f19603f3d011682016040523d82523d5f602084013e611579565b606091505b50509050806115c05760405162461bcd60e51b8152602060048201526013602482015272115512081d1c985b9cd9995c8819985a5b1959606a1b6044820152606401610518565b5f5b6003880154811015611712575f8860030182815481106115e4576115e4611e4f565b5f9182526020808320909101546001600160a01b031680835260058c0190915260409091205490915080156116fd576040516370a0823160e01b81523060048201525f907f00000000000000000000000000000000000000000000000000000000000000006001600160a01b0316906370a0823190602401602060405180830381865afa158015611677573d5f803e3d5ffd5b505050506040513d601f19601f8201168201806040525081019061169b9190611e8f565b6004546116a89084611ebf565b6116b29190611ed6565b6001600160a01b0384165f908152600360205260408120805492935083929091906116de908490611f4c565b925050819055508060045f8282546116f69190611f4c565b9091555050505b5050808061170a90611e77565b9150506115c2565b50865460018801546040519081526001600160a01b03909116908a9088907fbba88c1e49240c20a1d39cb8fde6b32c6731a6e105afe2e83b197721eb804ab09060200160405180910390a450939550505050505061176f60015f55565b919050565b606060078054806020026020016040519081016040528092919081815260200182805480156108f357602002820191905f5260205f20908154815260200190600101908083116108df575050505050905090565b335f9081526002602052604081205460ff166117f65760405162461bcd60e51b815260040161051890611e29565b5f861161183a5760405162461bcd60e51b81526020600482015260126024820152710416d6f756e74206d757374206265203e20360741b6044820152606401610518565b6040516bffffffffffffffffffffffff193360601b166020820152603481018790524260548201524360748201525f9060940160408051601f1981840301815291815281516020928301205f818152600584529190912080546001600160a01b03191633178155600181018a9055600281018990558751919350916118c6916003840191890190611990565b5084516118dc90600483019060208801906119f3565b50600881016118eb8582611fad565b50426009820155600780546001810182555f919091527fa66cc928b5edb82af9bd49922954155ab7b0942694bea4ce44661d9a8736c68801829055604051888152339083907ffe36a66582b635499551d95a0c4321b1a990300a908ec041eb35054f24e5cdfa9060200160405180910390a3509695505050505050565b60025f540361198a57604051633ee5aeb560e01b815260040160405180910390fd5b60025f55565b828054828255905f5260205f209081019282156119e3579160200282015b828111156119e357825182546001600160a01b0319166001600160a01b039091161782556020909201916001909101906119ae565b506119ef929150611a2c565b5090565b828054828255905f5260205f209081019282156119e3579160200282015b828111156119e3578251825591602001919060010190611a11565b5b808211156119ef575f8155600101611a2d565b5f60208284031215611a50575f80fd5b5035919050565b80356001600160a01b038116811461176f575f80fd5b5f60208284031215611a7d575f80fd5b6108a082611a57565b602080825282518282018190525f9190848201906040850190845b81811015611abd57835183529284019291840191600101611aa1565b50909695505050505050565b634e487b7160e01b5f52604160045260245ffd5b604051601f8201601f1916810167ffffffffffffffff81118282101715611b0657611b06611ac9565b604052919050565b5f82601f830112611b1d575f80fd5b813567ffffffffffffffff811115611b3757611b37611ac9565b611b4a601f8201601f1916602001611add565b818152846020838601011115611b5e575f80fd5b816020850160208301375f918101602001919091529392505050565b5f67ffffffffffffffff821115611b9357611b93611ac9565b5060051b60200190565b5f82601f830112611bac575f80fd5b81356020611bc1611bbc83611b7a565b611add565b82815260059290921b84018101918181019086841115611bdf575f80fd5b8286015b84811015611c0157611bf481611a57565b8352918301918301611be3565b509695505050505050565b5f805f60608486031215611c1e575f80fd5b833567ffffffffffffffff80821115611c35575f80fd5b611c4187838801611b0e565b94506020860135915080821115611c56575f80fd5b50611c6386828701611b9d565b925050611c7260408501611a57565b90509250925092565b60018060a01b03881681525f60208881840152876040840152866060840152851515608084015260e060a084015284518060e08501525f5b81811015611cd05786810183015185820161010001528201611cb3565b5061010091505f82828601015281601f19601f830116850101925050508260c083015298975050505050505050565b602080825282518282018190525f9190848201906040850190845b81811015611abd5783516001600160a01b031683529284019291840191600101611d1a565b5f805f805f60a08688031215611d53575f80fd5b853594506020808701359450604087013567ffffffffffffffff80821115611d79575f80fd5b611d858a838b01611b9d565b95506060890135915080821115611d9a575f80fd5b818901915089601f830112611dad575f80fd5b8135611dbb611bbc82611b7a565b81815260059190911b8301840190848101908c831115611dd9575f80fd5b938501935b82851015611df757843582529385019390850190611dde565b965050506080890135925080831115611e0e575f80fd5b5050611e1c88828901611b0e565b9150509295509295909350565b6020808252600c908201526b2737ba10309036b2b6b132b960a11b604082015260600190565b634e487b7160e01b5f52603260045260245ffd5b634e487b7160e01b5f52601160045260245ffd5b5f60018201611e8857611e88611e63565b5060010190565b5f60208284031215611e9f575f80fd5b5051919050565b80820180821115611eb957611eb9611e63565b92915050565b8082028115828204841417611eb957611eb9611e63565b5f82611ef057634e487b7160e01b5f52601260045260245ffd5b500490565b600181811c90821680611f0957607f821691505b602082108103611f2757634e487b7160e01b5f52602260045260245ffd5b50919050565b5f60208284031215611f3d575f80fd5b815180151581146108a0575f80fd5b81810381811115611eb957611eb9611e63565b601f821115611fa8575f81815260208120601f850160051c81016020861015611f855750805b601f850160051c820191505b81811015611fa457828155600101611f91565b5050505b505050565b815167ffffffffffffffff811115611fc757611fc7611ac9565b611fdb81611fd58454611ef5565b84611f5f565b602080601f83116001811461200e575f8415611ff75750858301515b5f19600386901b1c1916600185901b178555611fa4565b5f85815260208120601f198616915b8281101561203c5788860151825594840194600190910190840161201d565b508582101561205957878501515f19600388901b60f8161c191681555b5050505050600190811b0190555056fea2646970667358221220c9e13f31bc0fd376c9f4e38b0799a67ea7bd2acb75e7aeeff236959d8d1cc4f064736f6c63430008140033","linkReferences":{}},"methodIdentifiers":{"allLoanIds(uint256)":"222ff53d","allRequestIds(uint256)":"968e5a0d","collateralRequests(bytes32)":"9a4131d3","contributeToRequest(bytes32)":"25f6a624","deposit()":"d0e30db0","emergencyWithdraw()":"db2e21bc","executeRequest(bytes32)":"e9c24166","getAllLoanIds()":"5c1bf865","getAllRequestIds()":"ec1e6bd6","getMembers()":"9eab5253","getUserBalance(address)":"47734892","initialize(string,address[],address)":"8c3cd02a","isMember(address)":"a230c524","loans(bytes32)":"c4a90815","members(uint256)":"5daf08ca","morphoWethVault()":"3b17bb88","requestCollateral(uint256,uint256,address[],uint256[],string)":"f290badb","totalShares()":"3a98ef39","userShares(address)":"de69b3aa","weth()":"3fc8cef3","wstETH()":"4aa07e64"},"id":25}