{"abi":[{"type":"constructor","inputs":[],"stateMutability":"nonpayable"},{"type":"function","name":"authorizeCircle","inputs":[{"name":"circle","type":"address","internalType":"address"}],"outputs":[],"stateMutability":"nonpayable"},{"type":"function","name":"authorizedCallers","inputs":[{"name":"","type":"address","internalType":"address"}],"outputs":[{"name":"","type":"bool","internalType":"bool"}],"stateMutability":"view"},{"type":"function","name":"owner","inputs":[],"outputs":[{"name":"","type":"address","internalType":"address"}],"stateMutability":"view"},{"type":"function","name":"pool","inputs":[],"outputs":[{"name":"","type":"address","internalType":"contract IVelodromeCLPool"}],"stateMutability":"view"},{"type":"function","name":"swapWETHToWstETH","inputs":[{"name":"wethAmount","type":"uint256","internalType":"uint256"}],"outputs":[{"name":"wstETHReceived","type":"uint256","internalType":"uint256"}],"stateMutability":"nonpayable"},{"type":"function","name":"uniswapV3SwapCallback","inputs":[{"name":"amount0Delta","type":"int256","internalType":"int256"},{"name":"","type":"int256","internalType":"int256"},{"name":"","type":"bytes","internalType":"bytes"}],"outputs":[],"stateMutability":"nonpayable"},{"type":"function","name":"weth","inputs":[],"outputs":[{"name":"","type":"address","internalType":"contract IWETH"}],"stateMutability":"view"},{"type":"function","name":"wstETH","inputs":[],"outputs":[{"name":"","type":"address","internalType":"contract IERC20"}],"stateMutability":"view"},{"type":"event","name":"SwapExecuted","inputs":[{"name":"wethIn","type":"uint256","indexed":false,"internalType":"uint256"},{"name":"wstETHOut","type":"uint256","indexed":false,"internalType":"uint256"}],"anonymous":false}],"bytecode":{"object":"0x60e060405234801561000f575f80fd5b507342000000000000000000000000000000000000066080527376d8de471f54aaa87784119c60df1bbfc852c41560a052739c69e0b64a63aa7daa0b5dc61df3cc77ea05bcb360c052600180546001600160a01b0319163317905560805160a05160c0516108f46100b55f395f8181608e01526103e101525f818161010e0152818161032c0152818161046b015261054301525f818160d201526106ca01526108f45ff3fe608060405234801561000f575f80fd5b5060043610610085575f3560e01c8063536fff6c11610058578063536fff6c146101305780638da5cb5b14610162578063eb84d05a14610175578063fa461e3314610196575f80fd5b806316f0115b146100895780633fc8cef3146100cd5780634a81067d146100f45780634aa07e6414610109575b5f80fd5b6100b07f000000000000000000000000000000000000000000000000000000000000000081565b6040516001600160a01b0390911681526020015b60405180910390f35b6100b07f000000000000000000000000000000000000000000000000000000000000000081565b610107610102366004610784565b6101a9565b005b6100b07f000000000000000000000000000000000000000000000000000000000000000081565b61015261013e366004610784565b5f6020819052908152604090205460ff1681565b60405190151581526020016100c4565b6001546100b0906001600160a01b031681565b6101886101833660046107b1565b610218565b6040519081526020016100c4565b6101076101a43660046107c8565b61063c565b6001546001600160a01b031633146101f55760405162461bcd60e51b815260206004820152600a60248201526927b7363c9037bbb732b960b11b60448201526064015b60405180910390fd5b6001600160a01b03165f908152602081905260409020805460ff19166001179055565b335f9081526020819052604081205460ff166102655760405162461bcd60e51b815260206004820152600c60248201526b155b985d5d1a1bdc9a5e995960a21b60448201526064016101ec565b6040516323b872dd60e01b8152336004820152306024820152604481018390526006602160991b01906323b872dd906064016020604051808303815f875af11580156102b3573d5f803e3d5ffd5b505050506040513d601f19601f820116820180604052508101906102d79190610841565b6103155760405162461bcd60e51b815260206004820152600f60248201526e151c985b9cd9995c8819985a5b1959608a1b60448201526064016101ec565b6040516370a0823160e01b81523060048201525f907f00000000000000000000000000000000000000000000000000000000000000006001600160a01b0316906370a0823190602401602060405180830381865afa158015610379573d5f803e3d5ffd5b505050506040513d601f19601f8201168201806040525081019061039d9190610860565b604051630251596160e31b8152306004820152600160248201819052604482018690526401000276a46064830181905260a060848401525f60a484015292935091907f00000000000000000000000000000000000000000000000000000000000000006001600160a01b03169063128acb089060c40160408051808303815f875af115801561042e573d5f803e3d5ffd5b505050506040513d601f19601f820116820180604052508101906104529190610877565b50506040516370a0823160e01b81523060048201525f907f00000000000000000000000000000000000000000000000000000000000000006001600160a01b0316906370a0823190602401602060405180830381865afa1580156104b8573d5f803e3d5ffd5b505050506040513d601f19601f820116820180604052508101906104dc9190610860565b90506104e88482610899565b94505f85116105275760405162461bcd60e51b815260206004820152600b60248201526a14ddd85c0819985a5b195960aa1b60448201526064016101ec565b60405163a9059cbb60e01b8152336004820152602481018690527f00000000000000000000000000000000000000000000000000000000000000006001600160a01b03169063a9059cbb906044016020604051808303815f875af1158015610591573d5f803e3d5ffd5b505050506040513d601f19601f820116820180604052508101906105b59190610841565b6105fa5760405162461bcd60e51b81526020600482015260166024820152751ddcdd115512081d1c985b9cd9995c8819985a5b195960521b60448201526064016101ec565b60408051878152602081018790527f4f73e5828387c436ef01a51b03853873e76d7a5551556837d452cbeb6f285cb5910160405180910390a150505050919050565b33739c69e0b64a63aa7daa0b5dc61df3cc77ea05bcb3146106925760405162461bcd60e51b815260206004820152601060248201526f496e76616c69642063616c6c6261636b60801b60448201526064016101ec565b5f84131561077e5760405163a9059cbb60e01b8152739c69e0b64a63aa7daa0b5dc61df3cc77ea05bcb36004820152602481018590527f00000000000000000000000000000000000000000000000000000000000000006001600160a01b03169063a9059cbb906044016020604051808303815f875af1158015610718573d5f803e3d5ffd5b505050506040513d601f19601f8201168201806040525081019061073c9190610841565b61077e5760405162461bcd60e51b815260206004820152601360248201527215d15512081c185e5b595b9d0819985a5b1959606a1b60448201526064016101ec565b50505050565b5f60208284031215610794575f80fd5b81356001600160a01b03811681146107aa575f80fd5b9392505050565b5f602082840312156107c1575f80fd5b5035919050565b5f805f80606085870312156107db575f80fd5b8435935060208501359250604085013567ffffffffffffffff80821115610800575f80fd5b818701915087601f830112610813575f80fd5b813581811115610821575f80fd5b886020828501011115610832575f80fd5b95989497505060200194505050565b5f60208284031215610851575f80fd5b815180151581146107aa575f80fd5b5f60208284031215610870575f80fd5b5051919050565b5f8060408385031215610888575f80fd5b505080516020909101519092909150565b818103818111156108b857634e487b7160e01b5f52601160045260245ffd5b9291505056fea2646970667358221220201d01933520a4cba1103ab9bc6226a4499700ea44fea5be03caad4a9d7cfcd764736f6c63430008140033","linkReferences":{}},"methodIdentifiers":{"authorizeCircle(address)":"4a81067d","authorizedCallers(address)":"536fff6c","owner()":"8da5cb5b","pool()":"16f0115b","swapWETHToWstETH(uint256)":"eb84d05a","uniswapV3SwapCallback(int256,int256,bytes)":"fa461e33","weth()":"3fc8cef3","wstETH()":"4aa07e64"},"id":17}