{"abi":[{"type":"constructor","inputs":[{"name":"_registry","type":"address","internalType":"address"}],"stateMutability":"nonpayable"},{"type":"function","name":"allCircles","inputs":[{"name":"","type":"uint256","internalType":"uint256"}],"outputs":[{"name":"","type":"address","internalType":"address"}],"stateMutability":"view"},{"type":"function","name":"createCircle","inputs":[{"name":"name","type":"string","internalType":"string"},{"name":"initialMembers","type":"address[]","internalType":"address[]"}],"outputs":[{"name":"","type":"address","internalType":"address"}],"stateMutability":"nonpayable"},{"type":"function","name":"getCircleCount","inputs":[],"outputs":[{"name":"","type":"uint256","internalType":"uint256"}],"stateMutability":"view"},{"type":"function","name":"getUserCircles","inputs":[{"name":"user","type":"address","internalType":"address"}],"outputs":[{"name":"","type":"address[]","internalType":"address[]"}],"stateMutability":"view"},{"type":"function","name":"nameExists","inputs":[{"name":"","type":"string","internalType":"string"}],"outputs":[{"name":"","type":"bool","internalType":"bool"}],"stateMutability":"view"},{"type":"function","name":"registry","inputs":[],"outputs":[{"name":"","type":"address","internalType":"contract CircleRegistry"}],"stateMutability":"view"},{"type":"function","name":"userCircles","inputs":[{"name":"","type":"address","internalType":"address"},{"name":"","type":"uint256","internalType":"uint256"}],"outputs":[{"name":"","type":"address","internalType":"address"}],"stateMutability":"view"},{"type":"event","name":"CircleCreated","inputs":[{"name":"circleAddress","type":"address","indexed":true,"internalType":"address"},{"name":"name","type":"string","indexed":false,"internalType":"string"},{"name":"creator","type":"address","indexed":true,"internalType":"address"}],"anonymous":false}],"bytecode":{"object":"0x60a060405234801561000f575f80fd5b506040516172dd3803806172dd83398101604081905261002e9161003f565b6001600160a01b031660805261006c565b5f6020828403121561004f575f80fd5b81516001600160a01b0381168114610065575f80fd5b9392505050565b60805161725361008a5f395f818160c2015261052601526172535ff3fe608060405234801562000010575f80fd5b506004361062000084575f3560e01c8063cc637afe116200005f578063cc637afe146200010a578063d1d4f3da146200014c578063e1908c6e1462000163578063e1f2dfce146200017a575f80fd5b80630950dc1f14620000885780637b10399914620000bc57806388e81d8a14620000e4575b5f80fd5b6200009f620000993660046200063a565b6200018b565b6040516001600160a01b0390911681526020015b60405180910390f35b6200009f7f000000000000000000000000000000000000000000000000000000000000000081565b620000fb620000f536600462000665565b620001c0565b604051620000b39190620006cc565b6200013b6200011b3660046200079b565b805160208183018101805160028252928201919093012091525460ff1681565b6040519015158152602001620000b3565b6200009f6200015d366004620007d9565b62000235565b6200009f62000174366004620008b4565b620005e8565b5f54604051908152602001620000b3565b6001602052815f5260405f208181548110620001a5575f80fd5b5f918252602090912001546001600160a01b03169150829050565b6001600160a01b0381165f908152600160209081526040918290208054835181840281018401909452808452606093928301828280156200022957602002820191905f5260205f20905b81546001600160a01b031681526001909101906020018083116200020a575b50505050509050919050565b5f808351116200027c5760405162461bcd60e51b815260206004820152600d60248201526c13985b59481c995c5d5a5c9959609a1b60448201526064015b60405180910390fd5b6002836040516200028e9190620008f0565b9081526040519081900360200190205460ff1615620002de5760405162461bcd60e51b815260206004820152600b60248201526a4e616d652065786973747360a81b604482015260640162000273565b603282511115620003255760405162461bcd60e51b815260206004820152601060248201526f546f6f206d616e79206d656d6265727360801b604482015260640162000273565b5f8251600162000336919062000921565b67ffffffffffffffff811115620003515762000351620006e0565b6040519080825280602002602001820160405280156200037b578160200160208202803683370190505b50905033815f8151811062000394576200039462000937565b60200260200101906001600160a01b031690816001600160a01b0316815250505f5b83518110156200042d57838181518110620003d557620003d562000937565b602002602001015182826001620003ed919062000921565b8151811062000400576200040062000937565b6001600160a01b03909216602092830291909101909101528062000424816200094b565b915050620003b6565b505f848230604051620004409062000610565b6200044e9392919062000993565b604051809103905ff08015801562000468573d5f803e3d5ffd5b505f8054600181810183557f290decd9548b62a8d60345a988386fc84ba6bc95484008f6362f93160ef3e56390910180546001600160a01b0385166001600160a01b03199182168117909255338452602083815260408086208054808701825590875291909520018054909116909117905590519192508291600290620004f1908990620008f0565b908152604051908190036020018120805492151560ff19909316929092179091556318e4ed3d60e21b81526001600160a01b037f00000000000000000000000000000000000000000000000000000000000000001690636393b4f490620005619084908a908890600401620009d4565b5f604051808303815f87803b15801562000579575f80fd5b505af11580156200058c573d5f803e3d5ffd5b50505050336001600160a01b0316816001600160a01b03167f15e639cb5334ee5b47e49005d0ff7b1c2f39098dd2da49668b9085d0659757cc88604051620005d5919062000a17565b60405180910390a3925050505b92915050565b5f8181548110620005f7575f80fd5b5f918252602090912001546001600160a01b0316905081565b6167f28062000a2c83390190565b80356001600160a01b038116811462000635575f80fd5b919050565b5f80604083850312156200064c575f80fd5b62000657836200061e565b946020939093013593505050565b5f6020828403121562000676575f80fd5b62000681826200061e565b9392505050565b5f8151808452602080850194508084015f5b83811015620006c15781516001600160a01b0316875295820195908201906001016200069a565b509495945050505050565b602081525f62000681602083018462000688565b634e487b7160e01b5f52604160045260245ffd5b604051601f8201601f1916810167ffffffffffffffff81118282101715620007205762000720620006e0565b604052919050565b5f82601f83011262000738575f80fd5b813567ffffffffffffffff811115620007555762000755620006e0565b6200076a601f8201601f1916602001620006f4565b8181528460208386010111156200077f575f80fd5b816020850160208301375f918101602001919091529392505050565b5f60208284031215620007ac575f80fd5b813567ffffffffffffffff811115620007c3575f80fd5b620007d18482850162000728565b949350505050565b5f8060408385031215620007eb575f80fd5b823567ffffffffffffffff8082111562000803575f80fd5b620008118683870162000728565b935060209150818501358181111562000828575f80fd5b8501601f8101871362000839575f80fd5b8035828111156200084e576200084e620006e0565b8060051b925062000861848401620006f4565b81815292820184019284810190898511156200087b575f80fd5b928501925b84841015620008a45762000894846200061e565b8252928501929085019062000880565b8096505050505050509250929050565b5f60208284031215620008c5575f80fd5b5035919050565b5f5b83811015620008e8578181015183820152602001620008ce565b50505f910152565b5f825162000903818460208701620008cc565b9190910192915050565b634e487b7160e01b5f52601160045260245ffd5b80820180821115620005e257620005e26200090d565b634e487b7160e01b5f52603260045260245ffd5b5f600182016200095f576200095f6200090d565b5060010190565b5f81518084526200097f816020860160208601620008cc565b601f01601f19169290920160200192915050565b606081525f620009a7606083018662000966565b8281036020840152620009bb818662000688565b91505060018060a01b0383166040830152949350505050565b6001600160a01b03841681526060602082018190525f90620009f99083018562000966565b828103604084015262000a0d818562000688565b9695505050505050565b602081525f6200068160208301846200096656fe61014060405234801562000011575f80fd5b50604051620067f2380380620067f2833981016040819052620000349162000458565b60015f819055620000468482620005c9565b50600280546001600160a01b03199081166001600160a01b038416179091556003805433921682179055733a63171dd9bebf4d07bc782fecc7eb0b890c2a456080527310499d88bd32af443fc936f67de32be1c8bb374c60a05273420000000000000000000000000000000000000660c0527376d8de471f54aaa87784119c60df1bbfc852c41560e052737cbaa98bd5e171a658fdf761ed1db33806a0d3466101005272cd58deebd7a2f1c55daec715faf8aed5b27bf8610120525f9081526005602052604090205460ff16620001a457600380546001600160a01b039081165f90815260056020526040808220805460ff19166001908117909155845460068054928301815584527ff652222313e28459528d920b65115c16c04f3efc82aaedc97be59f3f377c0d3f90910180546001600160a01b0319169185169190911790559254925192909116915f80516020620067d28339815191529190a25b5f5b82518110156200035d575f6001600160a01b0316838281518110620001cf57620001cf62000691565b60200260200101516001600160a01b0316036200021a5760405162461bcd60e51b815260206004820152600560248201526410b0b2323960d91b604482015260640160405180910390fd5b60055f84838151811062000232576200023262000691565b6020908102919091018101516001600160a01b031682528101919091526040015f205460ff166200034857600160055f85848151811062000277576200027762000691565b60200260200101516001600160a01b03166001600160a01b031681526020019081526020015f205f6101000a81548160ff0219169083151502179055506006838281518110620002cb57620002cb62000691565b60209081029190910181015182546001810184555f938452919092200180546001600160a01b0319166001600160a01b0390921691909117905582518390829081106200031c576200031c62000691565b60200260200101516001600160a01b03165f80516020620067d283398151915260405160405180910390a25b806200035481620006a5565b915050620001a6565b50505050620006ca565b634e487b7160e01b5f52604160045260245ffd5b604051601f8201601f191681016001600160401b0381118282101715620003a657620003a662000367565b604052919050565b80516001600160a01b0381168114620003c5575f80fd5b919050565b5f82601f830112620003da575f80fd5b815160206001600160401b03821115620003f857620003f862000367565b8160051b620004098282016200037b565b928352848101820192828101908785111562000423575f80fd5b83870192505b848310156200044d576200043d83620003ae565b8252918301919083019062000429565b979650505050505050565b5f805f606084860312156200046b575f80fd5b83516001600160401b038082111562000482575f80fd5b818601915086601f83011262000496575f80fd5b815181811115620004ab57620004ab62000367565b6020620004c1601f8301601f191682016200037b565b8281528982848701011115620004d5575f80fd5b5f5b83811015620004f4578581018301518282018401528201620004d7565b505f92810182019290925287015190955091508082111562000514575f80fd5b506200052386828701620003ca565b9250506200053460408501620003ae565b90509250925092565b600181811c908216806200055257607f821691505b6020821081036200057157634e487b7160e01b5f52602260045260245ffd5b50919050565b601f821115620005c4575f81815260208120601f850160051c810160208610156200059f5750805b601f850160051c820191505b81811015620005c057828155600101620005ab565b5050505b505050565b81516001600160401b03811115620005e557620005e562000367565b620005fd81620005f684546200053d565b8462000577565b602080601f83116001811462000633575f84156200061b5750858301515b5f19600386901b1c1916600185901b178555620005c0565b5f85815260208120601f198616915b82811015620006635788860151825594840194600190910190840162000642565b50858210156200068157878501515f19600388901b60f8161c191681555b5050505050600190811b01905550565b634e487b7160e01b5f52603260045260245ffd5b5f60018201620006c357634e487b7160e01b5f52601160045260245ffd5b5060010190565b60805160a05160c05160e0516101005161012051615f776200085b5f395f8181610a0b01528181614ba201528181614da501528181614e380152818161556f015261560201525f8181610826015281816114e201528181611571015281816119000152818161198f01528181611fab015281816120610152818161223b015281816122ca015281816127020152818161279101528181614131015281816141770152818161422d0152818161441c01528181614460015281816145ab01528181615277015281816152ac015261532b01525f8181610d0d01528181613ffa015281816146c60152818161499401528181614b2001528181614ef40152818161504a01526154ed01525f81816108b20152818161144f0152818161186d01528181611ace01528181611fda015281816121a8015281816124250152818161295c0152818161301d015281816130c801528181613f62015281816141a60152818161438b0152818161485601528181614d2301528181614fb0015261517d01525f610b7401525f61071d0152615f775ff3fe608060405260043610610403575f3560e01c806379f5995e11610215578063cb909a601161011e578063eb50cdb1116100a8578063f36b242511610078578063f36b242514610e7f578063f975951814610995578063fa461e3314610e93578063fde2d68f14610eb2578063fe96610714610ed1575f80fd5b8063eb50cdb114610dfb578063ef50e2b814610e22578063f290badb14610e41578063f2c75fa014610e60575f80fd5b8063d8bad5bd116100ee578063d8bad5bd14610d56578063de69b3aa14610d75578063dfe287d314610da0578063e1f1c4a714610dc7578063e9c2416614610ddc575f80fd5b8063cb909a6014610cc1578063d0e30db014610cf4578063d1d8bce714610cfc578063d647838414610d2f575f80fd5b80639bf4ec2f1161019f578063ad5c46481161016f578063ad5c464814610c11578063ae99b49314610c2b578063c45a015514610c64578063c699d77414610c83578063ca6d56dc14610ca2575f80fd5b80639bf4ec2f14610baa5780639d86698514610bc9578063a3b49bcb14610848578063a894ffe114610bfd575f80fd5b806389a30271116101e557806389a3027114610ad057806389cde19914610af75780639588dffe14610b3c578063985161c014610b63578063997072f714610b96575f80fd5b806379f5995e14610a425780637d88209714610a8757806385e1f4d014610a9c57806387190d5f14610ab1575f80fd5b80633a98ef391161031757806347734892116102a15780635daf08ca116102715780635daf08ca146109a95780635f7fdfe0146109c857806366dd0f24146109db578063677eb6f4146109fa5780637200a71114610a2d575f80fd5b8063477348921461093a5780634aa07e6414610959578063517ef1d71461098057806354ab790914610995575f80fd5b80633f84210f116102e75780633f84210f1461088e5780633fc8cef3146108a157806340158af6146108d457806340650c91146108fb578063463c1d0a14610913575f80fd5b80633a98ef39146108005780633b17bb88146108155780633e8c6e43146108485780633f0dd5a01461086f575f80fd5b80631b9307201161039857806327117f481161036857806327117f48146106bd578063289fff9e146106d25780632e1a7d4d146106ed578063366ac47c1461070c5780633781898b1461073f575f80fd5b80631b930720146106435780631e634d541461065857806325f6a6241461067f578063263cb6b61461069e575f80fd5b80630da4c628116103d35780630da4c628146105995780630ecd7d55146105bf5780631aeb4908146105e65780631b8a354814610624575f80fd5b806302d05d3f146104f857806306fdde03146105345780630b1ca49a146105555780630d0b2ca614610574575f80fd5b366104f4575f341180156104255750335f9081526005602052604090205460ff165b156104f2576006602160991b016001600160a01b031663d0e30db0346040518263ffffffff1660e01b81526004015f604051808303818588803b15801561046a575f80fd5b505af19350505050801561047c575060015b6104a15760405162461bcd60e51b8152600401610498906156b4565b60405180910390fd5b6104aa34610f00565b335f81815260046020908152604091829020548251348152918201527f90890809c654f11d6e72a28fa60149770a0d11ec6c92319d6ceb2bb0a4ea1a15910160405180910390a25b005b5f80fd5b348015610503575f80fd5b50600354610517906001600160a01b031681565b6040516001600160a01b0390911681526020015b60405180910390f35b34801561053f575f80fd5b50610548610f97565b60405161052b9190615724565b348015610560575f80fd5b506104f261056f36600461574a565b611023565b34801561057f575f80fd5b5061058b6301e1338081565b60405190815260200161052b565b3480156105a4575f80fd5b5061051772cd58deebd7a2f1c55daec715faf8aed5b27bf881565b3480156105ca575f80fd5b50610517739c69e0b64a63aa7daa0b5dc61df3cc77ea05bcb381565b3480156105f1575f80fd5b5061061461060036600461574a565b60056020525f908152604090205460ff1681565b604051901515815260200161052b565b34801561062f575f80fd5b5061058b61063e366004615765565b61128e565b34801561064e575f80fd5b5061058b61213481565b348015610663575f80fd5b506105177310499d88bd32af443fc936f67de32be1c8bb374c81565b34801561068a575f80fd5b506104f2610699366004615765565b6112ad565b3480156106a9575f80fd5b5061058b6106b836600461577c565b61178f565b3480156106c8575f80fd5b5061058b61070881565b3480156106dd575f80fd5b5061058b670d18c2e28000000081565b3480156106f8575f80fd5b506104f2610707366004615765565b6117ba565b348015610717575f80fd5b506105177f000000000000000000000000000000000000000000000000000000000000000081565b34801561074a575f80fd5b506107b0610759366004615765565b600a6020525f90815260409020805460018201546002830154600384015460048501546005860154600687015460078801546008909801546001600160a01b039097169795969495939492939192909160ff169089565b604080516001600160a01b03909a168a5260208a0198909852968801959095526060870193909352608086019190915260a085015260c0840152151560e08301526101008201526101200161052b565b34801561080b575f80fd5b5061058b60075481565b348015610820575f80fd5b506105177f000000000000000000000000000000000000000000000000000000000000000081565b348015610853575f80fd5b506105177304625b046c69577efc40e6c0bb83cdbafab5a55f81565b34801561087a575f80fd5b5061058b6108893660046157a6565b611c87565b6104f261089c366004615765565b611d04565b3480156108ac575f80fd5b506105177f000000000000000000000000000000000000000000000000000000000000000081565b3480156108df575f80fd5b50610517735576629f21d528a8c3e06c338dda907b9456390281565b348015610906575f80fd5b5061058b64e8d4a5100081565b34801561091e575f80fd5b50610517737cbaa98bd5e171a658fdf761ed1db33806a0d34681565b348015610945575f80fd5b5061058b61095436600461574a565b612180565b348015610964575f80fd5b506105177376d8de471f54aaa87784119c60df1bbfc852c41581565b34801561098b575f80fd5b5061058b61032081565b3480156109a0575f80fd5b5061058b603281565b3480156109b4575f80fd5b506105176109c3366004615765565b612386565b3480156109d3575f80fd5b506105175f81565b3480156109e6575f80fd5b506104f26109f5366004615765565b6123ae565b348015610a05575f80fd5b506105177f000000000000000000000000000000000000000000000000000000000000000081565b348015610a38575f80fd5b5061058b6101f481565b348015610a4d575f80fd5b5061058b610a5c3660046157c6565b5f8281526009602090815260408083206001600160a01b038516845260050190915290205492915050565b348015610a92575f80fd5b5061058b60085481565b348015610aa7575f80fd5b5061058b61046f81565b348015610abc575f80fd5b5061058b610acb366004615765565b6124f1565b348015610adb575f80fd5b506105177305d032ac25d322df992303dca074ee7392c117b981565b348015610b02575f80fd5b5061058b610b113660046157c6565b5f8281526009602090815260408083206001600160a01b038516845260040190915290205492915050565b348015610b47575f80fd5b50610517733a63171dd9bebf4d07bc782fecc7eb0b890c2a4581565b348015610b6e575f80fd5b506105177f000000000000000000000000000000000000000000000000000000000000000081565b348015610ba1575f80fd5b5060065461058b565b348015610bb5575f80fd5b5061058b610bc4366004615765565b612514565b348015610bd4575f80fd5b50610be8610be3366004615765565b612523565b60405161052b999897969594939291906157f4565b348015610c08575f80fd5b5061058b612608565b348015610c1c575f80fd5b506105176006602160991b0181565b348015610c36575f80fd5b50610614610c453660046157c6565b600d60209081525f928352604080842090915290825290205460ff1681565b348015610c6f575f80fd5b50600254610517906001600160a01b031681565b348015610c8e575f80fd5b5061058b610c9d36600461589a565b612640565b348015610cad575f80fd5b506104f2610cbc36600461574a565b612c40565b348015610ccc575f80fd5b5061058b7faf10335b50689207d1fd37afd98e87aa0eb209c9074d8655642636223cc5f3a081565b6104f2612da9565b348015610d07575f80fd5b506105177f000000000000000000000000000000000000000000000000000000000000000081565b348015610d3a575f80fd5b506105177331832f2a97fd20664d76cc421207669b55ce4bc081565b348015610d61575f80fd5b5061058b610d7036600461577c565b612ec7565b348015610d80575f80fd5b5061058b610d8f36600461574a565b60046020525f908152604090205481565b348015610dab575f80fd5b50610517737a378060a8a1fc5861d58bfd1a58581ca11ca70c81565b348015610dd2575f80fd5b5061058b61271081565b348015610de7575f80fd5b5061058b610df6366004615765565b612ee0565b348015610e06575f80fd5b506105177301d40099fcd87c018969b0e8d4ab1633fb34763c81565b348015610e2d575f80fd5b506104f2610e3c366004615765565b613635565b348015610e4c575f80fd5b5061058b610e5b366004615923565b6138c9565b348015610e6b575f80fd5b506104f2610e7a366004615765565b613e5f565b348015610e8a575f80fd5b5061058b613eb0565b348015610e9e575f80fd5b506104f2610ead3660046159c8565b613ef3565b348015610ebd575f80fd5b50610614610ecc366004615765565b614074565b348015610edc575f80fd5b50610548604051806040016040528060048152602001634c69736b60e01b81525081565b5f6007545f03610f11575080610f2e565b600854600754610f219084615a2b565b610f2b9190615a42565b90505b335f9081526004602052604081208054839290610f4c908490615a61565b925050819055508060075f828254610f649190615a61565b925050819055508160085f828254610f7c9190615a61565b90915550610f8b90508261412f565b610f936142a2565b5050565b60018054610fa490615a74565b80601f0160208091040260200160405190810160405280929190818152602001828054610fd090615a74565b801561101b5780601f10610ff25761010080835404028352916020019161101b565b820191905f5260205f20905b815481529060010190602001808311610ffe57829003601f168201915b505050505081565b6003546001600160a01b031633146110685760405162461bcd60e51b815260206004820152600860248201526710b1b932b0ba37b960c11b6044820152606401610498565b6001600160a01b0381165f9081526005602052604090205460ff1661109f5760405162461bcd60e51b815260040161049890615aa6565b6003546001600160a01b03908116908216036110e85760405162461bcd60e51b815260206004820152600860248201526710b1b932b0ba37b960c11b6044820152606401610498565b6001600160a01b0381165f90815260046020526040902054156111395760405162461bcd60e51b8152602060048201526009602482015268216465706f7369747360b81b6044820152606401610498565b6001600160a01b0381165f908152600560205260408120805460ff191690555b60065481101561125757816001600160a01b03166006828154811061118057611180615ac7565b5f918252602090912001546001600160a01b03160361124557600680546111a990600190615adb565b815481106111b9576111b9615ac7565b5f91825260209091200154600680546001600160a01b0390921691839081106111e4576111e4615ac7565b905f5260205f20015f6101000a8154816001600160a01b0302191690836001600160a01b03160217905550600680548061122057611220615aee565b5f8281526020902081015f1990810180546001600160a01b0319169055019055611257565b8061124f81615b02565b915050611159565b506040516001600160a01b038216907f6e76fb4c77256006d9c38ec7d82b45a8c8f3c27b1d6766fffc42dfb8de684492905f90a250565b600f818154811061129d575f80fd5b5f91825260209091200154905081565b335f9081526005602052604090205460ff166112db5760405162461bcd60e51b815260040161049890615aa6565b5f8181526009602052604090205481906001600160a01b03166113105760405162461bcd60e51b815260040161049890615b1a565b61131861432c565b5f828152600960205260409020600781015442106113635760405162461bcd60e51b815260206004820152600860248201526708595e1c1a5c995960c21b6044820152606401610498565b600881015460ff16156113a55760405162461bcd60e51b815260206004820152600a60248201526908599d5b199a5b1b195960b21b6044820152606401610498565b335f908152600582016020526040902054806113f05760405162461bcd60e51b815260206004820152600a602482015269085c995c5d595cdd195960b21b6044820152606401610498565b335f908152600483016020526040902054156114365760405162461bcd60e51b815260206004820152600560248201526421646f6e6560d81b6044820152606401610498565b6040516370a0823160e01b815230600482015281905f907f00000000000000000000000000000000000000000000000000000000000000006001600160a01b0316906370a0823190602401602060405180830381865afa15801561149c573d5f803e3d5ffd5b505050506040513d601f19601f820116820180604052508101906114c09190615b38565b6040516370a0823160e01b81523060048201529091505f906001600160a01b037f000000000000000000000000000000000000000000000000000000000000000016906370a0823190602401602060405180830381865afa158015611527573d5f803e3d5ffd5b505050506040513d601f19601f8201168201806040525081019061154b9190615b38565b90505f80821161155b575f6115e2565b6040516303d1689d60e11b8152600481018390527f00000000000000000000000000000000000000000000000000000000000000006001600160a01b0316906307a2d13a90602401602060405180830381865afa1580156115be573d5f803e3d5ffd5b505050506040513d601f19601f820116820180604052508101906115e29190615b38565b90505f6115ef8285615a61565b90505f8060075411611601575f611628565b600754335f9081526004602052604090205461161e908490615a2b565b6116289190615a42565b90508581101561164a5760405162461bcd60e51b815260040161049890615b4f565b5f826007548861165a9190615a2b565b6116649190615a42565b335f908152600460205260409020549091508111156116955760405162461bcd60e51b815260040161049890615b71565b335f90815260046020526040812080548392906116b3908490615adb565b925050819055508060075f8282546116cb9190615adb565b925050819055508660085f8282546116e39190615adb565b9091555050335f90815260048a01602052604081208054899290611708908490615a61565b9250508190555086896006015f8282546117229190615a61565b9091555050600289015460068a0154106117465760088901805460ff191660011790555b60405187815233908c907fb736b18814da81a1581cd71e835c12a580034bd300493d2c7a455ce69a50f7a09060200160405180910390a3505050505050505050610f9360015f55565b600b602052815f5260405f2081815481106117a8575f80fd5b905f5260205f20015f91509150505481565b335f9081526005602052604090205460ff166117e85760405162461bcd60e51b815260040161049890615aa6565b6117f061432c565b5f811161180f5760405162461bcd60e51b815260040161049890615b71565b335f908152600460205260409020548111156118565760405162461bcd60e51b8152600401610498906020808252600490820152630858985b60e21b604082015260600190565b6040516370a0823160e01b81523060048201525f907f00000000000000000000000000000000000000000000000000000000000000006001600160a01b0316906370a0823190602401602060405180830381865afa1580156118ba573d5f803e3d5ffd5b505050506040513d601f19601f820116820180604052508101906118de9190615b38565b6040516370a0823160e01b81523060048201529091505f906001600160a01b037f000000000000000000000000000000000000000000000000000000000000000016906370a0823190602401602060405180830381865afa158015611945573d5f803e3d5ffd5b505050506040513d601f19601f820116820180604052508101906119699190615b38565b90505f808211611979575f611a00565b6040516303d1689d60e11b8152600481018390527f00000000000000000000000000000000000000000000000000000000000000006001600160a01b0316906307a2d13a90602401602060405180830381865afa1580156119dc573d5f803e3d5ffd5b505050506040513d601f19601f82011682018060405250810190611a009190615b38565b90505f611a0d8285615a61565b90505f6007548287611a1f9190615a2b565b611a299190615a42565b90505f8111611a645760405162461bcd60e51b81526020600482015260076024820152662161737365747360c81b6044820152606401610498565b335f9081526004602052604081208054889290611a82908490615adb565b925050819055508560075f828254611a9a9190615adb565b925050819055508060085f828254611ab29190615adb565b90915550506040516370a0823160e01b81523060048201525f907f00000000000000000000000000000000000000000000000000000000000000006001600160a01b0316906370a0823190602401602060405180830381865afa158015611b1b573d5f803e3d5ffd5b505050506040513d601f19601f82011682018060405250810190611b3f9190615b38565b905081811015611b62575f611b548284615adb565b9050611b5f81614354565b50505b604051632e1a7d4d60e01b8152600481018390526006602160991b0190632e1a7d4d906024015f604051808303815f87803b158015611b9f575f80fd5b505af1925050508015611bb0575060015b611bcc5760405162461bcd60e51b815260040161049890615b92565b611bd46142a2565b6040515f90339084908381818185875af1925050503d805f8114611c13576040519150601f19603f3d011682016040523d82523d5f602084013e611c18565b606091505b5050905080611c395760405162461bcd60e51b815260040161049890615bc2565b60408051848152602081018a905233917ff279e6a1f5e320cca91135676d9cb6e44ca8a08c0b88342bcdb1144f6511b568910160405180910390a250505050505050611c8460015f55565b50565b5f612710821115611cda5760405162461bcd60e51b815260206004820152601b60248201527f536c6970706167652063616e6e6f7420657863656564203130302500000000006044820152606401610498565b612710611ce78382615adb565b611cf19085615a2b565b611cfb9190615a42565b90505b92915050565b5f818152600a602052604090205481906001600160a01b0316611d515760405162461bcd60e51b815260206004820152600560248201526410b637b0b760d91b6044820152606401610498565b5f818152600a602052604090206007015460ff16611d9b5760405162461bcd60e51b81526020600482015260076024820152662161637469766560c81b6044820152606401610498565b611da361432c565b5f828152600a6020526040902080546001600160a01b03163314611df55760405162461bcd60e51b815260206004820152600960248201526810b137b93937bbb2b960b91b6044820152606401610498565b5f3411611e145760405162461bcd60e51b815260040161049890615bef565b5f611e1e3461468f565b905080826006015f828254611e339190615a61565b9250508190555034826005015f828254611e4d9190615a61565b9091555050611e5b81614a5c565b5f611e6585614c1c565b8360010154611e749190615a61565b9050808360050154106121115760078301805460ff191690556006830154156120d8575f3490506006602160991b016001600160a01b031663d0e30db0826040518263ffffffff1660e01b81526004015f604051808303818588803b158015611edb575f80fd5b505af193505050508015611eed575060015b611f095760405162461bcd60e51b8152600401610498906156b4565b5f611f18828660060154614c7d565b90505f611f2482614ebd565b90506006602160991b016001600160a01b031663d0e30db0826040518263ffffffff1660e01b81526004015f604051808303818588803b158015611f66575f80fd5b505af193505050508015611f78575060015b611f945760405162461bcd60e51b8152600401610498906156b4565b60405163095ea7b360e01b81526001600160a01b037f000000000000000000000000000000000000000000000000000000000000000081166004830152602482018390527f0000000000000000000000000000000000000000000000000000000000000000169063095ea7b3906044016020604051808303815f875af1158015612020573d5f803e3d5ffd5b505050506040513d601f19601f820116820180604052508101906120449190615c0d565b50604051636e553f6560e01b8152600481018290523060248201527f00000000000000000000000000000000000000000000000000000000000000006001600160a01b031690636e553f65906044016020604051808303815f875af11580156120af573d5f803e3d5ffd5b505050506040513d601f19601f820116820180604052508101906120d39190615b38565b505050505b82546040516001600160a01b039091169086907f23b716d3e9418b29dc6e6e2fb20273ce616849e35b1fc6311e267186fe56d535905f90a35b6121196142a2565b825460058401546001600160a01b039091169086907f54c473734734bdca05fe4cadff5505f8bf9d0c795b46035e3a6a3b16117c31ca90349061215c9086615adb565b6040805192835260208301919091520160405180910390a3505050610f9360015f55565b5f6007545f0361219157505f919050565b6040516370a0823160e01b81523060048201525f907f00000000000000000000000000000000000000000000000000000000000000006001600160a01b0316906370a0823190602401602060405180830381865afa1580156121f5573d5f803e3d5ffd5b505050506040513d601f19601f820116820180604052508101906122199190615b38565b6040516370a0823160e01b81523060048201529091505f906001600160a01b037f000000000000000000000000000000000000000000000000000000000000000016906370a0823190602401602060405180830381865afa158015612280573d5f803e3d5ffd5b505050506040513d601f19601f820116820180604052508101906122a49190615b38565b90505f8082116122b4575f61233b565b6040516303d1689d60e11b8152600481018390527f00000000000000000000000000000000000000000000000000000000000000006001600160a01b0316906307a2d13a90602401602060405180830381865afa158015612317573d5f803e3d5ffd5b505050506040513d601f19601f8201168201806040525081019061233b9190615b38565b90505f6123488285615a61565b6007546001600160a01b0388165f9081526004602052604090205491925090612372908390615a2b565b61237c9190615a42565b9695505050505050565b60068181548110612395575f80fd5b5f918252602090912001546001600160a01b0316905081565b335f9081526005602052604090205460ff166123dc5760405162461bcd60e51b815260040161049890615aa6565b6123e461432c565b5f81116124035760405162461bcd60e51b815260040161049890615bef565b6040516323b872dd60e01b8152336004820152306024820152604481018290527f00000000000000000000000000000000000000000000000000000000000000006001600160a01b0316906323b872dd906064016020604051808303815f875af1158015612473573d5f803e3d5ffd5b505050506040513d601f19601f820116820180604052508101906124979190615c0d565b506124a181610f00565b335f81815260046020908152604091829020548251858152918201527f90890809c654f11d6e72a28fa60149770a0d11ec6c92319d6ceb2bb0a4ea1a15910160405180910390a2611c8460015f55565b5f612710612500603282615adb565b61250a9084615a2b565b611cfe9190615a42565b600e818154811061129d575f80fd5b600960208190525f918252604090912080546001820154600283015460068401546007850154600886015496860180546001600160a01b0390961697949693959294919360ff80841694610100909404169290919061258190615a74565b80601f01602080910402602001604051908101604052809291908181526020018280546125ad90615a74565b80156125f85780601f106125cf576101008083540402835291602001916125f8565b820191905f5260205f20905b8154815290600101906020018083116125db57829003601f168201915b50505050509080600a0154905089565b5f80612612613eb0565b90505f61261d615274565b905080821115612638576126318183615adb565b9250505090565b5f9250505090565b335f9081526005602052604081205460ff1661266e5760405162461bcd60e51b815260040161049890615aa6565b61267661432c565b5f8411801561268457508115155b6126b95760405162461bcd60e51b8152602060048201526006602482015265085a5b9c1d5d60d21b6044820152606401610498565b5f6121346126c961271087615a2b565b6126d39190615a42565b90505f6126e08683615a61565b6040516370a0823160e01b81523060048201529091505f906001600160a01b037f000000000000000000000000000000000000000000000000000000000000000016906370a0823190602401602060405180830381865afa158015612747573d5f803e3d5ffd5b505050506040513d601f19601f8201168201806040525081019061276b9190615b38565b90505f80821161277b575f612802565b6040516303d1689d60e11b8152600481018390527f00000000000000000000000000000000000000000000000000000000000000006001600160a01b0316906307a2d13a90602401602060405180830381865afa1580156127de573d5f803e3d5ffd5b505050506040513d601f19601f820116820180604052508101906128029190615b38565b90505f6007545f1461283a57600754335f9081526004602052604090205461282b908490615a2b565b6128359190615a42565b61283c565b5f5b90508381101561287c5760405162461bcd60e51b815260206004820152600b60248201526a0858dbdb1b185d195c985b60aa1b6044820152606401610498565b335f9081526004602052604081205482906128979087615a2b565b6128a19190615a42565b335f908152600460205260409020549091508111156128d25760405162461bcd60e51b815260040161049890615b71565b335f90815260046020526040812080548392906128f0908490615adb565b925050819055508060075f8282546129089190615adb565b925050819055508460085f8282546129209190615adb565b9091555061292f905085614354565b506040516370a0823160e01b81523060048201526006602160991b0190632e1a7d4d906001600160a01b037f000000000000000000000000000000000000000000000000000000000000000016906370a0823190602401602060405180830381865afa1580156129a1573d5f803e3d5ffd5b505050506040513d601f19601f820116820180604052508101906129c59190615b38565b6040518263ffffffff1660e01b81526004016129e391815260200190565b5f604051808303815f87803b1580156129fa575f80fd5b505af1925050508015612a0b575060015b612a275760405162461bcd60e51b815260040161049890615b92565b475f86612a34838a615a2b565b612a3e9190615a42565b90505f612a4a8261468f565b90505f8111612a835760405162461bcd60e51b8152602060048201526005602482015264021737761760dc1b6044820152606401610498565b6040516bffffffffffffffffffffffff193360601b166020820152426034820152605401604051602081830303815290604052805190602001209950604051806101200160405280336001600160a01b031681526020018e815260200161032081526020014281526020016301e1338081526020015f81526020018281526020016001151581526020015f801b815250600a5f8c81526020019081526020015f205f820151815f015f6101000a8154816001600160a01b0302191690836001600160a01b031602179055506020820151816001015560408201518160020155606082015181600301556080820151816004015560a0820151816005015560c0820151816006015560e0820151816007015f6101000a81548160ff02191690831515021790555061010082015181600801559050505f336001600160a01b0316476040515f6040518083038185875af1925050503d805f8114612c00576040519150601f19603f3d011682016040523d82523d5f602084013e612c05565b606091505b5050905080612c265760405162461bcd60e51b815260040161049890615bc2565b50505050505050505050612c3960015f55565b9392505050565b335f9081526005602052604090205460ff16612c6e5760405162461bcd60e51b815260040161049890615aa6565b6001600160a01b038116612cac5760405162461bcd60e51b815260206004820152600560248201526410b0b2323960d91b6044820152606401610498565b6001600160a01b0381165f9081526005602052604090205460ff1615612ce45760405162461bcd60e51b815260040161049890615aa6565b600654603211612d1e5760405162461bcd60e51b815260206004820152600560248201526408599d5b1b60da1b6044820152606401610498565b6001600160a01b0381165f81815260056020526040808220805460ff1916600190811790915560068054918201815583527ff652222313e28459528d920b65115c16c04f3efc82aaedc97be59f3f377c0d3f0180546001600160a01b03191684179055517fb251eb052afc73ffd02ffe85ad79990a8b3fed60d76dbc2fa2fdd7123dffd9149190a250565b335f9081526005602052604090205460ff16612dd75760405162461bcd60e51b815260040161049890615aa6565b612ddf61432c565b5f3411612dfe5760405162461bcd60e51b815260040161049890615bef565b6006602160991b016001600160a01b031663d0e30db0346040518263ffffffff1660e01b81526004015f604051808303818588803b158015612e3e575f80fd5b505af193505050508015612e50575060015b612e6c5760405162461bcd60e51b8152600401610498906156b4565b612e7534610f00565b335f81815260046020908152604091829020548251348152918201527f90890809c654f11d6e72a28fa60149770a0d11ec6c92319d6ceb2bb0a4ea1a15910160405180910390a2612ec560015f55565b565b600c602052815f5260405f2081815481106117a8575f80fd5b5f8181526009602052604081205482906001600160a01b0316612f155760405162461bcd60e51b815260040161049890615b1a565b612f1d61432c565b5f838152600960205260409020612f3384614074565b612f685760405162461bcd60e51b81526004016104989060208082526004908201526308585b1b60e21b604082015260600190565b6008810154610100900460ff1615612fae5760405162461bcd60e51b815260206004820152600960248201526808595e1958dd5d195960ba1b6044820152606401610498565b80546001600160a01b03163314612ff35760405162461bcd60e51b815260206004820152600960248201526810b137b93937bbb2b960b91b6044820152606401610498565b600681015460018201545f8215613347576040516370a0823160e01b815230600482015283905f907f00000000000000000000000000000000000000000000000000000000000000006001600160a01b0316906370a0823190602401602060405180830381865afa15801561306a573d5f803e3d5ffd5b505050506040513d601f19601f8201168201806040525081019061308e9190615b38565b9050818110156130b1575f6130a38284615adb565b90506130ae81614354565b50505b6040516370a0823160e01b81523060048201525f907f00000000000000000000000000000000000000000000000000000000000000006001600160a01b0316906370a0823190602401602060405180830381865afa158015613115573d5f803e3d5ffd5b505050506040513d601f19601f820116820180604052508101906131399190615b38565b9050828110156131825760405162461bcd60e51b8152602060048201526014602482015273085dd95d1a17d99bdc97d8dbdb1b185d195c985b60621b6044820152606401610498565b604051632e1a7d4d60e01b8152600481018490526006602160991b0190632e1a7d4d906024015f604051808303815f87803b1580156131bf575f80fd5b505af19250505080156131d0575060015b6131ec5760405162461bcd60e51b815260040161049890615b92565b8247101561322c5760405162461bcd60e51b815260206004820152600d60248201526c0216574685f666f725f7377617609c1b6044820152606401610498565b6132358361468f565b93505f84116132755760405162461bcd60e51b815260206004820152600c60248201526b085cddd85c17dc995cdd5b1d60a21b6044820152606401610498565b5f61327f846124f1565b9050808510156132c25760405162461bcd60e51b815260206004820152600e60248201526d21737761705f736c69707061676560901b6044820152606401610498565b5f6132cd8688615447565b604051632e1a7d4d60e01b8152600481018290529097508791506006602160991b0190632e1a7d4d906024015f604051808303815f87803b158015613310575f80fd5b505af1925050508015613321575060015b61333d5760405162461bcd60e51b815260040161049890615b92565b5050505050613385565b814710156133855760405162461bcd60e51b815260206004820152600b60248201526a4c6f772062616c616e636560a81b6044820152606401610498565b6040805160208101899052429181019190915243606082015260800160408051601f1981840301815282825280516020918201206101208401835287546001600160a01b03168452908301859052975081016133df613eb0565b81526020014281526020016301e1338081526020015f815260200182815260200160011515815260200188815250600a5f8881526020019081526020015f205f820151815f015f6101000a8154816001600160a01b0302191690836001600160a01b031602179055506020820151816001015560408201518160020155606082015181600301556080820151816004015560a0820151816005015560c0820151816006015560e0820151816007015f6101000a81548160ff021916908315150217905550610100820151816008015590505060018460080160016101000a81548160ff021916908315150217905550600f86908060018154018082558091505060019003905f5260205f20015f9091909190915055600c5f855f015f9054906101000a90046001600160a01b03166001600160a01b03166001600160a01b031681526020019081526020015f2086908060018154018082558091505060019003905f5260205f20015f90919091909150555f845f015f9054906101000a90046001600160a01b03166001600160a01b0316836040515f6040518083038185875af1925050503d805f81146135ae576040519150601f19603f3d011682016040523d82523d5f602084013e6135b3565b606091505b50509050806135d45760405162461bcd60e51b815260040161049890615bc2565b6135dc6142a2565b84546040518481526001600160a01b039091169088908a907fbba88c1e49240c20a1d39cb8fde6b32c6731a6e105afe2e83b197721eb804ab09060200160405180910390a4505050505061362f60015f55565b50919050565b335f9081526005602052604090205460ff166136635760405162461bcd60e51b815260040161049890615aa6565b5f8181526009602052604090205481906001600160a01b03166136985760405162461bcd60e51b815260040161049890615b1a565b6136a061432c565b5f828152600960205260409020600781015442106136eb5760405162461bcd60e51b815260206004820152600860248201526708595e1c1a5c995960c21b6044820152606401610498565b600881015460ff161561372d5760405162461bcd60e51b815260206004820152600a60248201526908599d5b199a5b1b195960b21b6044820152606401610498565b6008810154610100900460ff16156137735760405162461bcd60e51b815260206004820152600960248201526808595e1958dd5d195960ba1b6044820152606401610498565b5f838152600d6020908152604080832033845290915290205460ff16156137c85760405162461bcd60e51b815260206004820152600960248201526808591958db1a5b995960ba1b6044820152606401610498565b5f805b600383015481101561382a57336001600160a01b03168360030182815481106137f6576137f6615ac7565b5f918252602090912001546001600160a01b031603613818576001915061382a565b8061382281615b02565b9150506137cb565b50806138675760405162461bcd60e51b815260206004820152600c60248201526b10b1b7b73a3934b13aba37b960a11b6044820152606401610498565b5f848152600d602090815260408083203380855290835292819020805460ff191660011790555142815286917f11d54396889aaa7bbd95a32081f57e4d3e8930a034db5c1ddc495617c247e11d910160405180910390a35050610f9360015f55565b335f9081526005602052604081205460ff166138f75760405162461bcd60e51b815260040161049890615aa6565b5f89116139165760405162461bcd60e51b815260040161049890615bef565b5f88116139355760405162461bcd60e51b815260040161049890615bef565b856139725760405162461bcd60e51b815260206004820152600d60248201526c21636f6e7472696275746f727360981b6044820152606401610498565b8584146139ab5760405162461bcd60e51b8152602060048201526007602482015266042d8cadccee8d60cb1b6044820152606401610498565b816139e35760405162461bcd60e51b815260206004820152600860248201526721707572706f736560c01b6044820152606401610498565b5f805b85811015613a2657868682818110613a0057613a00615ac7565b9050602002013582613a129190615a61565b915080613a1e81615b02565b9150506139e6565b50888114613a5f5760405162461bcd60e51b8152600401610498906020808252600490820152632173756d60e01b604082015260600190565b5f5b87811015613b6a5760055f8a8a84818110613a7e57613a7e615ac7565b9050602002016020810190613a93919061574a565b6001600160a01b0316815260208101919091526040015f205460ff16613acb5760405162461bcd60e51b815260040161049890615aa6565b5f878783818110613ade57613ade615ac7565b9050602002013511613b025760405162461bcd60e51b815260040161049890615bef565b64e8d4a51000878783818110613b1a57613b1a615ac7565b905060200201351015613b585760405162461bcd60e51b81526004016104989060208082526004908201526310b6b4b760e11b604082015260600190565b80613b6281615b02565b915050613a61565b506040516323b9a44960e11b81523360048201525f903090634773489290602401602060405180830381865afa158015613ba6573d5f803e3d5ffd5b505050506040513d601f19601f82011682018060405250810190613bca9190615b38565b90505f613bd78b83615a61565b90505f612710613be961213484615a2b565b613bf39190615a42565b9050808d1115613c335760405162461bcd60e51b815260206004820152600b60248201526a0858dbdb1b185d195c985b60aa1b6044820152606401610498565b338d8d89894243604051602001613c509796959493929190615c2c565b60408051601f1981840301815291815281516020928301205f81815260099093529120549095506001600160a01b031615613cba5760405162461bcd60e51b815260206004820152600a60248201526910b1b7b63634b9b4b7b760b11b6044820152606401610498565b5f85815260096020526040902080546001600160a01b03191633178155600181018e9055600281018d9055613cf3600382018d8d61563f565b50613d014262093a80615a61565b600782015560098101613d15888a83615cd1565b5042600a8201555f5b8b811015613d96578a8a82818110613d3857613d38615ac7565b90506020020135826005015f8f8f85818110613d5657613d56615ac7565b9050602002016020810190613d6b919061574a565b6001600160a01b0316815260208101919091526040015f205580613d8e81615b02565b915050613d1e565b50600e86908060018154018082558091505060019003905f5260205f20015f9091909190915055600b5f336001600160a01b03166001600160a01b031681526020019081526020015f2086908060018154018082558091505060019003905f5260205f20015f9091909190915055336001600160a01b0316867f7683fd2f64b564cc1f465cfe7ba6ef99318bf691f1cf4d9f716585f28ce17b6f8f8f8f8d8d604051613e46959493929190615d8c565b60405180910390a3505050505098975050505050505050565b6032811115611c845760405162461bcd60e51b815260206004820181905260248201527f536c6970706167652065786365656473206d6178696d756d20616c6c6f7765646044820152606401610498565b5f80613eba615274565b9050601e5f613ec98284615a61565b9050610320811015613ee057610320935050505090565b6096811115612c39576096935050505090565b33739c69e0b64a63aa7daa0b5dc61df3cc77ea05bcb314613f3e5760405162461bcd60e51b8152602060048201526005602482015264085c1bdbdb60da1b6044820152606401610498565b5f841315613fd65760405163a9059cbb60e01b8152336004820152602481018590527f00000000000000000000000000000000000000000000000000000000000000006001600160a01b03169063a9059cbb906044016020604051808303815f875af1158015613fb0573d5f803e3d5ffd5b505050506040513d601f19601f82011682018060405250810190613fd49190615c0d565b505b5f83131561406e5760405163a9059cbb60e01b8152336004820152602481018490527f00000000000000000000000000000000000000000000000000000000000000006001600160a01b03169063a9059cbb906044016020604051808303815f875af1158015614048573d5f803e3d5ffd5b505050506040513d601f19601f8201168201806040525081019061406c9190615c0d565b505b50505050565b5f818152600960205260408120815b6003820154811015614125575f8260030182815481106140a5576140a5615ac7565b5f9182526020808320909101546001600160a01b031680835260048601909152604090912054909150156140d95750614113565b5f858152600d602090815260408083206001600160a01b038516845290915290205460ff16156141095750614113565b505f949350505050565b8061411d81615b02565b915050614083565b5060019392505050565b7f00000000000000000000000000000000000000000000000000000000000000006001600160a01b03166141605750565b60405163095ea7b360e01b81526001600160a01b037f000000000000000000000000000000000000000000000000000000000000000081166004830152602482018390527f0000000000000000000000000000000000000000000000000000000000000000169063095ea7b3906044016020604051808303815f875af11580156141ec573d5f803e3d5ffd5b505050506040513d601f19601f820116820180604052508101906142109190615c0d565b50604051636e553f6560e01b8152600481018290523060248201527f00000000000000000000000000000000000000000000000000000000000000006001600160a01b031690636e553f65906044016020604051808303815f875af1925050508015614299575060408051601f3d908101601f1916820190925261429691810190615b38565b60015b15611c84575050565b6002546001600160a01b03166142b457565b600254600854600754600654604051636b8ff2df60e11b81523060048201526024810193909352604483019190915260648201526001600160a01b039091169063d71fe5be906084015f604051808303815f87803b158015614314575f80fd5b505af1925050508015614325575060015b15612ec557565b60025f540361434e57604051633ee5aeb560e01b815260040160405180910390fd5b60025f55565b5f8082116143745760405162461bcd60e51b815260040161049890615bef565b6040516370a0823160e01b81523060048201525f907f00000000000000000000000000000000000000000000000000000000000000006001600160a01b0316906370a0823190602401602060405180830381865afa1580156143d8573d5f803e3d5ffd5b505050506040513d601f19601f820116820180604052508101906143fc9190615b38565b905082811061440d57505f92915050565b5f6144188285615adb565b90507f00000000000000000000000000000000000000000000000000000000000000006001600160a01b03161561465f576040516370a0823160e01b81523060048201525f907f00000000000000000000000000000000000000000000000000000000000000006001600160a01b0316906307a2d13a9082906370a0823190602401602060405180830381865afa1580156144b5573d5f803e3d5ffd5b505050506040513d601f19601f820116820180604052508101906144d99190615b38565b6040518263ffffffff1660e01b81526004016144f791815260200190565b602060405180830381865afa158015614512573d5f803e3d5ffd5b505050506040513d601f19601f820116820180604052508101906145369190615b38565b9050818110156145885760405162461bcd60e51b815260206004820152601a60248201527f496e73756666696369656e74207661756c742062616c616e63650000000000006044820152606401610498565b604051632d182be560e21b815260048101839052306024820181905260448201527f00000000000000000000000000000000000000000000000000000000000000006001600160a01b03169063b460af94906064016020604051808303815f875af1925050508015614617575060408051601f3d908101601f1916820190925261461491810190615b38565b60015b61465757848310156141095760405162461bcd60e51b815260206004820152600960248201526821776974686472617760b81b6044820152606401610498565b935050614688565b8382101561467f5760405162461bcd60e51b815260040161049890615b4f565b505f9392505050565b5050919050565b5f8082116146af5760405162461bcd60e51b815260040161049890615bef565b6040516370a0823160e01b81523060048201525f907f00000000000000000000000000000000000000000000000000000000000000006001600160a01b0316906370a0823190602401602060405180830381865afa158015614713573d5f803e3d5ffd5b505050506040513d601f19601f820116820180604052508101906147379190615b38565b90506006602160991b016001600160a01b031663d0e30db0846040518263ffffffff1660e01b81526004015f604051808303818588803b158015614779575f80fd5b505af19350505050801561478b575060015b6147a75760405162461bcd60e51b8152600401610498906156b4565b5f739c69e0b64a63aa7daa0b5dc61df3cc77ea05bcb390505f816001600160a01b0316630dfe16816040518163ffffffff1660e01b8152600401602060405180830381865afa1580156147fc573d5f803e3d5ffd5b505050506040513d601f19601f820116820180604052508101906148209190615e0a565b60405163095ea7b360e01b81526001600160a01b038481166004830152602482018890529192506006602160991b0182841614917f0000000000000000000000000000000000000000000000000000000000000000169063095ea7b3906044016020604051808303815f875af115801561489c573d5f803e3d5ffd5b505050506040513d601f19601f820116820180604052508101906148c09190615c0d565b505f6148cb876124f1565b604051630251596160e31b81529091506001600160a01b0385169063128acb089061490090309086908c905f90600401615e25565b60408051808303815f875af1925050508015614939575060408051601f3d908101601f1916820190925261493691810190615e5e565b60015b61497d5760405162461bcd60e51b815260206004820152601560248201527415995b1bd91c9bdb59481cddd85c0819985a5b1959605a1b6044820152606401610498565b6040516370a0823160e01b81523060048201525f907f00000000000000000000000000000000000000000000000000000000000000006001600160a01b0316906370a0823190602401602060405180830381865afa1580156149e1573d5f803e3d5ffd5b505050506040513d601f19601f82011682018060405250810190614a059190615b38565b9050614a118882615adb565b985083891015614a4f5760405162461bcd60e51b815260206004820152600960248201526821736c69707061676560b81b6044820152606401610498565b5050505050505050919050565b5f8111614a7b5760405162461bcd60e51b815260040161049890615bef565b6040805160a0810182526006602160991b0181527376d8de471f54aaa87784119c60df1bbfc852c4156020820152737a378060a8a1fc5861d58bfd1a58581ca11ca70c81830152735576629f21d528a8c3e06c338dda907b945639026060820152670d18c2e2800000006080820152905163095ea7b360e01b815272cd58deebd7a2f1c55daec715faf8aed5b27bf86004820152602481018390526001600160a01b037f0000000000000000000000000000000000000000000000000000000000000000169063095ea7b3906044016020604051808303815f875af1158015614b66573d5f803e3d5ffd5b505050506040513d601f19601f82011682018060405250810190614b8a9190615c0d565b5060405163a99aad8960e01b81526001600160a01b037f0000000000000000000000000000000000000000000000000000000000000000169063a99aad8990614bdd90849086905f903090600401615ebf565b60408051808303815f875af1158015614bf8573d5f803e3d5ffd5b505050506040513d601f19601f8201168201806040525081019061406e9190615e5e565b5f818152600a6020526040812060038101548290614c3a9042615adb565b9050614c4c6127106301e13380615a2b565b8183600201548460010154614c619190615a2b565b614c6b9190615a2b565b614c759190615a42565b949350505050565b5f6040805160a0810182526006602160991b0181527376d8de471f54aaa87784119c60df1bbfc852c4156020820152737a378060a8a1fc5861d58bfd1a58581ca11ca70c81830152735576629f21d528a8c3e06c338dda907b945639026060820152670d18c2e2800000006080820152905163095ea7b360e01b815272cd58deebd7a2f1c55daec715faf8aed5b27bf86004820152602481018590526001600160a01b037f0000000000000000000000000000000000000000000000000000000000000000169063095ea7b3906044016020604051808303815f875af1158015614d69573d5f803e3d5ffd5b505050506040513d601f19601f82011682018060405250810190614d8d9190615c0d565b506040516320b76e8160e01b81526001600160a01b037f000000000000000000000000000000000000000000000000000000000000000016906320b76e8190614de090849088905f903090600401615ebf565b60408051808303815f875af1158015614dfb573d5f803e3d5ffd5b505050506040513d601f19601f82011682018060405250810190614e1f9190615e5e565b5050604051635c2bea4960e01b81526001600160a01b037f00000000000000000000000000000000000000000000000000000000000000001690635c2bea4990614e759084905f90889030908190600401615f05565b60408051808303815f875af1158015614e90573d5f803e3d5ffd5b505050506040513d601f19601f82011682018060405250810190614eb49190615e5e565b50949350505050565b5f808211614edd5760405162461bcd60e51b815260040161049890615bef565b6040516370a0823160e01b815230600482015282907f00000000000000000000000000000000000000000000000000000000000000006001600160a01b0316906370a0823190602401602060405180830381865afa158015614f41573d5f803e3d5ffd5b505050506040513d601f19601f82011682018060405250810190614f659190615b38565b1015614f835760405162461bcd60e51b815260040161049890615b4f565b6040516370a0823160e01b8152306004820152739c69e0b64a63aa7daa0b5dc61df3cc77ea05bcb3905f907f00000000000000000000000000000000000000000000000000000000000000006001600160a01b0316906370a0823190602401602060405180830381865afa158015614ffd573d5f803e3d5ffd5b505050506040513d601f19601f820116820180604052508101906150219190615b38565b60405163095ea7b360e01b81526001600160a01b038481166004830152602482018790529192507f00000000000000000000000000000000000000000000000000000000000000009091169063095ea7b3906044016020604051808303815f875af1158015615092573d5f803e3d5ffd5b505050506040513d601f19601f820116820180604052508101906150b69190615c0d565b50604051630251596160e31b81525f906001600160a01b0384169063128acb08906150eb90309085908a908290600401615e25565b60408051808303815f875af1925050508015615124575060408051601f3d908101601f1916820190925261512191810190615e5e565b60015b6151665760405162461bcd60e51b815260206004820152601360248201527214995d995c9cd9481cddd85c0819985a5b1959606a1b6044820152606401610498565b6040516370a0823160e01b81523060048201525f907f00000000000000000000000000000000000000000000000000000000000000006001600160a01b0316906370a0823190602401602060405180830381865afa1580156151ca573d5f803e3d5ffd5b505050506040513d601f19601f820116820180604052508101906151ee9190615b38565b90505f6151fb8683615adb565b604051632e1a7d4d60e01b8152600481018290529091506006602160991b0190632e1a7d4d906024015f604051808303815f87803b15801561523b575f80fd5b505af192505050801561524c575060015b6152685760405162461bcd60e51b815260040161049890615b92565b98975050505050505050565b5f7f00000000000000000000000000000000000000000000000000000000000000006001600160a01b03166152aa57506101f490565b7f00000000000000000000000000000000000000000000000000000000000000006001600160a01b03166301e1d1146040518163ffffffff1660e01b8152600401602060405180830381865afa925050508015615324575060408051601f3d908101601f1916820190925261532191810190615b38565b60015b15615440577f00000000000000000000000000000000000000000000000000000000000000006001600160a01b03166318160ddd6040518163ffffffff1660e01b8152600401602060405180830381865afa9250505080156153a3575060408051601f3d908101601f191682019092526153a091810190615b38565b60015b1561543e57805f036153b9576101f49250505090565b5f816153cd84670de0b6b3a7640000615a2b565b6153d79190615a42565b9050670de0b6b3a764000081111561543b575f670de0b6b3a76400006127106154008285615adb565b61540a9190615a2b565b6154149190615a42565b90506107d081111561542557506107d05b6101f4811015614c7557506101f4949350505050565b50505b505b506101f490565b5f6040805160a0810182526006602160991b0181527376d8de471f54aaa87784119c60df1bbfc852c4156020820152737a378060a8a1fc5861d58bfd1a58581ca11ca70c81830152735576629f21d528a8c3e06c338dda907b945639026060820152670d18c2e2800000006080820152905163095ea7b360e01b815272cd58deebd7a2f1c55daec715faf8aed5b27bf86004820152602481018590526001600160a01b037f0000000000000000000000000000000000000000000000000000000000000000169063095ea7b3906044016020604051808303815f875af1158015615533573d5f803e3d5ffd5b505050506040513d601f19601f820116820180604052508101906155579190615c0d565b5060405163a99aad8960e01b81526001600160a01b037f0000000000000000000000000000000000000000000000000000000000000000169063a99aad89906155aa90849088905f903090600401615ebf565b60408051808303815f875af11580156155c5573d5f803e3d5ffd5b505050506040513d601f19601f820116820180604052508101906155e99190615e5e565b50506040516350d8cd4b60e01b81526001600160a01b037f000000000000000000000000000000000000000000000000000000000000000016906350d8cd4b90614e7590849087905f9030908190600401615f05565b828054828255905f5260205f20908101928215615690579160200282015b828111156156905781546001600160a01b0319166001600160a01b0384351617825560209092019160019091019061565d565b5061569c9291506156a0565b5090565b5b8082111561569c575f81556001016156a1565b60208082526013908201527215d155120819195c1bdcda5d0819985a5b1959606a1b604082015260600190565b5f81518084525f5b81811015615705576020818501810151868301820152016156e9565b505f602082860101526020601f19601f83011685010191505092915050565b602081525f611cfb60208301846156e1565b6001600160a01b0381168114611c84575f80fd5b5f6020828403121561575a575f80fd5b8135612c3981615736565b5f60208284031215615775575f80fd5b5035919050565b5f806040838503121561578d575f80fd5b823561579881615736565b946020939093013593505050565b5f80604083850312156157b7575f80fd5b50508035926020909101359150565b5f80604083850312156157d7575f80fd5b8235915060208301356157e981615736565b809150509250929050565b5f61012060018060a01b038c1683528a602084015289604084015288606084015287608084015286151560a084015285151560c08401528060e084015261583d818401866156e1565b915050826101008301529a9950505050505050505050565b5f8083601f840112615865575f80fd5b50813567ffffffffffffffff81111561587c575f80fd5b602083019150836020828501011115615893575f80fd5b9250929050565b5f805f604084860312156158ac575f80fd5b83359250602084013567ffffffffffffffff8111156158c9575f80fd5b6158d586828701615855565b9497909650939450505050565b5f8083601f8401126158f2575f80fd5b50813567ffffffffffffffff811115615909575f80fd5b6020830191508360208260051b8501011115615893575f80fd5b5f805f805f805f8060a0898b03121561593a575f80fd5b8835975060208901359650604089013567ffffffffffffffff8082111561595f575f80fd5b61596b8c838d016158e2565b909850965060608b0135915080821115615983575f80fd5b61598f8c838d016158e2565b909650945060808b01359150808211156159a7575f80fd5b506159b48b828c01615855565b999c989b5096995094979396929594505050565b5f805f80606085870312156159db575f80fd5b8435935060208501359250604085013567ffffffffffffffff8111156159ff575f80fd5b615a0b87828801615855565b95989497509550505050565b634e487b7160e01b5f52601160045260245ffd5b8082028115828204841417611cfe57611cfe615a17565b5f82615a5c57634e487b7160e01b5f52601260045260245ffd5b500490565b80820180821115611cfe57611cfe615a17565b600181811c90821680615a8857607f821691505b60208210810361362f57634e487b7160e01b5f52602260045260245ffd5b60208082526007908201526610b6b2b6b132b960c91b604082015260600190565b634e487b7160e01b5f52603260045260245ffd5b81810381811115611cfe57611cfe615a17565b634e487b7160e01b5f52603160045260245ffd5b5f60018201615b1357615b13615a17565b5060010190565b6020808252600490820152632172657160e01b604082015260600190565b5f60208284031215615b48575f80fd5b5051919050565b6020808252600890820152672162616c616e636560c01b604082015260600190565b6020808252600790820152662173686172657360c81b604082015260600190565b60208082526016908201527515d15512081dda5d1a191c985dd85b0819985a5b195960521b604082015260600190565b602080825260139082015272115512081d1c985b9cd9995c8819985a5b1959606a1b604082015260600190565b60208082526004908201526308585b5d60e21b604082015260600190565b5f60208284031215615c1d575f80fd5b81518015158114612c39575f80fd5b6bffffffffffffffffffffffff198860601b1681528660148201528560348201528385605483013760549301928301919091526074820152609401949350505050565b634e487b7160e01b5f52604160045260245ffd5b601f821115615ccc575f81815260208120601f850160051c81016020861015615ca95750805b601f850160051c820191505b81811015615cc857828155600101615cb5565b5050505b505050565b67ffffffffffffffff831115615ce957615ce9615c6f565b615cfd83615cf78354615a74565b83615c83565b5f601f841160018114615d2e575f8515615d175750838201355b5f19600387901b1c1916600186901b17835561406c565b5f83815260209020601f19861690835b82811015615d5e5786850135825560209485019460019092019101615d3e565b5086821015615d7a575f1960f88860031b161c19848701351681555b505060018560011b0183555050505050565b858152606060208083018290529082018590525f90869060808401835b88811015615dd7578335615dbc81615736565b6001600160a01b031682529282019290820190600101615da9565b5084810360408601528581528587838301375f818701830152601f909501601f1916909401909301979650505050505050565b5f60208284031215615e1a575f80fd5b8151612c3981615736565b6001600160a01b03948516815292151560208401526040830191909152909116606082015260a0608082018190525f9082015260c00190565b5f8060408385031215615e6f575f80fd5b505080516020909101519092909150565b80516001600160a01b03908116835260208083015182169084015260408083015182169084015260608083015190911690830152608090810151910152565b5f610120615ecd8388615e80565b60a08301959095525060c08101929092526001600160a01b031660e082015261010081018290525f9181019190915261014001919050565b6101208101615f148288615e80565b60a082019590955260c08101939093526001600160a01b0391821660e0840152166101009091015291905056fea2646970667358221220b97938926363c578ab91fd69dff1c46fb1ce9433867a1fbbb6ed110a0c68f5de64736f6c63430008140033b251eb052afc73ffd02ffe85ad79990a8b3fed60d76dbc2fa2fdd7123dffd914a264697066735822122089a3ac01ab7bfae025361c7ebde04ff78e22f76595d13a25764e75e2a0fb448964736f6c63430008140033","linkReferences":{}},"methodIdentifiers":{"allCircles(uint256)":"e1908c6e","createCircle(string,address[])":"d1d4f3da","getCircleCount()":"e1f2dfce","getUserCircles(address)":"88e81d8a","nameExists(string)":"cc637afe","registry()":"7b103999","userCircles(address,uint256)":"0950dc1f"},"id":44}