{"abi":[{"type":"constructor","inputs":[],"stateMutability":"nonpayable"},{"type":"function","name":"authorizeCircle","inputs":[{"name":"circle","type":"address","internalType":"address"}],"outputs":[],"stateMutability":"nonpayable"},{"type":"function","name":"authorizedCallers","inputs":[{"name":"","type":"address","internalType":"address"}],"outputs":[{"name":"","type":"bool","internalType":"bool"}],"stateMutability":"view"},{"type":"function","name":"owner","inputs":[],"outputs":[{"name":"","type":"address","internalType":"address"}],"stateMutability":"view"},{"type":"function","name":"pool","inputs":[],"outputs":[{"name":"","type":"address","internalType":"contract IVelodromeCLPool"}],"stateMutability":"view"},{"type":"function","name":"swapWETHToWstETH","inputs":[{"name":"wethAmount","type":"uint256","internalType":"uint256"}],"outputs":[{"name":"wstETHReceived","type":"uint256","internalType":"uint256"}],"stateMutability":"nonpayable"},{"type":"function","name":"uniswapV3SwapCallback","inputs":[{"name":"amount0Delta","type":"int256","internalType":"int256"},{"name":"amount1Delta","type":"int256","internalType":"int256"},{"name":"","type":"bytes","internalType":"bytes"}],"outputs":[],"stateMutability":"nonpayable"},{"type":"function","name":"weth","inputs":[],"outputs":[{"name":"","type":"address","internalType":"contract IWETH"}],"stateMutability":"view"},{"type":"event","name":"SwapExecuted","inputs":[{"name":"wethIn","type":"uint256","indexed":false,"internalType":"uint256"},{"name":"wstETHOut","type":"uint256","indexed":false,"internalType":"uint256"}],"anonymous":false}],"bytecode":{"object":"0x60c060405234801561000f575f80fd5b50734200000000000000000000000000000000000006608052739c69e0b64a63aa7daa0b5dc61df3cc77ea05bcb360a052600180546001600160a01b0319163317905560805160a0516109d461008d5f395f8181608301528181610389015261048e01525f818160c70152818161031301526106d701526109d45ff3fe608060405234801561000f575f80fd5b506004361061007a575f3560e01c8063536fff6c11610058578063536fff6c146100fe5780638da5cb5b14610130578063eb84d05a14610143578063fa461e3314610164575f80fd5b806316f0115b1461007e5780633fc8cef3146100c25780634a81067d146100e9575b5f80fd5b6100a57f000000000000000000000000000000000000000000000000000000000000000081565b6040516001600160a01b0390911681526020015b60405180910390f35b6100a57f000000000000000000000000000000000000000000000000000000000000000081565b6100fc6100f7366004610768565b610177565b005b61012061010c366004610768565b5f6020819052908152604090205460ff1681565b60405190151581526020016100b9565b6001546100a5906001600160a01b031681565b61015661015136600461078a565b6101e6565b6040519081526020016100b9565b6100fc6101723660046107a1565b610649565b6001546001600160a01b031633146101c35760405162461bcd60e51b815260206004820152600a60248201526927b7363c9037bbb732b960b11b60448201526064015b60405180910390fd5b6001600160a01b03165f908152602081905260409020805460ff19166001179055565b335f9081526020819052604081205460ff166102335760405162461bcd60e51b815260206004820152600c60248201526b155b985d5d1a1bdc9a5e995960a21b60448201526064016101ba565b6040516323b872dd60e01b8152336004820152306024820152604481018390526006602160991b01906323b872dd906064016020604051808303815f875af1158015610281573d5f803e3d5ffd5b505050506040513d601f19601f820116820180604052508101906102a5919061082e565b6102e35760405162461bcd60e51b815260206004820152600f60248201526e151c985b9cd9995c8819985a5b1959608a1b60448201526064016101ba565b60405163095ea7b360e01b8152739c69e0b64a63aa7daa0b5dc61df3cc77ea05bcb36004820152602481018390527f00000000000000000000000000000000000000000000000000000000000000006001600160a01b03169063095ea7b3906044016020604051808303815f875af1158015610361573d5f803e3d5ffd5b505050506040513d601f19601f82011682018060405250810190610385919061082e565b505f7f00000000000000000000000000000000000000000000000000000000000000006001600160a01b0316633850c7bd6040518163ffffffff1660e01b815260040160e060405180830381865afa1580156103e3573d5f803e3d5ffd5b505050506040513d601f19601f820116820180604052508101906104079190610858565b50505050505090505f603290505f61271082846001600160a01b031661042d91906108ff565b610437919061091c565b905060015f610446838661093b565b604051630251596160e31b81523060048201528315156024820152604481018990526001600160a01b03828116606483015260a060848301525f60a4830181905292935082917f00000000000000000000000000000000000000000000000000000000000000009091169063128acb089060c40160408051808303815f875af11580156104d5573d5f803e3d5ffd5b505050506040513d601f19601f820116820180604052508101906104f99190610962565b915091508061050790610984565b97505f88116105465760405162461bcd60e51b815260206004820152600b60248201526a14ddd85c0819985a5b195960aa1b60448201526064016101ba565b60405163a9059cbb60e01b8152336004820152602481018990527376d8de471f54aaa87784119c60df1bbfc852c4159063a9059cbb906044016020604051808303815f875af115801561059b573d5f803e3d5ffd5b505050506040513d601f19601f820116820180604052508101906105bf919061082e565b6106045760405162461bcd60e51b81526020600482015260166024820152751ddcdd115512081d1c985b9cd9995c8819985a5b195960521b60448201526064016101ba565b604080518a8152602081018a90527f4f73e5828387c436ef01a51b03853873e76d7a5551556837d452cbeb6f285cb5910160405180910390a150505050505050919050565b33739c69e0b64a63aa7daa0b5dc61df3cc77ea05bcb31461069f5760405162461bcd60e51b815260206004820152601060248201526f496e76616c69642063616c6c6261636b60801b60448201526064016101ba565b5f84131561074b5760405163a9059cbb60e01b8152739c69e0b64a63aa7daa0b5dc61df3cc77ea05bcb36004820152602481018590527f00000000000000000000000000000000000000000000000000000000000000006001600160a01b03169063a9059cbb906044016020604051808303815f875af1158015610725573d5f803e3d5ffd5b505050506040513d601f19601f82011682018060405250810190610749919061082e565b505b50505050565b6001600160a01b0381168114610765575f80fd5b50565b5f60208284031215610778575f80fd5b813561078381610751565b9392505050565b5f6020828403121561079a575f80fd5b5035919050565b5f805f80606085870312156107b4575f80fd5b8435935060208501359250604085013567ffffffffffffffff808211156107d9575f80fd5b818701915087601f8301126107ec575f80fd5b8135818111156107fa575f80fd5b88602082850101111561080b575f80fd5b95989497505060200194505050565b80518015158114610829575f80fd5b919050565b5f6020828403121561083e575f80fd5b6107838261081a565b805161ffff81168114610829575f80fd5b5f805f805f805f60e0888a03121561086e575f80fd5b875161087981610751565b8097505060208801518060020b8114610890575f80fd5b955061089e60408901610847565b94506108ac60608901610847565b93506108ba60808901610847565b925060a088015160ff811681146108cf575f80fd5b91506108dd60c0890161081a565b905092959891949750929550565b634e487b7160e01b5f52601160045260245ffd5b8082028115828204841417610916576109166108eb565b92915050565b5f8261093657634e487b7160e01b5f52601260045260245ffd5b500490565b6001600160a01b0382811682821603908082111561095b5761095b6108eb565b5092915050565b5f8060408385031215610973575f80fd5b505080516020909101519092909150565b5f600160ff1b8201610998576109986108eb565b505f039056fea264697066735822122021d47d8acc2e7c024db382666363ce79e088222dc529b915d131ba35bb9ef9ee64736f6c63430008140033","linkReferences":{}},"methodIdentifiers":{"authorizeCircle(address)":"4a81067d","authorizedCallers(address)":"536fff6c","owner()":"8da5cb5b","pool()":"16f0115b","swapWETHToWstETH(uint256)":"eb84d05a","uniswapV3SwapCallback(int256,int256,bytes)":"fa461e33","weth()":"3fc8cef3"},"id":20}