{"abi":[{"type":"constructor","inputs":[],"stateMutability":"nonpayable"},{"type":"receive","stateMutability":"payable"},{"type":"function","name":"authorizeCircle","inputs":[{"name":"circle","type":"address","internalType":"address"}],"outputs":[],"stateMutability":"nonpayable"},{"type":"function","name":"authorizedCallers","inputs":[{"name":"","type":"address","internalType":"address"}],"outputs":[{"name":"","type":"bool","internalType":"bool"}],"stateMutability":"view"},{"type":"function","name":"marketParams","inputs":[],"outputs":[{"name":"loanToken","type":"address","internalType":"address"},{"name":"collateralToken","type":"address","internalType":"address"},{"name":"oracle","type":"address","internalType":"address"},{"name":"irm","type":"address","internalType":"address"},{"name":"lltv","type":"uint256","internalType":"uint256"}],"stateMutability":"view"},{"type":"function","name":"morpho","inputs":[],"outputs":[{"name":"","type":"address","internalType":"contract IMorphoBlueAuth"}],"stateMutability":"view"},{"type":"function","name":"owner","inputs":[],"outputs":[{"name":"","type":"address","internalType":"address"}],"stateMutability":"view"},{"type":"function","name":"requestMorphoAuthorization","inputs":[],"outputs":[],"stateMutability":"nonpayable"},{"type":"function","name":"supplyCollateralAndBorrow","inputs":[{"name":"wstETHAmount","type":"uint256","internalType":"uint256"},{"name":"wethToBorrow","type":"uint256","internalType":"uint256"},{"name":"borrower","type":"address","internalType":"address"}],"outputs":[{"name":"","type":"bytes32","internalType":"bytes32"}],"stateMutability":"nonpayable"},{"type":"function","name":"weth","inputs":[],"outputs":[{"name":"","type":"address","internalType":"contract IWETH_Lending"}],"stateMutability":"view"},{"type":"function","name":"wstETH","inputs":[],"outputs":[{"name":"","type":"address","internalType":"contract IWstETH_Lending"}],"stateMutability":"view"},{"type":"event","name":"CircleAuthorized","inputs":[{"name":"circle","type":"address","indexed":false,"internalType":"address"}],"anonymous":false},{"type":"event","name":"CollateralSupplied","inputs":[{"name":"wstETHAmount","type":"uint256","indexed":false,"internalType":"uint256"},{"name":"onBehalf","type":"address","indexed":false,"internalType":"address"}],"anonymous":false},{"type":"event","name":"LoanBorrowed","inputs":[{"name":"wethAmount","type":"uint256","indexed":false,"internalType":"uint256"},{"name":"borrower","type":"address","indexed":false,"internalType":"address"}],"anonymous":false}],"bytecode":{"object":"0x60e060405234801561000f575f80fd5b5073420000000000000000000000000000000000000660808181527376d8de471f54aaa87784119c60df1bbfc852c41560a081815272cd58deebd7a2f1c55daec715faf8aed5b27bf860c052600680546001600160a01b0319908116331790915560408051928301815285835260208301849052737a378060a8a1fc5861d58bfd1a58581ca11ca70c908301819052735576629f21d528a8c3e06c338dda907b9456390260608401819052670d1d507e40be8000939095018390525f8054831690961790955560018054821690931790925560028054831690941790935560038054909116909117905560045560805160a05160c051610b776101485f395f8181610255015281816102e4015281816105f201526106aa01525f8181610128015261056801525f818160b901526107400152610b775ff3fe608060405260043610610087575f3560e01c8063536fff6c11610057578063536fff6c1461014a5780637b9e68f2146101885780638da5cb5b146101f857806390c0d59614610217578063d8fbc83314610244575f80fd5b80633a61ef42146100925780633fc8cef3146100a85780634a81067d146100f85780634aa07e6414610117575f80fd5b3661008e57005b5f80fd5b34801561009d575f80fd5b506100a6610277565b005b3480156100b3575f80fd5b506100db7f000000000000000000000000000000000000000000000000000000000000000081565b6040516001600160a01b0390911681526020015b60405180910390f35b348015610103575f80fd5b506100a661011236600461092b565b610366565b348015610122575f80fd5b506100db7f000000000000000000000000000000000000000000000000000000000000000081565b348015610155575f80fd5b5061017861016436600461092b565b60056020525f908152604090205460ff1681565b60405190151581526020016100ef565b348015610193575f80fd5b505f546001546002546003546004546101bd946001600160a01b0390811694811693811692169085565b604080516001600160a01b0396871681529486166020860152928516928401929092529092166060820152608081019190915260a0016100ef565b348015610203575f80fd5b506006546100db906001600160a01b031681565b348015610222575f80fd5b5061023661023136600461094b565b61042f565b6040519081526020016100ef565b34801561024f575f80fd5b506100db7f000000000000000000000000000000000000000000000000000000000000000081565b335f9081526005602052604090205460ff166102c95760405162461bcd60e51b815260206004820152600c60248201526b155b985d5d1a1bdc9a5e995960a21b60448201526064015b60405180910390fd5b6040516207767560ed1b8152306004820152600160248201527f00000000000000000000000000000000000000000000000000000000000000006001600160a01b03169063eecea000906044015f604051808303815f87803b15801561032d575f80fd5b505af115801561033f573d5f803e3d5ffd5b505050506103646040518060600160405280602a8152602001610ad8602a91396108a7565b565b6006546001600160a01b031633146103ad5760405162461bcd60e51b815260206004820152600a60248201526927b7363c9037bbb732b960b11b60448201526064016102c0565b6001600160a01b0381165f90815260056020908152604091829020805460ff1916600117905581516060810183528281526103f0929091610b02908301396108a7565b6040516001600160a01b03821681527fc0a811b2657f7446c56553fd1c0f9b1cb496d15cb7584d71ad735d84d3827d739060200160405180910390a150565b335f9081526005602052604081205460ff1661047c5760405162461bcd60e51b815260206004820152600c60248201526b155b985d5d1a1bdc9a5e995960a21b60448201526064016102c0565b6040516323b872dd60e01b8152336004820152306024820152604481018590527376d8de471f54aaa87784119c60df1bbfc852c415906323b872dd906064016020604051808303815f875af11580156104d7573d5f803e3d5ffd5b505050506040513d601f19601f820116820180604052508101906104fb919061097d565b6105395760405162461bcd60e51b815260206004820152600f60248201526e151c985b9cd9995c8819985a5b1959608a1b60448201526064016102c0565b60405163095ea7b360e01b815272cd58deebd7a2f1c55daec715faf8aed5b27bf86004820152602481018590527f00000000000000000000000000000000000000000000000000000000000000006001600160a01b03169063095ea7b3906044016020604051808303815f875af11580156105b6573d5f803e3d5ffd5b505050506040513d601f19601f820116820180604052508101906105da919061097d565b5060405163238d657960e01b81526001600160a01b037f0000000000000000000000000000000000000000000000000000000000000000169063238d65799061062b905f90889033906004016109da565b5f604051808303815f87803b158015610642575f80fd5b505af1158015610654573d5f803e3d5ffd5b5050604080518781523360208201527fc746ea777b1da0310da2ae713c73990a15d4b72d2e723fcb283b8b9e81f79d80935001905060405180910390a16040516350d8cd4b60e01b81525f906001600160a01b037f000000000000000000000000000000000000000000000000000000000000000016906350d8cd4b906106e79084908890829033903090600401610a1a565b60408051808303815f875af1158015610702573d5f803e3d5ffd5b505050506040513d601f19601f820116820180604052508101906107269190610a56565b50604051632e1a7d4d60e01b8152600481018290529091507f00000000000000000000000000000000000000000000000000000000000000006001600160a01b031690632e1a7d4d906024015f604051808303815f87803b158015610789575f80fd5b505af115801561079b573d5f803e3d5ffd5b505050505f836001600160a01b0316826040515f6040518083038185875af1925050503d805f81146107e8576040519150601f19603f3d011682016040523d82523d5f602084013e6107ed565b606091505b50509050806108345760405162461bcd60e51b8152602060048201526013602482015272115512081d1c985b9cd9995c8819985a5b1959606a1b60448201526064016102c0565b604080518381526001600160a01b03861660208201527f6e02acee5001c9c48e033cce6e7193e2717a4dc1d239424dcf41e995471f6385910160405180910390a15f6040516020016108869190610a78565b60405160208183030381529060405280519060200120925050509392505050565b6108ea816040516024016108bb9190610a8c565b60408051601f198184030181529190526020810180516001600160e01b031663104c13eb60e21b1790526108ed565b50565b6108ea815f6a636f6e736f6c652e6c6f6790505f80835160208501845afa505050565b80356001600160a01b0381168114610926575f80fd5b919050565b5f6020828403121561093b575f80fd5b61094482610910565b9392505050565b5f805f6060848603121561095d575f80fd5b833592506020840135915061097460408501610910565b90509250925092565b5f6020828403121561098d575f80fd5b81518015158114610944575f80fd5b80546001600160a01b039081168352600182015481166020840152600282015481166040840152600382015416606083015260040154608090910152565b5f6101006109e8838761099c565b60a0830194909452506001600160a01b039190911660c082015260e081018290525f9181019190915261012001919050565b6101208101610a29828861099c565b60a082019590955260c08101939093526001600160a01b0391821660e08401521661010090910152919050565b5f8060408385031215610a67575f80fd5b505080516020909101519092909150565b60a08101610a86828461099c565b92915050565b5f6020808352835180828501525f5b81811015610ab757858101830151858201604001528201610a9b565b505f604082860101526040601f19601f830116850101925050509291505056fe436972636c6520617574686f72697a6564206c656e64696e67206d6f64756c6520696e204d6f7270686f436972636c6520617574686f72697a65642e20436972636c65206d757374206e6f772063616c6c20617574686f72697a654d6f7270686f4c656e64696e672829a264697066735822122085420b686b9bf32528cc00da1e03068eefa15ecf6925aeb7efa3a71e5d27910b64736f6c63430008140033","linkReferences":{}},"methodIdentifiers":{"authorizeCircle(address)":"4a81067d","authorizedCallers(address)":"536fff6c","marketParams()":"7b9e68f2","morpho()":"d8fbc833","owner()":"8da5cb5b","requestMorphoAuthorization()":"3a61ef42","supplyCollateralAndBorrow(uint256,uint256,address)":"90c0d596","weth()":"3fc8cef3","wstETH()":"4aa07e64"},"id":18}