{"abi":[{"type":"function","name":"BASE_YIELD_RATE","inputs":[],"outputs":[{"name":"","type":"uint256","internalType":"uint256"}],"stateMutability":"view"},{"type":"function","name":"BASIS_POINTS","inputs":[],"outputs":[{"name":"","type":"uint256","internalType":"uint256"}],"stateMutability":"view"},{"type":"function","name":"BORROWING_RATE","inputs":[],"outputs":[{"name":"","type":"uint256","internalType":"uint256"}],"stateMutability":"view"},{"type":"function","name":"CHAIN_ID","inputs":[],"outputs":[{"name":"","type":"uint256","internalType":"uint256"}],"stateMutability":"view"},{"type":"function","name":"CHAIN_NAME","inputs":[],"outputs":[{"name":"","type":"string","internalType":"string"}],"stateMutability":"view"},{"type":"function","name":"DEADLINE_BUFFER","inputs":[],"outputs":[{"name":"","type":"uint256","internalType":"uint256"}],"stateMutability":"view"},{"type":"function","name":"DEFAULT_LTV","inputs":[],"outputs":[{"name":"","type":"uint256","internalType":"uint256"}],"stateMutability":"view"},{"type":"function","name":"MAX_CIRCLE_MEMBERS","inputs":[],"outputs":[{"name":"","type":"uint256","internalType":"uint256"}],"stateMutability":"view"},{"type":"function","name":"MAX_LOAN_DURATION","inputs":[],"outputs":[{"name":"","type":"uint256","internalType":"uint256"}],"stateMutability":"view"},{"type":"function","name":"MAX_SLIPPAGE","inputs":[],"outputs":[{"name":"","type":"uint256","internalType":"uint256"}],"stateMutability":"view"},{"type":"function","name":"MIN_CONTRIBUTION","inputs":[],"outputs":[{"name":"","type":"uint256","internalType":"uint256"}],"stateMutability":"view"},{"type":"function","name":"MORPHO_IRM","inputs":[],"outputs":[{"name":"","type":"address","internalType":"address"}],"stateMutability":"view"},{"type":"function","name":"MORPHO_LENDING_MARKET","inputs":[],"outputs":[{"name":"","type":"address","internalType":"address"}],"stateMutability":"view"},{"type":"function","name":"MORPHO_LLTV","inputs":[],"outputs":[{"name":"","type":"uint256","internalType":"uint256"}],"stateMutability":"view"},{"type":"function","name":"MORPHO_ORACLE","inputs":[],"outputs":[{"name":"","type":"address","internalType":"address"}],"stateMutability":"view"},{"type":"function","name":"MORPHO_WETH_VAULT","inputs":[],"outputs":[{"name":"","type":"address","internalType":"address"}],"stateMutability":"view"},{"type":"function","name":"MORPHO_WETH_wstETH_MARKET_ID","inputs":[],"outputs":[{"name":"","type":"bytes32","internalType":"bytes32"}],"stateMutability":"view"},{"type":"function","name":"MORPHO_wstETH_VAULT","inputs":[],"outputs":[{"name":"","type":"address","internalType":"address"}],"stateMutability":"view"},{"type":"function","name":"USDC","inputs":[],"outputs":[{"name":"","type":"address","internalType":"address"}],"stateMutability":"view"},{"type":"function","name":"VELODROME_FACTORY","inputs":[],"outputs":[{"name":"","type":"address","internalType":"address"}],"stateMutability":"view"},{"type":"function","name":"VELODROME_FACTORY_CL","inputs":[],"outputs":[{"name":"","type":"address","internalType":"address"}],"stateMutability":"view"},{"type":"function","name":"VELODROME_FACTORY_V2","inputs":[],"outputs":[{"name":"","type":"address","internalType":"address"}],"stateMutability":"view"},{"type":"function","name":"VELODROME_POOL_IMPL","inputs":[],"outputs":[{"name":"","type":"address","internalType":"address"}],"stateMutability":"view"},{"type":"function","name":"VELODROME_ROUTER","inputs":[],"outputs":[{"name":"","type":"address","internalType":"address"}],"stateMutability":"view"},{"type":"function","name":"VELODROME_UNIVERSAL_ROUTER","inputs":[],"outputs":[{"name":"","type":"address","internalType":"address"}],"stateMutability":"view"},{"type":"function","name":"WETH","inputs":[],"outputs":[{"name":"","type":"address","internalType":"address"}],"stateMutability":"view"},{"type":"function","name":"WETH_wstETH_CL_POOL","inputs":[],"outputs":[{"name":"","type":"address","internalType":"address"}],"stateMutability":"view"},{"type":"function","name":"calculateMinAmountOut","inputs":[{"name":"expectedAmount","type":"uint256","internalType":"uint256"}],"outputs":[{"name":"minAmount","type":"uint256","internalType":"uint256"}],"stateMutability":"pure"},{"type":"function","name":"calculateMinAmountOutWithSlippage","inputs":[{"name":"expectedAmount","type":"uint256","internalType":"uint256"},{"name":"slippageBps","type":"uint256","internalType":"uint256"}],"outputs":[{"name":"minAmount","type":"uint256","internalType":"uint256"}],"stateMutability":"pure"},{"type":"function","name":"validateSlippage","inputs":[{"name":"slippageBps","type":"uint256","internalType":"uint256"}],"outputs":[],"stateMutability":"pure"},{"type":"function","name":"wstETH","inputs":[],"outputs":[{"name":"","type":"address","internalType":"address"}],"stateMutability":"view"}],"bytecode":{"object":"0x608060405234801561000f575f80fd5b506106678061001d5f395ff3fe608060405234801561000f575f80fd5b50600436106101dc575f3560e01c80635f7fdfe011610109578063cb909a601161009e578063eb50cdb11161006e578063eb50cdb1146103f9578063f2c75fa014610414578063f97595181461031b578063fe96610714610429575f80fd5b8063cb909a6014610393578063d6478384146103ba578063dfe287d3146103d5578063e1f1c4a7146103f0575f80fd5b806389a30271116100d957806389a302711461034f5780639588dffe1461036a578063a3b49bcb14610287578063ad5c464814610385575f80fd5b80635f7fdfe0146103235780637200a7111461032a57806385e1f4d01461033357806387190d5f1461033c575f80fd5b80633e8c6e431161017f578063463c1d0a1161014f578063463c1d0a146102dc5780634aa07e64146102f7578063517ef1d71461031257806354ab79091461031b575f80fd5b80633e8c6e43146102875780633f0dd5a0146102a257806340158af6146102b557806340650c91146102d0575f80fd5b80631b930720116101ba5780631b9307201461024b5780631e634d541461025457806327117f481461026f578063289fff9e14610278575f80fd5b80630d0b2ca6146101e05780630da4c628146101fe5780630ecd7d5514610230575b5f80fd5b6101eb6301e1338081565b6040519081526020015b60405180910390f35b61021872cd58deebd7a2f1c55daec715faf8aed5b27bf881565b6040516001600160a01b0390911681526020016101f5565b610218739c69e0b64a63aa7daa0b5dc61df3cc77ea05bcb381565b6101eb61213481565b6102187310499d88bd32af443fc936f67de32be1c8bb374c81565b6101eb61070881565b6101eb670d18c2e28000000081565b6102187304625b046c69577efc40e6c0bb83cdbafab5a55f81565b6101eb6102b0366004610552565b610459565b610218735576629f21d528a8c3e06c338dda907b9456390281565b6101eb64e8d4a5100081565b610218737cbaa98bd5e171a658fdf761ed1db33806a0d34681565b6102187376d8de471f54aaa87784119c60df1bbfc852c41581565b6101eb61032081565b6101eb603281565b6102185f81565b6101eb6101f481565b6101eb61046f81565b6101eb61034a366004610572565b6104db565b6102187305d032ac25d322df992303dca074ee7392c117b981565b610218733a63171dd9bebf4d07bc782fecc7eb0b890c2a4581565b6102186006602160991b0181565b6101eb7faf10335b50689207d1fd37afd98e87aa0eb209c9074d8655642636223cc5f3a081565b6102187331832f2a97fd20664d76cc421207669b55ce4bc081565b610218737a378060a8a1fc5861d58bfd1a58581ca11ca70c81565b6101eb61271081565b6102187301d40099fcd87c018969b0e8d4ab1633fb34763c81565b610427610422366004610572565b6104fe565b005b61044c604051806040016040528060048152602001634c69736b60e01b81525081565b6040516101f59190610589565b5f6127108211156104b15760405162461bcd60e51b815260206004820152601b60248201527f536c6970706167652063616e6e6f74206578636565642031303025000000000060448201526064015b60405180910390fd5b6127106104be83826105e8565b6104c890856105fb565b6104d29190610612565b90505b92915050565b5f6127106104ea6032826105e8565b6104f490846105fb565b6104d59190610612565b603281111561054f5760405162461bcd60e51b815260206004820181905260248201527f536c6970706167652065786365656473206d6178696d756d20616c6c6f77656460448201526064016104a8565b50565b5f8060408385031215610563575f80fd5b50508035926020909101359150565b5f60208284031215610582575f80fd5b5035919050565b5f6020808352835180828501525f5b818110156105b457858101830151858201604001528201610598565b505f604082860101526040601f19601f8301168501019250505092915050565b634e487b7160e01b5f52601160045260245ffd5b818103818111156104d5576104d56105d4565b80820281158282048414176104d5576104d56105d4565b5f8261062c57634e487b7160e01b5f52601260045260245ffd5b50049056fea26469706673582212209129f4e5ef312e4e8ae26980f4e374886b8c92103537c0920ea78f65ad343cf264736f6c63430008140033","linkReferences":{}},"methodIdentifiers":{"BASE_YIELD_RATE()":"7200a711","BASIS_POINTS()":"e1f1c4a7","BORROWING_RATE()":"517ef1d7","CHAIN_ID()":"85e1f4d0","CHAIN_NAME()":"fe966107","DEADLINE_BUFFER()":"27117f48","DEFAULT_LTV()":"1b930720","MAX_CIRCLE_MEMBERS()":"54ab7909","MAX_LOAN_DURATION()":"0d0b2ca6","MAX_SLIPPAGE()":"f9759518","MIN_CONTRIBUTION()":"40650c91","MORPHO_IRM()":"40158af6","MORPHO_LENDING_MARKET()":"0da4c628","MORPHO_LLTV()":"289fff9e","MORPHO_ORACLE()":"dfe287d3","MORPHO_WETH_VAULT()":"463c1d0a","MORPHO_WETH_wstETH_MARKET_ID()":"cb909a60","MORPHO_wstETH_VAULT()":"5f7fdfe0","USDC()":"89a30271","VELODROME_FACTORY()":"3e8c6e43","VELODROME_FACTORY_CL()":"a3b49bcb","VELODROME_FACTORY_V2()":"d6478384","VELODROME_POOL_IMPL()":"1e634d54","VELODROME_ROUTER()":"9588dffe","VELODROME_UNIVERSAL_ROUTER()":"eb50cdb1","WETH()":"ad5c4648","WETH_wstETH_CL_POOL()":"0ecd7d55","calculateMinAmountOut(uint256)":"87190d5f","calculateMinAmountOutWithSlippage(uint256,uint256)":"3f0dd5a0","validateSlippage(uint256)":"f2c75fa0","wstETH()":"4aa07e64"},"id":55}