{"abi":[{"type":"constructor","inputs":[],"stateMutability":"payable"},{"type":"receive","stateMutability":"payable"},{"type":"function","name":"authorizeCircle","inputs":[{"name":"circle","type":"address","internalType":"address"}],"outputs":[],"stateMutability":"nonpayable"},{"type":"function","name":"authorizedCallers","inputs":[{"name":"","type":"address","internalType":"address"}],"outputs":[{"name":"","type":"bool","internalType":"bool"}],"stateMutability":"view"},{"type":"function","name":"getBalance","inputs":[],"outputs":[{"name":"","type":"uint256","internalType":"uint256"}],"stateMutability":"view"},{"type":"function","name":"owner","inputs":[],"outputs":[{"name":"","type":"address","internalType":"address"}],"stateMutability":"view"},{"type":"function","name":"supplyCollateralAndBorrow","inputs":[{"name":"wstETHAmount","type":"uint256","internalType":"uint256"},{"name":"wethToBorrow","type":"uint256","internalType":"uint256"},{"name":"borrower","type":"address","internalType":"address"}],"outputs":[{"name":"","type":"bytes32","internalType":"bytes32"}],"stateMutability":"nonpayable"},{"type":"event","name":"Debug","inputs":[{"name":"message","type":"string","indexed":false,"internalType":"string"},{"name":"value","type":"uint256","indexed":false,"internalType":"uint256"}],"anonymous":false},{"type":"event","name":"ETHReceived","inputs":[{"name":"from","type":"address","indexed":false,"internalType":"address"},{"name":"amount","type":"uint256","indexed":false,"internalType":"uint256"}],"anonymous":false},{"type":"event","name":"ETHSent","inputs":[{"name":"to","type":"address","indexed":false,"internalType":"address"},{"name":"amount","type":"uint256","indexed":false,"internalType":"uint256"},{"name":"success","type":"bool","indexed":false,"internalType":"bool"}],"anonymous":false}],"bytecode":{"object":"0x60806040818152600180546001600160a01b031916331790558152601f60c0527f4c656e64696e674d6f64756c65206465706c6f7965642077697468204554480060e0523460a0527f3c5ad147104e56be34a9176a6692f7df8d2f4b29a5af06bc6b98970d329d65779080a161075e806100785f395ff3fe60806040526004361061004c575f3560e01c806312065fe01461008f5780634a81067d146100b0578063536fff6c146100d15780638da5cb5b1461010f57806390c0d59614610146575f80fd5b3661008b57604080513381523460208201527fbfe611b001dfcd411432f7bf0d79b82b4b2ee81511edac123a3403c357fb972a910160405180910390a1005b5f80fd5b34801561009a575f80fd5b50475b6040519081526020015b60405180910390f35b3480156100bb575f80fd5b506100cf6100ca366004610697565b610165565b005b3480156100dc575f80fd5b506100ff6100eb366004610697565b5f6020819052908152604090205460ff1681565b60405190151581526020016100a7565b34801561011a575f80fd5b5060015461012e906001600160a01b031681565b6040516001600160a01b0390911681526020016100a7565b348015610151575f80fd5b5061009d6101603660046106b7565b6101d4565b6001546001600160a01b031633146101b15760405162461bcd60e51b815260206004820152600a60248201526927b7363c9037bbb732b960b11b60448201526064015b60405180910390fd5b6001600160a01b03165f908152602081905260409020805460ff19166001179055565b335f9081526020819052604081205460ff166102215760405162461bcd60e51b815260206004820152600c60248201526b155b985d5d1a1bdc9a5e995960a21b60448201526064016101a8565b6040805181815260208183018190527f737570706c79436f6c6c61746572616c416e64426f72726f772063616c6c65646060830152810185905290515f805160206107098339815191529181900360800190a1604080518181526010818301526f426f72726f776572206164647265737360801b60608201526001600160a01b038416602082015290515f805160206107098339815191529181900360800190a16040805181815260148183015273436f6e7472616374204554482062616c616e636560601b606082015247602082015290515f805160206107098339815191529181900360800190a16040516323b872dd60e01b8152336004820152306024820152604481018590527376d8de471f54aaa87784119c60df1bbfc852c415906323b872dd906064016020604051808303815f875af1158015610366573d5f803e3d5ffd5b505050506040513d601f19601f8201168201806040525081019061038a91906106e9565b6103cf5760405162461bcd60e51b81526020600482015260166024820152751ddcdd115512081d1c985b9cd9995c8819985a5b195960521b60448201526064016101a8565b60408051818152601281830152711ddcdd115512081d1c985b9cd9995c9c995960721b60608201526020810186905290515f805160206107098339815191529181900360800190a18247106105a357604080518181526017818301527f53656e64696e672045544820746f20626f72726f77657200000000000000000060608201526020810185905290515f805160206107098339815191529181900360800190a15f826001600160a01b0316846040515f6040518083038185875af1925050503d805f81146104ba576040519150601f19603f3d011682016040523d82523d5f602084013e6104bf565b606091505b5050604080516001600160a01b0386168152602081018790528215158183015290519192507fbb949ed3b2032cdcc299b87fdf9b6ffc926c78e704c08da2ae56b4f1fdca9f2d919081900360600190a1806105525760405162461bcd60e51b8152602060048201526013602482015272115512081d1c985b9cd9995c8819985a5b1959606a1b60448201526064016101a8565b60408051818152601581830152744554482073656e74207375636365737366756c6c7960581b60608201526020810186905290515f805160206107098339815191529181900360800190a150610648565b604080518181526018818301527f496e73756666696369656e74204554482062616c616e63650000000000000000606082015247602082015290515f805160206107098339815191529181900360800190a160405162461bcd60e51b815260206004820152602260248201527f496e73756666696369656e742045544820696e206c656e64696e67206d6f64756044820152616c6560f01b60648201526084016101a8565b6040805133602082015242918101919091526060016040516020818303038152906040528051906020012090509392505050565b80356001600160a01b0381168114610692575f80fd5b919050565b5f602082840312156106a7575f80fd5b6106b08261067c565b9392505050565b5f805f606084860312156106c9575f80fd5b83359250602084013591506106e06040850161067c565b90509250925092565b5f602082840312156106f9575f80fd5b815180151581146106b0575f80fdfe3c5ad147104e56be34a9176a6692f7df8d2f4b29a5af06bc6b98970d329d6577a26469706673582212208475c245e42fc4ec8fda3ef820b70b314f94678c2ffe0bea8edd03e0efa9356e64736f6c63430008140033","linkReferences":{}},"methodIdentifiers":{"authorizeCircle(address)":"4a81067d","authorizedCallers(address)":"536fff6c","getBalance()":"12065fe0","owner()":"8da5cb5b","supplyCollateralAndBorrow(uint256,uint256,address)":"90c0d596"},"id":7}