{"abi":[{"type":"constructor","inputs":[],"stateMutability":"nonpayable"},{"type":"function","name":"authorizeCircle","inputs":[{"name":"circle","type":"address","internalType":"address"}],"outputs":[],"stateMutability":"nonpayable"},{"type":"function","name":"authorizedCallers","inputs":[{"name":"","type":"address","internalType":"address"}],"outputs":[{"name":"","type":"bool","internalType":"bool"}],"stateMutability":"view"},{"type":"function","name":"owner","inputs":[],"outputs":[{"name":"","type":"address","internalType":"address"}],"stateMutability":"view"},{"type":"function","name":"pool","inputs":[],"outputs":[{"name":"","type":"address","internalType":"contract IVelodromeCLPool"}],"stateMutability":"view"},{"type":"function","name":"swapWETHToWstETH","inputs":[{"name":"wethAmount","type":"uint256","internalType":"uint256"}],"outputs":[{"name":"wstETHReceived","type":"uint256","internalType":"uint256"}],"stateMutability":"nonpayable"},{"type":"function","name":"uniswapV3SwapCallback","inputs":[{"name":"amount0Delta","type":"int256","internalType":"int256"},{"name":"amount1Delta","type":"int256","internalType":"int256"},{"name":"data","type":"bytes","internalType":"bytes"}],"outputs":[],"stateMutability":"nonpayable"},{"type":"function","name":"weth","inputs":[],"outputs":[{"name":"","type":"address","internalType":"contract IERC20"}],"stateMutability":"view"},{"type":"function","name":"wstETH","inputs":[],"outputs":[{"name":"","type":"address","internalType":"contract IERC20"}],"stateMutability":"view"},{"type":"event","name":"SwapExecuted","inputs":[{"name":"wethIn","type":"uint256","indexed":false,"internalType":"uint256"},{"name":"wstETHOut","type":"uint256","indexed":false,"internalType":"uint256"}],"anonymous":false}],"bytecode":{"object":"0x60e060405234801561000f575f80fd5b507342000000000000000000000000000000000000066080527376d8de471f54aaa87784119c60df1bbfc852c41560a052739c69e0b64a63aa7daa0b5dc61df3cc77ea05bcb360c052600180546001600160a01b0319163317905560805160a05160c05161095e6100bc5f395f8181608e015261041501525f818161010e0152818161034e01528181610499015261057101525f818160d20152818161028701526106f5015261095e5ff3fe608060405234801561000f575f80fd5b5060043610610085575f3560e01c8063536fff6c11610058578063536fff6c146101305780638da5cb5b14610162578063eb84d05a14610175578063fa461e3314610196575f80fd5b806316f0115b146100895780633fc8cef3146100cd5780634a81067d146100f45780634aa07e6414610109575b5f80fd5b6100b07f000000000000000000000000000000000000000000000000000000000000000081565b6040516001600160a01b0390911681526020015b60405180910390f35b6100b07f000000000000000000000000000000000000000000000000000000000000000081565b6101076101023660046107bf565b6101a9565b005b6100b07f000000000000000000000000000000000000000000000000000000000000000081565b61015261013e3660046107bf565b5f6020819052908152604090205460ff1681565b60405190151581526020016100c4565b6001546100b0906001600160a01b031681565b6101886101833660046107ec565b610218565b6040519081526020016100c4565b6101076101a4366004610803565b610662565b6001546001600160a01b031633146101f55760405162461bcd60e51b815260206004820152600a60248201526927b7363c9037bbb732b960b11b60448201526064015b60405180910390fd5b6001600160a01b03165f908152602081905260409020805460ff19166001179055565b335f9081526020819052604081205460ff166102655760405162461bcd60e51b815260206004820152600c60248201526b155b985d5d1a1bdc9a5e995960a21b60448201526064016101ec565b6040516323b872dd60e01b8152336004820152306024820152604481018390527f00000000000000000000000000000000000000000000000000000000000000006001600160a01b0316906323b872dd906064016020604051808303815f875af11580156102d5573d5f803e3d5ffd5b505050506040513d601f19601f820116820180604052508101906102f9919061087c565b6103375760405162461bcd60e51b815260206004820152600f60248201526e151c985b9cd9995c8819985a5b1959608a1b60448201526064016101ec565b6040516370a0823160e01b81523060048201525f907f00000000000000000000000000000000000000000000000000000000000000006001600160a01b0316906370a0823190602401602060405180830381865afa15801561039b573d5f803e3d5ffd5b505050506040513d601f19601f820116820180604052508101906103bf919061089b565b90505f6103d26401000276a360016108c6565b604051630251596160e31b815230600482015260016024820152604481018690526001600160a01b03808316606483015260a060848301525f60a48301529192507f00000000000000000000000000000000000000000000000000000000000000009091169063128acb089060c40160408051808303815f875af115801561045c573d5f803e3d5ffd5b505050506040513d601f19601f8201168201806040525081019061048091906108ed565b50506040516370a0823160e01b81523060048201525f907f00000000000000000000000000000000000000000000000000000000000000006001600160a01b0316906370a0823190602401602060405180830381865afa1580156104e6573d5f803e3d5ffd5b505050506040513d601f19601f8201168201806040525081019061050a919061089b565b9050610516838261090f565b93505f84116105555760405162461bcd60e51b815260206004820152600b60248201526a14ddd85c0819985a5b195960aa1b60448201526064016101ec565b60405163a9059cbb60e01b8152336004820152602481018590527f00000000000000000000000000000000000000000000000000000000000000006001600160a01b03169063a9059cbb906044016020604051808303815f875af11580156105bf573d5f803e3d5ffd5b505050506040513d601f19601f820116820180604052508101906105e3919061087c565b6106215760405162461bcd60e51b815260206004820152600f60248201526e151c985b9cd9995c8819985a5b1959608a1b60448201526064016101ec565b60408051868152602081018690527f4f73e5828387c436ef01a51b03853873e76d7a5551556837d452cbeb6f285cb5910160405180910390a1505050919050565b33739c69e0b64a63aa7daa0b5dc61df3cc77ea05bcb3146106bd5760405162461bcd60e51b8152602060048201526015602482015274556e617574686f72697a65642063616c6c6261636b60581b60448201526064016101ec565b5f8413156107695760405163a9059cbb60e01b8152739c69e0b64a63aa7daa0b5dc61df3cc77ea05bcb36004820152602481018590527f00000000000000000000000000000000000000000000000000000000000000006001600160a01b03169063a9059cbb906044016020604051808303815f875af1158015610743573d5f803e3d5ffd5b505050506040513d601f19601f82011682018060405250810190610767919061087c565b505b5f8313156107b95760405162461bcd60e51b815260206004820152601760248201527f556e657870656374656420616d6f756e743144656c746100000000000000000060448201526064016101ec565b50505050565b5f602082840312156107cf575f80fd5b81356001600160a01b03811681146107e5575f80fd5b9392505050565b5f602082840312156107fc575f80fd5b5035919050565b5f805f8060608587031215610816575f80fd5b8435935060208501359250604085013567ffffffffffffffff8082111561083b575f80fd5b818701915087601f83011261084e575f80fd5b81358181111561085c575f80fd5b88602082850101111561086d575f80fd5b95989497505060200194505050565b5f6020828403121561088c575f80fd5b815180151581146107e5575f80fd5b5f602082840312156108ab575f80fd5b5051919050565b634e487b7160e01b5f52601160045260245ffd5b6001600160a01b038181168382160190808211156108e6576108e66108b2565b5092915050565b5f80604083850312156108fe575f80fd5b505080516020909101519092909150565b81810381811115610922576109226108b2565b9291505056fea2646970667358221220f9b66ad8ce3418111ed02757bc724296c0ca9d190b7bd6ba7a222c7aa167b25064736f6c63430008140033","linkReferences":{}},"methodIdentifiers":{"authorizeCircle(address)":"4a81067d","authorizedCallers(address)":"536fff6c","owner()":"8da5cb5b","pool()":"16f0115b","swapWETHToWstETH(uint256)":"eb84d05a","uniswapV3SwapCallback(int256,int256,bytes)":"fa461e33","weth()":"3fc8cef3","wstETH()":"4aa07e64"},"id":9}