{"abi":[{"type":"function","name":"WETH","inputs":[],"outputs":[{"name":"","type":"address","internalType":"address"}],"stateMutability":"view"},{"type":"function","name":"morphoEthVault","inputs":[],"outputs":[{"name":"","type":"address","internalType":"address"}],"stateMutability":"view"},{"type":"function","name":"morphoLite","inputs":[],"outputs":[{"name":"","type":"address","internalType":"address"}],"stateMutability":"view"},{"type":"function","name":"setMorphoAddresses","inputs":[{"name":"_morphoLite","type":"address","internalType":"address"},{"name":"_ethVault","type":"address","internalType":"address"}],"outputs":[],"stateMutability":"nonpayable"},{"type":"function","name":"setVelodromeAddresses","inputs":[{"name":"_router","type":"address","internalType":"address"},{"name":"_factory","type":"address","internalType":"address"}],"outputs":[],"stateMutability":"nonpayable"},{"type":"function","name":"testContract","inputs":[{"name":"target","type":"address","internalType":"address"}],"outputs":[{"name":"exists","type":"bool","internalType":"bool"},{"name":"codeSize","type":"uint256","internalType":"uint256"}],"stateMutability":"view"},{"type":"function","name":"testTokens","inputs":[],"outputs":[{"name":"wethName","type":"string","internalType":"string"},{"name":"wstethName","type":"string","internalType":"string"}],"stateMutability":"view"},{"type":"function","name":"velodromeFactory","inputs":[],"outputs":[{"name":"","type":"address","internalType":"address"}],"stateMutability":"view"},{"type":"function","name":"velodromeRouter","inputs":[],"outputs":[{"name":"","type":"address","internalType":"address"}],"stateMutability":"view"},{"type":"function","name":"wstETH","inputs":[],"outputs":[{"name":"","type":"address","internalType":"address"}],"stateMutability":"view"},{"type":"event","name":"AddressDiscovered","inputs":[{"name":"protocol","type":"string","indexed":true,"internalType":"string"},{"name":"contractType","type":"string","indexed":true,"internalType":"string"},{"name":"addr","type":"address","indexed":true,"internalType":"address"}],"anonymous":false}],"bytecode":{"object":"0x608060405234801561000f575f80fd5b5061066c8061001d5f395ff3fe608060405234801561000f575f80fd5b506004361061009b575f3560e01c80637915749711610063578063791574971461013d5780637a1f6ece146101505780639f9e86e214610163578063aa6f8b8014610176578063ad5c46481461018c575f80fd5b806306d82f291461009f578063366ac47c146100d05780634aa07e64146100fb5780634bccf4261461011657806360e29f851461012b575b5f80fd5b6100b46100ad3660046104af565b3b80151591565b6040805192151583526020830191909152015b60405180910390f35b6002546100e3906001600160a01b031681565b6040516001600160a01b0390911681526020016100c7565b6100e37376d8de471f54aaa87784119c60df1bbfc852c41581565b6101296101243660046104cf565b61019a565b005b5f546100e3906001600160a01b031681565b6001546100e3906001600160a01b031681565b61012961015e3660046104cf565b61029a565b6003546100e3906001600160a01b031681565b61017e610363565b6040516100c792919061054d565b6100e36006602160991b0181565b600280546001600160a01b038085166001600160a01b0319928316811790935560038054918516919092161790556040516101e190652937baba32b960d11b815260060190565b6040519081900381206856656c6f64726f6d6560b81b825290600901604051908190038120907ffef0c2709e455845924c672680696401c76232a200e592fe28642541f75844d0905f90a460405166466163746f727960c81b81526001600160a01b038216906007016040519081900381206856656c6f64726f6d6560b81b8252906009015b604051908190038120907ffef0c2709e455845924c672680696401c76232a200e592fe28642541f75844d0905f90a45050565b5f80546001600160a01b038085166001600160a01b0319928316811790935560018054918516919092161790556040516102de90634c69746560e01b815260040190565b604051908190038120654d6f7270686f60d01b825290600601604051908190038120907ffef0c2709e455845924c672680696401c76232a200e592fe28642541f75844d0905f90a460405167115d1a15985d5b1d60c21b81526001600160a01b03821690600801604051908190038120654d6f7270686f60d01b825290600601610267565b6060806006602160991b016001600160a01b03166306fdde036040518163ffffffff1660e01b81526004015f60405180830381865afa9250505080156103ca57506040513d5f823e601f3d908101601f191682016040526103c7919081019061058e565b60015b6103f4576040518060400160405280600681526020016511905253115160d21b81525091506103f7565b91505b7376d8de471f54aaa87784119c60df1bbfc852c4156001600160a01b03166306fdde036040518163ffffffff1660e01b81526004015f60405180830381865afa92505050801561046857506040513d5f823e601f3d908101601f19168201604052610465919081019061058e565b60015b61048e575060408051808201909152600681526511905253115160d21b60208201529091565b90509091565b80356001600160a01b03811681146104aa575f80fd5b919050565b5f602082840312156104bf575f80fd5b6104c882610494565b9392505050565b5f80604083850312156104e0575f80fd5b6104e983610494565b91506104f760208401610494565b90509250929050565b5f5b8381101561051a578181015183820152602001610502565b50505f910152565b5f8151808452610539816020860160208601610500565b601f01601f19169290920160200192915050565b604081525f61055f6040830185610522565b82810360208401526105718185610522565b95945050505050565b634e487b7160e01b5f52604160045260245ffd5b5f6020828403121561059e575f80fd5b815167ffffffffffffffff808211156105b5575f80fd5b818401915084601f8301126105c8575f80fd5b8151818111156105da576105da61057a565b604051601f8201601f19908116603f011681019083821181831017156106025761060261057a565b8160405282815287602084870101111561061a575f80fd5b61062b836020830160208801610500565b97965050505050505056fea2646970667358221220d1142dad9bf7801850448be04e499458fc4f4378dbb77d9d6b45c86e23deb54864736f6c63430008140033","linkReferences":{}},"methodIdentifiers":{"WETH()":"ad5c4648","morphoEthVault()":"79157497","morphoLite()":"60e29f85","setMorphoAddresses(address,address)":"7a1f6ece","setVelodromeAddresses(address,address)":"4bccf426","testContract(address)":"06d82f29","testTokens()":"aa6f8b80","velodromeFactory()":"9f9e86e2","velodromeRouter()":"366ac47c","wstETH()":"4aa07e64"},"id":54}