{"abi":[{"type":"constructor","inputs":[],"stateMutability":"nonpayable"},{"type":"receive","stateMutability":"payable"},{"type":"function","name":"authorizeCircle","inputs":[{"name":"circle","type":"address","internalType":"address"}],"outputs":[],"stateMutability":"nonpayable"},{"type":"function","name":"authorizedCallers","inputs":[{"name":"","type":"address","internalType":"address"}],"outputs":[{"name":"","type":"bool","internalType":"bool"}],"stateMutability":"view"},{"type":"function","name":"initializeMorphoAuthorization","inputs":[],"outputs":[],"stateMutability":"nonpayable"},{"type":"function","name":"marketParams","inputs":[],"outputs":[{"name":"loanToken","type":"address","internalType":"address"},{"name":"collateralToken","type":"address","internalType":"address"},{"name":"oracle","type":"address","internalType":"address"},{"name":"irm","type":"address","internalType":"address"},{"name":"lltv","type":"uint256","internalType":"uint256"}],"stateMutability":"view"},{"type":"function","name":"morpho","inputs":[],"outputs":[{"name":"","type":"address","internalType":"contract IMorphoBlue"}],"stateMutability":"view"},{"type":"function","name":"owner","inputs":[],"outputs":[{"name":"","type":"address","internalType":"address"}],"stateMutability":"view"},{"type":"function","name":"supplyCollateralAndBorrow","inputs":[{"name":"wstETHAmount","type":"uint256","internalType":"uint256"},{"name":"wethToBorrow","type":"uint256","internalType":"uint256"},{"name":"borrower","type":"address","internalType":"address"}],"outputs":[{"name":"","type":"bytes32","internalType":"bytes32"}],"stateMutability":"nonpayable"},{"type":"function","name":"weth","inputs":[],"outputs":[{"name":"","type":"address","internalType":"contract IWETH_Lending"}],"stateMutability":"view"},{"type":"function","name":"wstETH","inputs":[],"outputs":[{"name":"","type":"address","internalType":"contract IWstETH_Lending"}],"stateMutability":"view"},{"type":"event","name":"CircleAuthorized","inputs":[{"name":"circle","type":"address","indexed":false,"internalType":"address"}],"anonymous":false},{"type":"event","name":"CollateralSupplied","inputs":[{"name":"wstETHAmount","type":"uint256","indexed":false,"internalType":"uint256"},{"name":"circle","type":"address","indexed":false,"internalType":"address"}],"anonymous":false},{"type":"event","name":"LoanBorrowed","inputs":[{"name":"wethAmount","type":"uint256","indexed":false,"internalType":"uint256"},{"name":"borrower","type":"address","indexed":false,"internalType":"address"}],"anonymous":false},{"type":"event","name":"MorphoAuthorizationSet","inputs":[{"name":"circle","type":"address","indexed":false,"internalType":"address"}],"anonymous":false}],"bytecode":{"object":"0x60e060405234801561000f575f80fd5b5073420000000000000000000000000000000000000660808181527376d8de471f54aaa87784119c60df1bbfc852c41560a081815272cd58deebd7a2f1c55daec715faf8aed5b27bf860c052600680546001600160a01b0319908116331790915560408051928301815285835260208301849052737a378060a8a1fc5861d58bfd1a58581ca11ca70c908301819052735576629f21d528a8c3e06c338dda907b9456390260608401819052670d1d507e40be8000939095018390525f8054831690961790955560018054821690931790925560028054831690941790935560038054909116909117905560045560805160a05160c051610b2861014f5f395f81816102550152818161038401528181610481015281816106d1015261078901525f8181610114015261064701525f818160a3015261081f0152610b285ff3fe608060405260043610610087575f3560e01c80636e8ad2aa116100575780636e8ad2aa146101745780637b9e68f2146101885780638da5cb5b146101f857806390c0d59614610217578063d8fbc83314610244575f80fd5b80633fc8cef3146100925780634a81067d146100e25780634aa07e6414610103578063536fff6c14610136575f80fd5b3661008e57005b5f80fd5b34801561009d575f80fd5b506100c57f000000000000000000000000000000000000000000000000000000000000000081565b6040516001600160a01b0390911681526020015b60405180910390f35b3480156100ed575f80fd5b506101016100fc3660046109a5565b610277565b005b34801561010e575f80fd5b506100c57f000000000000000000000000000000000000000000000000000000000000000081565b348015610141575f80fd5b506101646101503660046109a5565b60056020525f908152604090205460ff1681565b60405190151581526020016100d9565b34801561017f575f80fd5b5061010161031c565b348015610193575f80fd5b505f546001546002546003546004546101bd946001600160a01b0390811694811693811692169085565b604080516001600160a01b0396871681529486166020860152928516928401929092529092166060820152608081019190915260a0016100d9565b348015610203575f80fd5b506006546100c5906001600160a01b031681565b348015610222575f80fd5b506102366102313660046109c5565b610419565b6040519081526020016100d9565b34801561024f575f80fd5b506100c57f000000000000000000000000000000000000000000000000000000000000000081565b6006546001600160a01b031633146102c35760405162461bcd60e51b815260206004820152600a60248201526927b7363c9037bbb732b960b11b60448201526064015b60405180910390fd5b6001600160a01b0381165f81815260056020908152604091829020805460ff1916600117905590519182527fc0a811b2657f7446c56553fd1c0f9b1cb496d15cb7584d71ad735d84d3827d73910160405180910390a150565b335f9081526005602052604090205460ff166103695760405162461bcd60e51b815260206004820152600c60248201526b155b985d5d1a1bdc9a5e995960a21b60448201526064016102ba565b6040516207767560ed1b8152306004820152600160248201527f00000000000000000000000000000000000000000000000000000000000000006001600160a01b03169063eecea000906044015f604051808303815f87803b1580156103cd575f80fd5b505af11580156103df573d5f803e3d5ffd5b50506040513381527f7056f984ceb229f35946a46851deb027eef38318906f48970c05beb680843b9f9250602001905060405180910390a1565b335f9081526005602052604081205460ff166104665760405162461bcd60e51b815260206004820152600c60248201526b155b985d5d1a1bdc9a5e995960a21b60448201526064016102ba565b6040516332f256cf60e11b81523360048201523060248201527f00000000000000000000000000000000000000000000000000000000000000006001600160a01b0316906365e4ad9e90604401602060405180830381865afa1580156104ce573d5f803e3d5ffd5b505050506040513d601f19601f820116820180604052508101906104f291906109f7565b61055b5760405162461bcd60e51b815260206004820152603460248201527f436972636c65206d75737420617574686f72697a65206c656e64696e67206d6f604482015273191d5b19481a5b88135bdc9c1a1bc8199a5c9cdd60621b60648201526084016102ba565b6040516323b872dd60e01b8152336004820152306024820152604481018590527376d8de471f54aaa87784119c60df1bbfc852c415906323b872dd906064016020604051808303815f875af11580156105b6573d5f803e3d5ffd5b505050506040513d601f19601f820116820180604052508101906105da91906109f7565b6106185760405162461bcd60e51b815260206004820152600f60248201526e151c985b9cd9995c8819985a5b1959608a1b60448201526064016102ba565b60405163095ea7b360e01b815272cd58deebd7a2f1c55daec715faf8aed5b27bf86004820152602481018590527f00000000000000000000000000000000000000000000000000000000000000006001600160a01b03169063095ea7b3906044016020604051808303815f875af1158015610695573d5f803e3d5ffd5b505050506040513d601f19601f820116820180604052508101906106b991906109f7565b5060405163238d657960e01b81526001600160a01b037f0000000000000000000000000000000000000000000000000000000000000000169063238d65799061070a905f9088903390600401610a54565b5f604051808303815f87803b158015610721575f80fd5b505af1158015610733573d5f803e3d5ffd5b5050604080518781523360208201527fc746ea777b1da0310da2ae713c73990a15d4b72d2e723fcb283b8b9e81f79d80935001905060405180910390a16040516350d8cd4b60e01b81525f906001600160a01b037f000000000000000000000000000000000000000000000000000000000000000016906350d8cd4b906107c69084908890829033903090600401610a94565b60408051808303815f875af11580156107e1573d5f803e3d5ffd5b505050506040513d601f19601f820116820180604052508101906108059190610ad0565b50604051632e1a7d4d60e01b8152600481018290529091507f00000000000000000000000000000000000000000000000000000000000000006001600160a01b031690632e1a7d4d906024015f604051808303815f87803b158015610868575f80fd5b505af115801561087a573d5f803e3d5ffd5b505050505f836001600160a01b0316826040515f6040518083038185875af1925050503d805f81146108c7576040519150601f19603f3d011682016040523d82523d5f602084013e6108cc565b606091505b50509050806109135760405162461bcd60e51b8152602060048201526013602482015272115512081d1c985b9cd9995c8819985a5b1959606a1b60448201526064016102ba565b604080518381526001600160a01b03861660208201527f6e02acee5001c9c48e033cce6e7193e2717a4dc1d239424dcf41e995471f6385910160405180910390a160408051336020820152429181019190915260600160405160208183030381529060405280519060200120925050509392505050565b80356001600160a01b03811681146109a0575f80fd5b919050565b5f602082840312156109b5575f80fd5b6109be8261098a565b9392505050565b5f805f606084860312156109d7575f80fd5b83359250602084013591506109ee6040850161098a565b90509250925092565b5f60208284031215610a07575f80fd5b815180151581146109be575f80fd5b80546001600160a01b039081168352600182015481166020840152600282015481166040840152600382015416606083015260040154608090910152565b5f610100610a628387610a16565b60a0830194909452506001600160a01b039190911660c082015260e081018290525f9181019190915261012001919050565b6101208101610aa38288610a16565b60a082019590955260c08101939093526001600160a01b0391821660e08401521661010090910152919050565b5f8060408385031215610ae1575f80fd5b50508051602090910151909290915056fea2646970667358221220110fac04ef368f43b0027d8c212007127389a831701fc68ac37f70ad518c9dde64736f6c63430008140033","linkReferences":{}},"methodIdentifiers":{"authorizeCircle(address)":"4a81067d","authorizedCallers(address)":"536fff6c","initializeMorphoAuthorization()":"6e8ad2aa","marketParams()":"7b9e68f2","morpho()":"d8fbc833","owner()":"8da5cb5b","supplyCollateralAndBorrow(uint256,uint256,address)":"90c0d596","weth()":"3fc8cef3","wstETH()":"4aa07e64"},"id":17}