{"abi":[{"type":"constructor","inputs":[],"stateMutability":"nonpayable"},{"type":"receive","stateMutability":"payable"},{"type":"function","name":"collateralRequests","inputs":[{"name":"","type":"bytes32","internalType":"bytes32"}],"outputs":[{"name":"borrower","type":"address","internalType":"address"},{"name":"amount","type":"uint256","internalType":"uint256"},{"name":"collateralNeeded","type":"uint256","internalType":"uint256"},{"name":"totalContributed","type":"uint256","internalType":"uint256"},{"name":"totalSharesContributed","type":"uint256","internalType":"uint256"},{"name":"executed","type":"bool","internalType":"bool"},{"name":"purpose","type":"string","internalType":"string"}],"stateMutability":"view"},{"type":"function","name":"contributeToRequest","inputs":[{"name":"requestId","type":"bytes32","internalType":"bytes32"}],"outputs":[],"stateMutability":"nonpayable"},{"type":"function","name":"deposit","inputs":[],"outputs":[],"stateMutability":"payable"},{"type":"function","name":"directLTVWithdraw","inputs":[{"name":"borrowAmount","type":"uint256","internalType":"uint256"}],"outputs":[{"name":"","type":"bytes32","internalType":"bytes32"}],"stateMutability":"nonpayable"},{"type":"function","name":"executeRequest","inputs":[{"name":"requestId","type":"bytes32","internalType":"bytes32"}],"outputs":[{"name":"","type":"bytes32","internalType":"bytes32"}],"stateMutability":"nonpayable"},{"type":"function","name":"getUserBalance","inputs":[{"name":"user","type":"address","internalType":"address"}],"outputs":[{"name":"","type":"uint256","internalType":"uint256"}],"stateMutability":"view"},{"type":"function","name":"initialize","inputs":[{"name":"","type":"string","internalType":"string"},{"name":"_members","type":"address[]","internalType":"address[]"},{"name":"","type":"address","internalType":"address"},{"name":"_swapModule","type":"address","internalType":"address"},{"name":"_lendingModule","type":"address","internalType":"address"}],"outputs":[],"stateMutability":"nonpayable"},{"type":"function","name":"isMember","inputs":[{"name":"","type":"address","internalType":"address"}],"outputs":[{"name":"","type":"bool","internalType":"bool"}],"stateMutability":"view"},{"type":"function","name":"lendingModule","inputs":[],"outputs":[{"name":"","type":"address","internalType":"address"}],"stateMutability":"view"},{"type":"function","name":"loans","inputs":[{"name":"","type":"bytes32","internalType":"bytes32"}],"outputs":[{"name":"borrower","type":"address","internalType":"address"},{"name":"amount","type":"uint256","internalType":"uint256"},{"name":"collateralAmount","type":"uint256","internalType":"uint256"},{"name":"marketId","type":"bytes32","internalType":"bytes32"},{"name":"repaid","type":"bool","internalType":"bool"}],"stateMutability":"view"},{"type":"function","name":"members","inputs":[{"name":"","type":"uint256","internalType":"uint256"}],"outputs":[{"name":"","type":"address","internalType":"address"}],"stateMutability":"view"},{"type":"function","name":"morphoWethVault","inputs":[],"outputs":[{"name":"","type":"address","internalType":"contract IMorphoVault"}],"stateMutability":"view"},{"type":"function","name":"requestCollateral","inputs":[{"name":"amount","type":"uint256","internalType":"uint256"},{"name":"collateralNeeded","type":"uint256","internalType":"uint256"},{"name":"contributors","type":"address[]","internalType":"address[]"},{"name":"amounts","type":"uint256[]","internalType":"uint256[]"},{"name":"purpose","type":"string","internalType":"string"}],"outputs":[{"name":"","type":"bytes32","internalType":"bytes32"}],"stateMutability":"nonpayable"},{"type":"function","name":"swapModule","inputs":[],"outputs":[{"name":"","type":"address","internalType":"address"}],"stateMutability":"view"},{"type":"function","name":"totalShares","inputs":[],"outputs":[{"name":"","type":"uint256","internalType":"uint256"}],"stateMutability":"view"},{"type":"function","name":"userShares","inputs":[{"name":"","type":"address","internalType":"address"}],"outputs":[{"name":"","type":"uint256","internalType":"uint256"}],"stateMutability":"view"},{"type":"function","name":"weth","inputs":[],"outputs":[{"name":"","type":"address","internalType":"contract IWETH_Core"}],"stateMutability":"view"},{"type":"event","name":"CollateralRequested","inputs":[{"name":"requestId","type":"bytes32","indexed":true,"internalType":"bytes32"},{"name":"borrower","type":"address","indexed":true,"internalType":"address"},{"name":"amount","type":"uint256","indexed":false,"internalType":"uint256"}],"anonymous":false},{"type":"event","name":"ContributionMade","inputs":[{"name":"requestId","type":"bytes32","indexed":true,"internalType":"bytes32"},{"name":"contributor","type":"address","indexed":true,"internalType":"address"},{"name":"amount","type":"uint256","indexed":false,"internalType":"uint256"}],"anonymous":false},{"type":"event","name":"Deposit","inputs":[{"name":"user","type":"address","indexed":true,"internalType":"address"},{"name":"amount","type":"uint256","indexed":false,"internalType":"uint256"},{"name":"shares","type":"uint256","indexed":false,"internalType":"uint256"}],"anonymous":false},{"type":"event","name":"LoanExecuted","inputs":[{"name":"loanId","type":"bytes32","indexed":true,"internalType":"bytes32"},{"name":"requestId","type":"bytes32","indexed":true,"internalType":"bytes32"},{"name":"borrower","type":"address","indexed":true,"internalType":"address"},{"name":"amount","type":"uint256","indexed":false,"internalType":"uint256"}],"anonymous":false},{"type":"event","name":"MemberAdded","inputs":[{"name":"member","type":"address","indexed":true,"internalType":"address"}],"anonymous":false},{"type":"error","name":"ReentrancyGuardReentrantCall","inputs":[]}],"bytecode":{"object":"0x60c060405234801561000f575f80fd5b5060015f55734200000000000000000000000000000000000006608052737cbaa98bd5e171a658fdf761ed1db33806a0d34660a05260805160a0516123666100b25f395f81816101620152818161058e015281816107b301528181610a1201528181610bda01528181610cd1015281816112ff015261171801525f81816101ad01528181610dbe015281816111d10152818161126b01526117fc01526123665ff3fe6080604052600436106100fd575f3560e01c8063a230c52411610092578063de69b3aa11610062578063de69b3aa1461034c578063e821fd2f14610377578063e9c2416614610396578063f290badb146103b5578063fa716b3f146103d4575f80fd5b8063a230c5241461025e578063c05880141461029c578063c4a90815146102bb578063d0e30db014610344575f80fd5b806347734892116100cd57806347734892146101cf5780635daf08ca146101ee5780637044dda71461020d5780639a4131d31461022c575f80fd5b806325f6a624146101085780633a98ef39146101295780633b17bb88146101515780633fc8cef31461019c575f80fd5b3661010457005b5f80fd5b348015610113575f80fd5b50610127610122366004611d41565b6103f3565b005b348015610134575f80fd5b5061013e60065481565b6040519081526020015b60405180910390f35b34801561015c575f80fd5b506101847f000000000000000000000000000000000000000000000000000000000000000081565b6040516001600160a01b039091168152602001610148565b3480156101a7575f80fd5b506101847f000000000000000000000000000000000000000000000000000000000000000081565b3480156101da575f80fd5b5061013e6101e9366004611d6e565b61078b565b3480156101f9575f80fd5b50610184610208366004611d41565b61085f565b348015610218575f80fd5b50600254610184906001600160a01b031681565b348015610237575f80fd5b5061024b610246366004611d41565b610887565b6040516101489796959493929190611d87565b348015610269575f80fd5b5061028c610278366004611d6e565b60046020525f908152604090205460ff1681565b6040519015158152602001610148565b3480156102a7575f80fd5b5061013e6102b6366004611d41565b61095c565b3480156102c6575f80fd5b506103106102d5366004611d41565b60086020525f9081526040902080546001820154600283015460038401546004909401546001600160a01b0390931693919290919060ff1685565b604080516001600160a01b03909616865260208601949094529284019190915260608301521515608082015260a001610148565b61012761117a565b348015610357575f80fd5b5061013e610366366004611d6e565b60056020525f908152604090205481565b348015610382575f80fd5b50610127610391366004611f4e565b6113f8565b3480156103a1575f80fd5b5061013e6103b0366004611d41565b611621565b3480156103c0575f80fd5b5061013e6103cf366004611fde565b611b28565b3480156103df575f80fd5b50600154610184906001600160a01b031681565b6103fb611c69565b5f818152600760205260409020600981015460ff16156104555760405162461bcd60e51b815260206004820152601060248201526f105b1c9958591e48195e1958dd5d195960821b60448201526064015b60405180910390fd5b335f908152600582016020526040902054156104a95760405162461bcd60e51b8152602060048201526013602482015272105b1c9958591e4818dbdb9d1c9a589d5d1959606a1b604482015260640161044c565b5f805b600383015481101561052757336001600160a01b03168360030182815481106104d7576104d76120c8565b5f918252602090912001546001600160a01b03160361051557826004018181548110610505576105056120c8565b905f5260205f2001549150610527565b8061051f816120f0565b9150506104ac565b505f81116105775760405162461bcd60e51b815260206004820152601860248201527f4e6f20636f6e747269627574696f6e2061737369676e65640000000000000000604482015260640161044c565b6040516370a0823160e01b81523060048201525f907f00000000000000000000000000000000000000000000000000000000000000006001600160a01b0316906370a0823190602401602060405180830381865afa1580156105db573d5f803e3d5ffd5b505050506040513d601f19601f820116820180604052508101906105ff9190612108565b90505f81116106435760405162461bcd60e51b815260206004820152601060248201526f4e6f207661756c742062616c616e636560801b604482015260640161044c565b5f8160065484610653919061211f565b61065d919061213c565b335f908152600560205260409020549091508111156106b45760405162461bcd60e51b8152602060048201526013602482015272496e73756666696369656e742073686172657360681b604482015260640161044c565b335f90815260056020526040812080548392906106d290849061215b565b925050819055508060065f8282546106ea919061215b565b9091555050335f908152600585016020908152604080832086905560068701909152812082905560078501805485929061072590849061216e565b9250508190555080846008015f82825461073f919061216e565b9091555050604051838152339086907fb736b18814da81a1581cd71e835c12a580034bd300493d2c7a455ce69a50f7a09060200160405180910390a35050505061078860015f55565b50565b5f6006545f0361079c57505f919050565b6040516370a0823160e01b81523060048201525f907f00000000000000000000000000000000000000000000000000000000000000006001600160a01b0316906370a0823190602401602060405180830381865afa158015610800573d5f803e3d5ffd5b505050506040513d601f19601f820116820180604052508101906108249190612108565b6006546001600160a01b0385165f908152600560205260409020549192509061084e90839061211f565b610858919061213c565b9392505050565b6003818154811061086e575f80fd5b5f918252602090912001546001600160a01b0316905081565b600760208190525f91825260409091208054600182015460028301549383015460088401546009850154600a860180546001600160a01b0390961697949694959394929360ff90921692916108db90612181565b80601f016020809104026020016040519081016040528092919081815260200182805461090790612181565b80156109525780601f1061092957610100808354040283529160200191610952565b820191905f5260205f20905b81548152906001019060200180831161093557829003601f168201915b5050505050905087565b5f610965611c69565b335f9081526004602052604090205460ff166109935760405162461bcd60e51b815260040161044c906121b9565b5f82116109b25760405162461bcd60e51b815260040161044c906121df565b5f600654116109fb5760405162461bcd60e51b81526020600482015260156024820152744e6f206465706f7369747320696e20636972636c6560581b604482015260640161044c565b6040516370a0823160e01b81523060048201525f907f00000000000000000000000000000000000000000000000000000000000000006001600160a01b0316906370a0823190602401602060405180830381865afa158015610a5f573d5f803e3d5ffd5b505050506040513d601f19601f82011682018060405250810190610a839190612108565b600654335f9081526005602052604081205492935091610aa490849061211f565b610aae919061213c565b90505f8111610af25760405162461bcd60e51b815260206004820152601060248201526f139bc819195c1bdcda5d08199bdd5b9960821b604482015260640161044c565b5f612710610b028361213461211f565b610b0c919061213c565b905080851115610b565760405162461bcd60e51b8152602060048201526015602482015274115e18d959591cc80e0d4948131515881b1a5b5a5d605a1b604482015260640161044c565b5f612134610b668761271061211f565b610b70919061213c565b905082811115610bc25760405162461bcd60e51b815260206004820152601760248201527f496e73756666696369656e7420636f6c6c61746572616c000000000000000000604482015260640161044c565b604051630a28a47760e01b8152600481018290525f907f00000000000000000000000000000000000000000000000000000000000000006001600160a01b031690630a28a47790602401602060405180830381865afa158015610c27573d5f803e3d5ffd5b505050506040513d601f19601f82011682018060405250810190610c4b9190612108565b335f90815260056020526040902054909150811115610cac5760405162461bcd60e51b815260206004820152601860248201527f496e73756666696369656e742075736572207368617265730000000000000000604482015260640161044c565b604051635d043b2960e11b815260048101829052306024820181905260448201525f907f00000000000000000000000000000000000000000000000000000000000000006001600160a01b03169063ba087652906064016020604051808303815f875af1158015610d1f573d5f803e3d5ffd5b505050506040513d601f19601f82011682018060405250810190610d439190612108565b905082811015610d955760405162461bcd60e51b815260206004820152601760248201527f496e73756666696369656e74207769746864726177616c000000000000000000604482015260640161044c565b60015460405163095ea7b360e01b81526001600160a01b039182166004820152602481018390527f00000000000000000000000000000000000000000000000000000000000000009091169063095ea7b3906044016020604051808303815f875af1158015610e06573d5f803e3d5ffd5b505050506040513d601f19601f82011682018060405250810190610e2a919061220b565b506001546040516375c2682d60e11b8152600481018390525f916001600160a01b03169063eb84d05a906024016020604051808303815f875af1158015610e73573d5f803e3d5ffd5b505050506040513d601f19601f82011682018060405250810190610e979190612108565b90505f8111610ed65760405162461bcd60e51b815260206004820152600b60248201526a14ddd85c0819985a5b195960aa1b604482015260640161044c565b60025460405163095ea7b360e01b81526001600160a01b039091166004820152602481018290527376d8de471f54aaa87784119c60df1bbfc852c4159063095ea7b3906044016020604051808303815f875af1158015610f38573d5f803e3d5ffd5b505050506040513d601f19601f82011682018060405250810190610f5c919061220b565b506002546040516348606acb60e11b815260048101839052602481018b90523360448201525f916001600160a01b0316906390c0d596906064016020604051808303815f875af1158015610fb2573d5f803e3d5ffd5b505050506040513d601f19601f82011682018060405250810190610fd69190612108565b6040516bffffffffffffffffffffffff193360601b166020820152603481018c905242605482015265191a5c9958dd60d21b60748201529091505f90607a016040516020818303038152906040528051906020012090506040518060a00160405280336001600160a01b031681526020018c81526020018481526020018381526020015f151581525060085f8381526020019081526020015f205f820151815f015f6101000a8154816001600160a01b0302191690836001600160a01b031602179055506020820151816001015560408201518160020155606082015181600301556080820151816004015f6101000a81548160ff0219169083151502179055509050508460055f336001600160a01b03166001600160a01b031681526020019081526020015f205f82825461110c919061215b565b925050819055508460065f828254611124919061215b565b90915550506040518b815233905f9083907fbba88c1e49240c20a1d39cb8fde6b32c6731a6e105afe2e83b197721eb804ab09060200160405180910390a49850505050505050505061117560015f55565b919050565b611182611c69565b5f34116111a15760405162461bcd60e51b815260040161044c906121df565b335f9081526004602052604090205460ff166111cf5760405162461bcd60e51b815260040161044c906121b9565b7f00000000000000000000000000000000000000000000000000000000000000006001600160a01b031663d0e30db0346040518263ffffffff1660e01b81526004015f604051808303818588803b158015611228575f80fd5b505af115801561123a573d5f803e3d5ffd5b505060405163095ea7b360e01b8152737cbaa98bd5e171a658fdf761ed1db33806a0d34660048201523460248201527f00000000000000000000000000000000000000000000000000000000000000006001600160a01b0316935063095ea7b3925060440190506020604051808303815f875af11580156112bd573d5f803e3d5ffd5b505050506040513d601f19601f820116820180604052508101906112e1919061220b565b50604051636e553f6560e01b81523460048201523060248201525f907f00000000000000000000000000000000000000000000000000000000000000006001600160a01b031690636e553f65906044016020604051808303815f875af115801561134d573d5f803e3d5ffd5b505050506040513d601f19601f820116820180604052508101906113719190612108565b335f9081526005602052604081208054929350839290919061139490849061216e565b925050819055508060065f8282546113ac919061216e565b9091555050604080513481526020810183905233917f90890809c654f11d6e72a28fa60149770a0d11ec6c92319d6ceb2bb0a4ea1a15910160405180910390a2506113f660015f55565b565b6003541561143e5760405162461bcd60e51b8152602060048201526013602482015272105b1c9958591e481a5b9a5d1a585b1a5e9959606a1b604482015260640161044c565b6001600160a01b03821661148a5760405162461bcd60e51b8152602060048201526013602482015272496e76616c69642073776170206d6f64756c6560681b604482015260640161044c565b6001600160a01b0381166114d95760405162461bcd60e51b8152602060048201526016602482015275496e76616c6964206c656e64696e67206d6f64756c6560501b604482015260640161044c565b600180546001600160a01b038085166001600160a01b03199283161790925560028054928416929091169190911790555f5b8451811015611619576003858281518110611528576115286120c8565b6020908102919091018101518254600180820185555f9485529284200180546001600160a01b0319166001600160a01b039092169190911790558651909160049188908590811061157b5761157b6120c8565b60200260200101516001600160a01b03166001600160a01b031681526020019081526020015f205f6101000a81548160ff0219169083151502179055508481815181106115ca576115ca6120c8565b60200260200101516001600160a01b03167fb251eb052afc73ffd02ffe85ad79990a8b3fed60d76dbc2fa2fdd7123dffd91460405160405180910390a280611611816120f0565b91505061150b565b505050505050565b5f61162a611c69565b5f828152600760205260409020600981015460ff161561167f5760405162461bcd60e51b815260206004820152601060248201526f105b1c9958591e48195e1958dd5d195960821b604482015260640161044c565b8060020154816007015410156116d75760405162461bcd60e51b815260206004820152601a60248201527f496e73756666696369656e7420636f6e747269627574696f6e73000000000000604482015260640161044c565b60098101805460ff191660011790556008810154604051635d043b2960e11b815260048101829052306024820181905260448201525f906001600160a01b037f0000000000000000000000000000000000000000000000000000000000000000169063ba087652906064016020604051808303815f875af115801561175e573d5f803e3d5ffd5b505050506040513d601f19601f820116820180604052508101906117829190612108565b90505f81116117d35760405162461bcd60e51b815260206004820152601b60248201527f4e6f20574554482072656365697665642066726f6d207661756c740000000000604482015260640161044c565b60015460405163095ea7b360e01b81526001600160a01b039182166004820152602481018390527f00000000000000000000000000000000000000000000000000000000000000009091169063095ea7b3906044016020604051808303815f875af1158015611844573d5f803e3d5ffd5b505050506040513d601f19601f82011682018060405250810190611868919061220b565b506001546040516375c2682d60e11b8152600481018390525f916001600160a01b03169063eb84d05a906024016020604051808303815f875af11580156118b1573d5f803e3d5ffd5b505050506040513d601f19601f820116820180604052508101906118d59190612108565b90505f81116119145760405162461bcd60e51b815260206004820152600b60248201526a14ddd85c0819985a5b195960aa1b604482015260640161044c565b60025460405163095ea7b360e01b81526001600160a01b039091166004820152602481018290527376d8de471f54aaa87784119c60df1bbfc852c4159063095ea7b3906044016020604051808303815f875af1158015611976573d5f803e3d5ffd5b505050506040513d601f19601f8201168201806040525081019061199a919061220b565b50600254600185015485546040516348606acb60e11b81526004810185905260248101929092526001600160a01b0390811660448301525f9216906390c0d596906064016020604051808303815f875af11580156119fa573d5f803e3d5ffd5b505050506040513d601f19601f82011682018060405250810190611a1e9190612108565b90505f8742604051602001611a3d929190918252602082015260400190565b60408051808303601f19018152828252805160209182012060a08401835289546001600160a01b0390811685526001808c0180548588019081528787018b8152606089018b81525f60808b0181815288825260088a52908a90209a518b546001600160a01b031916908816178b559251948a01949094555160028901559151600388015590516004909601805460ff1916961515969096179095558a549454935193845290945092909216918a9184917fbba88c1e49240c20a1d39cb8fde6b32c6731a6e105afe2e83b197721eb804ab0910160405180910390a49550505050505061117560015f55565b335f9081526004602052604081205460ff16611b565760405162461bcd60e51b815260040161044c906121b9565b5f8611611b755760405162461bcd60e51b815260040161044c906121df565b6040516bffffffffffffffffffffffff193360601b166020820152603481018790524260548201524360748201525f9060940160408051601f1981840301815291815281516020928301205f818152600784529190912080546001600160a01b03191633178155600181018a905560028101899055875191935091611c01916003840191890190611c91565b508451611c179060048301906020880190611cf4565b50600a8101611c268582612274565b50604051888152339083907ffe36a66582b635499551d95a0c4321b1a990300a908ec041eb35054f24e5cdfa9060200160405180910390a3509695505050505050565b60025f5403611c8b57604051633ee5aeb560e01b815260040160405180910390fd5b60025f55565b828054828255905f5260205f20908101928215611ce4579160200282015b82811115611ce457825182546001600160a01b0319166001600160a01b03909116178255602090920191600190910190611caf565b50611cf0929150611d2d565b5090565b828054828255905f5260205f20908101928215611ce4579160200282015b82811115611ce4578251825591602001919060010190611d12565b5b80821115611cf0575f8155600101611d2e565b5f60208284031215611d51575f80fd5b5035919050565b80356001600160a01b0381168114611175575f80fd5b5f60208284031215611d7e575f80fd5b61085882611d58565b60018060a01b03881681525f6020888184015287604084015286606084015285608084015284151560a084015260e060c084015283518060e08501525f5b81811015611de25785810183015185820161010001528201611dc5565b5061010091505f82828601015281601f19601f8301168501019250505098975050505050505050565b634e487b7160e01b5f52604160045260245ffd5b604051601f8201601f1916810167ffffffffffffffff81118282101715611e4857611e48611e0b565b604052919050565b5f82601f830112611e5f575f80fd5b813567ffffffffffffffff811115611e7957611e79611e0b565b611e8c601f8201601f1916602001611e1f565b818152846020838601011115611ea0575f80fd5b816020850160208301375f918101602001919091529392505050565b5f67ffffffffffffffff821115611ed557611ed5611e0b565b5060051b60200190565b5f82601f830112611eee575f80fd5b81356020611f03611efe83611ebc565b611e1f565b82815260059290921b84018101918181019086841115611f21575f80fd5b8286015b84811015611f4357611f3681611d58565b8352918301918301611f25565b509695505050505050565b5f805f805f60a08688031215611f62575f80fd5b853567ffffffffffffffff80821115611f79575f80fd5b611f8589838a01611e50565b96506020880135915080821115611f9a575f80fd5b50611fa788828901611edf565b945050611fb660408701611d58565b9250611fc460608701611d58565b9150611fd260808701611d58565b90509295509295909350565b5f805f805f60a08688031215611ff2575f80fd5b853594506020808701359450604087013567ffffffffffffffff80821115612018575f80fd5b6120248a838b01611edf565b95506060890135915080821115612039575f80fd5b818901915089601f83011261204c575f80fd5b813561205a611efe82611ebc565b81815260059190911b8301840190848101908c831115612078575f80fd5b938501935b828510156120965784358252938501939085019061207d565b9650505060808901359250808311156120ad575f80fd5b50506120bb88828901611e50565b9150509295509295909350565b634e487b7160e01b5f52603260045260245ffd5b634e487b7160e01b5f52601160045260245ffd5b5f60018201612101576121016120dc565b5060010190565b5f60208284031215612118575f80fd5b5051919050565b8082028115828204841417612136576121366120dc565b92915050565b5f8261215657634e487b7160e01b5f52601260045260245ffd5b500490565b81810381811115612136576121366120dc565b80820180821115612136576121366120dc565b600181811c9082168061219557607f821691505b6020821081036121b357634e487b7160e01b5f52602260045260245ffd5b50919050565b6020808252600c908201526b2737ba10309036b2b6b132b960a11b604082015260600190565b6020808252601290820152710416d6f756e74206d757374206265203e20360741b604082015260600190565b5f6020828403121561221b575f80fd5b81518015158114610858575f80fd5b601f82111561226f575f81815260208120601f850160051c810160208610156122505750805b601f850160051c820191505b818110156116195782815560010161225c565b505050565b815167ffffffffffffffff81111561228e5761228e611e0b565b6122a28161229c8454612181565b8461222a565b602080601f8311600181146122d5575f84156122be5750858301515b5f19600386901b1c1916600185901b178555611619565b5f85815260208120601f198616915b82811015612303578886015182559484019460019091019084016122e4565b508582101561232057878501515f19600388901b60f8161c191681555b5050505050600190811b0190555056fea2646970667358221220ddcd85c5f36cbe5261f1ec3b37d39b4307ce7b96125bad72d17feccca030006664736f6c63430008140033","linkReferences":{}},"methodIdentifiers":{"collateralRequests(bytes32)":"9a4131d3","contributeToRequest(bytes32)":"25f6a624","deposit()":"d0e30db0","directLTVWithdraw(uint256)":"c0588014","executeRequest(bytes32)":"e9c24166","getUserBalance(address)":"47734892","initialize(string,address[],address,address,address)":"e821fd2f","isMember(address)":"a230c524","lendingModule()":"7044dda7","loans(bytes32)":"c4a90815","members(uint256)":"5daf08ca","morphoWethVault()":"3b17bb88","requestCollateral(uint256,uint256,address[],uint256[],string)":"f290badb","swapModule()":"fa716b3f","totalShares()":"3a98ef39","userShares(address)":"de69b3aa","weth()":"3fc8cef3"},"id":19}