{"abi":[{"type":"constructor","inputs":[{"name":"_registry","type":"address","internalType":"address"}],"stateMutability":"nonpayable"},{"type":"function","name":"getCircleCount","inputs":[],"outputs":[{"name":"","type":"uint256","internalType":"uint256"}],"stateMutability":"view"},{"type":"function","name":"getUserCircles","inputs":[{"name":"user","type":"address","internalType":"address"}],"outputs":[{"name":"","type":"address[]","internalType":"address[]"}],"stateMutability":"view"},{"type":"function","name":"nameExists","inputs":[{"name":"","type":"string","internalType":"string"}],"outputs":[{"name":"","type":"bool","internalType":"bool"}],"stateMutability":"view"},{"type":"function","name":"registerCircle","inputs":[{"name":"circleAddress","type":"address","internalType":"address"},{"name":"name","type":"string","internalType":"string"}],"outputs":[],"stateMutability":"nonpayable"},{"type":"function","name":"registry","inputs":[],"outputs":[{"name":"","type":"address","internalType":"contract CircleRegistry"}],"stateMutability":"view"},{"type":"event","name":"CircleCreated","inputs":[{"name":"circleAddress","type":"address","indexed":true,"internalType":"address"},{"name":"name","type":"string","indexed":false,"internalType":"string"},{"name":"creator","type":"address","indexed":true,"internalType":"address"}],"anonymous":false}],"bytecode":{"object":"0x60a060405234801561000f575f80fd5b5060405161090a38038061090a83398101604081905261002e9161003f565b6001600160a01b031660805261006c565b5f6020828403121561004f575f80fd5b81516001600160a01b0381168114610065575f80fd5b9392505050565b6080516108726100985f395f8181605e01528181610147015281816103c2015261047701526108725ff3fe608060405234801561000f575f80fd5b5060043610610055575f3560e01c80637b1039991461005957806388e81d8a1461009d57806394db4d85146100bd578063cc637afe146100d2578063e1f2dfce1461010f575b5f80fd5b6100807f000000000000000000000000000000000000000000000000000000000000000081565b6040516001600160a01b0390911681526020015b60405180910390f35b6100b06100ab366004610511565b610125565b6040516100949190610575565b6100d06100cb366004610638565b6101ba565b005b6100ff6100e0366004610685565b80516020818301810180515f8252928201919093012091525460ff1681565b6040519015158152602001610094565b610117610474565b604051908152602001610094565b6040516344740ec560e11b81526001600160a01b0382811660048301526060917f0000000000000000000000000000000000000000000000000000000000000000909116906388e81d8a906024015f60405180830381865afa15801561018d573d5f803e3d5ffd5b505050506040513d5f823e601f3d908101601f191682016040526101b491908101906106bf565b92915050565b6001600160a01b0382166102075760405162461bcd60e51b815260206004820152600f60248201526e496e76616c6964206164647265737360881b60448201526064015b60405180910390fd5b5f8151116102475760405162461bcd60e51b815260206004820152600d60248201526c13985b59481c995c5d5a5c9959609a1b60448201526064016101fe565b5f81604051610256919061078e565b9081526040519081900360200190205460ff16156102a45760405162461bcd60e51b815260206004820152600b60248201526a4e616d652065786973747360a81b60448201526064016101fe565b6040513360248201525f906001600160a01b0384169060440160408051601f198184030181529181526020820180516001600160e01b031663035d692160e31b179052516102f2919061078e565b5f604051808303815f865af19150503d805f811461032b576040519150601f19603f3d011682016040523d82523d5f602084013e610330565b606091505b50509050806103725760405162461bcd60e51b815260206004820152600e60248201526d139bdd08185d5d1a1bdc9a5e995960921b60448201526064016101fe565b60015f83604051610383919061078e565b9081526040805160209281900383018120805460ff1916941515949094179093555f8352908201908190526318e4ed3d60e21b90526001600160a01b037f000000000000000000000000000000000000000000000000000000000000000016636393b4f46103f6868685602481016107d4565b5f604051808303815f87803b15801561040d575f80fd5b505af115801561041f573d5f803e3d5ffd5b50505050336001600160a01b0316846001600160a01b03167f15e639cb5334ee5b47e49005d0ff7b1c2f39098dd2da49668b9085d0659757cc856040516104669190610813565b60405180910390a350505050565b5f7f00000000000000000000000000000000000000000000000000000000000000006001600160a01b031663e1f2dfce6040518163ffffffff1660e01b8152600401602060405180830381865afa1580156104d1573d5f803e3d5ffd5b505050506040513d601f19601f820116820180604052508101906104f59190610825565b905090565b6001600160a01b038116811461050e575f80fd5b50565b5f60208284031215610521575f80fd5b813561052c816104fa565b9392505050565b5f8151808452602080850194508084015f5b8381101561056a5781516001600160a01b031687529582019590820190600101610545565b509495945050505050565b602081525f61052c6020830184610533565b634e487b7160e01b5f52604160045260245ffd5b604051601f8201601f1916810167ffffffffffffffff811182821017156105c4576105c4610587565b604052919050565b5f82601f8301126105db575f80fd5b813567ffffffffffffffff8111156105f5576105f5610587565b610608601f8201601f191660200161059b565b81815284602083860101111561061c575f80fd5b816020850160208301375f918101602001919091529392505050565b5f8060408385031215610649575f80fd5b8235610654816104fa565b9150602083013567ffffffffffffffff81111561066f575f80fd5b61067b858286016105cc565b9150509250929050565b5f60208284031215610695575f80fd5b813567ffffffffffffffff8111156106ab575f80fd5b6106b7848285016105cc565b949350505050565b5f60208083850312156106d0575f80fd5b825167ffffffffffffffff808211156106e7575f80fd5b818501915085601f8301126106fa575f80fd5b81518181111561070c5761070c610587565b8060051b915061071d84830161059b565b8181529183018401918481019088841115610736575f80fd5b938501935b838510156107605784519250610750836104fa565b828252938501939085019061073b565b98975050505050505050565b5f5b8381101561078657818101518382015260200161076e565b50505f910152565b5f825161079f81846020870161076c565b9190910192915050565b5f81518084526107c081602086016020860161076c565b601f01601f19169290920160200192915050565b6001600160a01b03841681526060602082018190525f906107f7908301856107a9565b82810360408401526108098185610533565b9695505050505050565b602081525f61052c60208301846107a9565b5f60208284031215610835575f80fd5b505191905056fea26469706673582212202854e3c3436fea3f1d145dc935fbd4af2b24601f71cfd5eeebdd365acb479bba64736f6c63430008140033","linkReferences":{}},"methodIdentifiers":{"getCircleCount()":"e1f2dfce","getUserCircles(address)":"88e81d8a","nameExists(string)":"cc637afe","registerCircle(address,string)":"94db4d85","registry()":"7b103999"},"id":49}