{"abi":[{"type":"function","name":"BASE_YIELD_RATE","inputs":[],"outputs":[{"name":"","type":"uint256","internalType":"uint256"}],"stateMutability":"view"},{"type":"function","name":"BASIS_POINTS","inputs":[],"outputs":[{"name":"","type":"uint256","internalType":"uint256"}],"stateMutability":"view"},{"type":"function","name":"BORROWING_RATE","inputs":[],"outputs":[{"name":"","type":"uint256","internalType":"uint256"}],"stateMutability":"view"},{"type":"function","name":"CHAIN_ID","inputs":[],"outputs":[{"name":"","type":"uint256","internalType":"uint256"}],"stateMutability":"view"},{"type":"function","name":"CHAIN_NAME","inputs":[],"outputs":[{"name":"","type":"string","internalType":"string"}],"stateMutability":"view"},{"type":"function","name":"DEADLINE_BUFFER","inputs":[],"outputs":[{"name":"","type":"uint256","internalType":"uint256"}],"stateMutability":"view"},{"type":"function","name":"DEFAULT_LTV","inputs":[],"outputs":[{"name":"","type":"uint256","internalType":"uint256"}],"stateMutability":"view"},{"type":"function","name":"MAX_CIRCLE_MEMBERS","inputs":[],"outputs":[{"name":"","type":"uint256","internalType":"uint256"}],"stateMutability":"view"},{"type":"function","name":"MAX_LOAN_DURATION","inputs":[],"outputs":[{"name":"","type":"uint256","internalType":"uint256"}],"stateMutability":"view"},{"type":"function","name":"MAX_SLIPPAGE","inputs":[],"outputs":[{"name":"","type":"uint256","internalType":"uint256"}],"stateMutability":"view"},{"type":"function","name":"MIN_CONTRIBUTION","inputs":[],"outputs":[{"name":"","type":"uint256","internalType":"uint256"}],"stateMutability":"view"},{"type":"function","name":"MORPHO_IRM","inputs":[],"outputs":[{"name":"","type":"address","internalType":"address"}],"stateMutability":"view"},{"type":"function","name":"MORPHO_LENDING_MARKET","inputs":[],"outputs":[{"name":"","type":"address","internalType":"address"}],"stateMutability":"view"},{"type":"function","name":"MORPHO_LLTV","inputs":[],"outputs":[{"name":"","type":"uint256","internalType":"uint256"}],"stateMutability":"view"},{"type":"function","name":"MORPHO_ORACLE","inputs":[],"outputs":[{"name":"","type":"address","internalType":"address"}],"stateMutability":"view"},{"type":"function","name":"MORPHO_WETH_VAULT","inputs":[],"outputs":[{"name":"","type":"address","internalType":"address"}],"stateMutability":"view"},{"type":"function","name":"MORPHO_WETH_wstETH_MARKET_ID","inputs":[],"outputs":[{"name":"","type":"bytes32","internalType":"bytes32"}],"stateMutability":"view"},{"type":"function","name":"MORPHO_wstETH_VAULT","inputs":[],"outputs":[{"name":"","type":"address","internalType":"address"}],"stateMutability":"view"},{"type":"function","name":"USDC","inputs":[],"outputs":[{"name":"","type":"address","internalType":"address"}],"stateMutability":"view"},{"type":"function","name":"VELODROME_FACTORY","inputs":[],"outputs":[{"name":"","type":"address","internalType":"address"}],"stateMutability":"view"},{"type":"function","name":"VELODROME_FACTORY_CL","inputs":[],"outputs":[{"name":"","type":"address","internalType":"address"}],"stateMutability":"view"},{"type":"function","name":"VELODROME_FACTORY_V2","inputs":[],"outputs":[{"name":"","type":"address","internalType":"address"}],"stateMutability":"view"},{"type":"function","name":"VELODROME_POOL_IMPL","inputs":[],"outputs":[{"name":"","type":"address","internalType":"address"}],"stateMutability":"view"},{"type":"function","name":"VELODROME_ROUTER","inputs":[],"outputs":[{"name":"","type":"address","internalType":"address"}],"stateMutability":"view"},{"type":"function","name":"VELODROME_UNIVERSAL_ROUTER","inputs":[],"outputs":[{"name":"","type":"address","internalType":"address"}],"stateMutability":"view"},{"type":"function","name":"WETH","inputs":[],"outputs":[{"name":"","type":"address","internalType":"address"}],"stateMutability":"view"},{"type":"function","name":"WETH_wstETH_CL_POOL","inputs":[],"outputs":[{"name":"","type":"address","internalType":"address"}],"stateMutability":"view"},{"type":"function","name":"wstETH","inputs":[],"outputs":[{"name":"","type":"address","internalType":"address"}],"stateMutability":"view"}],"bytecode":{"object":"0x608060405234801561000f575f80fd5b506104798061001d5f395ff3fe608060405234801561000f575f80fd5b50600436106101bb575f3560e01c80635f7fdfe0116100f3578063cb909a6011610093578063e1f1c4a71161006e578063e1f1c4a7146103a9578063eb50cdb1146103b2578063f9759518146102e7578063fe966107146103cd575f80fd5b8063cb909a601461034c578063d647838414610373578063dfe287d31461038e575f80fd5b806389a30271116100ce57806389a30271146103085780639588dffe14610323578063a3b49bcb14610266578063ad5c46481461033e575f80fd5b80635f7fdfe0146102ef5780637200a711146102f657806385e1f4d0146102ff575f80fd5b80633e8c6e431161015e578063463c1d0a11610139578063463c1d0a146102a85780634aa07e64146102c3578063517ef1d7146102de57806354ab7909146102e7575f80fd5b80633e8c6e431461026657806340158af61461028157806340650c911461029c575f80fd5b80631b930720116101995780631b9307201461022a5780631e634d541461023357806327117f481461024e578063289fff9e14610257575f80fd5b80630d0b2ca6146101bf5780630da4c628146101dd5780630ecd7d551461020f575b5f80fd5b6101ca6301e1338081565b6040519081526020015b60405180910390f35b6101f772cd58deebd7a2f1c55daec715faf8aed5b27bf881565b6040516001600160a01b0390911681526020016101d4565b6101f7739c69e0b64a63aa7daa0b5dc61df3cc77ea05bcb381565b6101ca61213481565b6101f77310499d88bd32af443fc936f67de32be1c8bb374c81565b6101ca61070881565b6101ca670d18c2e28000000081565b6101f77304625b046c69577efc40e6c0bb83cdbafab5a55f81565b6101f7735576629f21d528a8c3e06c338dda907b9456390281565b6101ca64e8d4a5100081565b6101f7737cbaa98bd5e171a658fdf761ed1db33806a0d34681565b6101f77376d8de471f54aaa87784119c60df1bbfc852c41581565b6101ca61032081565b6101ca603281565b6101f75f81565b6101ca6101f481565b6101ca61046f81565b6101f77305d032ac25d322df992303dca074ee7392c117b981565b6101f7733a63171dd9bebf4d07bc782fecc7eb0b890c2a4581565b6101f76006602160991b0181565b6101ca7faf10335b50689207d1fd37afd98e87aa0eb209c9074d8655642636223cc5f3a081565b6101f77331832f2a97fd20664d76cc421207669b55ce4bc081565b6101f7737a378060a8a1fc5861d58bfd1a58581ca11ca70c81565b6101ca61271081565b6101f77301d40099fcd87c018969b0e8d4ab1633fb34763c81565b6103f0604051806040016040528060048152602001634c69736b60e01b81525081565b6040516101d491905f6020808352835180828501525f5b8181101561042357858101830151858201604001528201610407565b505f604082860101526040601f19601f830116850101925050509291505056fea2646970667358221220ba502acd0fdf9a2774245574f7cd37e20578cc0b23933089be22ad145e1f0fb464736f6c63430008140033","linkReferences":{}},"methodIdentifiers":{"BASE_YIELD_RATE()":"7200a711","BASIS_POINTS()":"e1f1c4a7","BORROWING_RATE()":"517ef1d7","CHAIN_ID()":"85e1f4d0","CHAIN_NAME()":"fe966107","DEADLINE_BUFFER()":"27117f48","DEFAULT_LTV()":"1b930720","MAX_CIRCLE_MEMBERS()":"54ab7909","MAX_LOAN_DURATION()":"0d0b2ca6","MAX_SLIPPAGE()":"f9759518","MIN_CONTRIBUTION()":"40650c91","MORPHO_IRM()":"40158af6","MORPHO_LENDING_MARKET()":"0da4c628","MORPHO_LLTV()":"289fff9e","MORPHO_ORACLE()":"dfe287d3","MORPHO_WETH_VAULT()":"463c1d0a","MORPHO_WETH_wstETH_MARKET_ID()":"cb909a60","MORPHO_wstETH_VAULT()":"5f7fdfe0","USDC()":"89a30271","VELODROME_FACTORY()":"3e8c6e43","VELODROME_FACTORY_CL()":"a3b49bcb","VELODROME_FACTORY_V2()":"d6478384","VELODROME_POOL_IMPL()":"1e634d54","VELODROME_ROUTER()":"9588dffe","VELODROME_UNIVERSAL_ROUTER()":"eb50cdb1","WETH()":"ad5c4648","WETH_wstETH_CL_POOL()":"0ecd7d55","wstETH()":"4aa07e64"},"id":27}