{"abi":[{"type":"constructor","inputs":[],"stateMutability":"nonpayable"},{"type":"function","name":"BASE_YIELD_RATE","inputs":[],"outputs":[{"name":"","type":"uint256","internalType":"uint256"}],"stateMutability":"view"},{"type":"function","name":"BASIS_POINTS","inputs":[],"outputs":[{"name":"","type":"uint256","internalType":"uint256"}],"stateMutability":"view"},{"type":"function","name":"BORROWING_RATE","inputs":[],"outputs":[{"name":"","type":"uint256","internalType":"uint256"}],"stateMutability":"view"},{"type":"function","name":"CHAIN_ID","inputs":[],"outputs":[{"name":"","type":"uint256","internalType":"uint256"}],"stateMutability":"view"},{"type":"function","name":"CHAIN_NAME","inputs":[],"outputs":[{"name":"","type":"string","internalType":"string"}],"stateMutability":"view"},{"type":"function","name":"DEADLINE_BUFFER","inputs":[],"outputs":[{"name":"","type":"uint256","internalType":"uint256"}],"stateMutability":"view"},{"type":"function","name":"DEFAULT_LTV","inputs":[],"outputs":[{"name":"","type":"uint256","internalType":"uint256"}],"stateMutability":"view"},{"type":"function","name":"FEE_HIGH","inputs":[],"outputs":[{"name":"","type":"uint24","internalType":"uint24"}],"stateMutability":"view"},{"type":"function","name":"FEE_LOW","inputs":[],"outputs":[{"name":"","type":"uint24","internalType":"uint24"}],"stateMutability":"view"},{"type":"function","name":"FEE_LOWEST","inputs":[],"outputs":[{"name":"","type":"uint24","internalType":"uint24"}],"stateMutability":"view"},{"type":"function","name":"FEE_MEDIUM","inputs":[],"outputs":[{"name":"","type":"uint24","internalType":"uint24"}],"stateMutability":"view"},{"type":"function","name":"KNOWN_WETH_wstETH_POOL","inputs":[],"outputs":[{"name":"","type":"address","internalType":"address"}],"stateMutability":"view"},{"type":"function","name":"MAX_CIRCLE_MEMBERS","inputs":[],"outputs":[{"name":"","type":"uint256","internalType":"uint256"}],"stateMutability":"view"},{"type":"function","name":"MAX_LOAN_DURATION","inputs":[],"outputs":[{"name":"","type":"uint256","internalType":"uint256"}],"stateMutability":"view"},{"type":"function","name":"MAX_SLIPPAGE","inputs":[],"outputs":[{"name":"","type":"uint256","internalType":"uint256"}],"stateMutability":"view"},{"type":"function","name":"MIN_CONTRIBUTION","inputs":[],"outputs":[{"name":"","type":"uint256","internalType":"uint256"}],"stateMutability":"view"},{"type":"function","name":"MORPHO_IRM","inputs":[],"outputs":[{"name":"","type":"address","internalType":"address"}],"stateMutability":"view"},{"type":"function","name":"MORPHO_LENDING_MARKET","inputs":[],"outputs":[{"name":"","type":"address","internalType":"address"}],"stateMutability":"view"},{"type":"function","name":"MORPHO_LLTV","inputs":[],"outputs":[{"name":"","type":"uint256","internalType":"uint256"}],"stateMutability":"view"},{"type":"function","name":"MORPHO_ORACLE","inputs":[],"outputs":[{"name":"","type":"address","internalType":"address"}],"stateMutability":"view"},{"type":"function","name":"MORPHO_WETH_VAULT","inputs":[],"outputs":[{"name":"","type":"address","internalType":"address"}],"stateMutability":"view"},{"type":"function","name":"MORPHO_WETH_wstETH_MARKET_ID","inputs":[],"outputs":[{"name":"","type":"bytes32","internalType":"bytes32"}],"stateMutability":"view"},{"type":"function","name":"MORPHO_wstETH_VAULT","inputs":[],"outputs":[{"name":"","type":"address","internalType":"address"}],"stateMutability":"view"},{"type":"function","name":"USDC","inputs":[],"outputs":[{"name":"","type":"address","internalType":"address"}],"stateMutability":"view"},{"type":"function","name":"VELODROME_FACTORY","inputs":[],"outputs":[{"name":"","type":"address","internalType":"address"}],"stateMutability":"view"},{"type":"function","name":"VELODROME_FACTORY_CL","inputs":[],"outputs":[{"name":"","type":"address","internalType":"address"}],"stateMutability":"view"},{"type":"function","name":"VELODROME_FACTORY_V2","inputs":[],"outputs":[{"name":"","type":"address","internalType":"address"}],"stateMutability":"view"},{"type":"function","name":"VELODROME_POOL_IMPL","inputs":[],"outputs":[{"name":"","type":"address","internalType":"address"}],"stateMutability":"view"},{"type":"function","name":"VELODROME_ROUTER","inputs":[],"outputs":[{"name":"","type":"address","internalType":"address"}],"stateMutability":"view"},{"type":"function","name":"VELODROME_UNIVERSAL_ROUTER","inputs":[],"outputs":[{"name":"","type":"address","internalType":"address"}],"stateMutability":"view"},{"type":"function","name":"WETH","inputs":[],"outputs":[{"name":"","type":"address","internalType":"address"}],"stateMutability":"view"},{"type":"function","name":"WETH_wstETH_CL_POOL","inputs":[],"outputs":[{"name":"","type":"address","internalType":"address"}],"stateMutability":"view"},{"type":"function","name":"calculateMinAmountOut","inputs":[{"name":"expectedAmount","type":"uint256","internalType":"uint256"}],"outputs":[{"name":"minAmount","type":"uint256","internalType":"uint256"}],"stateMutability":"pure"},{"type":"function","name":"calculateMinAmountOutWithSlippage","inputs":[{"name":"expectedAmount","type":"uint256","internalType":"uint256"},{"name":"slippageBps","type":"uint256","internalType":"uint256"}],"outputs":[{"name":"minAmount","type":"uint256","internalType":"uint256"}],"stateMutability":"pure"},{"type":"function","name":"factoryCL","inputs":[],"outputs":[{"name":"","type":"address","internalType":"contract IVelodromeSlipstreamFactory"}],"stateMutability":"view"},{"type":"function","name":"factoryV2","inputs":[],"outputs":[{"name":"","type":"address","internalType":"contract IVelodromeFactory"}],"stateMutability":"view"},{"type":"function","name":"getAllPoolAddresses","inputs":[],"outputs":[{"name":"poolLow","type":"address","internalType":"address"},{"name":"poolMedium","type":"address","internalType":"address"},{"name":"poolHigh","type":"address","internalType":"address"},{"name":"poolV2","type":"address","internalType":"address"}],"stateMutability":"view"},{"type":"function","name":"getETHToWstETHAmountOut","inputs":[{"name":"ethAmount","type":"uint256","internalType":"uint256"}],"outputs":[{"name":"wstETHAmount","type":"uint256","internalType":"uint256"}],"stateMutability":"view"},{"type":"function","name":"getETHToWstETHRoute","inputs":[],"outputs":[{"name":"routes","type":"tuple[]","internalType":"struct IVelodromeRouter.Route[]","components":[{"name":"from","type":"address","internalType":"address"},{"name":"to","type":"address","internalType":"address"},{"name":"stable","type":"bool","internalType":"bool"},{"name":"factory","type":"address","internalType":"address"}]}],"stateMutability":"view"},{"type":"function","name":"getPoolAddress","inputs":[],"outputs":[{"name":"pool","type":"address","internalType":"address"},{"name":"fee","type":"uint24","internalType":"uint24"}],"stateMutability":"view"},{"type":"function","name":"getWstETHToETHAmountOut","inputs":[{"name":"wstETHAmount","type":"uint256","internalType":"uint256"}],"outputs":[{"name":"ethAmount","type":"uint256","internalType":"uint256"}],"stateMutability":"view"},{"type":"function","name":"getWstETHToETHRoute","inputs":[],"outputs":[{"name":"routes","type":"tuple[]","internalType":"struct IVelodromeRouter.Route[]","components":[{"name":"from","type":"address","internalType":"address"},{"name":"to","type":"address","internalType":"address"},{"name":"stable","type":"bool","internalType":"bool"},{"name":"factory","type":"address","internalType":"address"}]}],"stateMutability":"view"},{"type":"function","name":"poolExists","inputs":[],"outputs":[{"name":"","type":"bool","internalType":"bool"}],"stateMutability":"view"},{"type":"function","name":"router","inputs":[],"outputs":[{"name":"","type":"address","internalType":"contract IVelodromeRouter"}],"stateMutability":"view"},{"type":"function","name":"validateSlippage","inputs":[{"name":"slippageBps","type":"uint256","internalType":"uint256"}],"outputs":[],"stateMutability":"pure"},{"type":"function","name":"weth","inputs":[],"outputs":[{"name":"","type":"address","internalType":"contract IERC20"}],"stateMutability":"view"},{"type":"function","name":"wstETH","inputs":[],"outputs":[{"name":"","type":"address","internalType":"address"}],"stateMutability":"view"},{"type":"function","name":"wsteth","inputs":[],"outputs":[{"name":"","type":"address","internalType":"contract IERC20"}],"stateMutability":"view"}],"bytecode":{"object":"0x610120604052348015610010575f80fd5b50733a63171dd9bebf4d07bc782fecc7eb0b890c2a456080527331832f2a97fd20664d76cc421207669b55ce4bc060a0527304625b046c69577efc40e6c0bb83cdbafab5a55f60c05273420000000000000000000000000000000000000660e0527376d8de471f54aaa87784119c60df1bbfc852c4156101005260805160a05160c05160e05161010051610fc26100ea5f395f6105b301525f6103a101525f818161044b0152818161091c015281816109e00152610a8f01525f81816104820152610b6301525f8181610671015261081c0152610fc25ff3fe608060405234801561000f575f80fd5b5060043610610297575f3560e01c806379dc9b3211610161578063cadc1b81116100ca578063eb50cdb111610084578063eb50cdb114610614578063f2c75fa01461062f578063f586c6d914610644578063f887ea401461066c578063f97595181461043e578063fe96610714610693575f80fd5b8063cadc1b811461057f578063cb909a6014610587578063d1d8bce7146105ae578063d6478384146105d5578063dfe287d3146105f0578063e1f1c4a71461060b575f80fd5b80639f6ed41f1161011b5780639f6ed41f146102eb578063a3b49bcb1461036e578063ad5c46481461051a578063c122716214610528578063c56f1b441461053b578063ca21624714610576575f80fd5b806379dc9b32146104ad5780637abd796b146104b557806385e1f4d0146104c857806387190d5f146104d157806389a30271146104e45780639588dffe146104ff575f80fd5b806340158af61161020357806354ab7909116101bd57806354ab79091461043e5780635f635ed0146104465780635f7fdfe01461046d57806363075eb91461047457806368e0d4e11461047d5780637200a711146104a4575f80fd5b806340158af6146103c357806340650c91146103de578063463c1d0a146103ea5780634aa07e6414610405578063517ef1d71461042057806352ee6c4814610429575f80fd5b806327117f481161025457806327117f4814610339578063289fff9e146103425780633add5c05146103515780633e8c6e431461036e5780633f0dd5a0146103895780633fc8cef31461039c575f80fd5b80630d0b2ca61461029b5780630da4c628146102b95780630ecd7d55146102eb5780631a149740146103065780631b930720146103155780631e634d541461031e575b5f80fd5b6102a66301e1338081565b6040519081526020015b60405180910390f35b6102d372cd58deebd7a2f1c55daec715faf8aed5b27bf881565b6040516001600160a01b0390911681526020016102b0565b6102d3739c69e0b64a63aa7daa0b5dc61df3cc77ea05bcb381565b604051600181526020016102b0565b6102a661213481565b6102d37310499d88bd32af443fc936f67de32be1c8bb374c81565b6102a661070881565b6102a6670d18c2e28000000081565b61035a6101f481565b60405162ffffff90911681526020016102b0565b6102d37304625b046c69577efc40e6c0bb83cdbafab5a55f81565b6102a6610397366004610cdc565b6106c3565b6102d37f000000000000000000000000000000000000000000000000000000000000000081565b6102d3735576629f21d528a8c3e06c338dda907b9456390281565b6102a664e8d4a5100081565b6102d3737cbaa98bd5e171a658fdf761ed1db33806a0d34681565b6102d37376d8de471f54aaa87784119c60df1bbfc852c41581565b6102a661032081565b610431610745565b6040516102b09190610d65565b6102a6603281565b6102d37f000000000000000000000000000000000000000000000000000000000000000081565b6102d35f81565b61035a61271081565b6102d37f000000000000000000000000000000000000000000000000000000000000000081565b6102a66101f481565b61035a60c881565b6102a66104c3366004610d77565b6107ff565b6102a661046f81565b6102a66104df366004610d77565b6108db565b6102d37305d032ac25d322df992303dca074ee7392c117b981565b6102d3733a63171dd9bebf4d07bc782fecc7eb0b890c2a4581565b6102d36006602160991b0181565b6102a6610536366004610d77565b6108fe565b610543610916565b604080516001600160a01b03958616815293851660208501529184169183019190915290911660608201526080016102b0565b61035a610bb881565b610431610bdc565b6102a67faf10335b50689207d1fd37afd98e87aa0eb209c9074d8655642636223cc5f3a081565b6102d37f000000000000000000000000000000000000000000000000000000000000000081565b6102d37331832f2a97fd20664d76cc421207669b55ce4bc081565b6102d3737a378060a8a1fc5861d58bfd1a58581ca11ca70c81565b6102a661271081565b6102d37301d40099fcd87c018969b0e8d4ab1633fb34763c81565b61064261063d366004610d77565b610c88565b005b60408051739c69e0b64a63aa7daa0b5dc61df3cc77ea05bcb3815260c86020820152016102b0565b6102d37f000000000000000000000000000000000000000000000000000000000000000081565b6106b6604051806040016040528060048152602001634c69736b60e01b81525081565b6040516102b09190610d8e565b5f61271082111561071b5760405162461bcd60e51b815260206004820152601b60248201527f536c6970706167652063616e6e6f74206578636565642031303025000000000060448201526064015b60405180910390fd5b6127106107288382610ded565b6107329085610e00565b61073c9190610e17565b90505b92915050565b604080516001808252818301909252606091816020015b604080516080810182525f8082526020808301829052928201819052606082015282525f1990920191018161075c575050604080516080810182526006602160991b0181527376d8de471f54aaa87784119c60df1bbfc852c41560208201525f9181018290527331832f2a97fd20664d76cc421207669b55ce4bc060608201528251929350918391906107f1576107f1610e4a565b602002602001018190525090565b5f815f0361080e57505f919050565b5f610817610745565b90505f7f00000000000000000000000000000000000000000000000000000000000000006001600160a01b0316635509a1ac85846040518363ffffffff1660e01b8152600401610868929190610e5e565b5f60405180830381865afa158015610882573d5f803e3d5ffd5b505050506040513d5f823e601f3d908101601f191682016040526108a99190810190610e7e565b905080600182516108ba9190610ded565b815181106108ca576108ca610e4a565b602002602001015192505050919050565b5f6127106108ea603282610ded565b6108f49084610e00565b61073f9190610e17565b5f815f0361090d57505f919050565b5f610817610bdc565b5f805f807f00000000000000000000000000000000000000000000000000000000000000006001600160a01b0316631698ee826006602160991b017376d8de471f54aaa87784119c60df1bbfc852c4156101f46040518463ffffffff1660e01b815260040161098793929190610f37565b602060405180830381865afa1580156109a2573d5f803e3d5ffd5b505050506040513d601f19601f820116820180604052508101906109c69190610f5f565b604051630b4c774160e11b81529094506001600160a01b037f00000000000000000000000000000000000000000000000000000000000000001690631698ee8290610a36906006602160991b01907376d8de471f54aaa87784119c60df1bbfc852c41590610bb890600401610f37565b602060405180830381865afa158015610a51573d5f803e3d5ffd5b505050506040513d601f19601f82011682018060405250810190610a759190610f5f565b604051630b4c774160e11b81529093506001600160a01b037f00000000000000000000000000000000000000000000000000000000000000001690631698ee8290610ae5906006602160991b01907376d8de471f54aaa87784119c60df1bbfc852c4159061271090600401610f37565b602060405180830381865afa158015610b00573d5f803e3d5ffd5b505050506040513d601f19601f82011682018060405250810190610b249190610f5f565b6040516306801cc360e41b81526006602160991b0160048201527376d8de471f54aaa87784119c60df1bbfc852c41560248201525f60448201529092507f00000000000000000000000000000000000000000000000000000000000000006001600160a01b031690636801cc3090606401602060405180830381865afa158015610bb0573d5f803e3d5ffd5b505050506040513d601f19601f82011682018060405250810190610bd49190610f5f565b905090919293565b604080516001808252818301909252606091816020015b604080516080810182525f8082526020808301829052928201819052606082015282525f19909201910181610bf3575050604080516080810182527376d8de471f54aaa87784119c60df1bbfc852c41581526006602160991b0160208201525f9181018290527331832f2a97fd20664d76cc421207669b55ce4bc060608201528251929350918391906107f1576107f1610e4a565b6032811115610cd95760405162461bcd60e51b815260206004820181905260248201527f536c6970706167652065786365656473206d6178696d756d20616c6c6f7765646044820152606401610712565b50565b5f8060408385031215610ced575f80fd5b50508035926020909101359150565b5f8151808452602080850194508084015f5b83811015610d5a57815180516001600160a01b039081168952848201518116858a01526040808301511515908a0152606091820151169088015260809096019590820190600101610d0e565b509495945050505050565b602081525f61073c6020830184610cfc565b5f60208284031215610d87575f80fd5b5035919050565b5f6020808352835180828501525f5b81811015610db957858101830151858201604001528201610d9d565b505f604082860101526040601f19601f8301168501019250505092915050565b634e487b7160e01b5f52601160045260245ffd5b8181038181111561073f5761073f610dd9565b808202811582820484141761073f5761073f610dd9565b5f82610e3157634e487b7160e01b5f52601260045260245ffd5b500490565b634e487b7160e01b5f52604160045260245ffd5b634e487b7160e01b5f52603260045260245ffd5b828152604060208201525f610e766040830184610cfc565b949350505050565b5f6020808385031215610e8f575f80fd5b825167ffffffffffffffff80821115610ea6575f80fd5b818501915085601f830112610eb9575f80fd5b815181811115610ecb57610ecb610e36565b8060051b604051601f19603f83011681018181108582111715610ef057610ef0610e36565b604052918252848201925083810185019188831115610f0d575f80fd5b938501935b82851015610f2b57845184529385019392850192610f12565b98975050505050505050565b6001600160a01b03938416815291909216602082015262ffffff909116604082015260600190565b5f60208284031215610f6f575f80fd5b81516001600160a01b0381168114610f85575f80fd5b939250505056fea26469706673582212208895ff0bf359e9509a281eefe4ca173c29dba638afb77bbcd5e208d55163e4de64736f6c63430008140033","linkReferences":{}},"methodIdentifiers":{"BASE_YIELD_RATE()":"7200a711","BASIS_POINTS()":"e1f1c4a7","BORROWING_RATE()":"517ef1d7","CHAIN_ID()":"85e1f4d0","CHAIN_NAME()":"fe966107","DEADLINE_BUFFER()":"27117f48","DEFAULT_LTV()":"1b930720","FEE_HIGH()":"63075eb9","FEE_LOW()":"3add5c05","FEE_LOWEST()":"79dc9b32","FEE_MEDIUM()":"ca216247","KNOWN_WETH_wstETH_POOL()":"9f6ed41f","MAX_CIRCLE_MEMBERS()":"54ab7909","MAX_LOAN_DURATION()":"0d0b2ca6","MAX_SLIPPAGE()":"f9759518","MIN_CONTRIBUTION()":"40650c91","MORPHO_IRM()":"40158af6","MORPHO_LENDING_MARKET()":"0da4c628","MORPHO_LLTV()":"289fff9e","MORPHO_ORACLE()":"dfe287d3","MORPHO_WETH_VAULT()":"463c1d0a","MORPHO_WETH_wstETH_MARKET_ID()":"cb909a60","MORPHO_wstETH_VAULT()":"5f7fdfe0","USDC()":"89a30271","VELODROME_FACTORY()":"3e8c6e43","VELODROME_FACTORY_CL()":"a3b49bcb","VELODROME_FACTORY_V2()":"d6478384","VELODROME_POOL_IMPL()":"1e634d54","VELODROME_ROUTER()":"9588dffe","VELODROME_UNIVERSAL_ROUTER()":"eb50cdb1","WETH()":"ad5c4648","WETH_wstETH_CL_POOL()":"0ecd7d55","calculateMinAmountOut(uint256)":"87190d5f","calculateMinAmountOutWithSlippage(uint256,uint256)":"3f0dd5a0","factoryCL()":"5f635ed0","factoryV2()":"68e0d4e1","getAllPoolAddresses()":"c56f1b44","getETHToWstETHAmountOut(uint256)":"7abd796b","getETHToWstETHRoute()":"52ee6c48","getPoolAddress()":"f586c6d9","getWstETHToETHAmountOut(uint256)":"c1227162","getWstETHToETHRoute()":"cadc1b81","poolExists()":"1a149740","router()":"f887ea40","validateSlippage(uint256)":"f2c75fa0","weth()":"3fc8cef3","wstETH()":"4aa07e64","wsteth()":"d1d8bce7"},"id":56}