{"abi":[{"type":"constructor","inputs":[],"stateMutability":"payable"},{"type":"receive","stateMutability":"payable"},{"type":"function","name":"authorizeCircle","inputs":[{"name":"circle","type":"address","internalType":"address"}],"outputs":[],"stateMutability":"nonpayable"},{"type":"function","name":"authorizedCallers","inputs":[{"name":"","type":"address","internalType":"address"}],"outputs":[{"name":"","type":"bool","internalType":"bool"}],"stateMutability":"view"},{"type":"function","name":"getBalance","inputs":[],"outputs":[{"name":"","type":"uint256","internalType":"uint256"}],"stateMutability":"view"},{"type":"function","name":"owner","inputs":[],"outputs":[{"name":"","type":"address","internalType":"address"}],"stateMutability":"view"},{"type":"function","name":"supplyCollateralAndBorrow","inputs":[{"name":"wstETHAmount","type":"uint256","internalType":"uint256"},{"name":"wethToBorrow","type":"uint256","internalType":"uint256"},{"name":"borrower","type":"address","internalType":"address"}],"outputs":[{"name":"","type":"bytes32","internalType":"bytes32"}],"stateMutability":"nonpayable"},{"type":"event","name":"AddressDebug","inputs":[{"name":"message","type":"string","indexed":false,"internalType":"string"},{"name":"addr","type":"address","indexed":false,"internalType":"address"}],"anonymous":false},{"type":"event","name":"CircleAuthorized","inputs":[{"name":"circle","type":"address","indexed":false,"internalType":"address"}],"anonymous":false},{"type":"event","name":"CollateralReceived","inputs":[{"name":"wstETHAmount","type":"uint256","indexed":false,"internalType":"uint256"},{"name":"from","type":"address","indexed":false,"internalType":"address"}],"anonymous":false},{"type":"event","name":"Debug","inputs":[{"name":"message","type":"string","indexed":false,"internalType":"string"},{"name":"value","type":"uint256","indexed":false,"internalType":"uint256"}],"anonymous":false},{"type":"event","name":"ETHReceived","inputs":[{"name":"from","type":"address","indexed":false,"internalType":"address"},{"name":"amount","type":"uint256","indexed":false,"internalType":"uint256"}],"anonymous":false},{"type":"event","name":"ETHSent","inputs":[{"name":"to","type":"address","indexed":false,"internalType":"address"},{"name":"amount","type":"uint256","indexed":false,"internalType":"uint256"},{"name":"success","type":"bool","indexed":false,"internalType":"bool"}],"anonymous":false},{"type":"event","name":"LoanBorrowed","inputs":[{"name":"ethAmount","type":"uint256","indexed":false,"internalType":"uint256"},{"name":"borrower","type":"address","indexed":false,"internalType":"address"}],"anonymous":false}],"bytecode":{"object":"0x60806040818152600180546001600160a01b0319163390811790915582523460a0527fbfe611b001dfcd411432f7bf0d79b82b4b2ee81511edac123a3403c357fb972a91a1604080518181526024818301527f4c656e64696e674d6f64756c654669786564206465706c6f79656420776974686060820152630408aa8960e31b608082015234602082015290517f3c5ad147104e56be34a9176a6692f7df8d2f4b29a5af06bc6b98970d329d65779181900360a00190a16107bb806100c35f395ff3fe60806040526004361061004c575f3560e01c806312065fe01461008f5780634a81067d146100b0578063536fff6c146100d15780638da5cb5b1461010f57806390c0d59614610146575f80fd5b3661008b57604080513381523460208201527fbfe611b001dfcd411432f7bf0d79b82b4b2ee81511edac123a3403c357fb972a910160405180910390a1005b5f80fd5b34801561009a575f80fd5b50475b6040519081526020015b60405180910390f35b3480156100bb575f80fd5b506100cf6100ca3660046106f4565b610165565b005b3480156100dc575f80fd5b506100ff6100eb3660046106f4565b5f6020819052908152604090205460ff1681565b60405190151581526020016100a7565b34801561011a575f80fd5b5060015461012e906001600160a01b031681565b6040516001600160a01b0390911681526020016100a7565b348015610151575f80fd5b5061009d610160366004610714565b610208565b6001546001600160a01b031633146101b15760405162461bcd60e51b815260206004820152600a60248201526927b7363c9037bbb732b960b11b60448201526064015b60405180910390fd5b6001600160a01b0381165f8181526020818152604091829020805460ff1916600117905590519182527fc0a811b2657f7446c56553fd1c0f9b1cb496d15cb7584d71ad735d84d3827d73910160405180910390a150565b335f9081526020819052604081205460ff166102555760405162461bcd60e51b815260206004820152600c60248201526b155b985d5d1a1bdc9a5e995960a21b60448201526064016101a8565b6040805181815260208183018190527f737570706c79436f6c6c61746572616c416e64426f72726f772063616c6c65646060830152810185905290515f805160206107668339815191529181900360800190a160408051818152600881830152672137b93937bbb2b960c11b60608201526001600160a01b038416602082015290517f62e3758bc6a69cd9328f2c0c47dd8a27920ab0e899ff80e40e45682b6c09350e9181900360800190a160408051818152600d818301526c1ddcdd11551208185b5bdd5b9d609a1b60608201526020810186905290515f805160206107668339815191529181900360800190a16040805181815260148183015273436f6e7472616374204554482062616c616e636560601b606082015247602082015290515f805160206107668339815191529181900360800190a16040516323b872dd60e01b8152336004820152306024820152604481018590527376d8de471f54aaa87784119c60df1bbfc852c415906323b872dd906064016020604051808303815f875af11580156103e8573d5f803e3d5ffd5b505050506040513d601f19601f8201168201806040525081019061040c9190610746565b6104515760405162461bcd60e51b81526020600482015260166024820152751ddcdd115512081d1c985b9cd9995c8819985a5b195960521b60448201526064016101a8565b604080518581523360208201527f25b8beba33c93ed862e036de0f2214fcb2c4765dd194e7cfa20cc07e4d58605f910160405180910390a1824710156104e45760405162461bcd60e51b815260206004820152602260248201527f496e73756666696369656e742045544820696e206c656e64696e67206d6f64756044820152616c6560f01b60648201526084016101a8565b604080518181526017818301527f53656e64696e672045544820746f20626f72726f77657200000000000000000060608201526020810185905290515f805160206107668339815191529181900360800190a15f826001600160a01b0316846040515f6040518083038185875af1925050503d805f8114610580576040519150601f19603f3d011682016040523d82523d5f602084013e610585565b606091505b5050604080516001600160a01b0386168152602081018790528215158183015290519192507fbb949ed3b2032cdcc299b87fdf9b6ffc926c78e704c08da2ae56b4f1fdca9f2d919081900360600190a1806106185760405162461bcd60e51b8152602060048201526013602482015272115512081d1c985b9cd9995c8819985a5b1959606a1b60448201526064016101a8565b60408051818152601581830152744554482073656e74207375636365737366756c6c7960581b60608201526020810186905290515f805160206107668339815191529181900360800190a1604080518581526001600160a01b03851660208201527f6e02acee5001c9c48e033cce6e7193e2717a4dc1d239424dcf41e995471f6385910160405180910390a1604080513360208201524291810191909152606001604051602081830303815290604052805190602001209150509392505050565b80356001600160a01b03811681146106ef575f80fd5b919050565b5f60208284031215610704575f80fd5b61070d826106d9565b9392505050565b5f805f60608486031215610726575f80fd5b833592506020840135915061073d604085016106d9565b90509250925092565b5f60208284031215610756575f80fd5b8151801515811461070d575f80fdfe3c5ad147104e56be34a9176a6692f7df8d2f4b29a5af06bc6b98970d329d6577a26469706673582212205de8e8143fcf0ebb176be9d49a5c8623a0c136b803be264cd794d4f3c1ec4e1d64736f6c63430008140033","linkReferences":{}},"methodIdentifiers":{"authorizeCircle(address)":"4a81067d","authorizedCallers(address)":"536fff6c","getBalance()":"12065fe0","owner()":"8da5cb5b","supplyCollateralAndBorrow(uint256,uint256,address)":"90c0d596"},"id":17}