{"abi":[{"type":"constructor","inputs":[],"stateMutability":"nonpayable"},{"type":"receive","stateMutability":"payable"},{"type":"function","name":"collateralRequests","inputs":[{"name":"","type":"bytes32","internalType":"bytes32"}],"outputs":[{"name":"borrower","type":"address","internalType":"address"},{"name":"amount","type":"uint256","internalType":"uint256"},{"name":"collateralNeeded","type":"uint256","internalType":"uint256"},{"name":"totalContributed","type":"uint256","internalType":"uint256"},{"name":"executed","type":"bool","internalType":"bool"},{"name":"purpose","type":"string","internalType":"string"}],"stateMutability":"view"},{"type":"function","name":"contributeToRequest","inputs":[{"name":"requestId","type":"bytes32","internalType":"bytes32"}],"outputs":[],"stateMutability":"nonpayable"},{"type":"function","name":"deposit","inputs":[],"outputs":[],"stateMutability":"payable"},{"type":"function","name":"executeRequest","inputs":[{"name":"requestId","type":"bytes32","internalType":"bytes32"}],"outputs":[{"name":"","type":"bytes32","internalType":"bytes32"}],"stateMutability":"nonpayable"},{"type":"function","name":"getUserBalance","inputs":[{"name":"user","type":"address","internalType":"address"}],"outputs":[{"name":"","type":"uint256","internalType":"uint256"}],"stateMutability":"view"},{"type":"function","name":"initialize","inputs":[{"name":"","type":"string","internalType":"string"},{"name":"_members","type":"address[]","internalType":"address[]"},{"name":"","type":"address","internalType":"address"},{"name":"_swapModule","type":"address","internalType":"address"},{"name":"_lendingModule","type":"address","internalType":"address"}],"outputs":[],"stateMutability":"nonpayable"},{"type":"function","name":"isMember","inputs":[{"name":"","type":"address","internalType":"address"}],"outputs":[{"name":"","type":"bool","internalType":"bool"}],"stateMutability":"view"},{"type":"function","name":"lendingModule","inputs":[],"outputs":[{"name":"","type":"address","internalType":"address"}],"stateMutability":"view"},{"type":"function","name":"loans","inputs":[{"name":"","type":"bytes32","internalType":"bytes32"}],"outputs":[{"name":"borrower","type":"address","internalType":"address"},{"name":"amount","type":"uint256","internalType":"uint256"},{"name":"collateralAmount","type":"uint256","internalType":"uint256"},{"name":"marketId","type":"bytes32","internalType":"bytes32"},{"name":"repaid","type":"bool","internalType":"bool"}],"stateMutability":"view"},{"type":"function","name":"members","inputs":[{"name":"","type":"uint256","internalType":"uint256"}],"outputs":[{"name":"","type":"address","internalType":"address"}],"stateMutability":"view"},{"type":"function","name":"requestCollateral","inputs":[{"name":"amount","type":"uint256","internalType":"uint256"},{"name":"collateralNeeded","type":"uint256","internalType":"uint256"},{"name":"contributors","type":"address[]","internalType":"address[]"},{"name":"amounts","type":"uint256[]","internalType":"uint256[]"},{"name":"purpose","type":"string","internalType":"string"}],"outputs":[{"name":"","type":"bytes32","internalType":"bytes32"}],"stateMutability":"nonpayable"},{"type":"function","name":"swapModule","inputs":[],"outputs":[{"name":"","type":"address","internalType":"address"}],"stateMutability":"view"},{"type":"function","name":"totalDeposits","inputs":[],"outputs":[{"name":"","type":"uint256","internalType":"uint256"}],"stateMutability":"view"},{"type":"function","name":"userBalance","inputs":[{"name":"","type":"address","internalType":"address"}],"outputs":[{"name":"","type":"uint256","internalType":"uint256"}],"stateMutability":"view"},{"type":"function","name":"weth","inputs":[],"outputs":[{"name":"","type":"address","internalType":"contract IWETH_CoreNoVault"}],"stateMutability":"view"},{"type":"event","name":"CollateralRequested","inputs":[{"name":"requestId","type":"bytes32","indexed":true,"internalType":"bytes32"},{"name":"borrower","type":"address","indexed":true,"internalType":"address"},{"name":"amount","type":"uint256","indexed":false,"internalType":"uint256"}],"anonymous":false},{"type":"event","name":"ContributionMade","inputs":[{"name":"requestId","type":"bytes32","indexed":true,"internalType":"bytes32"},{"name":"contributor","type":"address","indexed":true,"internalType":"address"},{"name":"amount","type":"uint256","indexed":false,"internalType":"uint256"}],"anonymous":false},{"type":"event","name":"Deposit","inputs":[{"name":"user","type":"address","indexed":true,"internalType":"address"},{"name":"amount","type":"uint256","indexed":false,"internalType":"uint256"}],"anonymous":false},{"type":"event","name":"LoanExecuted","inputs":[{"name":"loanId","type":"bytes32","indexed":true,"internalType":"bytes32"},{"name":"requestId","type":"bytes32","indexed":true,"internalType":"bytes32"},{"name":"borrower","type":"address","indexed":true,"internalType":"address"},{"name":"amount","type":"uint256","indexed":false,"internalType":"uint256"}],"anonymous":false},{"type":"event","name":"MemberAdded","inputs":[{"name":"member","type":"address","indexed":true,"internalType":"address"}],"anonymous":false},{"type":"error","name":"ReentrancyGuardReentrantCall","inputs":[]}],"bytecode":{"object":"0x60a060405234801561000f575f80fd5b5060015f557342000000000000000000000000000000000000066080526080516117e96100595f395f81816101620152818161072601528181610b210152610c0301526117e95ff3fe6080604052600436106100e7575f3560e01c80639a4131d311610087578063e821fd2f11610057578063e821fd2f14610323578063e9c2416614610342578063f290badb14610361578063fa716b3f14610380575f80fd5b80639a4131d314610223578063a230c52414610254578063c4a9081514610292578063d0e30db01461031b575f80fd5b806347734892116100c2578063477348921461019c5780635daf08ca146101d05780637044dda7146101ef5780637d8820971461020e575f80fd5b80630103c92b146100f257806325f6a624146101305780633fc8cef314610151575f80fd5b366100ee57005b5f80fd5b3480156100fd575f80fd5b5061011d61010c366004611266565b60056020525f908152604090205481565b6040519081526020015b60405180910390f35b34801561013b575f80fd5b5061014f61014a366004611286565b61039f565b005b34801561015c575f80fd5b506101847f000000000000000000000000000000000000000000000000000000000000000081565b6040516001600160a01b039091168152602001610127565b3480156101a7575f80fd5b5061011d6101b6366004611266565b6001600160a01b03165f9081526005602052604090205490565b3480156101db575f80fd5b506101846101ea366004611286565b610597565b3480156101fa575f80fd5b50600254610184906001600160a01b031681565b348015610219575f80fd5b5061011d60065481565b34801561022e575f80fd5b5061024261023d366004611286565b6105bf565b6040516101279695949392919061129d565b34801561025f575f80fd5b5061028261026e366004611266565b60046020525f908152604090205460ff1681565b6040519015158152602001610127565b34801561029d575f80fd5b506102e76102ac366004611286565b60086020525f9081526040902080546001820154600283015460038401546004909401546001600160a01b0390931693919290919060ff1685565b604080516001600160a01b03909616865260208601949094529284019190915260608301521515608082015260a001610127565b61014f61068b565b34801561032e575f80fd5b5061014f61033d366004611459565b610812565b34801561034d575f80fd5b5061011d61035c366004611286565b610a3b565b34801561036c575f80fd5b5061011d61037b3660046114e9565b610ff3565b34801561038b575f80fd5b50600154610184906001600160a01b031681565b6103a7611178565b5f8181526007602081905260409091209081015460ff16156104035760405162461bcd60e51b815260206004820152601060248201526f105b1c9958591e48195e1958dd5d195960821b60448201526064015b60405180910390fd5b5f805b600383015481101561048157336001600160a01b0316836003018281548110610431576104316115d3565b5f918252602090912001546001600160a01b03160361046f5782600401818154811061045f5761045f6115d3565b905f5260205f2001549150610481565b80610479816115fb565b915050610406565b505f81116104d15760405162461bcd60e51b815260206004820152601860248201527f4e6f20636f6e747269627574696f6e2061737369676e6564000000000000000060448201526064016103fa565b335f908152600560205260409020548111156105265760405162461bcd60e51b8152602060048201526014602482015273496e73756666696369656e742062616c616e636560601b60448201526064016103fa565b335f908152600583016020526040812082905560068301805483929061054d908490611613565b9091555050604051818152339084907fb736b18814da81a1581cd71e835c12a580034bd300493d2c7a455ce69a50f7a09060200160405180910390a3505061059460015f55565b50565b600381815481106105a6575f80fd5b5f918252602090912001546001600160a01b0316905081565b600760208190525f91825260409091208054600182015460028301546006840154948401546008850180546001600160a01b03909516969395929460ff909216929161060a9061162c565b80601f01602080910402602001604051908101604052809291908181526020018280546106369061162c565b80156106815780601f1061065857610100808354040283529160200191610681565b820191905f5260205f20905b81548152906001019060200180831161066457829003601f168201915b5050505050905086565b610693611178565b5f34116106d75760405162461bcd60e51b81526020600482015260126024820152710416d6f756e74206d757374206265203e20360741b60448201526064016103fa565b335f9081526004602052604090205460ff166107245760405162461bcd60e51b815260206004820152600c60248201526b2737ba10309036b2b6b132b960a11b60448201526064016103fa565b7f00000000000000000000000000000000000000000000000000000000000000006001600160a01b031663d0e30db0346040518263ffffffff1660e01b81526004015f604051808303818588803b15801561077d575f80fd5b505af115801561078f573d5f803e3d5ffd5b5050335f90815260056020526040812080543495509093509091506107b5908490611613565b925050819055503460065f8282546107cd9190611613565b909155505060405134815233907fe1fffcc4923d04b559f4d29a8bfc6cda04eb5b0d3c460751c2402c5c5cc9109c9060200160405180910390a261081060015f55565b565b600354156108585760405162461bcd60e51b8152602060048201526013602482015272105b1c9958591e481a5b9a5d1a585b1a5e9959606a1b60448201526064016103fa565b6001600160a01b0382166108a45760405162461bcd60e51b8152602060048201526013602482015272496e76616c69642073776170206d6f64756c6560681b60448201526064016103fa565b6001600160a01b0381166108f35760405162461bcd60e51b8152602060048201526016602482015275496e76616c6964206c656e64696e67206d6f64756c6560501b60448201526064016103fa565b600180546001600160a01b038085166001600160a01b03199283161790925560028054928416929091169190911790555f5b8451811015610a33576003858281518110610942576109426115d3565b6020908102919091018101518254600180820185555f9485529284200180546001600160a01b0319166001600160a01b0390921691909117905586519091600491889085908110610995576109956115d3565b60200260200101516001600160a01b03166001600160a01b031681526020019081526020015f205f6101000a81548160ff0219169083151502179055508481815181106109e4576109e46115d3565b60200260200101516001600160a01b03167fb251eb052afc73ffd02ffe85ad79990a8b3fed60d76dbc2fa2fdd7123dffd91460405160405180910390a280610a2b816115fb565b915050610925565b505050505050565b5f610a44611178565b5f8281526007602081905260409091209081015460ff1615610a9b5760405162461bcd60e51b815260206004820152601060248201526f105b1c9958591e48195e1958dd5d195960821b60448201526064016103fa565b806002015481600601541015610af35760405162461bcd60e51b815260206004820152601a60248201527f496e73756666696369656e7420636f6e747269627574696f6e7300000000000060448201526064016103fa565b60078101805460ff191660011790556040516370a0823160e01b81523060048201525f906001600160a01b037f000000000000000000000000000000000000000000000000000000000000000016906370a0823190602401602060405180830381865afa158015610b66573d5f803e3d5ffd5b505050506040513d601f19601f82011682018060405250810190610b8a9190611664565b90508160020154811015610bd45760405162461bcd60e51b8152602060048201526011602482015270092dce6eaccccd2c6d2cadce840ae8aa89607b1b60448201526064016103fa565b600154600283015460405163095ea7b360e01b81526001600160a01b03928316600482015260248101919091527f00000000000000000000000000000000000000000000000000000000000000009091169063095ea7b3906044016020604051808303815f875af1158015610c4b573d5f803e3d5ffd5b505050506040513d601f19601f82011682018060405250810190610c6f919061167b565b5060015460028301546040516375c2682d60e11b815260048101919091525f916001600160a01b03169063eb84d05a906024016020604051808303815f875af1158015610cbe573d5f803e3d5ffd5b505050506040513d601f19601f82011682018060405250810190610ce29190611664565b90505f8111610d215760405162461bcd60e51b815260206004820152600b60248201526a14ddd85c0819985a5b195960aa1b60448201526064016103fa565b60025460405163095ea7b360e01b81526001600160a01b0390911660048201526024810182905273458ed78eb972a369799fb278c0243b25e5242a839063095ea7b3906044016020604051808303815f875af1158015610d83573d5f803e3d5ffd5b505050506040513d601f19601f82011682018060405250810190610da7919061167b565b50600254600184015484546040516348606acb60e11b81526004810185905260248101929092526001600160a01b0390811660448301525f9216906390c0d596906064016020604051808303815f875af1158015610e07573d5f803e3d5ffd5b505050506040513d601f19601f82011682018060405250810190610e2b9190611664565b90505f8642604051602001610e4a929190918252602082015260400190565b60408051808303601f19018152828252805160209182012060a08401835288546001600160a01b0390811685526001808b01548487019081528686018a8152606088018a81525f60808a018181528782526008909852978820985189546001600160a01b031916951694909417885590519187019190915551600286015551600385015590516004909301805460ff1916931515939093179092559091505b6003860154811015610f94575f866003018281548110610f0b57610f0b6115d3565b5f9182526020808320909101546001600160a01b031680835260058a019091526040909120549091508015610f7f576001600160a01b0382165f9081526005602052604081208054839290610f6190849061169a565b925050819055508060065f828254610f79919061169a565b90915550505b50508080610f8c906115fb565b915050610ee9565b50845460018601546040519081526001600160a01b0390911690889083907fbba88c1e49240c20a1d39cb8fde6b32c6731a6e105afe2e83b197721eb804ab09060200160405180910390a4945050505050610fee60015f55565b919050565b335f9081526004602052604081205460ff166110405760405162461bcd60e51b815260206004820152600c60248201526b2737ba10309036b2b6b132b960a11b60448201526064016103fa565b5f86116110845760405162461bcd60e51b81526020600482015260126024820152710416d6f756e74206d757374206265203e20360741b60448201526064016103fa565b6040516bffffffffffffffffffffffff193360601b166020820152603481018790524260548201524360748201525f9060940160408051601f1981840301815291815281516020928301205f818152600784529190912080546001600160a01b03191633178155600181018a9055600281018990558751919350916111109160038401918901906111a0565b5084516111269060048301906020880190611203565b506008810161113585826116f7565b50604051888152339083907ffe36a66582b635499551d95a0c4321b1a990300a908ec041eb35054f24e5cdfa9060200160405180910390a3509695505050505050565b60025f540361119a57604051633ee5aeb560e01b815260040160405180910390fd5b60025f55565b828054828255905f5260205f209081019282156111f3579160200282015b828111156111f357825182546001600160a01b0319166001600160a01b039091161782556020909201916001909101906111be565b506111ff92915061123c565b5090565b828054828255905f5260205f209081019282156111f3579160200282015b828111156111f3578251825591602001919060010190611221565b5b808211156111ff575f815560010161123d565b80356001600160a01b0381168114610fee575f80fd5b5f60208284031215611276575f80fd5b61127f82611250565b9392505050565b5f60208284031215611296575f80fd5b5035919050565b60018060a01b03871681525f60208781840152866040840152856060840152841515608084015260c060a084015283518060c08501525f5b818110156112f15785810183015185820160e0015282016112d5565b505f60e0828601015260e0601f19601f83011685010192505050979650505050505050565b634e487b7160e01b5f52604160045260245ffd5b604051601f8201601f1916810167ffffffffffffffff8111828210171561135357611353611316565b604052919050565b5f82601f83011261136a575f80fd5b813567ffffffffffffffff81111561138457611384611316565b611397601f8201601f191660200161132a565b8181528460208386010111156113ab575f80fd5b816020850160208301375f918101602001919091529392505050565b5f67ffffffffffffffff8211156113e0576113e0611316565b5060051b60200190565b5f82601f8301126113f9575f80fd5b8135602061140e611409836113c7565b61132a565b82815260059290921b8401810191818101908684111561142c575f80fd5b8286015b8481101561144e5761144181611250565b8352918301918301611430565b509695505050505050565b5f805f805f60a0868803121561146d575f80fd5b853567ffffffffffffffff80821115611484575f80fd5b61149089838a0161135b565b965060208801359150808211156114a5575f80fd5b506114b2888289016113ea565b9450506114c160408701611250565b92506114cf60608701611250565b91506114dd60808701611250565b90509295509295909350565b5f805f805f60a086880312156114fd575f80fd5b853594506020808701359450604087013567ffffffffffffffff80821115611523575f80fd5b61152f8a838b016113ea565b95506060890135915080821115611544575f80fd5b818901915089601f830112611557575f80fd5b8135611565611409826113c7565b81815260059190911b8301840190848101908c831115611583575f80fd5b938501935b828510156115a157843582529385019390850190611588565b9650505060808901359250808311156115b8575f80fd5b50506115c68882890161135b565b9150509295509295909350565b634e487b7160e01b5f52603260045260245ffd5b634e487b7160e01b5f52601160045260245ffd5b5f6001820161160c5761160c6115e7565b5060010190565b80820180821115611626576116266115e7565b92915050565b600181811c9082168061164057607f821691505b60208210810361165e57634e487b7160e01b5f52602260045260245ffd5b50919050565b5f60208284031215611674575f80fd5b5051919050565b5f6020828403121561168b575f80fd5b8151801515811461127f575f80fd5b81810381811115611626576116266115e7565b601f8211156116f2575f81815260208120601f850160051c810160208610156116d35750805b601f850160051c820191505b81811015610a33578281556001016116df565b505050565b815167ffffffffffffffff81111561171157611711611316565b6117258161171f845461162c565b846116ad565b602080601f831160018114611758575f84156117415750858301515b5f19600386901b1c1916600185901b178555610a33565b5f85815260208120601f198616915b8281101561178657888601518255948401946001909101908401611767565b50858210156117a357878501515f19600388901b60f8161c191681555b5050505050600190811b0190555056fea264697066735822122005ab9a9c2ec191bbf45c16353bd76635e15b6c059312bef55b69c32f317b4fd164736f6c63430008140033","linkReferences":{}},"methodIdentifiers":{"collateralRequests(bytes32)":"9a4131d3","contributeToRequest(bytes32)":"25f6a624","deposit()":"d0e30db0","executeRequest(bytes32)":"e9c24166","getUserBalance(address)":"47734892","initialize(string,address[],address,address,address)":"e821fd2f","isMember(address)":"a230c524","lendingModule()":"7044dda7","loans(bytes32)":"c4a90815","members(uint256)":"5daf08ca","requestCollateral(uint256,uint256,address[],uint256[],string)":"f290badb","swapModule()":"fa716b3f","totalDeposits()":"7d882097","userBalance(address)":"0103c92b","weth()":"3fc8cef3"},"id":20}