{"abi":[{"type":"constructor","inputs":[{"name":"_registry","type":"address","internalType":"address"},{"name":"_implementation","type":"address","internalType":"address"},{"name":"_swapModule","type":"address","internalType":"address"},{"name":"_lendingModule","type":"address","internalType":"address"}],"stateMutability":"nonpayable"},{"type":"function","name":"createCircle","inputs":[{"name":"name","type":"string","internalType":"string"},{"name":"initialMembers","type":"address[]","internalType":"address[]"}],"outputs":[{"name":"","type":"address","internalType":"address"}],"stateMutability":"nonpayable"},{"type":"function","name":"getCircleCount","inputs":[],"outputs":[{"name":"","type":"uint256","internalType":"uint256"}],"stateMutability":"view"},{"type":"function","name":"getUserCircles","inputs":[{"name":"user","type":"address","internalType":"address"}],"outputs":[{"name":"","type":"address[]","internalType":"address[]"}],"stateMutability":"view"},{"type":"function","name":"implementation","inputs":[],"outputs":[{"name":"","type":"address","internalType":"address"}],"stateMutability":"view"},{"type":"function","name":"lendingModule","inputs":[],"outputs":[{"name":"","type":"address","internalType":"address"}],"stateMutability":"view"},{"type":"function","name":"nameExists","inputs":[{"name":"","type":"string","internalType":"string"}],"outputs":[{"name":"","type":"bool","internalType":"bool"}],"stateMutability":"view"},{"type":"function","name":"registry","inputs":[],"outputs":[{"name":"","type":"address","internalType":"contract ICircleRegistry"}],"stateMutability":"view"},{"type":"function","name":"swapModule","inputs":[],"outputs":[{"name":"","type":"address","internalType":"address"}],"stateMutability":"view"},{"type":"event","name":"CircleCreated","inputs":[{"name":"circleAddress","type":"address","indexed":true,"internalType":"address"},{"name":"name","type":"string","indexed":false,"internalType":"string"},{"name":"creator","type":"address","indexed":true,"internalType":"address"}],"anonymous":false}],"bytecode":{"object":"0x610100604052348015610010575f80fd5b50604051610d47380380610d4783398101604081905261002f9161006c565b6001600160a01b0393841660805291831660a052821660c0521660e0526100bd565b80516001600160a01b0381168114610067575f80fd5b919050565b5f805f806080858703121561007f575f80fd5b61008885610051565b935061009660208601610051565b92506100a460408601610051565b91506100b260608601610051565b905092959194509250565b60805160a05160c05160e051610c306101175f395f818160d201526104e901525f81816101a601526104c801525f8181608e015261034c01525f818160f9015281816101ea0152818161061401526106d40152610c305ff3fe608060405234801561000f575f80fd5b5060043610610085575f3560e01c8063cc637afe11610058578063cc637afe1461013b578063d1d4f3da14610178578063e1f2dfce1461018b578063fa716b3f146101a1575f80fd5b80635c60da1b146100895780637044dda7146100cd5780637b103999146100f457806388e81d8a1461011b575b5f80fd5b6100b07f000000000000000000000000000000000000000000000000000000000000000081565b6040516001600160a01b0390911681526020015b60405180910390f35b6100b07f000000000000000000000000000000000000000000000000000000000000000081565b6100b07f000000000000000000000000000000000000000000000000000000000000000081565b61012e61012936600461076e565b6101c8565b6040516100c491906107d2565b610168610149366004610895565b80516020818301810180515f8252928201919093012091525460ff1681565b60405190151581526020016100c4565b6100b06101863660046108f2565b61025d565b6101936106d1565b6040519081526020016100c4565b6100b07f000000000000000000000000000000000000000000000000000000000000000081565b6040516344740ec560e11b81526001600160a01b0382811660048301526060917f0000000000000000000000000000000000000000000000000000000000000000909116906388e81d8a906024015f60405180830381865afa158015610230573d5f803e3d5ffd5b505050506040513d5f823e601f3d908101601f1916820160405261025791908101906109b5565b92915050565b5f808351116102a35760405162461bcd60e51b815260206004820152600d60248201526c13985b59481c995c5d5a5c9959609a1b60448201526064015b60405180910390fd5b5f836040516102b29190610a6c565b9081526040519081900360200190205460ff16156103005760405162461bcd60e51b815260206004820152600b60248201526a4e616d652065786973747360a81b604482015260640161029a565b5f83334260405160200161031693929190610a87565b60408051808303601f190181528282528051602091820120733d602d80600a3d3981f3363d3d373d3d3d363d7360601b828501527f000000000000000000000000000000000000000000000000000000000000000060601b6bffffffffffffffffffffffff191660348501526e5af43d82803e903d91602b57fd5bf360881b604885015282516037818603018152605790940190925282519193505f918491840183f59050806103c4575f80fd5b5f855160016103d39190610ad9565b67ffffffffffffffff8111156103eb576103eb6107e4565b604051908082528060200260200182016040528015610414578160200160208202803683370190505b50905033815f8151811061042a5761042a610aec565b60200260200101906001600160a01b031690816001600160a01b0316815250505f5b86518110156104b75786818151811061046757610467610aec565b60200260200101518282600161047d9190610ad9565b8151811061048d5761048d610aec565b6001600160a01b0390921660209283029190910190910152806104af81610b00565b91505061044c565b505f826001600160a01b03168883307f00000000000000000000000000000000000000000000000000000000000000007f000000000000000000000000000000000000000000000000000000000000000060405160240161051c959493929190610b43565b60408051601f198184030181529181526020820180516001600160e01b031663e821fd2f60e01b179052516105519190610a6c565b5f604051808303815f865af19150503d805f811461058a576040519150601f19603f3d011682016040523d82523d5f602084013e61058f565b606091505b50509050806105ce5760405162461bcd60e51b815260206004820152600b60248201526a125b9a5d0819985a5b195960aa1b604482015260640161029a565b60015f896040516105df9190610a6c565b908152604051908190036020018120805492151560ff19909316929092179091556318e4ed3d60e21b81526001600160a01b037f00000000000000000000000000000000000000000000000000000000000000001690636393b4f49061064d9086908c908790600401610b92565b5f604051808303815f87803b158015610664575f80fd5b505af1158015610676573d5f803e3d5ffd5b50505050336001600160a01b0316836001600160a01b03167f15e639cb5334ee5b47e49005d0ff7b1c2f39098dd2da49668b9085d0659757cc8a6040516106bd9190610bd1565b60405180910390a350909695505050505050565b5f7f00000000000000000000000000000000000000000000000000000000000000006001600160a01b031663e1f2dfce6040518163ffffffff1660e01b8152600401602060405180830381865afa15801561072e573d5f803e3d5ffd5b505050506040513d601f19601f820116820180604052508101906107529190610be3565b905090565b6001600160a01b038116811461076b575f80fd5b50565b5f6020828403121561077e575f80fd5b813561078981610757565b9392505050565b5f8151808452602080850194508084015f5b838110156107c75781516001600160a01b0316875295820195908201906001016107a2565b509495945050505050565b602081525f6107896020830184610790565b634e487b7160e01b5f52604160045260245ffd5b604051601f8201601f1916810167ffffffffffffffff81118282101715610821576108216107e4565b604052919050565b5f82601f830112610838575f80fd5b813567ffffffffffffffff811115610852576108526107e4565b610865601f8201601f19166020016107f8565b818152846020838601011115610879575f80fd5b816020850160208301375f918101602001919091529392505050565b5f602082840312156108a5575f80fd5b813567ffffffffffffffff8111156108bb575f80fd5b6108c784828501610829565b949350505050565b5f67ffffffffffffffff8211156108e8576108e86107e4565b5060051b60200190565b5f8060408385031215610903575f80fd5b823567ffffffffffffffff8082111561091a575f80fd5b61092686838701610829565b935060209150818501358181111561093c575f80fd5b85019050601f8101861361094e575f80fd5b803561096161095c826108cf565b6107f8565b81815260059190911b8201830190838101908883111561097f575f80fd5b928401925b828410156109a657833561099781610757565b82529284019290840190610984565b80955050505050509250929050565b5f60208083850312156109c6575f80fd5b825167ffffffffffffffff8111156109dc575f80fd5b8301601f810185136109ec575f80fd5b80516109fa61095c826108cf565b81815260059190911b82018301908381019087831115610a18575f80fd5b928401925b82841015610a3f578351610a3081610757565b82529284019290840190610a1d565b979650505050505050565b5f5b83811015610a64578181015183820152602001610a4c565b50505f910152565b5f8251610a7d818460208701610a4a565b9190910192915050565b5f8451610a98818460208901610a4a565b60609490941b6bffffffffffffffffffffffff191691909301908152601481019190915260340192915050565b634e487b7160e01b5f52601160045260245ffd5b8082018082111561025757610257610ac5565b634e487b7160e01b5f52603260045260245ffd5b5f60018201610b1157610b11610ac5565b5060010190565b5f8151808452610b2f816020860160208601610a4a565b601f01601f19169290920160200192915050565b60a081525f610b5560a0830188610b18565b8281036020840152610b678188610790565b6001600160a01b03968716604085015294861660608401525050921660809092019190915292915050565b6001600160a01b03841681526060602082018190525f90610bb590830185610b18565b8281036040840152610bc78185610790565b9695505050505050565b602081525f6107896020830184610b18565b5f60208284031215610bf3575f80fd5b505191905056fea26469706673582212202d3ba8ea06be4d6e5d5c0010a2d928b4fb53248618baad7f7cfd61d88804656664736f6c63430008140033","linkReferences":{}},"methodIdentifiers":{"createCircle(string,address[])":"d1d4f3da","getCircleCount()":"e1f2dfce","getUserCircles(address)":"88e81d8a","implementation()":"5c60da1b","lendingModule()":"7044dda7","nameExists(string)":"cc637afe","registry()":"7b103999","swapModule()":"fa716b3f"},"id":5}