{"abi":[{"type":"constructor","inputs":[],"stateMutability":"nonpayable"},{"type":"receive","stateMutability":"payable"},{"type":"function","name":"authorizeCircle","inputs":[{"name":"circle","type":"address","internalType":"address"}],"outputs":[],"stateMutability":"nonpayable"},{"type":"function","name":"authorizedCallers","inputs":[{"name":"","type":"address","internalType":"address"}],"outputs":[{"name":"","type":"bool","internalType":"bool"}],"stateMutability":"view"},{"type":"function","name":"marketParams","inputs":[],"outputs":[{"name":"loanToken","type":"address","internalType":"address"},{"name":"collateralToken","type":"address","internalType":"address"},{"name":"oracle","type":"address","internalType":"address"},{"name":"irm","type":"address","internalType":"address"},{"name":"lltv","type":"uint256","internalType":"uint256"}],"stateMutability":"view"},{"type":"function","name":"morpho","inputs":[],"outputs":[{"name":"","type":"address","internalType":"contract IMorphoBlue"}],"stateMutability":"view"},{"type":"function","name":"owner","inputs":[],"outputs":[{"name":"","type":"address","internalType":"address"}],"stateMutability":"view"},{"type":"function","name":"supplyCollateralAndBorrow","inputs":[{"name":"wstETHAmount","type":"uint256","internalType":"uint256"},{"name":"wethToBorrow","type":"uint256","internalType":"uint256"},{"name":"borrower","type":"address","internalType":"address"}],"outputs":[{"name":"","type":"bytes32","internalType":"bytes32"}],"stateMutability":"nonpayable"},{"type":"function","name":"weth","inputs":[],"outputs":[{"name":"","type":"address","internalType":"contract IWETH_Lending"}],"stateMutability":"view"},{"type":"function","name":"wstETH","inputs":[],"outputs":[{"name":"","type":"address","internalType":"contract IWstETH_Lending"}],"stateMutability":"view"},{"type":"event","name":"CollateralSupplied","inputs":[{"name":"wstETHAmount","type":"uint256","indexed":false,"internalType":"uint256"},{"name":"borrower","type":"address","indexed":false,"internalType":"address"}],"anonymous":false},{"type":"event","name":"LoanBorrowed","inputs":[{"name":"wethAmount","type":"uint256","indexed":false,"internalType":"uint256"},{"name":"borrower","type":"address","indexed":false,"internalType":"address"}],"anonymous":false}],"bytecode":{"object":"0x60e060405234801561000f575f80fd5b5073420000000000000000000000000000000000000660808181527376d8de471f54aaa87784119c60df1bbfc852c41560a081815272cd58deebd7a2f1c55daec715faf8aed5b27bf860c052600680546001600160a01b0319908116331790915560408051928301815285835260208301849052737a378060a8a1fc5861d58bfd1a58581ca11ca70c908301819052735576629f21d528a8c3e06c338dda907b9456390260608401819052670d1d507e40be8000939095018390525f8054831690961790955560018054821690931790925560028054831690941790935560038054909116909117905560045560805160a05160c0516109036101415f395f81816102360152818161048a015261054b01525f8181610109015261040001525f8181609801526105e101526109035ff3fe60806040526004361061007c575f3560e01c80637b9e68f21161004c5780637b9e68f2146101695780638da5cb5b146101d957806390c0d596146101f8578063d8fbc83314610225575f80fd5b80633fc8cef3146100875780634a81067d146100d75780634aa07e64146100f8578063536fff6c1461012b575f80fd5b3661008357005b5f80fd5b348015610092575f80fd5b506100ba7f000000000000000000000000000000000000000000000000000000000000000081565b6040516001600160a01b0390911681526020015b60405180910390f35b3480156100e2575f80fd5b506100f66100f1366004610765565b610258565b005b348015610103575f80fd5b506100ba7f000000000000000000000000000000000000000000000000000000000000000081565b348015610136575f80fd5b50610159610145366004610765565b60056020525f908152604090205460ff1681565b60405190151581526020016100ce565b348015610174575f80fd5b505f5460015460025460035460045461019e946001600160a01b0390811694811693811692169085565b604080516001600160a01b0396871681529486166020860152928516928401929092529092166060820152608081019190915260a0016100ce565b3480156101e4575f80fd5b506006546100ba906001600160a01b031681565b348015610203575f80fd5b50610217610212366004610785565b6102c7565b6040519081526020016100ce565b348015610230575f80fd5b506100ba7f000000000000000000000000000000000000000000000000000000000000000081565b6006546001600160a01b031633146102a45760405162461bcd60e51b815260206004820152600a60248201526927b7363c9037bbb732b960b11b60448201526064015b60405180910390fd5b6001600160a01b03165f908152600560205260409020805460ff19166001179055565b335f9081526005602052604081205460ff166103145760405162461bcd60e51b815260206004820152600c60248201526b155b985d5d1a1bdc9a5e995960a21b604482015260640161029b565b6040516323b872dd60e01b8152336004820152306024820152604481018590527376d8de471f54aaa87784119c60df1bbfc852c415906323b872dd906064016020604051808303815f875af115801561036f573d5f803e3d5ffd5b505050506040513d601f19601f8201168201806040525081019061039391906107b7565b6103d15760405162461bcd60e51b815260206004820152600f60248201526e151c985b9cd9995c8819985a5b1959608a1b604482015260640161029b565b60405163095ea7b360e01b815272cd58deebd7a2f1c55daec715faf8aed5b27bf86004820152602481018590527f00000000000000000000000000000000000000000000000000000000000000006001600160a01b03169063095ea7b3906044016020604051808303815f875af115801561044e573d5f803e3d5ffd5b505050506040513d601f19601f8201168201806040525081019061047291906107b7565b5060405163238d657960e01b81526001600160a01b037f0000000000000000000000000000000000000000000000000000000000000000169063238d6579906104c3905f9088903090600401610814565b5f604051808303815f87803b1580156104da575f80fd5b505af11580156104ec573d5f803e3d5ffd5b5050604080518781526001600160a01b03861660208201527fc746ea777b1da0310da2ae713c73990a15d4b72d2e723fcb283b8b9e81f79d80935001905060405180910390a16040516350d8cd4b60e01b81525f906001600160a01b037f000000000000000000000000000000000000000000000000000000000000000016906350d8cd4b906105889084908890829030908190600401610854565b60408051808303815f875af11580156105a3573d5f803e3d5ffd5b505050506040513d601f19601f820116820180604052508101906105c79190610890565b50604051632e1a7d4d60e01b8152600481018290529091507f00000000000000000000000000000000000000000000000000000000000000006001600160a01b031690632e1a7d4d906024015f604051808303815f87803b15801561062a575f80fd5b505af115801561063c573d5f803e3d5ffd5b505050505f836001600160a01b0316826040515f6040518083038185875af1925050503d805f8114610689576040519150601f19603f3d011682016040523d82523d5f602084013e61068e565b606091505b50509050806106d55760405162461bcd60e51b8152602060048201526013602482015272115512081d1c985b9cd9995c8819985a5b1959606a1b604482015260640161029b565b604080518381526001600160a01b03861660208201527f6e02acee5001c9c48e033cce6e7193e2717a4dc1d239424dcf41e995471f6385910160405180910390a15f426040516020016107299291906108b2565b60405160208183030381529060405280519060200120925050509392505050565b80356001600160a01b0381168114610760575f80fd5b919050565b5f60208284031215610775575f80fd5b61077e8261074a565b9392505050565b5f805f60608486031215610797575f80fd5b83359250602084013591506107ae6040850161074a565b90509250925092565b5f602082840312156107c7575f80fd5b8151801515811461077e575f80fd5b80546001600160a01b039081168352600182015481166020840152600282015481166040840152600382015416606083015260040154608090910152565b5f61010061082283876107d6565b60a0830194909452506001600160a01b039190911660c082015260e081018290525f9181019190915261012001919050565b610120810161086382886107d6565b60a082019590955260c08101939093526001600160a01b0391821660e08401521661010090910152919050565b5f80604083850312156108a1575f80fd5b505080516020909101519092909150565b60c081016108c082856107d6565b8260a0830152939250505056fea264697066735822122003580c8fb7eae9205a7ed6fbe1c3b274cbd963fe2584f25df3b78eb8a0658d4c64736f6c63430008140033","linkReferences":{}},"methodIdentifiers":{"authorizeCircle(address)":"4a81067d","authorizedCallers(address)":"536fff6c","marketParams()":"7b9e68f2","morpho()":"d8fbc833","owner()":"8da5cb5b","supplyCollateralAndBorrow(uint256,uint256,address)":"90c0d596","weth()":"3fc8cef3","wstETH()":"4aa07e64"},"id":18}