{"abi":[{"type":"constructor","inputs":[{"name":"_registry","type":"address","internalType":"address"},{"name":"_implementation","type":"address","internalType":"address"}],"stateMutability":"nonpayable"},{"type":"function","name":"allCircles","inputs":[{"name":"","type":"uint256","internalType":"uint256"}],"outputs":[{"name":"","type":"address","internalType":"address"}],"stateMutability":"view"},{"type":"function","name":"createCircle","inputs":[{"name":"name","type":"string","internalType":"string"},{"name":"initialMembers","type":"address[]","internalType":"address[]"}],"outputs":[{"name":"","type":"address","internalType":"address"}],"stateMutability":"nonpayable"},{"type":"function","name":"getCircleCount","inputs":[],"outputs":[{"name":"","type":"uint256","internalType":"uint256"}],"stateMutability":"view"},{"type":"function","name":"getUserCircles","inputs":[{"name":"user","type":"address","internalType":"address"}],"outputs":[{"name":"","type":"address[]","internalType":"address[]"}],"stateMutability":"view"},{"type":"function","name":"implementationAddress","inputs":[],"outputs":[{"name":"","type":"address","internalType":"address"}],"stateMutability":"view"},{"type":"function","name":"nameExists","inputs":[{"name":"","type":"string","internalType":"string"}],"outputs":[{"name":"","type":"bool","internalType":"bool"}],"stateMutability":"view"},{"type":"function","name":"registry","inputs":[],"outputs":[{"name":"","type":"address","internalType":"contract CircleRegistry"}],"stateMutability":"view"},{"type":"function","name":"userCircles","inputs":[{"name":"","type":"address","internalType":"address"},{"name":"","type":"uint256","internalType":"uint256"}],"outputs":[{"name":"","type":"address","internalType":"address"}],"stateMutability":"view"},{"type":"event","name":"CircleCreated","inputs":[{"name":"circleAddress","type":"address","indexed":true,"internalType":"address"},{"name":"name","type":"string","indexed":false,"internalType":"string"},{"name":"creator","type":"address","indexed":true,"internalType":"address"}],"anonymous":false}],"bytecode":{"object":"0x60c060405234801561000f575f80fd5b50604051610c3c380380610c3c83398101604081905261002e91610060565b6001600160a01b039182166080521660a052610091565b80516001600160a01b038116811461005b575f80fd5b919050565b5f8060408385031215610071575f80fd5b61007a83610045565b915061008860208401610045565b90509250929050565b60805160a051610b7d6100bf5f395f8181610105015261045301525f818160be01526105900152610b7d5ff3fe608060405234801561000f575f80fd5b5060043610610085575f3560e01c8063cc637afe11610058578063cc637afe14610127578063d1d4f3da14610165578063e1908c6e14610178578063e1f2dfce1461018b575f80fd5b80630950dc1f146100895780637b103999146100b957806388e81d8a146100e0578063b97a231914610100575b5f80fd5b61009c610097366004610757565b61019b565b6040516001600160a01b0390911681526020015b60405180910390f35b61009c7f000000000000000000000000000000000000000000000000000000000000000081565b6100f36100ee36600461077f565b6101cf565b6040516100b091906107e1565b61009c7f000000000000000000000000000000000000000000000000000000000000000081565b6101556101353660046108a4565b805160208183018101805160028252928201919093012091525460ff1681565b60405190151581526020016100b0565b61009c6101733660046108de565b610242565b61009c6101863660046109a9565b61064c565b5f546040519081526020016100b0565b6001602052815f5260405f2081815481106101b4575f80fd5b5f918252602090912001546001600160a01b03169150829050565b6001600160a01b0381165f9081526001602090815260409182902080548351818402810184019094528084526060939283018282801561023657602002820191905f5260205f20905b81546001600160a01b03168152600190910190602001808311610218575b50505050509050919050565b5f808351116102885760405162461bcd60e51b815260206004820152600d60248201526c13985b59481c995c5d5a5c9959609a1b60448201526064015b60405180910390fd5b60028360405161029891906109e2565b9081526040519081900360200190205460ff16156102e65760405162461bcd60e51b815260206004820152600b60248201526a4e616d652065786973747360a81b604482015260640161027f565b60328251111561032b5760405162461bcd60e51b815260206004820152601060248201526f546f6f206d616e79206d656d6265727360801b604482015260640161027f565b5f8251600161033a9190610a11565b67ffffffffffffffff811115610352576103526107f3565b60405190808252806020026020018201604052801561037b578160200160208202803683370190505b50905033815f8151811061039157610391610a24565b60200260200101906001600160a01b031690816001600160a01b0316815250505f5b835181101561041e578381815181106103ce576103ce610a24565b6020026020010151828260016103e49190610a11565b815181106103f4576103f4610a24565b6001600160a01b03909216602092830291909101909101528061041681610a38565b9150506103b3565b505f33854260405160200161043593929190610a50565b6040516020818303038152906040528051906020012090505f6104787f000000000000000000000000000000000000000000000000000000000000000083610673565b60405163461e681560e11b81529091506001600160a01b03821690638c3cd02a906104ab90899087903090600401610ab9565b5f604051808303815f87803b1580156104c2575f80fd5b505af11580156104d4573d5f803e3d5ffd5b50505f8054600181810183557f290decd9548b62a8d60345a988386fc84ba6bc95484008f6362f93160ef3e56390910180546001600160a01b0387166001600160a01b03199182168117909255338452602083815260408086208054808701825590875291909520018054909116909117905590519092506002915061055b9089906109e2565b908152604051908190036020018120805492151560ff19909316929092179091556318e4ed3d60e21b81526001600160a01b037f00000000000000000000000000000000000000000000000000000000000000001690636393b4f4906105c99084908a908890600401610af6565b5f604051808303815f87803b1580156105e0575f80fd5b505af11580156105f2573d5f803e3d5ffd5b50505050336001600160a01b0316816001600160a01b03167f15e639cb5334ee5b47e49005d0ff7b1c2f39098dd2da49668b9085d0659757cc886040516106399190610b35565b60405180910390a3925050505b92915050565b5f818154811061065a575f80fd5b5f918252602090912001546001600160a01b0316905081565b604051733d602d80600a3d3981f3363d3d373d3d3d363d7360601b60208201526bffffffffffffffffffffffff19606084901b1660348201526e5af43d82803e903d91602b57fd5bf360881b60488201525f9081906057016040516020818303038152906040529050828151602083015ff591506001600160a01b0382166107355760405162461bcd60e51b815260206004820152601560248201527410db1bdb994818dc99585d1a5bdb8819985a5b1959605a1b604482015260640161027f565b5092915050565b80356001600160a01b0381168114610752575f80fd5b919050565b5f8060408385031215610768575f80fd5b6107718361073c565b946020939093013593505050565b5f6020828403121561078f575f80fd5b6107988261073c565b9392505050565b5f8151808452602080850194508084015f5b838110156107d65781516001600160a01b0316875295820195908201906001016107b1565b509495945050505050565b602081525f610798602083018461079f565b634e487b7160e01b5f52604160045260245ffd5b604051601f8201601f1916810167ffffffffffffffff81118282101715610830576108306107f3565b604052919050565b5f82601f830112610847575f80fd5b813567ffffffffffffffff811115610861576108616107f3565b610874601f8201601f1916602001610807565b818152846020838601011115610888575f80fd5b816020850160208301375f918101602001919091529392505050565b5f602082840312156108b4575f80fd5b813567ffffffffffffffff8111156108ca575f80fd5b6108d684828501610838565b949350505050565b5f80604083850312156108ef575f80fd5b823567ffffffffffffffff80821115610906575f80fd5b61091286838701610838565b9350602091508185013581811115610928575f80fd5b8501601f81018713610938575f80fd5b80358281111561094a5761094a6107f3565b8060051b925061095b848401610807565b8181529282018401928481019089851115610974575f80fd5b928501925b848410156109995761098a8461073c565b82529285019290850190610979565b8096505050505050509250929050565b5f602082840312156109b9575f80fd5b5035919050565b5f5b838110156109da5781810151838201526020016109c2565b50505f910152565b5f82516109f38184602087016109c0565b9190910192915050565b634e487b7160e01b5f52601160045260245ffd5b80820180821115610646576106466109fd565b634e487b7160e01b5f52603260045260245ffd5b5f60018201610a4957610a496109fd565b5060010190565b6bffffffffffffffffffffffff198460601b1681525f8351610a798160148501602088016109c0565b60149201918201929092526034019392505050565b5f8151808452610aa58160208601602086016109c0565b601f01601f19169290920160200192915050565b606081525f610acb6060830186610a8e565b8281036020840152610add818661079f565b91505060018060a01b0383166040830152949350505050565b6001600160a01b03841681526060602082018190525f90610b1990830185610a8e565b8281036040840152610b2b818561079f565b9695505050505050565b602081525f6107986020830184610a8e56fea264697066735822122068399e24e61ae2774740e7852b2926d1008b697f6630c0fed708ba941e9ebea964736f6c63430008140033","linkReferences":{}},"methodIdentifiers":{"allCircles(uint256)":"e1908c6e","createCircle(string,address[])":"d1d4f3da","getCircleCount()":"e1f2dfce","getUserCircles(address)":"88e81d8a","implementationAddress()":"b97a2319","nameExists(string)":"cc637afe","registry()":"7b103999","userCircles(address,uint256)":"0950dc1f"},"id":46}