{"abi":[{"type":"receive","stateMutability":"payable"},{"type":"function","name":"addMember","inputs":[{"name":"newMember","type":"address","internalType":"address"}],"outputs":[],"stateMutability":"nonpayable"},{"type":"function","name":"contributeToRequest","inputs":[{"name":"requestId","type":"bytes32","internalType":"bytes32"}],"outputs":[],"stateMutability":"nonpayable"},{"type":"function","name":"deposit","inputs":[],"outputs":[],"stateMutability":"payable"},{"type":"function","name":"directLTVWithdraw","inputs":[{"name":"borrowAmount","type":"uint256","internalType":"uint256"}],"outputs":[{"name":"","type":"bytes32","internalType":"bytes32"}],"stateMutability":"nonpayable"},{"type":"function","name":"executeRequest","inputs":[{"name":"requestId","type":"bytes32","internalType":"bytes32"}],"outputs":[{"name":"","type":"bytes32","internalType":"bytes32"}],"stateMutability":"nonpayable"},{"type":"function","name":"getMemberCount","inputs":[],"outputs":[{"name":"","type":"uint256","internalType":"uint256"}],"stateMutability":"view"},{"type":"function","name":"getMembers","inputs":[],"outputs":[{"name":"","type":"address[]","internalType":"address[]"}],"stateMutability":"view"},{"type":"function","name":"getUserBalance","inputs":[{"name":"user","type":"address","internalType":"address"}],"outputs":[{"name":"","type":"uint256","internalType":"uint256"}],"stateMutability":"view"},{"type":"function","name":"initialize","inputs":[{"name":"_name","type":"string","internalType":"string"},{"name":"_members","type":"address[]","internalType":"address[]"},{"name":"","type":"address","internalType":"address"},{"name":"_swapModule","type":"address","internalType":"address"},{"name":"_lendingModule","type":"address","internalType":"address"}],"outputs":[],"stateMutability":"nonpayable"},{"type":"function","name":"isCircleMember","inputs":[{"name":"","type":"address","internalType":"address"}],"outputs":[{"name":"","type":"bool","internalType":"bool"}],"stateMutability":"view"},{"type":"function","name":"lendingModule","inputs":[],"outputs":[{"name":"","type":"address","internalType":"address"}],"stateMutability":"view"},{"type":"function","name":"loans","inputs":[{"name":"","type":"bytes32","internalType":"bytes32"}],"outputs":[{"name":"borrower","type":"address","internalType":"address"},{"name":"principal","type":"uint256","internalType":"uint256"},{"name":"collateralAmount","type":"uint256","internalType":"uint256"},{"name":"timestamp","type":"uint256","internalType":"uint256"},{"name":"active","type":"bool","internalType":"bool"}],"stateMutability":"view"},{"type":"function","name":"members","inputs":[{"name":"","type":"uint256","internalType":"uint256"}],"outputs":[{"name":"","type":"address","internalType":"address"}],"stateMutability":"view"},{"type":"function","name":"name","inputs":[],"outputs":[{"name":"","type":"string","internalType":"string"}],"stateMutability":"view"},{"type":"function","name":"requestCollateral","inputs":[{"name":"amount","type":"uint256","internalType":"uint256"},{"name":"contributors","type":"address[]","internalType":"address[]"},{"name":"amounts","type":"uint256[]","internalType":"uint256[]"},{"name":"purpose","type":"string","internalType":"string"}],"outputs":[{"name":"","type":"bytes32","internalType":"bytes32"}],"stateMutability":"nonpayable"},{"type":"function","name":"requests","inputs":[{"name":"","type":"bytes32","internalType":"bytes32"}],"outputs":[{"name":"borrower","type":"address","internalType":"address"},{"name":"requestedAmount","type":"uint256","internalType":"uint256"},{"name":"collateralAmount","type":"uint256","internalType":"uint256"},{"name":"contributedAmount","type":"uint256","internalType":"uint256"},{"name":"executed","type":"bool","internalType":"bool"},{"name":"purpose","type":"string","internalType":"string"}],"stateMutability":"view"},{"type":"function","name":"swapModule","inputs":[],"outputs":[{"name":"","type":"address","internalType":"address"}],"stateMutability":"view"},{"type":"function","name":"totalShares","inputs":[],"outputs":[{"name":"","type":"uint256","internalType":"uint256"}],"stateMutability":"view"},{"type":"function","name":"userContributions","inputs":[{"name":"","type":"bytes32","internalType":"bytes32"},{"name":"","type":"address","internalType":"address"}],"outputs":[{"name":"","type":"uint256","internalType":"uint256"}],"stateMutability":"view"},{"type":"function","name":"userShares","inputs":[{"name":"","type":"address","internalType":"address"}],"outputs":[{"name":"","type":"uint256","internalType":"uint256"}],"stateMutability":"view"},{"type":"event","name":"CollateralRequested","inputs":[{"name":"requestId","type":"bytes32","indexed":true,"internalType":"bytes32"},{"name":"borrower","type":"address","indexed":true,"internalType":"address"},{"name":"amount","type":"uint256","indexed":false,"internalType":"uint256"},{"name":"collateral","type":"uint256","indexed":false,"internalType":"uint256"},{"name":"contributors","type":"address[]","indexed":false,"internalType":"address[]"},{"name":"amounts","type":"uint256[]","indexed":false,"internalType":"uint256[]"},{"name":"purpose","type":"string","indexed":false,"internalType":"string"}],"anonymous":false},{"type":"event","name":"ContributionMade","inputs":[{"name":"requestId","type":"bytes32","indexed":true,"internalType":"bytes32"},{"name":"contributor","type":"address","indexed":true,"internalType":"address"},{"name":"amount","type":"uint256","indexed":false,"internalType":"uint256"}],"anonymous":false},{"type":"event","name":"Deposited","inputs":[{"name":"user","type":"address","indexed":true,"internalType":"address"},{"name":"amount","type":"uint256","indexed":false,"internalType":"uint256"},{"name":"shares","type":"uint256","indexed":false,"internalType":"uint256"}],"anonymous":false},{"type":"event","name":"LoanExecuted","inputs":[{"name":"requestId","type":"bytes32","indexed":true,"internalType":"bytes32"},{"name":"loanId","type":"bytes32","indexed":true,"internalType":"bytes32"},{"name":"borrower","type":"address","indexed":true,"internalType":"address"},{"name":"amount","type":"uint256","indexed":false,"internalType":"uint256"}],"anonymous":false},{"type":"event","name":"MemberAdded","inputs":[{"name":"member","type":"address","indexed":true,"internalType":"address"}],"anonymous":false},{"type":"event","name":"MorphoAuthorized","inputs":[{"name":"lendingModule","type":"address","indexed":true,"internalType":"address"}],"anonymous":false},{"type":"error","name":"ReentrancyGuardReentrantCall","inputs":[]}],"bytecode":{"object":"0x608060405234801561000f575f80fd5b5060015f55612646806100215f395ff3fe60806040526004361061011e575f3560e01c80639d8669851161009d578063d0e30db011610062578063d0e30db0146103cc578063de69b3aa146103d4578063e821fd2f146103ff578063e9c241661461041e578063fa716b3f1461043d575f80fd5b80639d866985146102b35780639eab5253146102e4578063c058801414610305578063c4a9081514610324578063ca6d56dc146103ad575f80fd5b806347734892116100e3578063477348921461020b5780635096e5dd1461022a5780635daf08ca146102495780637044dda714610280578063997072f71461029f575f80fd5b806306fdde03146101295780631aeb49081461015357806325f6a624146101915780633a98ef39146101b2578063469766c7146101d5575f80fd5b3661012557005b5f80fd5b348015610134575f80fd5b5061013d61045c565b60405161014a9190611f61565b60405180910390f35b34801561015e575f80fd5b5061018161016d366004611f89565b60036020525f908152604090205460ff1681565b604051901515815260200161014a565b34801561019c575f80fd5b506101b06101ab366004611fa2565b6104e8565b005b3480156101bd575f80fd5b506101c760055481565b60405190815260200161014a565b3480156101e0575f80fd5b506101c76101ef366004611fb9565b600960209081525f928352604080842090915290825290205481565b348015610216575f80fd5b506101c7610225366004611f89565b6107ed565b348015610235575f80fd5b506101c7610244366004612126565b6108ac565b348015610254575f80fd5b50610268610263366004611fa2565b610a1c565b6040516001600160a01b03909116815260200161014a565b34801561028b575f80fd5b50600754610268906001600160a01b031681565b3480156102aa575f80fd5b506002546101c7565b3480156102be575f80fd5b506102d26102cd366004611fa2565b610a44565b60405161014a96959493929190612207565b3480156102ef575f80fd5b506102f8610b10565b60405161014a919061228f565b348015610310575f80fd5b506101c761031f366004611fa2565b610b70565b34801561032f575f80fd5b5061037961033e366004611fa2565b600a6020525f9081526040902080546001820154600283015460038401546004909401546001600160a01b0390931693919290919060ff1685565b604080516001600160a01b03909616865260208601949094529284019190915260608301521515608082015260a00161014a565b3480156103b8575f80fd5b506101b06103c7366004611f89565b611297565b6101b06113f6565b3480156103df575f80fd5b506101c76103ee366004611f89565b60046020525f908152604090205481565b34801561040a575f80fd5b506101b06104193660046122a1565b611624565b348015610429575f80fd5b506101c7610438366004611fa2565b61192a565b348015610448575f80fd5b50600654610268906001600160a01b031681565b6001805461046990612331565b80601f016020809104026020016040519081016040528092919081815260200182805461049590612331565b80156104e05780601f106104b7576101008083540402835291602001916104e0565b820191905f5260205f20905b8154815290600101906020018083116104c357829003601f168201915b505050505081565b6104f0611e46565b5f818152600860205260409020600481015460ff161561054a5760405162461bcd60e51b815260206004820152601060248201526f105b1c9958591e48195e1958dd5d195960821b60448201526064015b60405180910390fd5b5f805b60058301548110156105bf5782600501818154811061056e5761056e612369565b5f918252602090912001546001600160a01b031633036105ad5782600601818154811061059d5761059d612369565b905f5260205f20015491506105bf565b806105b781612391565b91505061054d565b505f811161060f5760405162461bcd60e51b815260206004820152601860248201527f4e6f20636f6e747269627574696f6e2061737369676e656400000000000000006044820152606401610541565b6040516370a0823160e01b81523060048201525f90737cbaa98bd5e171a658fdf761ed1db33806a0d346906370a0823190602401602060405180830381865afa15801561065e573d5f803e3d5ffd5b505050506040513d601f19601f8201168201806040525081019061068291906123a9565b90505f81116106c65760405162461bcd60e51b815260206004820152601060248201526f4e6f207661756c742062616c616e636560801b6044820152606401610541565b5f81836005546106d691906123c0565b6106e091906123dd565b335f908152600460205260409020549091508111156107375760405162461bcd60e51b8152602060048201526013602482015272496e73756666696369656e742073686172657360681b6044820152606401610541565b335f90815260046020526040812080548392906107559084906123fc565b925050819055508060055f82825461076d91906123fc565b90915550505f85815260096020908152604080832033845290915281208490556003850180548592906107a190849061240f565b9091555050604051838152339086907fb736b18814da81a1581cd71e835c12a580034bd300493d2c7a455ce69a50f7a09060200160405180910390a3505050506107ea60015f55565b50565b5f6005545f036107fe57505f919050565b6040516370a0823160e01b81523060048201525f90737cbaa98bd5e171a658fdf761ed1db33806a0d346906370a0823190602401602060405180830381865afa15801561084d573d5f803e3d5ffd5b505050506040513d601f19601f8201168201806040525081019061087191906123a9565b6005546001600160a01b0385165f908152600460205260409020549192509061089b9083906123c0565b6108a591906123dd565b9392505050565b335f9081526003602052604081205460ff166108da5760405162461bcd60e51b815260040161054190612422565b5f85116108f95760405162461bcd60e51b815260040161054190612448565b6040516bffffffffffffffffffffffff193360601b166020820152603481018690524260548201525f906074016040516020818303038152906040528051906020012090505f6121348761271061095091906123c0565b61095a91906123dd565b5f83815260086020908152604090912080546001600160a01b03191633178155600181018a9055600281018390558851929350916109a0916005840191908a0190611e6e565b5085516109b69060068301906020890190611ed1565b50600781016109c586826124c2565b50336001600160a01b0316837fe61733de929adf470fdd6200b182738843a00ac7ca7f5a83026d64772a82a4a98a858b8b8b604051610a0895949392919061257e565b60405180910390a350909695505050505050565b60028181548110610a2b575f80fd5b5f918252602090912001546001600160a01b0316905081565b60086020525f90815260409020805460018201546002830154600384015460048501546007860180546001600160a01b039096169694959394929360ff9092169291610a8f90612331565b80601f0160208091040260200160405190810160405280929190818152602001828054610abb90612331565b8015610b065780601f10610add57610100808354040283529160200191610b06565b820191905f5260205f20905b815481529060010190602001808311610ae957829003601f168201915b5050505050905086565b60606002805480602002602001604051908101604052809291908181526020018280548015610b6657602002820191905f5260205f20905b81546001600160a01b03168152600190910190602001808311610b48575b5050505050905090565b5f610b79611e46565b335f9081526003602052604090205460ff16610ba75760405162461bcd60e51b815260040161054190612422565b5f8211610bc65760405162461bcd60e51b815260040161054190612448565b5f60055411610c0f5760405162461bcd60e51b81526020600482015260156024820152744e6f206465706f7369747320696e20636972636c6560581b6044820152606401610541565b6040516370a0823160e01b81523060048201525f90737cbaa98bd5e171a658fdf761ed1db33806a0d346906370a0823190602401602060405180830381865afa158015610c5e573d5f803e3d5ffd5b505050506040513d601f19601f82011682018060405250810190610c8291906123a9565b600554335f9081526004602052604081205492935091610ca39084906123c0565b610cad91906123dd565b90505f8111610cf05760405162461bcd60e51b815260206004820152600f60248201526e4e6f20757365722062616c616e636560881b6044820152606401610541565b5f612710610d00836121346123c0565b610d0a91906123dd565b905080851115610d515760405162461bcd60e51b815260206004820152601260248201527145786365656473206d617820626f72726f7760701b6044820152606401610541565b5f612134610d61876127106123c0565b610d6b91906123dd565b905080831015610dbd5760405162461bcd60e51b815260206004820152601760248201527f496e73756666696369656e7420636f6c6c61746572616c0000000000000000006044820152606401610541565b604051630a28a47760e01b8152600481018290525f90737cbaa98bd5e171a658fdf761ed1db33806a0d34690630a28a47790602401602060405180830381865afa158015610e0d573d5f803e3d5ffd5b505050506040513d601f19601f82011682018060405250810190610e3191906123a9565b335f90815260046020526040902054909150811115610e925760405162461bcd60e51b815260206004820152601860248201527f496e73756666696369656e7420757365722073686172657300000000000000006044820152606401610541565b604051635d043b2960e11b815260048101829052306024820181905260448201525f90737cbaa98bd5e171a658fdf761ed1db33806a0d3469063ba087652906064016020604051808303815f875af1158015610ef0573d5f803e3d5ffd5b505050506040513d601f19601f82011682018060405250810190610f1491906123a9565b905082811015610f665760405162461bcd60e51b815260206004820152601760248201527f496e73756666696369656e74207769746864726177616c0000000000000000006044820152606401610541565b60065460405163095ea7b360e01b81526001600160a01b039091166004820152602481018290526006602160991b019063095ea7b3906044016020604051808303815f875af1158015610fbb573d5f803e3d5ffd5b505050506040513d601f19601f82011682018060405250810190610fdf91906125f1565b506006546040516375c2682d60e11b8152600481018390525f916001600160a01b03169063eb84d05a906024016020604051808303815f875af1158015611028573d5f803e3d5ffd5b505050506040513d601f19601f8201168201806040525081019061104c91906123a9565b90505f811161108b5760405162461bcd60e51b815260206004820152600b60248201526a14ddd85c0819985a5b195960aa1b6044820152606401610541565b60075460405163095ea7b360e01b81526001600160a01b039091166004820152602481018290527376d8de471f54aaa87784119c60df1bbfc852c4159063095ea7b3906044016020604051808303815f875af11580156110ed573d5f803e3d5ffd5b505050506040513d601f19601f8201168201806040525081019061111191906125f1565b506007546040516348606acb60e11b815260048101839052602481018b90523360448201525f916001600160a01b0316906390c0d596906064016020604051808303815f875af1158015611167573d5f803e3d5ffd5b505050506040513d601f19601f8201168201806040525081019061118b91906123a9565b335f908152600460205260408120805492935086929091906111ae9084906123fc565b925050819055508360055f8282546111c691906123fc565b90915550506040805160a0810182523380825260208083018e815283850187815242606086019081526001608087018181525f8a8152600a8752898120985189546001600160a01b0319166001600160a01b0390911617895594519188019190915591516002870155516003860155516004909401805460ff19169415159490941790935592518d815290928492917fbba88c1e49240c20a1d39cb8fde6b32c6731a6e105afe2e83b197721eb804ab0910160405180910390a497505050505050505061129260015f55565b919050565b335f9081526003602052604090205460ff166112c55760405162461bcd60e51b815260040161054190612422565b6001600160a01b03811661130d5760405162461bcd60e51b815260206004820152600f60248201526e496e76616c6964206164647265737360881b6044820152606401610541565b6001600160a01b0381165f9081526003602052604090205460ff16156113685760405162461bcd60e51b815260206004820152601060248201526f20b63932b0b23c90309036b2b6b132b960811b6044820152606401610541565b6002805460018082019092557f405787fa12a823e0f2b7631cc41b3ba8828b3321ca811111fa75cd3aa3bb5ace0180546001600160a01b0319166001600160a01b0384169081179091555f81815260036020526040808220805460ff1916909417909355915190917fb251eb052afc73ffd02ffe85ad79990a8b3fed60d76dbc2fa2fdd7123dffd91491a250565b6113fe611e46565b335f9081526003602052604090205460ff1661142c5760405162461bcd60e51b815260040161054190612422565b5f341161144b5760405162461bcd60e51b815260040161054190612448565b6006602160991b016001600160a01b031663d0e30db0346040518263ffffffff1660e01b81526004015f604051808303818588803b15801561148b575f80fd5b505af115801561149d573d5f803e3d5ffd5b505060405163095ea7b360e01b8152737cbaa98bd5e171a658fdf761ed1db33806a0d34660048201523460248201526006602160991b01935063095ea7b3925060440190506020604051808303815f875af11580156114fe573d5f803e3d5ffd5b505050506040513d601f19601f8201168201806040525081019061152291906125f1565b50604051636e553f6560e01b81523460048201523060248201525f90737cbaa98bd5e171a658fdf761ed1db33806a0d34690636e553f65906044016020604051808303815f875af1158015611579573d5f803e3d5ffd5b505050506040513d601f19601f8201168201806040525081019061159d91906123a9565b335f908152600460205260408120805492935083929091906115c090849061240f565b925050819055508060055f8282546115d8919061240f565b9091555050604080513481526020810183905233917f73a19dd210f1a7f902193214c0ee91dd35ee5b4d920cba8d519eca65a7b488ca910160405180910390a25061162260015f55565b565b6002541561166a5760405162461bcd60e51b8152602060048201526013602482015272105b1c9958591e481a5b9a5d1a585b1a5e9959606a1b6044820152606401610541565b6001600160a01b0382166116b65760405162461bcd60e51b8152602060048201526013602482015272496e76616c69642073776170206d6f64756c6560681b6044820152606401610541565b6001600160a01b0381166117055760405162461bcd60e51b8152602060048201526016602482015275496e76616c6964206c656e64696e67206d6f64756c6560501b6044820152606401610541565b600161171186826124c2565b50600680546001600160a01b038085166001600160a01b03199283161790925560078054928416929091169190911790555f5b8451811015611882575f85828151811061176057611760612369565b602002602001015190505f6001600160a01b0316816001600160a01b0316036117c45760405162461bcd60e51b8152602060048201526016602482015275496e76616c6964206d656d626572206164647265737360501b6044820152606401610541565b6001600160a01b0381165f9081526003602052604090205460ff1661186f576002805460018082019092557f405787fa12a823e0f2b7631cc41b3ba8828b3321ca811111fa75cd3aa3bb5ace0180546001600160a01b0319166001600160a01b0384169081179091555f81815260036020526040808220805460ff1916909417909355915190917fb251eb052afc73ffd02ffe85ad79990a8b3fed60d76dbc2fa2fdd7123dffd91491a25b508061187a81612391565b915050611744565b506040516207767560ed1b81526001600160a01b03821660048201526001602482015272cd58deebd7a2f1c55daec715faf8aed5b27bf89063eecea000906044015f604051808303815f87803b1580156118da575f80fd5b505af11580156118ec573d5f803e3d5ffd5b50506040516001600160a01b03841692507f57071b304b0e56e7c632994efcae29f832926363a0d594a096592f1e02bb91e191505f90a25050505050565b5f611933611e46565b5f828152600860205260409020600481015460ff16156119885760405162461bcd60e51b815260206004820152601060248201526f105b1c9958591e48195e1958dd5d195960821b6044820152606401610541565b8060020154816003015410156119e05760405162461bcd60e51b815260206004820152601a60248201527f496e73756666696369656e7420636f6e747269627574696f6e730000000000006044820152606401610541565b6004808201805460ff191660011790556003820154604051630a28a47760e01b81525f92737cbaa98bd5e171a658fdf761ed1db33806a0d34692630a28a47792611a2e920190815260200190565b602060405180830381865afa158015611a49573d5f803e3d5ffd5b505050506040513d601f19601f82011682018060405250810190611a6d91906123a9565b604051635d043b2960e11b815260048101829052306024820181905260448201529091505f90737cbaa98bd5e171a658fdf761ed1db33806a0d3469063ba087652906064016020604051808303815f875af1158015611ace573d5f803e3d5ffd5b505050506040513d601f19601f82011682018060405250810190611af291906123a9565b90505f8111611b435760405162461bcd60e51b815260206004820152601b60248201527f4e6f20574554482072656365697665642066726f6d207661756c7400000000006044820152606401610541565b60065460405163095ea7b360e01b81526001600160a01b039091166004820152602481018290526006602160991b019063095ea7b3906044016020604051808303815f875af1158015611b98573d5f803e3d5ffd5b505050506040513d601f19601f82011682018060405250810190611bbc91906125f1565b506006546040516375c2682d60e11b8152600481018390525f916001600160a01b03169063eb84d05a906024016020604051808303815f875af1158015611c05573d5f803e3d5ffd5b505050506040513d601f19601f82011682018060405250810190611c2991906123a9565b90505f8111611c685760405162461bcd60e51b815260206004820152600b60248201526a14ddd85c0819985a5b195960aa1b6044820152606401610541565b60075460405163095ea7b360e01b81526001600160a01b039091166004820152602481018290527376d8de471f54aaa87784119c60df1bbfc852c4159063095ea7b3906044016020604051808303815f875af1158015611cca573d5f803e3d5ffd5b505050506040513d601f19601f82011682018060405250810190611cee91906125f1565b50600754600185015485546040516348606acb60e11b81526004810185905260248101929092526001600160a01b0390811660448301525f9216906390c0d596906064016020604051808303815f875af1158015611d4e573d5f803e3d5ffd5b505050506040513d601f19601f82011682018060405250810190611d7291906123a9565b6040805160a08101825287546001600160a01b0390811682526001808a01805460208086019182528587018a81524260608801908152608088018681525f8b8152600a85528a9020985189546001600160a01b03191690891617895593519588019590955551600287015592516003860155516004909401805460ff191694151594909417909355895492549351938452939450169183918a917fbba88c1e49240c20a1d39cb8fde6b32c6731a6e105afe2e83b197721eb804ab0910160405180910390a494505050505061129260015f55565b60025f5403611e6857604051633ee5aeb560e01b815260040160405180910390fd5b60025f55565b828054828255905f5260205f20908101928215611ec1579160200282015b82811115611ec157825182546001600160a01b0319166001600160a01b03909116178255602090920191600190910190611e8c565b50611ecd929150611f0a565b5090565b828054828255905f5260205f20908101928215611ec1579160200282015b82811115611ec1578251825591602001919060010190611eef565b5b80821115611ecd575f8155600101611f0b565b5f81518084525f5b81811015611f4257602081850181015186830182015201611f26565b505f602082860101526020601f19601f83011685010191505092915050565b602081525f6108a56020830184611f1e565b80356001600160a01b0381168114611292575f80fd5b5f60208284031215611f99575f80fd5b6108a582611f73565b5f60208284031215611fb2575f80fd5b5035919050565b5f8060408385031215611fca575f80fd5b82359150611fda60208401611f73565b90509250929050565b634e487b7160e01b5f52604160045260245ffd5b604051601f8201601f1916810167ffffffffffffffff8111828210171561202057612020611fe3565b604052919050565b5f67ffffffffffffffff82111561204157612041611fe3565b5060051b60200190565b5f82601f83011261205a575f80fd5b8135602061206f61206a83612028565b611ff7565b82815260059290921b8401810191818101908684111561208d575f80fd5b8286015b848110156120af576120a281611f73565b8352918301918301612091565b509695505050505050565b5f82601f8301126120c9575f80fd5b813567ffffffffffffffff8111156120e3576120e3611fe3565b6120f6601f8201601f1916602001611ff7565b81815284602083860101111561210a575f80fd5b816020850160208301375f918101602001919091529392505050565b5f805f8060808587031215612139575f80fd5b8435935060208086013567ffffffffffffffff80821115612158575f80fd5b61216489838a0161204b565b95506040880135915080821115612179575f80fd5b818801915088601f83011261218c575f80fd5b813561219a61206a82612028565b81815260059190911b8301840190848101908b8311156121b8575f80fd5b938501935b828510156121d6578435825293850193908501906121bd565b9650505060608801359250808311156121ed575f80fd5b50506121fb878288016120ba565b91505092959194509250565b60018060a01b0387168152856020820152846040820152836060820152821515608082015260c060a08201525f61224160c0830184611f1e565b98975050505050505050565b5f8151808452602080850194508084015f5b838110156122845781516001600160a01b03168752958201959082019060010161225f565b509495945050505050565b602081525f6108a5602083018461224d565b5f805f805f60a086880312156122b5575f80fd5b853567ffffffffffffffff808211156122cc575f80fd5b6122d889838a016120ba565b965060208801359150808211156122ed575f80fd5b506122fa8882890161204b565b94505061230960408701611f73565b925061231760608701611f73565b915061232560808701611f73565b90509295509295909350565b600181811c9082168061234557607f821691505b60208210810361236357634e487b7160e01b5f52602260045260245ffd5b50919050565b634e487b7160e01b5f52603260045260245ffd5b634e487b7160e01b5f52601160045260245ffd5b5f600182016123a2576123a261237d565b5060010190565b5f602082840312156123b9575f80fd5b5051919050565b80820281158282048414176123d7576123d761237d565b92915050565b5f826123f757634e487b7160e01b5f52601260045260245ffd5b500490565b818103818111156123d7576123d761237d565b808201808211156123d7576123d761237d565b6020808252600c908201526b2737ba10309036b2b6b132b960a11b604082015260600190565b6020808252601290820152710416d6f756e74206d757374206265203e20360741b604082015260600190565b601f8211156124bd575f81815260208120601f850160051c8101602086101561249a5750805b601f850160051c820191505b818110156124b9578281556001016124a6565b5050505b505050565b815167ffffffffffffffff8111156124dc576124dc611fe3565b6124f0816124ea8454612331565b84612474565b602080601f831160018114612523575f841561250c5750858301515b5f19600386901b1c1916600185901b1785556124b9565b5f85815260208120601f198616915b8281101561255157888601518255948401946001909101908401612532565b508582101561256e57878501515f19600388901b60f8161c191681555b5050505050600190811b01905550565b8581525f6020868184015260a0604084015261259d60a084018761224d565b83810360608501528551808252828701918301905f5b818110156125cf578351835292840192918401916001016125b3565b505084810360808601526125e38187611f1e565b9a9950505050505050505050565b5f60208284031215612601575f80fd5b815180151581146108a5575f80fdfea264697066735822122086f682b91f2c1e03f5ccc407d13f04315d3ea63b1a6d09be784f9e6912695da164736f6c63430008140033","linkReferences":{}},"methodIdentifiers":{"addMember(address)":"ca6d56dc","contributeToRequest(bytes32)":"25f6a624","deposit()":"d0e30db0","directLTVWithdraw(uint256)":"c0588014","executeRequest(bytes32)":"e9c24166","getMemberCount()":"997072f7","getMembers()":"9eab5253","getUserBalance(address)":"47734892","initialize(string,address[],address,address,address)":"e821fd2f","isCircleMember(address)":"1aeb4908","lendingModule()":"7044dda7","loans(bytes32)":"c4a90815","members(uint256)":"5daf08ca","name()":"06fdde03","requestCollateral(uint256,address[],uint256[],string)":"5096e5dd","requests(bytes32)":"9d866985","swapModule()":"fa716b3f","totalShares()":"3a98ef39","userContributions(bytes32,address)":"469766c7","userShares(address)":"de69b3aa"},"id":6}