{"abi":[{"type":"receive","stateMutability":"payable"},{"type":"function","name":"contributeToRequest","inputs":[{"name":"requestId","type":"bytes32","internalType":"bytes32"}],"outputs":[],"stateMutability":"nonpayable"},{"type":"function","name":"deposit","inputs":[],"outputs":[],"stateMutability":"payable"},{"type":"function","name":"directLTVWithdraw","inputs":[{"name":"borrowAmount","type":"uint256","internalType":"uint256"}],"outputs":[{"name":"","type":"bytes32","internalType":"bytes32"}],"stateMutability":"nonpayable"},{"type":"function","name":"executeRequest","inputs":[{"name":"requestId","type":"bytes32","internalType":"bytes32"}],"outputs":[{"name":"","type":"bytes32","internalType":"bytes32"}],"stateMutability":"nonpayable"},{"type":"function","name":"getUserBalance","inputs":[{"name":"user","type":"address","internalType":"address"}],"outputs":[{"name":"","type":"uint256","internalType":"uint256"}],"stateMutability":"view"},{"type":"function","name":"initialize","inputs":[{"name":"","type":"string","internalType":"string"},{"name":"_members","type":"address[]","internalType":"address[]"},{"name":"","type":"address","internalType":"address"},{"name":"_swapModule","type":"address","internalType":"address"},{"name":"_lendingModule","type":"address","internalType":"address"}],"outputs":[],"stateMutability":"nonpayable"},{"type":"function","name":"isCircleMember","inputs":[{"name":"","type":"address","internalType":"address"}],"outputs":[{"name":"","type":"bool","internalType":"bool"}],"stateMutability":"view"},{"type":"function","name":"lendingModule","inputs":[],"outputs":[{"name":"","type":"address","internalType":"address"}],"stateMutability":"view"},{"type":"function","name":"loans","inputs":[{"name":"","type":"bytes32","internalType":"bytes32"}],"outputs":[{"name":"borrower","type":"address","internalType":"address"},{"name":"principal","type":"uint256","internalType":"uint256"},{"name":"collateralAmount","type":"uint256","internalType":"uint256"},{"name":"timestamp","type":"uint256","internalType":"uint256"},{"name":"active","type":"bool","internalType":"bool"}],"stateMutability":"view"},{"type":"function","name":"members","inputs":[{"name":"","type":"uint256","internalType":"uint256"}],"outputs":[{"name":"","type":"address","internalType":"address"}],"stateMutability":"view"},{"type":"function","name":"requestCollateral","inputs":[{"name":"amount","type":"uint256","internalType":"uint256"},{"name":"contributors","type":"address[]","internalType":"address[]"},{"name":"amounts","type":"uint256[]","internalType":"uint256[]"},{"name":"purpose","type":"string","internalType":"string"}],"outputs":[{"name":"","type":"bytes32","internalType":"bytes32"}],"stateMutability":"nonpayable"},{"type":"function","name":"requests","inputs":[{"name":"","type":"bytes32","internalType":"bytes32"}],"outputs":[{"name":"borrower","type":"address","internalType":"address"},{"name":"requestedAmount","type":"uint256","internalType":"uint256"},{"name":"collateralAmount","type":"uint256","internalType":"uint256"},{"name":"contributedAmount","type":"uint256","internalType":"uint256"},{"name":"executed","type":"bool","internalType":"bool"},{"name":"purpose","type":"string","internalType":"string"}],"stateMutability":"view"},{"type":"function","name":"swapModule","inputs":[],"outputs":[{"name":"","type":"address","internalType":"address"}],"stateMutability":"view"},{"type":"function","name":"totalShares","inputs":[],"outputs":[{"name":"","type":"uint256","internalType":"uint256"}],"stateMutability":"view"},{"type":"function","name":"userContributions","inputs":[{"name":"","type":"bytes32","internalType":"bytes32"},{"name":"","type":"address","internalType":"address"}],"outputs":[{"name":"","type":"uint256","internalType":"uint256"}],"stateMutability":"view"},{"type":"function","name":"userShares","inputs":[{"name":"","type":"address","internalType":"address"}],"outputs":[{"name":"","type":"uint256","internalType":"uint256"}],"stateMutability":"view"},{"type":"event","name":"CollateralRequested","inputs":[{"name":"requestId","type":"bytes32","indexed":true,"internalType":"bytes32"},{"name":"borrower","type":"address","indexed":true,"internalType":"address"},{"name":"amount","type":"uint256","indexed":false,"internalType":"uint256"},{"name":"collateral","type":"uint256","indexed":false,"internalType":"uint256"},{"name":"contributors","type":"address[]","indexed":false,"internalType":"address[]"},{"name":"amounts","type":"uint256[]","indexed":false,"internalType":"uint256[]"},{"name":"purpose","type":"string","indexed":false,"internalType":"string"}],"anonymous":false},{"type":"event","name":"ContributionMade","inputs":[{"name":"requestId","type":"bytes32","indexed":true,"internalType":"bytes32"},{"name":"contributor","type":"address","indexed":true,"internalType":"address"},{"name":"amount","type":"uint256","indexed":false,"internalType":"uint256"}],"anonymous":false},{"type":"event","name":"Deposited","inputs":[{"name":"user","type":"address","indexed":true,"internalType":"address"},{"name":"amount","type":"uint256","indexed":false,"internalType":"uint256"},{"name":"shares","type":"uint256","indexed":false,"internalType":"uint256"}],"anonymous":false},{"type":"event","name":"LoanExecuted","inputs":[{"name":"requestId","type":"bytes32","indexed":true,"internalType":"bytes32"},{"name":"loanId","type":"bytes32","indexed":true,"internalType":"bytes32"},{"name":"borrower","type":"address","indexed":true,"internalType":"address"},{"name":"amount","type":"uint256","indexed":false,"internalType":"uint256"}],"anonymous":false},{"type":"event","name":"MemberAdded","inputs":[{"name":"member","type":"address","indexed":true,"internalType":"address"}],"anonymous":false},{"type":"event","name":"MorphoAuthorized","inputs":[{"name":"lendingModule","type":"address","indexed":true,"internalType":"address"}],"anonymous":false},{"type":"error","name":"ReentrancyGuardReentrantCall","inputs":[]}],"bytecode":{"object":"0x608060405234801561000f575f80fd5b5060015f556122da806100215f395ff3fe6080604052600436106100f2575f3560e01c80639d86698511610087578063de69b3aa11610057578063de69b3aa1461032f578063e821fd2f1461035a578063e9c2416614610379578063fa716b3f14610398575f80fd5b80639d8669851461024e578063c05880141461027f578063c4a908151461029e578063d0e30db014610327575f80fd5b806347734892116100c257806347734892146101ba5780635096e5dd146101d95780635daf08ca146101f85780637044dda71461022f575f80fd5b80631aeb4908146100fd57806325f6a624146101405780633a98ef3914610161578063469766c714610184575f80fd5b366100f957005b5f80fd5b348015610108575f80fd5b5061012b610117366004611c07565b60026020525f908152604090205460ff1681565b60405190151581526020015b60405180910390f35b34801561014b575f80fd5b5061015f61015a366004611c20565b6103b7565b005b34801561016c575f80fd5b5061017660045481565b604051908152602001610137565b34801561018f575f80fd5b5061017661019e366004611c37565b600860209081525f928352604080842090915290825290205481565b3480156101c5575f80fd5b506101766101d4366004611c07565b6106bc565b3480156101e4575f80fd5b506101766101f3366004611da4565b61077b565b348015610203575f80fd5b50610217610212366004611c20565b6108eb565b6040516001600160a01b039091168152602001610137565b34801561023a575f80fd5b50600654610217906001600160a01b031681565b348015610259575f80fd5b5061026d610268366004611c20565b610913565b60405161013796959493929190611ec8565b34801561028a575f80fd5b50610176610299366004611c20565b6109df565b3480156102a9575f80fd5b506102f36102b8366004611c20565b60096020525f9081526040902080546001820154600283015460038401546004909401546001600160a01b0390931693919290919060ff1685565b604080516001600160a01b03909616865260208601949094529284019190915260608301521515608082015260a001610137565b61015f611106565b34801561033a575f80fd5b50610176610349366004611c07565b60036020525f908152604090205481565b348015610365575f80fd5b5061015f610374366004611f0e565b611334565b348015610384575f80fd5b50610176610393366004611c20565b6115fd565b3480156103a3575f80fd5b50600554610217906001600160a01b031681565b6103bf611b19565b5f818152600760205260409020600481015460ff16156104195760405162461bcd60e51b815260206004820152601060248201526f105b1c9958591e48195e1958dd5d195960821b60448201526064015b60405180910390fd5b5f805b600583015481101561048e5782600501818154811061043d5761043d611f9e565b5f918252602090912001546001600160a01b0316330361047c5782600601818154811061046c5761046c611f9e565b905f5260205f200154915061048e565b8061048681611fc6565b91505061041c565b505f81116104de5760405162461bcd60e51b815260206004820152601860248201527f4e6f20636f6e747269627574696f6e2061737369676e656400000000000000006044820152606401610410565b6040516370a0823160e01b81523060048201525f90737cbaa98bd5e171a658fdf761ed1db33806a0d346906370a0823190602401602060405180830381865afa15801561052d573d5f803e3d5ffd5b505050506040513d601f19601f820116820180604052508101906105519190611fde565b90505f81116105955760405162461bcd60e51b815260206004820152601060248201526f4e6f207661756c742062616c616e636560801b6044820152606401610410565b5f81836004546105a59190611ff5565b6105af9190612012565b335f908152600360205260409020549091508111156106065760405162461bcd60e51b8152602060048201526013602482015272496e73756666696369656e742073686172657360681b6044820152606401610410565b335f9081526003602052604081208054839290610624908490612031565b925050819055508060045f82825461063c9190612031565b90915550505f8581526008602090815260408083203384529091528120849055600385018054859290610670908490612044565b9091555050604051838152339086907fb736b18814da81a1581cd71e835c12a580034bd300493d2c7a455ce69a50f7a09060200160405180910390a3505050506106b960015f55565b50565b5f6004545f036106cd57505f919050565b6040516370a0823160e01b81523060048201525f90737cbaa98bd5e171a658fdf761ed1db33806a0d346906370a0823190602401602060405180830381865afa15801561071c573d5f803e3d5ffd5b505050506040513d601f19601f820116820180604052508101906107409190611fde565b6004546001600160a01b0385165f908152600360205260409020549192509061076a908390611ff5565b6107749190612012565b9392505050565b335f9081526002602052604081205460ff166107a95760405162461bcd60e51b815260040161041090612057565b5f85116107c85760405162461bcd60e51b81526004016104109061207d565b6040516bffffffffffffffffffffffff193360601b166020820152603481018690524260548201525f906074016040516020818303038152906040528051906020012090505f6121348761271061081f9190611ff5565b6108299190612012565b5f83815260076020908152604090912080546001600160a01b03191633178155600181018a90556002810183905588519293509161086f916005840191908a0190611b41565b5085516108859060068301906020890190611ba4565b5060078101610894868261212f565b50336001600160a01b0316837fe61733de929adf470fdd6200b182738843a00ac7ca7f5a83026d64772a82a4a98a858b8b8b6040516108d79594939291906121eb565b60405180910390a350909695505050505050565b600181815481106108fa575f80fd5b5f918252602090912001546001600160a01b0316905081565b600760208190525f91825260409091208054600182015460028301546003840154600485015495850180546001600160a01b039095169693959294919360ff16929161095e906120a9565b80601f016020809104026020016040519081016040528092919081815260200182805461098a906120a9565b80156109d55780601f106109ac576101008083540402835291602001916109d5565b820191905f5260205f20905b8154815290600101906020018083116109b857829003601f168201915b5050505050905086565b5f6109e8611b19565b335f9081526002602052604090205460ff16610a165760405162461bcd60e51b815260040161041090612057565b5f8211610a355760405162461bcd60e51b81526004016104109061207d565b5f60045411610a7e5760405162461bcd60e51b81526020600482015260156024820152744e6f206465706f7369747320696e20636972636c6560581b6044820152606401610410565b6040516370a0823160e01b81523060048201525f90737cbaa98bd5e171a658fdf761ed1db33806a0d346906370a0823190602401602060405180830381865afa158015610acd573d5f803e3d5ffd5b505050506040513d601f19601f82011682018060405250810190610af19190611fde565b600454335f9081526003602052604081205492935091610b12908490611ff5565b610b1c9190612012565b90505f8111610b5f5760405162461bcd60e51b815260206004820152600f60248201526e4e6f20757365722062616c616e636560881b6044820152606401610410565b5f612710610b6f83612134611ff5565b610b799190612012565b905080851115610bc05760405162461bcd60e51b815260206004820152601260248201527145786365656473206d617820626f72726f7760701b6044820152606401610410565b5f612134610bd087612710611ff5565b610bda9190612012565b905080831015610c2c5760405162461bcd60e51b815260206004820152601760248201527f496e73756666696369656e7420636f6c6c61746572616c0000000000000000006044820152606401610410565b604051630a28a47760e01b8152600481018290525f90737cbaa98bd5e171a658fdf761ed1db33806a0d34690630a28a47790602401602060405180830381865afa158015610c7c573d5f803e3d5ffd5b505050506040513d601f19601f82011682018060405250810190610ca09190611fde565b335f90815260036020526040902054909150811115610d015760405162461bcd60e51b815260206004820152601860248201527f496e73756666696369656e7420757365722073686172657300000000000000006044820152606401610410565b604051635d043b2960e11b815260048101829052306024820181905260448201525f90737cbaa98bd5e171a658fdf761ed1db33806a0d3469063ba087652906064016020604051808303815f875af1158015610d5f573d5f803e3d5ffd5b505050506040513d601f19601f82011682018060405250810190610d839190611fde565b905082811015610dd55760405162461bcd60e51b815260206004820152601760248201527f496e73756666696369656e74207769746864726177616c0000000000000000006044820152606401610410565b60055460405163095ea7b360e01b81526001600160a01b039091166004820152602481018290526006602160991b019063095ea7b3906044016020604051808303815f875af1158015610e2a573d5f803e3d5ffd5b505050506040513d601f19601f82011682018060405250810190610e4e9190612285565b506005546040516375c2682d60e11b8152600481018390525f916001600160a01b03169063eb84d05a906024016020604051808303815f875af1158015610e97573d5f803e3d5ffd5b505050506040513d601f19601f82011682018060405250810190610ebb9190611fde565b90505f8111610efa5760405162461bcd60e51b815260206004820152600b60248201526a14ddd85c0819985a5b195960aa1b6044820152606401610410565b60065460405163095ea7b360e01b81526001600160a01b039091166004820152602481018290527376d8de471f54aaa87784119c60df1bbfc852c4159063095ea7b3906044016020604051808303815f875af1158015610f5c573d5f803e3d5ffd5b505050506040513d601f19601f82011682018060405250810190610f809190612285565b506006546040516348606acb60e11b815260048101839052602481018b90523360448201525f916001600160a01b0316906390c0d596906064016020604051808303815f875af1158015610fd6573d5f803e3d5ffd5b505050506040513d601f19601f82011682018060405250810190610ffa9190611fde565b335f9081526003602052604081208054929350869290919061101d908490612031565b925050819055508360045f8282546110359190612031565b90915550506040805160a0810182523380825260208083018e815283850187815242606086019081526001608087018181525f8a815260098752898120985189546001600160a01b0319166001600160a01b0390911617895594519188019190915591516002870155516003860155516004909401805460ff19169415159490941790935592518d815290928492917fbba88c1e49240c20a1d39cb8fde6b32c6731a6e105afe2e83b197721eb804ab0910160405180910390a497505050505050505061110160015f55565b919050565b61110e611b19565b335f9081526002602052604090205460ff1661113c5760405162461bcd60e51b815260040161041090612057565b5f341161115b5760405162461bcd60e51b81526004016104109061207d565b6006602160991b016001600160a01b031663d0e30db0346040518263ffffffff1660e01b81526004015f604051808303818588803b15801561119b575f80fd5b505af11580156111ad573d5f803e3d5ffd5b505060405163095ea7b360e01b8152737cbaa98bd5e171a658fdf761ed1db33806a0d34660048201523460248201526006602160991b01935063095ea7b3925060440190506020604051808303815f875af115801561120e573d5f803e3d5ffd5b505050506040513d601f19601f820116820180604052508101906112329190612285565b50604051636e553f6560e01b81523460048201523060248201525f90737cbaa98bd5e171a658fdf761ed1db33806a0d34690636e553f65906044016020604051808303815f875af1158015611289573d5f803e3d5ffd5b505050506040513d601f19601f820116820180604052508101906112ad9190611fde565b335f908152600360205260408120805492935083929091906112d0908490612044565b925050819055508060045f8282546112e89190612044565b9091555050604080513481526020810183905233917f73a19dd210f1a7f902193214c0ee91dd35ee5b4d920cba8d519eca65a7b488ca910160405180910390a25061133260015f55565b565b6001541561137a5760405162461bcd60e51b8152602060048201526013602482015272105b1c9958591e481a5b9a5d1a585b1a5e9959606a1b6044820152606401610410565b6001600160a01b0382166113c65760405162461bcd60e51b8152602060048201526013602482015272496e76616c69642073776170206d6f64756c6560681b6044820152606401610410565b6001600160a01b0381166114155760405162461bcd60e51b8152602060048201526016602482015275496e76616c6964206c656e64696e67206d6f64756c6560501b6044820152606401610410565b600580546001600160a01b038085166001600160a01b03199283161790925560068054928416929091169190911790555f5b845181101561155557600185828151811061146457611464611f9e565b6020908102919091018101518254600180820185555f9485529284200180546001600160a01b0319166001600160a01b03909216919091179055865190916002918890859081106114b7576114b7611f9e565b60200260200101516001600160a01b03166001600160a01b031681526020019081526020015f205f6101000a81548160ff02191690831515021790555084818151811061150657611506611f9e565b60200260200101516001600160a01b03167fb251eb052afc73ffd02ffe85ad79990a8b3fed60d76dbc2fa2fdd7123dffd91460405160405180910390a28061154d81611fc6565b915050611447565b506040516207767560ed1b81526001600160a01b03821660048201526001602482015272cd58deebd7a2f1c55daec715faf8aed5b27bf89063eecea000906044015f604051808303815f87803b1580156115ad575f80fd5b505af11580156115bf573d5f803e3d5ffd5b50506040516001600160a01b03841692507f57071b304b0e56e7c632994efcae29f832926363a0d594a096592f1e02bb91e191505f90a25050505050565b5f611606611b19565b5f828152600760205260409020600481015460ff161561165b5760405162461bcd60e51b815260206004820152601060248201526f105b1c9958591e48195e1958dd5d195960821b6044820152606401610410565b8060020154816003015410156116b35760405162461bcd60e51b815260206004820152601a60248201527f496e73756666696369656e7420636f6e747269627574696f6e730000000000006044820152606401610410565b6004808201805460ff191660011790556003820154604051630a28a47760e01b81525f92737cbaa98bd5e171a658fdf761ed1db33806a0d34692630a28a47792611701920190815260200190565b602060405180830381865afa15801561171c573d5f803e3d5ffd5b505050506040513d601f19601f820116820180604052508101906117409190611fde565b604051635d043b2960e11b815260048101829052306024820181905260448201529091505f90737cbaa98bd5e171a658fdf761ed1db33806a0d3469063ba087652906064016020604051808303815f875af11580156117a1573d5f803e3d5ffd5b505050506040513d601f19601f820116820180604052508101906117c59190611fde565b90505f81116118165760405162461bcd60e51b815260206004820152601b60248201527f4e6f20574554482072656365697665642066726f6d207661756c7400000000006044820152606401610410565b60055460405163095ea7b360e01b81526001600160a01b039091166004820152602481018290526006602160991b019063095ea7b3906044016020604051808303815f875af115801561186b573d5f803e3d5ffd5b505050506040513d601f19601f8201168201806040525081019061188f9190612285565b506005546040516375c2682d60e11b8152600481018390525f916001600160a01b03169063eb84d05a906024016020604051808303815f875af11580156118d8573d5f803e3d5ffd5b505050506040513d601f19601f820116820180604052508101906118fc9190611fde565b90505f811161193b5760405162461bcd60e51b815260206004820152600b60248201526a14ddd85c0819985a5b195960aa1b6044820152606401610410565b60065460405163095ea7b360e01b81526001600160a01b039091166004820152602481018290527376d8de471f54aaa87784119c60df1bbfc852c4159063095ea7b3906044016020604051808303815f875af115801561199d573d5f803e3d5ffd5b505050506040513d601f19601f820116820180604052508101906119c19190612285565b50600654600185015485546040516348606acb60e11b81526004810185905260248101929092526001600160a01b0390811660448301525f9216906390c0d596906064016020604051808303815f875af1158015611a21573d5f803e3d5ffd5b505050506040513d601f19601f82011682018060405250810190611a459190611fde565b6040805160a08101825287546001600160a01b0390811682526001808a01805460208086019182528587018a81524260608801908152608088018681525f8b8152600985528a9020985189546001600160a01b03191690891617895593519588019590955551600287015592516003860155516004909401805460ff191694151594909417909355895492549351938452939450169183918a917fbba88c1e49240c20a1d39cb8fde6b32c6731a6e105afe2e83b197721eb804ab0910160405180910390a494505050505061110160015f55565b60025f5403611b3b57604051633ee5aeb560e01b815260040160405180910390fd5b60025f55565b828054828255905f5260205f20908101928215611b94579160200282015b82811115611b9457825182546001600160a01b0319166001600160a01b03909116178255602090920191600190910190611b5f565b50611ba0929150611bdd565b5090565b828054828255905f5260205f20908101928215611b94579160200282015b82811115611b94578251825591602001919060010190611bc2565b5b80821115611ba0575f8155600101611bde565b80356001600160a01b0381168114611101575f80fd5b5f60208284031215611c17575f80fd5b61077482611bf1565b5f60208284031215611c30575f80fd5b5035919050565b5f8060408385031215611c48575f80fd5b82359150611c5860208401611bf1565b90509250929050565b634e487b7160e01b5f52604160045260245ffd5b604051601f8201601f1916810167ffffffffffffffff81118282101715611c9e57611c9e611c61565b604052919050565b5f67ffffffffffffffff821115611cbf57611cbf611c61565b5060051b60200190565b5f82601f830112611cd8575f80fd5b81356020611ced611ce883611ca6565b611c75565b82815260059290921b84018101918181019086841115611d0b575f80fd5b8286015b84811015611d2d57611d2081611bf1565b8352918301918301611d0f565b509695505050505050565b5f82601f830112611d47575f80fd5b813567ffffffffffffffff811115611d6157611d61611c61565b611d74601f8201601f1916602001611c75565b818152846020838601011115611d88575f80fd5b816020850160208301375f918101602001919091529392505050565b5f805f8060808587031215611db7575f80fd5b8435935060208086013567ffffffffffffffff80821115611dd6575f80fd5b611de289838a01611cc9565b95506040880135915080821115611df7575f80fd5b818801915088601f830112611e0a575f80fd5b8135611e18611ce882611ca6565b81815260059190911b8301840190848101908b831115611e36575f80fd5b938501935b82851015611e5457843582529385019390850190611e3b565b965050506060880135925080831115611e6b575f80fd5b5050611e7987828801611d38565b91505092959194509250565b5f81518084525f5b81811015611ea957602081850181015186830182015201611e8d565b505f602082860101526020601f19601f83011685010191505092915050565b60018060a01b0387168152856020820152846040820152836060820152821515608082015260c060a08201525f611f0260c0830184611e85565b98975050505050505050565b5f805f805f60a08688031215611f22575f80fd5b853567ffffffffffffffff80821115611f39575f80fd5b611f4589838a01611d38565b96506020880135915080821115611f5a575f80fd5b50611f6788828901611cc9565b945050611f7660408701611bf1565b9250611f8460608701611bf1565b9150611f9260808701611bf1565b90509295509295909350565b634e487b7160e01b5f52603260045260245ffd5b634e487b7160e01b5f52601160045260245ffd5b5f60018201611fd757611fd7611fb2565b5060010190565b5f60208284031215611fee575f80fd5b5051919050565b808202811582820484141761200c5761200c611fb2565b92915050565b5f8261202c57634e487b7160e01b5f52601260045260245ffd5b500490565b8181038181111561200c5761200c611fb2565b8082018082111561200c5761200c611fb2565b6020808252600c908201526b2737ba10309036b2b6b132b960a11b604082015260600190565b6020808252601290820152710416d6f756e74206d757374206265203e20360741b604082015260600190565b600181811c908216806120bd57607f821691505b6020821081036120db57634e487b7160e01b5f52602260045260245ffd5b50919050565b601f82111561212a575f81815260208120601f850160051c810160208610156121075750805b601f850160051c820191505b8181101561212657828155600101612113565b5050505b505050565b815167ffffffffffffffff81111561214957612149611c61565b61215d8161215784546120a9565b846120e1565b602080601f831160018114612190575f84156121795750858301515b5f19600386901b1c1916600185901b178555612126565b5f85815260208120601f198616915b828110156121be5788860151825594840194600190910190840161219f565b50858210156121db57878501515f19600388901b60f8161c191681555b5050505050600190811b01905550565b5f60a082018783526020878185015260a0604085015281875180845260c08601915082890193505f5b818110156122395784516001600160a01b031683529383019391830191600101612214565b5050848103606086015286518082529082019250818701905f5b8181101561226f57825185529383019391830191600101612253565b505050508281036080840152611f028185611e85565b5f60208284031215612295575f80fd5b81518015158114610774575f80fdfea2646970667358221220f7c7fe288cc88e7f95dbf213eb2e7cd0fbba3ab5c95b45220a2aa5afdbbb178864736f6c63430008140033","linkReferences":{}},"methodIdentifiers":{"contributeToRequest(bytes32)":"25f6a624","deposit()":"d0e30db0","directLTVWithdraw(uint256)":"c0588014","executeRequest(bytes32)":"e9c24166","getUserBalance(address)":"47734892","initialize(string,address[],address,address,address)":"e821fd2f","isCircleMember(address)":"1aeb4908","lendingModule()":"7044dda7","loans(bytes32)":"c4a90815","members(uint256)":"5daf08ca","requestCollateral(uint256,address[],uint256[],string)":"5096e5dd","requests(bytes32)":"9d866985","swapModule()":"fa716b3f","totalShares()":"3a98ef39","userContributions(bytes32,address)":"469766c7","userShares(address)":"de69b3aa"},"id":18}