{"abi":[{"type":"receive","stateMutability":"payable"},{"type":"function","name":"BASE_YIELD_RATE","inputs":[],"outputs":[{"name":"","type":"uint256","internalType":"uint256"}],"stateMutability":"view"},{"type":"function","name":"BASIS_POINTS","inputs":[],"outputs":[{"name":"","type":"uint256","internalType":"uint256"}],"stateMutability":"view"},{"type":"function","name":"BORROWING_RATE","inputs":[],"outputs":[{"name":"","type":"uint256","internalType":"uint256"}],"stateMutability":"view"},{"type":"function","name":"CHAIN_ID","inputs":[],"outputs":[{"name":"","type":"uint256","internalType":"uint256"}],"stateMutability":"view"},{"type":"function","name":"CHAIN_NAME","inputs":[],"outputs":[{"name":"","type":"string","internalType":"string"}],"stateMutability":"view"},{"type":"function","name":"DEADLINE_BUFFER","inputs":[],"outputs":[{"name":"","type":"uint256","internalType":"uint256"}],"stateMutability":"view"},{"type":"function","name":"DEFAULT_LTV","inputs":[],"outputs":[{"name":"","type":"uint256","internalType":"uint256"}],"stateMutability":"view"},{"type":"function","name":"MAX_CIRCLE_MEMBERS","inputs":[],"outputs":[{"name":"","type":"uint256","internalType":"uint256"}],"stateMutability":"view"},{"type":"function","name":"MAX_LOAN_DURATION","inputs":[],"outputs":[{"name":"","type":"uint256","internalType":"uint256"}],"stateMutability":"view"},{"type":"function","name":"MAX_SLIPPAGE","inputs":[],"outputs":[{"name":"","type":"uint256","internalType":"uint256"}],"stateMutability":"view"},{"type":"function","name":"MIN_CONTRIBUTION","inputs":[],"outputs":[{"name":"","type":"uint256","internalType":"uint256"}],"stateMutability":"view"},{"type":"function","name":"MORPHO_IRM","inputs":[],"outputs":[{"name":"","type":"address","internalType":"address"}],"stateMutability":"view"},{"type":"function","name":"MORPHO_LENDING_MARKET","inputs":[],"outputs":[{"name":"","type":"address","internalType":"address"}],"stateMutability":"view"},{"type":"function","name":"MORPHO_LLTV","inputs":[],"outputs":[{"name":"","type":"uint256","internalType":"uint256"}],"stateMutability":"view"},{"type":"function","name":"MORPHO_ORACLE","inputs":[],"outputs":[{"name":"","type":"address","internalType":"address"}],"stateMutability":"view"},{"type":"function","name":"MORPHO_WETH_VAULT","inputs":[],"outputs":[{"name":"","type":"address","internalType":"address"}],"stateMutability":"view"},{"type":"function","name":"MORPHO_WETH_wstETH_MARKET_ID","inputs":[],"outputs":[{"name":"","type":"bytes32","internalType":"bytes32"}],"stateMutability":"view"},{"type":"function","name":"MORPHO_wstETH_VAULT","inputs":[],"outputs":[{"name":"","type":"address","internalType":"address"}],"stateMutability":"view"},{"type":"function","name":"USDC","inputs":[],"outputs":[{"name":"","type":"address","internalType":"address"}],"stateMutability":"view"},{"type":"function","name":"VELODROME_FACTORY","inputs":[],"outputs":[{"name":"","type":"address","internalType":"address"}],"stateMutability":"view"},{"type":"function","name":"VELODROME_FACTORY_CL","inputs":[],"outputs":[{"name":"","type":"address","internalType":"address"}],"stateMutability":"view"},{"type":"function","name":"VELODROME_FACTORY_V2","inputs":[],"outputs":[{"name":"","type":"address","internalType":"address"}],"stateMutability":"view"},{"type":"function","name":"VELODROME_POOL_IMPL","inputs":[],"outputs":[{"name":"","type":"address","internalType":"address"}],"stateMutability":"view"},{"type":"function","name":"VELODROME_ROUTER","inputs":[],"outputs":[{"name":"","type":"address","internalType":"address"}],"stateMutability":"view"},{"type":"function","name":"VELODROME_UNIVERSAL_ROUTER","inputs":[],"outputs":[{"name":"","type":"address","internalType":"address"}],"stateMutability":"view"},{"type":"function","name":"WETH","inputs":[],"outputs":[{"name":"","type":"address","internalType":"address"}],"stateMutability":"view"},{"type":"function","name":"WETH_wstETH_CL_POOL","inputs":[],"outputs":[{"name":"","type":"address","internalType":"address"}],"stateMutability":"view"},{"type":"function","name":"activeLoans","inputs":[{"name":"","type":"bytes32","internalType":"bytes32"}],"outputs":[{"name":"borrower","type":"address","internalType":"address"},{"name":"principal","type":"uint256","internalType":"uint256"},{"name":"interestRate","type":"uint256","internalType":"uint256"},{"name":"startTime","type":"uint256","internalType":"uint256"},{"name":"duration","type":"uint256","internalType":"uint256"},{"name":"totalRepaid","type":"uint256","internalType":"uint256"},{"name":"wstETHCollateral","type":"uint256","internalType":"uint256"},{"name":"active","type":"bool","internalType":"bool"},{"name":"requestId","type":"bytes32","internalType":"bytes32"}],"stateMutability":"view"},{"type":"function","name":"addMember","inputs":[{"name":"newMember","type":"address","internalType":"address"}],"outputs":[],"stateMutability":"nonpayable"},{"type":"function","name":"allContributorsResponded","inputs":[{"name":"requestId","type":"bytes32","internalType":"bytes32"}],"outputs":[{"name":"","type":"bool","internalType":"bool"}],"stateMutability":"view"},{"type":"function","name":"allLoans","inputs":[{"name":"","type":"uint256","internalType":"uint256"}],"outputs":[{"name":"","type":"bytes32","internalType":"bytes32"}],"stateMutability":"view"},{"type":"function","name":"allRequests","inputs":[{"name":"","type":"uint256","internalType":"uint256"}],"outputs":[{"name":"","type":"bytes32","internalType":"bytes32"}],"stateMutability":"view"},{"type":"function","name":"borrowDirectly","inputs":[{"name":"borrowAmount","type":"uint256","internalType":"uint256"},{"name":"purpose","type":"string","internalType":"string"}],"outputs":[{"name":"loanId","type":"bytes32","internalType":"bytes32"}],"stateMutability":"nonpayable"},{"type":"function","name":"contributeToRequest","inputs":[{"name":"requestId","type":"bytes32","internalType":"bytes32"}],"outputs":[],"stateMutability":"nonpayable"},{"type":"function","name":"creator","inputs":[],"outputs":[{"name":"","type":"address","internalType":"address"}],"stateMutability":"view"},{"type":"function","name":"declineRequest","inputs":[{"name":"requestId","type":"bytes32","internalType":"bytes32"}],"outputs":[],"stateMutability":"nonpayable"},{"type":"function","name":"deposit","inputs":[],"outputs":[],"stateMutability":"payable"},{"type":"function","name":"executeRequest","inputs":[{"name":"requestId","type":"bytes32","internalType":"bytes32"}],"outputs":[{"name":"loanId","type":"bytes32","internalType":"bytes32"}],"stateMutability":"nonpayable"},{"type":"function","name":"factory","inputs":[],"outputs":[{"name":"","type":"address","internalType":"address"}],"stateMutability":"view"},{"type":"function","name":"getBorrowingRate","inputs":[],"outputs":[{"name":"","type":"uint256","internalType":"uint256"}],"stateMutability":"view"},{"type":"function","name":"getEffectiveBorrowingRate","inputs":[],"outputs":[{"name":"","type":"uint256","internalType":"uint256"}],"stateMutability":"view"},{"type":"function","name":"getExpectedContribution","inputs":[{"name":"requestId","type":"bytes32","internalType":"bytes32"},{"name":"contributor","type":"address","internalType":"address"}],"outputs":[{"name":"","type":"uint256","internalType":"uint256"}],"stateMutability":"view"},{"type":"function","name":"getMemberCount","inputs":[],"outputs":[{"name":"","type":"uint256","internalType":"uint256"}],"stateMutability":"view"},{"type":"function","name":"getRequestContributions","inputs":[{"name":"requestId","type":"bytes32","internalType":"bytes32"},{"name":"contributor","type":"address","internalType":"address"}],"outputs":[{"name":"","type":"uint256","internalType":"uint256"}],"stateMutability":"view"},{"type":"function","name":"getUserBalance","inputs":[{"name":"user","type":"address","internalType":"address"}],"outputs":[{"name":"","type":"uint256","internalType":"uint256"}],"stateMutability":"view"},{"type":"function","name":"initialize","inputs":[{"name":"_name","type":"string","internalType":"string"},{"name":"initialMembers","type":"address[]","internalType":"address[]"},{"name":"_factory","type":"address","internalType":"address"}],"outputs":[],"stateMutability":"nonpayable"},{"type":"function","name":"isCircleMember","inputs":[{"name":"","type":"address","internalType":"address"}],"outputs":[{"name":"","type":"bool","internalType":"bool"}],"stateMutability":"view"},{"type":"function","name":"members","inputs":[{"name":"","type":"uint256","internalType":"uint256"}],"outputs":[{"name":"","type":"address","internalType":"address"}],"stateMutability":"view"},{"type":"function","name":"morphoLendingMarket","inputs":[],"outputs":[{"name":"","type":"address","internalType":"contract IMorphoMarket"}],"stateMutability":"view"},{"type":"function","name":"morphoWethVault","inputs":[],"outputs":[{"name":"","type":"address","internalType":"contract IERC4626"}],"stateMutability":"view"},{"type":"function","name":"name","inputs":[],"outputs":[{"name":"","type":"string","internalType":"string"}],"stateMutability":"view"},{"type":"function","name":"removeMember","inputs":[{"name":"member","type":"address","internalType":"address"}],"outputs":[],"stateMutability":"nonpayable"},{"type":"function","name":"repayLoan","inputs":[{"name":"loanId","type":"bytes32","internalType":"bytes32"}],"outputs":[],"stateMutability":"payable"},{"type":"function","name":"requestCollateral","inputs":[{"name":"borrowAmount","type":"uint256","internalType":"uint256"},{"name":"collateralAmount","type":"uint256","internalType":"uint256"},{"name":"contributors","type":"address[]","internalType":"address[]"},{"name":"contributorAmounts","type":"uint256[]","internalType":"uint256[]"},{"name":"purpose","type":"string","internalType":"string"}],"outputs":[{"name":"requestId","type":"bytes32","internalType":"bytes32"}],"stateMutability":"nonpayable"},{"type":"function","name":"requestDeclines","inputs":[{"name":"","type":"bytes32","internalType":"bytes32"},{"name":"","type":"address","internalType":"address"}],"outputs":[{"name":"","type":"bool","internalType":"bool"}],"stateMutability":"view"},{"type":"function","name":"requests","inputs":[{"name":"","type":"bytes32","internalType":"bytes32"}],"outputs":[{"name":"borrower","type":"address","internalType":"address"},{"name":"borrowAmount","type":"uint256","internalType":"uint256"},{"name":"collateralNeeded","type":"uint256","internalType":"uint256"},{"name":"totalContributed","type":"uint256","internalType":"uint256"},{"name":"deadline","type":"uint256","internalType":"uint256"},{"name":"fulfilled","type":"bool","internalType":"bool"},{"name":"executed","type":"bool","internalType":"bool"},{"name":"purpose","type":"string","internalType":"string"},{"name":"createdAt","type":"uint256","internalType":"uint256"}],"stateMutability":"view"},{"type":"function","name":"totalDeposits","inputs":[],"outputs":[{"name":"","type":"uint256","internalType":"uint256"}],"stateMutability":"view"},{"type":"function","name":"totalShares","inputs":[],"outputs":[{"name":"","type":"uint256","internalType":"uint256"}],"stateMutability":"view"},{"type":"function","name":"uniswapV3SwapCallback","inputs":[{"name":"amount0Delta","type":"int256","internalType":"int256"},{"name":"amount1Delta","type":"int256","internalType":"int256"},{"name":"","type":"bytes","internalType":"bytes"}],"outputs":[],"stateMutability":"nonpayable"},{"type":"function","name":"userLoans","inputs":[{"name":"","type":"address","internalType":"address"},{"name":"","type":"uint256","internalType":"uint256"}],"outputs":[{"name":"","type":"bytes32","internalType":"bytes32"}],"stateMutability":"view"},{"type":"function","name":"userRequests","inputs":[{"name":"","type":"address","internalType":"address"},{"name":"","type":"uint256","internalType":"uint256"}],"outputs":[{"name":"","type":"bytes32","internalType":"bytes32"}],"stateMutability":"view"},{"type":"function","name":"userShares","inputs":[{"name":"","type":"address","internalType":"address"}],"outputs":[{"name":"","type":"uint256","internalType":"uint256"}],"stateMutability":"view"},{"type":"function","name":"weth","inputs":[],"outputs":[{"name":"","type":"address","internalType":"contract IERC20"}],"stateMutability":"view"},{"type":"function","name":"withdraw","inputs":[{"name":"shares","type":"uint256","internalType":"uint256"}],"outputs":[],"stateMutability":"nonpayable"},{"type":"function","name":"wstETH","inputs":[],"outputs":[{"name":"","type":"address","internalType":"address"}],"stateMutability":"view"},{"type":"function","name":"wsteth","inputs":[],"outputs":[{"name":"","type":"address","internalType":"contract IERC20"}],"stateMutability":"view"},{"type":"event","name":"CollateralRequested","inputs":[{"name":"requestId","type":"bytes32","indexed":true,"internalType":"bytes32"},{"name":"borrower","type":"address","indexed":true,"internalType":"address"},{"name":"amount","type":"uint256","indexed":false,"internalType":"uint256"},{"name":"contributors","type":"address[]","indexed":false,"internalType":"address[]"},{"name":"purpose","type":"string","indexed":false,"internalType":"string"}],"anonymous":false},{"type":"event","name":"ContributionMade","inputs":[{"name":"requestId","type":"bytes32","indexed":true,"internalType":"bytes32"},{"name":"contributor","type":"address","indexed":true,"internalType":"address"},{"name":"amount","type":"uint256","indexed":false,"internalType":"uint256"}],"anonymous":false},{"type":"event","name":"Deposit","inputs":[{"name":"member","type":"address","indexed":true,"internalType":"address"},{"name":"amount","type":"uint256","indexed":false,"internalType":"uint256"},{"name":"shares","type":"uint256","indexed":false,"internalType":"uint256"}],"anonymous":false},{"type":"event","name":"LoanCompleted","inputs":[{"name":"loanId","type":"bytes32","indexed":true,"internalType":"bytes32"},{"name":"borrower","type":"address","indexed":true,"internalType":"address"}],"anonymous":false},{"type":"event","name":"LoanCreated","inputs":[{"name":"loanId","type":"bytes32","indexed":true,"internalType":"bytes32"},{"name":"borrower","type":"address","indexed":true,"internalType":"address"},{"name":"borrowAmount","type":"uint256","indexed":false,"internalType":"uint256"},{"name":"collateralAmount","type":"uint256","indexed":false,"internalType":"uint256"}],"anonymous":false},{"type":"event","name":"LoanExecuted","inputs":[{"name":"requestId","type":"bytes32","indexed":true,"internalType":"bytes32"},{"name":"loanId","type":"bytes32","indexed":true,"internalType":"bytes32"},{"name":"borrower","type":"address","indexed":true,"internalType":"address"},{"name":"amount","type":"uint256","indexed":false,"internalType":"uint256"}],"anonymous":false},{"type":"event","name":"LoanRepayment","inputs":[{"name":"loanId","type":"bytes32","indexed":true,"internalType":"bytes32"},{"name":"borrower","type":"address","indexed":true,"internalType":"address"},{"name":"amount","type":"uint256","indexed":false,"internalType":"uint256"},{"name":"remaining","type":"uint256","indexed":false,"internalType":"uint256"}],"anonymous":false},{"type":"event","name":"MemberAdded","inputs":[{"name":"member","type":"address","indexed":true,"internalType":"address"}],"anonymous":false},{"type":"event","name":"MemberRemoved","inputs":[{"name":"member","type":"address","indexed":true,"internalType":"address"}],"anonymous":false},{"type":"event","name":"RequestDeclined","inputs":[{"name":"requestId","type":"bytes32","indexed":true,"internalType":"bytes32"},{"name":"contributor","type":"address","indexed":true,"internalType":"address"},{"name":"timestamp","type":"uint256","indexed":false,"internalType":"uint256"}],"anonymous":false},{"type":"event","name":"Withdraw","inputs":[{"name":"member","type":"address","indexed":true,"internalType":"address"},{"name":"amount","type":"uint256","indexed":false,"internalType":"uint256"},{"name":"shares","type":"uint256","indexed":false,"internalType":"uint256"}],"anonymous":false},{"type":"error","name":"ReentrancyGuardReentrantCall","inputs":[]}],"bytecode":{"object":"0x608060405234801561000f575f80fd5b5060015f55615ef380620000225f395ff3fe6080604052600436106103cc575f3560e01c80637d882097116101f4578063cb909a6011610113578063e9c24166116100a8578063f36b242511610078578063f36b242514610d0f578063f9759518146108e4578063fa461e3314610d23578063fde2d68f14610d42578063fe96610714610d61575f80fd5b8063e9c2416614610c8b578063eb50cdb114610caa578063ef50e2b814610cd1578063f290badb14610cf0575f80fd5b8063d8bad5bd116100e3578063d8bad5bd14610c05578063de69b3aa14610c24578063dfe287d314610c4f578063e1f1c4a714610c76575f80fd5b8063cb909a6014610b84578063d0e30db014610bb7578063d1d8bce714610bbf578063d647838414610bde575f80fd5b80639d86698511610189578063ae99b49311610159578063ae99b49314610aee578063c45a015514610b27578063c699d77414610b46578063ca6d56dc14610b65575f80fd5b80639d86698514610a8c578063a3b49bcb146107ca578063a894ffe114610ac0578063ad5c464814610ad4575f80fd5b80638c3cd02a116101c45780638c3cd02a14610a135780639588dffe14610a32578063997072f714610a595780639bf4ec2f14610a6d575f80fd5b80637d8820971461097d57806385e1f4d01461099257806389a30271146109a757806389cde199146109ce575f80fd5b80633a98ef39116102eb57806347734892116102805780635daf08ca116102505780635daf08ca146108f85780635f7fdfe014610917578063677eb6f41461092a5780637200a7111461094957806379f5995e1461095e575f80fd5b806347734892146108895780634aa07e64146108a8578063517ef1d7146108cf57806354ab7909146108e4575f80fd5b80633fc8cef3116102bb5780633fc8cef31461080457806340158af61461082357806340650c911461084a578063463c1d0a14610862575f80fd5b80633a98ef39146107965780633b17bb88146107ab5780633e8c6e43146107ca5780633f84210f146107f1575f80fd5b80631b9307201161036157806327117f481161033157806327117f4814610686578063289fff9e1461069b5780632e1a7d4d146106b65780633781898b146106d5575f80fd5b80631b9307201461060c5780631e634d541461062157806325f6a62414610648578063263cb6b614610667575f80fd5b80630da4c6281161039c5780630da4c628146105625780630ecd7d55146105885780631aeb4908146105af5780631b8a3548146105ed575f80fd5b806302d05d3f146104c157806306fdde03146104fd5780630b1ca49a1461051e5780630d0b2ca61461053d575f80fd5b366104bd575f341180156103ee5750335f9081526005602052604090205460ff165b156104bb576006602160991b016001600160a01b031663d0e30db0346040518263ffffffff1660e01b81526004015f604051808303818588803b158015610433575f80fd5b505af193505050508015610445575060015b61046a5760405162461bcd60e51b815260040161046190615273565b60405180910390fd5b61047334610d90565b335f81815260046020908152604091829020548251348152918201527f90890809c654f11d6e72a28fa60149770a0d11ec6c92319d6ceb2bb0a4ea1a15910160405180910390a25b005b5f80fd5b3480156104cc575f80fd5b506003546104e0906001600160a01b031681565b6040516001600160a01b0390911681526020015b60405180910390f35b348015610508575f80fd5b50610511610e1f565b6040516104f491906152ed565b348015610529575f80fd5b506104bb610538366004615323565b610eab565b348015610548575f80fd5b506105546301e1338081565b6040519081526020016104f4565b34801561056d575f80fd5b506104e072cd58deebd7a2f1c55daec715faf8aed5b27bf881565b348015610593575f80fd5b506104e0739c69e0b64a63aa7daa0b5dc61df3cc77ea05bcb381565b3480156105ba575f80fd5b506105dd6105c9366004615323565b60056020525f908152604090205460ff1681565b60405190151581526020016104f4565b3480156105f8575f80fd5b5061055461060736600461533e565b611116565b348015610617575f80fd5b5061055461213481565b34801561062c575f80fd5b506104e07310499d88bd32af443fc936f67de32be1c8bb374c81565b348015610653575f80fd5b506104bb61066236600461533e565b611135565b348015610672575f80fd5b50610554610681366004615355565b6115ae565b348015610691575f80fd5b5061055461070881565b3480156106a6575f80fd5b50610554670d18c2e28000000081565b3480156106c1575f80fd5b506104bb6106d036600461533e565b6115d9565b3480156106e0575f80fd5b506107466106ef36600461533e565b600a6020525f90815260409020805460018201546002830154600384015460048501546005860154600687015460078801546008909801546001600160a01b039097169795969495939492939192909160ff169089565b604080516001600160a01b03909a168a5260208a0198909852968801959095526060870193909352608086019190915260a085015260c0840152151560e0830152610100820152610120016104f4565b3480156107a1575f80fd5b5061055460075481565b3480156107b6575f80fd5b506012546104e0906001600160a01b031681565b3480156107d5575f80fd5b506104e07304625b046c69577efc40e6c0bb83cdbafab5a55f81565b6104bb6107ff36600461533e565b611a2a565b34801561080f575f80fd5b506010546104e0906001600160a01b031681565b34801561082e575f80fd5b506104e0735576629f21d528a8c3e06c338dda907b9456390281565b348015610855575f80fd5b5061055464e8d4a5100081565b34801561086d575f80fd5b506104e0737cbaa98bd5e171a658fdf761ed1db33806a0d34681565b348015610894575f80fd5b506105546108a3366004615323565b611e9f565b3480156108b3575f80fd5b506104e07376d8de471f54aaa87784119c60df1bbfc852c41581565b3480156108da575f80fd5b5061055461032081565b3480156108ef575f80fd5b50610554603281565b348015610903575f80fd5b506104e061091236600461533e565b61204f565b348015610922575f80fd5b506104e05f81565b348015610935575f80fd5b506013546104e0906001600160a01b031681565b348015610954575f80fd5b506105546101f481565b348015610969575f80fd5b5061055461097836600461537f565b612077565b348015610988575f80fd5b5061055460085481565b34801561099d575f80fd5b5061055461046f81565b3480156109b2575f80fd5b506104e07305d032ac25d322df992303dca074ee7392c117b981565b3480156109d9575f80fd5b506105546109e836600461537f565b5f8281526009602090815260408083206001600160a01b038516845260040190915290205492915050565b348015610a1e575f80fd5b506104bb610a2d366004615475565b6120a3565b348015610a3d575f80fd5b506104e0733a63171dd9bebf4d07bc782fecc7eb0b890c2a4581565b348015610a64575f80fd5b50600654610554565b348015610a78575f80fd5b50610554610a8736600461533e565b612433565b348015610a97575f80fd5b50610aab610aa636600461533e565b612442565b6040516104f499989796959493929190615539565b348015610acb575f80fd5b50610554612527565b348015610adf575f80fd5b506104e06006602160991b0181565b348015610af9575f80fd5b506105dd610b0836600461537f565b600d60209081525f928352604080842090915290825290205460ff1681565b348015610b32575f80fd5b506002546104e0906001600160a01b031681565b348015610b51575f80fd5b50610554610b603660046155df565b61255f565b348015610b70575f80fd5b506104bb610b7f366004615323565b612b62565b348015610b8f575f80fd5b506105547faf10335b50689207d1fd37afd98e87aa0eb209c9074d8655642636223cc5f3a081565b6104bb612ccb565b348015610bca575f80fd5b506011546104e0906001600160a01b031681565b348015610be9575f80fd5b506104e07331832f2a97fd20664d76cc421207669b55ce4bc081565b348015610c10575f80fd5b50610554610c1f366004615355565b612de9565b348015610c2f575f80fd5b50610554610c3e366004615323565b60046020525f908152604090205481565b348015610c5a575f80fd5b506104e0737a378060a8a1fc5861d58bfd1a58581ca11ca70c81565b348015610c81575f80fd5b5061055461271081565b348015610c96575f80fd5b50610554610ca536600461533e565b612e02565b348015610cb5575f80fd5b506104e07301d40099fcd87c018969b0e8d4ab1633fb34763c81565b348015610cdc575f80fd5b506104bb610ceb36600461533e565b6134eb565b348015610cfb575f80fd5b50610554610d0a366004615668565b61377f565b348015610d1a575f80fd5b50610554613d15565b348015610d2e575f80fd5b506104bb610d3d36600461570d565b613d58565b348015610d4d575f80fd5b506105dd610d5c36600461533e565b613ea9565b348015610d6c575f80fd5b50610511604051806040016040528060048152602001634c69736b60e01b81525081565b5f6007545f03610da1575080610dbe565b600854600754610db19084615770565b610dbb9190615787565b90505b335f9081526004602052604081208054839290610ddc9084906157a6565b925050819055508060075f828254610df491906157a6565b925050819055508160085f828254610e0c91906157a6565b90915550610e1b905082613f64565b5050565b60018054610e2c906157b9565b80601f0160208091040260200160405190810160405280929190818152602001828054610e58906157b9565b8015610ea35780601f10610e7a57610100808354040283529160200191610ea3565b820191905f5260205f20905b815481529060010190602001808311610e8657829003601f168201915b505050505081565b6003546001600160a01b03163314610ef05760405162461bcd60e51b815260206004820152600860248201526710b1b932b0ba37b960c11b6044820152606401610461565b6001600160a01b0381165f9081526005602052604090205460ff16610f275760405162461bcd60e51b8152600401610461906157eb565b6003546001600160a01b0390811690821603610f705760405162461bcd60e51b815260206004820152600860248201526710b1b932b0ba37b960c11b6044820152606401610461565b6001600160a01b0381165f9081526004602052604090205415610fc15760405162461bcd60e51b8152602060048201526009602482015268216465706f7369747360b81b6044820152606401610461565b6001600160a01b0381165f908152600560205260408120805460ff191690555b6006548110156110df57816001600160a01b0316600682815481106110085761100861580c565b5f918252602090912001546001600160a01b0316036110cd576006805461103190600190615820565b815481106110415761104161580c565b5f91825260209091200154600680546001600160a01b03909216918390811061106c5761106c61580c565b905f5260205f20015f6101000a8154816001600160a01b0302191690836001600160a01b0316021790555060068054806110a8576110a8615833565b5f8281526020902081015f1990810180546001600160a01b03191690550190556110df565b806110d781615847565b915050610fe1565b506040516001600160a01b038216907f6e76fb4c77256006d9c38ec7d82b45a8c8f3c27b1d6766fffc42dfb8de684492905f90a250565b600f8181548110611125575f80fd5b5f91825260209091200154905081565b335f9081526005602052604090205460ff166111635760405162461bcd60e51b8152600401610461906157eb565b5f8181526009602052604090205481906001600160a01b03166111985760405162461bcd60e51b81526004016104619061585f565b6111a0614063565b5f828152600960205260409020600781015442106111eb5760405162461bcd60e51b815260206004820152600860248201526708595e1c1a5c995960c21b6044820152606401610461565b600881015460ff161561122d5760405162461bcd60e51b815260206004820152600a60248201526908599d5b199a5b1b195960b21b6044820152606401610461565b335f908152600582016020526040902054806112785760405162461bcd60e51b815260206004820152600a602482015269085c995c5d595cdd195960b21b6044820152606401610461565b335f908152600483016020526040902054156112be5760405162461bcd60e51b815260206004820152600560248201526421646f6e6560d81b6044820152606401610461565b6010546040516370a0823160e01b815230600482015282915f916001600160a01b03909116906370a0823190602401602060405180830381865afa158015611308573d5f803e3d5ffd5b505050506040513d601f19601f8201168201806040525081019061132c919061587d565b6012546040516370a0823160e01b81523060048201529192505f916001600160a01b03909116906370a0823190602401602060405180830381865afa158015611377573d5f803e3d5ffd5b505050506040513d601f19601f8201168201806040525081019061139b919061587d565b90505f8082116113ab575f611416565b6012546040516303d1689d60e11b8152600481018490526001600160a01b03909116906307a2d13a90602401602060405180830381865afa1580156113f2573d5f803e3d5ffd5b505050506040513d601f19601f82011682018060405250810190611416919061587d565b90505f61142382856157a6565b90505f8060075411611435575f61145c565b600754335f90815260046020526040902054611452908490615770565b61145c9190615787565b9050858110156114995760405162461bcd60e51b81526020600482015260086024820152672162616c616e636560c01b6044820152606401610461565b5f82600754886114a99190615770565b6114b39190615787565b335f908152600460205260409020549091508111156114e45760405162461bcd60e51b815260040161046190615894565b335f9081526004602052604081208054839290611502908490615820565b9091555050335f90815260048a016020526040812080548992906115279084906157a6565b9250508190555086896006015f82825461154191906157a6565b9091555050600289015460068a0154106115655760088901805460ff191660011790555b60405187815233908c907fb736b18814da81a1581cd71e835c12a580034bd300493d2c7a455ce69a50f7a09060200160405180910390a3505050505050505050610e1b60015f55565b600b602052815f5260405f2081815481106115c7575f80fd5b905f5260205f20015f91509150505481565b335f9081526005602052604090205460ff166116075760405162461bcd60e51b8152600401610461906157eb565b61160f614063565b5f811161162e5760405162461bcd60e51b815260040161046190615894565b335f908152600460205260409020548111156116755760405162461bcd60e51b8152600401610461906020808252600490820152630858985b60e21b604082015260600190565b6010546040516370a0823160e01b81523060048201525f916001600160a01b0316906370a0823190602401602060405180830381865afa1580156116bb573d5f803e3d5ffd5b505050506040513d601f19601f820116820180604052508101906116df919061587d565b6012546040516370a0823160e01b81523060048201529192505f916001600160a01b03909116906370a0823190602401602060405180830381865afa15801561172a573d5f803e3d5ffd5b505050506040513d601f19601f8201168201806040525081019061174e919061587d565b90505f80821161175e575f6117c9565b6012546040516303d1689d60e11b8152600481018490526001600160a01b03909116906307a2d13a90602401602060405180830381865afa1580156117a5573d5f803e3d5ffd5b505050506040513d601f19601f820116820180604052508101906117c9919061587d565b90505f6117d682856157a6565b90505f60075482876117e89190615770565b6117f29190615787565b90505f811161182d5760405162461bcd60e51b81526020600482015260076024820152662161737365747360c81b6044820152606401610461565b335f908152600460205260408120805488929061184b908490615820565b925050819055508560075f8282546118639190615820565b925050819055508060085f82825461187b9190615820565b90915550506010546040516370a0823160e01b81523060048201525f916001600160a01b0316906370a0823190602401602060405180830381865afa1580156118c6573d5f803e3d5ffd5b505050506040513d601f19601f820116820180604052508101906118ea919061587d565b90508181101561190d575f6118ff8284615820565b905061190a8161408b565b50505b604051632e1a7d4d60e01b8152600481018390526006602160991b0190632e1a7d4d906024015f604051808303815f87803b15801561194a575f80fd5b505af192505050801561195b575060015b6119775760405162461bcd60e51b8152600401610461906158b5565b6040515f90339084908381818185875af1925050503d805f81146119b6576040519150601f19603f3d011682016040523d82523d5f602084013e6119bb565b606091505b50509050806119dc5760405162461bcd60e51b8152600401610461906158e5565b60408051848152602081018a905233917ff279e6a1f5e320cca91135676d9cb6e44ca8a08c0b88342bcdb1144f6511b568910160405180910390a250505050505050611a2760015f55565b50565b5f818152600a602052604090205481906001600160a01b0316611a775760405162461bcd60e51b815260206004820152600560248201526410b637b0b760d91b6044820152606401610461565b5f818152600a602052604090206007015460ff16611ac15760405162461bcd60e51b81526020600482015260076024820152662161637469766560c81b6044820152606401610461565b611ac9614063565b5f828152600a6020526040902080546001600160a01b03163314611b1b5760405162461bcd60e51b815260206004820152600960248201526810b137b93937bbb2b960b91b6044820152606401610461565b5f3411611b3a5760405162461bcd60e51b815260040161046190615912565b6006602160991b016001600160a01b031663d0e30db0346040518263ffffffff1660e01b81526004015f604051808303818588803b158015611b7a575f80fd5b505af1158015611b8c573d5f803e3d5ffd5b50505050505f611b9b346143e5565b905080826006015f828254611bb091906157a6565b9250508190555034826005015f828254611bca91906157a6565b9091555050611bd8816147af565b5f611be285614937565b8360010154611bf191906157a6565b905080836005015410611e385760078301805460ff19169055600683015415611dff575f3490506006602160991b016001600160a01b031663d0e30db0826040518263ffffffff1660e01b81526004015f604051808303818588803b158015611c58575f80fd5b505af193505050508015611c6a575060015b611c865760405162461bcd60e51b815260040161046190615273565b5f611c95828660060154614998565b90505f611ca182614b83565b90506006602160991b016001600160a01b031663d0e30db0826040518263ffffffff1660e01b81526004015f604051808303818588803b158015611ce3575f80fd5b505af193505050508015611cf5575060015b611d115760405162461bcd60e51b815260040161046190615273565b60105460125460405163095ea7b360e01b81526001600160a01b0391821660048201526024810184905291169063095ea7b3906044016020604051808303815f875af1158015611d63573d5f803e3d5ffd5b505050506040513d601f19601f82011682018060405250810190611d87919061593f565b50601254604051636e553f6560e01b8152600481018390523060248201526001600160a01b0390911690636e553f65906044016020604051808303815f875af1158015611dd6573d5f803e3d5ffd5b505050506040513d601f19601f82011682018060405250810190611dfa919061587d565b505050505b82546040516001600160a01b039091169086907f23b716d3e9418b29dc6e6e2fb20273ce616849e35b1fc6311e267186fe56d535905f90a35b825460058401546001600160a01b039091169086907f54c473734734bdca05fe4cadff5505f8bf9d0c795b46035e3a6a3b16117c31ca903490611e7b9086615820565b6040805192835260208301919091520160405180910390a3505050610e1b60015f55565b5f6007545f03611eb057505f919050565b6010546040516370a0823160e01b81523060048201525f916001600160a01b0316906370a0823190602401602060405180830381865afa158015611ef6573d5f803e3d5ffd5b505050506040513d601f19601f82011682018060405250810190611f1a919061587d565b6012546040516370a0823160e01b81523060048201529192505f916001600160a01b03909116906370a0823190602401602060405180830381865afa158015611f65573d5f803e3d5ffd5b505050506040513d601f19601f82011682018060405250810190611f89919061587d565b90505f808211611f99575f612004565b6012546040516303d1689d60e11b8152600481018490526001600160a01b03909116906307a2d13a90602401602060405180830381865afa158015611fe0573d5f803e3d5ffd5b505050506040513d601f19601f82011682018060405250810190612004919061587d565b90505f61201182856157a6565b6007546001600160a01b0388165f908152600460205260409020549192509061203b908390615770565b6120459190615787565b9695505050505050565b6006818154811061205e575f80fd5b5f918252602090912001546001600160a01b0316905081565b5f8281526009602090815260408083206001600160a01b03851684526005019091529020545b92915050565b600180546120b0906157b9565b1590506120f55760405162461bcd60e51b8152602060048201526013602482015272105b1c9958591e481a5b9a5d1a585b1a5e9959606a1b6044820152606401610461565b600161210184826159a6565b50600280546001600160a01b0319166001600160a01b038316179055815182905f9061212f5761212f61580c565b602090810291909101810151600380546001600160a01b039092166001600160a01b031992831681179091556010805483166006602160991b011790556011805483167376d8de471f54aaa87784119c60df1bbfc852c415179055601280548316737cbaa98bd5e171a658fdf761ed1db33806a0d3461790556013805490921672cd58deebd7a2f1c55daec715faf8aed5b27bf8179091555f9081526005909152604090205460ff1661227b57600380546001600160a01b039081165f90815260056020526040808220805460ff19166001908117909155845460068054928301815584527ff652222313e28459528d920b65115c16c04f3efc82aaedc97be59f3f377c0d3f90910180546001600160a01b0319169185169190911790559254925192909116917fb251eb052afc73ffd02ffe85ad79990a8b3fed60d76dbc2fa2fdd7123dffd9149190a25b5f5b825181101561242d575f6001600160a01b03168382815181106122a2576122a261580c565b60200260200101516001600160a01b0316036122e85760405162461bcd60e51b815260206004820152600560248201526410b0b2323960d91b6044820152606401610461565b60055f8483815181106122fd576122fd61580c565b6020908102919091018101516001600160a01b031682528101919091526040015f205460ff1661241b57600160055f85848151811061233e5761233e61580c565b60200260200101516001600160a01b03166001600160a01b031681526020019081526020015f205f6101000a81548160ff021916908315150217905550600683828151811061238f5761238f61580c565b60209081029190910181015182546001810184555f938452919092200180546001600160a01b0319166001600160a01b0390921691909117905582518390829081106123dd576123dd61580c565b60200260200101516001600160a01b03167fb251eb052afc73ffd02ffe85ad79990a8b3fed60d76dbc2fa2fdd7123dffd91460405160405180910390a25b8061242581615847565b91505061227d565b50505050565b600e8181548110611125575f80fd5b600960208190525f918252604090912080546001820154600283015460068401546007850154600886015496860180546001600160a01b0390961697949693959294919360ff8084169461010090940416929091906124a0906157b9565b80601f01602080910402602001604051908101604052809291908181526020018280546124cc906157b9565b80156125175780601f106124ee57610100808354040283529160200191612517565b820191905f5260205f20905b8154815290600101906020018083116124fa57829003601f168201915b50505050509080600a0154905089565b5f80612531613d15565b90505f61253c614e9a565b905080821115612557576125508183615820565b9250505090565b5f9250505090565b335f9081526005602052604081205460ff1661258d5760405162461bcd60e51b8152600401610461906157eb565b612595614063565b5f841180156125a357508115155b6125d85760405162461bcd60e51b8152602060048201526006602482015265085a5b9c1d5d60d21b6044820152606401610461565b5f6121346125e861271087615770565b6125f29190615787565b90505f6125ff86836157a6565b6012546040516370a0823160e01b81523060048201529192505f916001600160a01b03909116906370a0823190602401602060405180830381865afa15801561264a573d5f803e3d5ffd5b505050506040513d601f19601f8201168201806040525081019061266e919061587d565b90505f80821161267e575f6126e9565b6012546040516303d1689d60e11b8152600481018490526001600160a01b03909116906307a2d13a90602401602060405180830381865afa1580156126c5573d5f803e3d5ffd5b505050506040513d601f19601f820116820180604052508101906126e9919061587d565b90505f6007545f1461272157600754335f90815260046020526040902054612712908490615770565b61271c9190615787565b612723565b5f5b9050838110156127635760405162461bcd60e51b815260206004820152600b60248201526a0858dbdb1b185d195c985b60aa1b6044820152606401610461565b335f90815260046020526040812054829061277e9087615770565b6127889190615787565b335f908152600460205260409020549091508111156127b95760405162461bcd60e51b815260040161046190615894565b335f90815260046020526040812080548392906127d7908490615820565b925050819055508060075f8282546127ef9190615820565b925050819055508460085f8282546128079190615820565b9091555061281690508561408b565b506010546040516370a0823160e01b81523060048201526006602160991b0191632e1a7d4d916001600160a01b03909116906370a0823190602401602060405180830381865afa15801561286c573d5f803e3d5ffd5b505050506040513d601f19601f82011682018060405250810190612890919061587d565b6040518263ffffffff1660e01b81526004016128ae91815260200190565b5f604051808303815f87803b1580156128c5575f80fd5b505af19250505080156128d6575060015b6128f25760405162461bcd60e51b8152600401610461906158b5565b475f866128ff838a615770565b6129099190615787565b90506006602160991b016001600160a01b031663d0e30db0826040518263ffffffff1660e01b81526004015f604051808303818588803b15801561294b575f80fd5b505af115801561295d573d5f803e3d5ffd5b50505050505f61296c826143e5565b90505f81116129a55760405162461bcd60e51b8152602060048201526005602482015264021737761760dc1b6044820152606401610461565b6040516bffffffffffffffffffffffff193360601b166020820152426034820152605401604051602081830303815290604052805190602001209950604051806101200160405280336001600160a01b031681526020018e815260200161032081526020014281526020016301e1338081526020015f81526020018281526020016001151581526020015f801b815250600a5f8c81526020019081526020015f205f820151815f015f6101000a8154816001600160a01b0302191690836001600160a01b031602179055506020820151816001015560408201518160020155606082015181600301556080820151816004015560a0820151816005015560c0820151816006015560e0820151816007015f6101000a81548160ff02191690831515021790555061010082015181600801559050505f336001600160a01b0316476040515f6040518083038185875af1925050503d805f8114612b22576040519150601f19603f3d011682016040523d82523d5f602084013e612b27565b606091505b5050905080612b485760405162461bcd60e51b8152600401610461906158e5565b50505050505050505050612b5b60015f55565b9392505050565b335f9081526005602052604090205460ff16612b905760405162461bcd60e51b8152600401610461906157eb565b6001600160a01b038116612bce5760405162461bcd60e51b815260206004820152600560248201526410b0b2323960d91b6044820152606401610461565b6001600160a01b0381165f9081526005602052604090205460ff1615612c065760405162461bcd60e51b8152600401610461906157eb565b600654603211612c405760405162461bcd60e51b815260206004820152600560248201526408599d5b1b60da1b6044820152606401610461565b6001600160a01b0381165f81815260056020526040808220805460ff1916600190811790915560068054918201815583527ff652222313e28459528d920b65115c16c04f3efc82aaedc97be59f3f377c0d3f0180546001600160a01b03191684179055517fb251eb052afc73ffd02ffe85ad79990a8b3fed60d76dbc2fa2fdd7123dffd9149190a250565b335f9081526005602052604090205460ff16612cf95760405162461bcd60e51b8152600401610461906157eb565b612d01614063565b5f3411612d205760405162461bcd60e51b815260040161046190615912565b6006602160991b016001600160a01b031663d0e30db0346040518263ffffffff1660e01b81526004015f604051808303818588803b158015612d60575f80fd5b505af193505050508015612d72575060015b612d8e5760405162461bcd60e51b815260040161046190615273565b612d9734610d90565b335f81815260046020908152604091829020548251348152918201527f90890809c654f11d6e72a28fa60149770a0d11ec6c92319d6ceb2bb0a4ea1a15910160405180910390a2612de760015f55565b565b600c602052815f5260405f2081815481106115c7575f80fd5b5f8181526009602052604081205482906001600160a01b0316612e375760405162461bcd60e51b81526004016104619061585f565b612e3f614063565b5f838152600960205260409020612e5584613ea9565b612e8a5760405162461bcd60e51b81526004016104619060208082526004908201526308585b1b60e21b604082015260600190565b6008810154610100900460ff1615612ed05760405162461bcd60e51b815260206004820152600960248201526808595e1958dd5d195960ba1b6044820152606401610461565b80546001600160a01b03163314612f155760405162461bcd60e51b815260206004820152600960248201526810b137b93937bbb2b960b91b6044820152606401610461565b80546040516323b9a44960e11b81526001600160a01b0390911660048201525f903090634773489290602401602060405180830381865afa158015612f5c573d5f803e3d5ffd5b505050506040513d601f19601f82011682018060405250810190612f80919061587d565b90505f826006015482612f9391906157a6565b600184015490915081905f8215613203576010546040516370a0823160e01b815230600482015284915f916001600160a01b03909116906370a0823190602401602060405180830381865afa158015612fee573d5f803e3d5ffd5b505050506040513d601f19601f82011682018060405250810190613012919061587d565b905081811015613035575f6130278284615820565b90506130328161408b565b50505b6010546040516370a0823160e01b81523060048201525f916001600160a01b0316906370a0823190602401602060405180830381865afa15801561307b573d5f803e3d5ffd5b505050506040513d601f19601f8201168201806040525081019061309f919061587d565b9050828110156130e85760405162461bcd60e51b8152602060048201526014602482015273085dd95d1a17d99bdc97d8dbdb1b185d195c985b60621b6044820152606401610461565b6130f1836143e5565b93505f84116131315760405162461bcd60e51b815260206004820152600c60248201526b085cddd85c17dc995cdd5b1d60a21b6044820152606401610461565b5f61313b84615038565b90508085101561317e5760405162461bcd60e51b815260206004820152600e60248201526d21737761705f736c69707061676560901b6044820152606401610461565b5f613189868861505b565b604051632e1a7d4d60e01b8152600481018290529097508791506006602160991b0190632e1a7d4d906024015f604051808303815f87803b1580156131cc575f80fd5b505af19250505080156131dd575060015b6131f95760405162461bcd60e51b8152600401610461906158b5565b5050505050613241565b814710156132415760405162461bcd60e51b815260206004820152600b60248201526a4c6f772062616c616e636560a81b6044820152606401610461565b60408051602081018b9052429181019190915243606082015260800160408051601f1981840301815282825280516020918201206101208401835289546001600160a01b031684529083018590529950810161329b613d15565b81526020014281526020016301e1338081526020015f81526020018281526020016001151581526020018a815250600a5f8a81526020019081526020015f205f820151815f015f6101000a8154816001600160a01b0302191690836001600160a01b031602179055506020820151816001015560408201518160020155606082015181600301556080820151816004015560a0820151816005015560c0820151816006015560e0820151816007015f6101000a81548160ff021916908315150217905550610100820151816008015590505060018660080160016101000a81548160ff021916908315150217905550600f88908060018154018082558091505060019003905f5260205f20015f9091909190915055600c5f875f015f9054906101000a90046001600160a01b03166001600160a01b03166001600160a01b031681526020019081526020015f2088908060018154018082558091505060019003905f5260205f20015f90919091909150555f865f015f9054906101000a90046001600160a01b03166001600160a01b0316836040515f6040518083038185875af1925050503d805f811461346a576040519150601f19603f3d011682016040523d82523d5f602084013e61346f565b606091505b50509050806134905760405162461bcd60e51b8152600401610461906158e5565b86546040518481526001600160a01b03909116908a908c907fbba88c1e49240c20a1d39cb8fde6b32c6731a6e105afe2e83b197721eb804ab09060200160405180910390a4505050505050506134e560015f55565b50919050565b335f9081526005602052604090205460ff166135195760405162461bcd60e51b8152600401610461906157eb565b5f8181526009602052604090205481906001600160a01b031661354e5760405162461bcd60e51b81526004016104619061585f565b613556614063565b5f828152600960205260409020600781015442106135a15760405162461bcd60e51b815260206004820152600860248201526708595e1c1a5c995960c21b6044820152606401610461565b600881015460ff16156135e35760405162461bcd60e51b815260206004820152600a60248201526908599d5b199a5b1b195960b21b6044820152606401610461565b6008810154610100900460ff16156136295760405162461bcd60e51b815260206004820152600960248201526808595e1958dd5d195960ba1b6044820152606401610461565b5f838152600d6020908152604080832033845290915290205460ff161561367e5760405162461bcd60e51b815260206004820152600960248201526808591958db1a5b995960ba1b6044820152606401610461565b5f805b60038301548110156136e057336001600160a01b03168360030182815481106136ac576136ac61580c565b5f918252602090912001546001600160a01b0316036136ce57600191506136e0565b806136d881615847565b915050613681565b508061371d5760405162461bcd60e51b815260206004820152600c60248201526b10b1b7b73a3934b13aba37b960a11b6044820152606401610461565b5f848152600d602090815260408083203380855290835292819020805460ff191660011790555142815286917f11d54396889aaa7bbd95a32081f57e4d3e8930a034db5c1ddc495617c247e11d910160405180910390a35050610e1b60015f55565b335f9081526005602052604081205460ff166137ad5760405162461bcd60e51b8152600401610461906157eb565b5f89116137cc5760405162461bcd60e51b815260040161046190615912565b5f88116137eb5760405162461bcd60e51b815260040161046190615912565b856138285760405162461bcd60e51b815260206004820152600d60248201526c21636f6e7472696275746f727360981b6044820152606401610461565b8584146138615760405162461bcd60e51b8152602060048201526007602482015266042d8cadccee8d60cb1b6044820152606401610461565b816138995760405162461bcd60e51b815260206004820152600860248201526721707572706f736560c01b6044820152606401610461565b5f805b858110156138dc578686828181106138b6576138b661580c565b90506020020135826138c891906157a6565b9150806138d481615847565b91505061389c565b508881146139155760405162461bcd60e51b8152600401610461906020808252600490820152632173756d60e01b604082015260600190565b5f5b87811015613a205760055f8a8a848181106139345761393461580c565b90506020020160208101906139499190615323565b6001600160a01b0316815260208101919091526040015f205460ff166139815760405162461bcd60e51b8152600401610461906157eb565b5f8787838181106139945761399461580c565b90506020020135116139b85760405162461bcd60e51b815260040161046190615912565b64e8d4a510008787838181106139d0576139d061580c565b905060200201351015613a0e5760405162461bcd60e51b81526004016104619060208082526004908201526310b6b4b760e11b604082015260600190565b80613a1881615847565b915050613917565b506040516323b9a44960e11b81523360048201525f903090634773489290602401602060405180830381865afa158015613a5c573d5f803e3d5ffd5b505050506040513d601f19601f82011682018060405250810190613a80919061587d565b90505f613a8d8b836157a6565b90505f612710613a9f61213484615770565b613aa99190615787565b9050808d1115613ae95760405162461bcd60e51b815260206004820152600b60248201526a0858dbdb1b185d195c985b60aa1b6044820152606401610461565b338d8d89894243604051602001613b069796959493929190615a62565b60408051601f1981840301815291815281516020928301205f81815260099093529120549095506001600160a01b031615613b705760405162461bcd60e51b815260206004820152600a60248201526910b1b7b63634b9b4b7b760b11b6044820152606401610461565b5f85815260096020526040902080546001600160a01b03191633178155600181018e9055600281018d9055613ba9600382018d8d6151fe565b50613bb74262093a806157a6565b600782015560098101613bcb888a83615aa5565b5042600a8201555f5b8b811015613c4c578a8a82818110613bee57613bee61580c565b90506020020135826005015f8f8f85818110613c0c57613c0c61580c565b9050602002016020810190613c219190615323565b6001600160a01b0316815260208101919091526040015f205580613c4481615847565b915050613bd4565b50600e86908060018154018082558091505060019003905f5260205f20015f9091909190915055600b5f336001600160a01b03166001600160a01b031681526020019081526020015f2086908060018154018082558091505060019003905f5260205f20015f9091909190915055336001600160a01b0316867f7683fd2f64b564cc1f465cfe7ba6ef99318bf691f1cf4d9f716585f28ce17b6f8f8f8f8d8d604051613cfc959493929190615b60565b60405180910390a3505050505098975050505050505050565b5f80613d1f614e9a565b9050601e5f613d2e82846157a6565b9050610320811015613d4557610320935050505090565b6096811115612b5b576096935050505090565b33739c69e0b64a63aa7daa0b5dc61df3cc77ea05bcb314613dac5760405162461bcd60e51b815260206004820152600e60248201526d0858d85b1b189858dad7dc1bdbdb60921b6044820152606401610461565b5f841315613e285760105460405163a9059cbb60e01b8152336004820152602481018690526001600160a01b039091169063a9059cbb906044016020604051808303815f875af1158015613e02573d5f803e3d5ffd5b505050506040513d601f19601f82011682018060405250810190613e26919061593f565b505b5f83131561242d5760115460405163a9059cbb60e01b8152336004820152602481018590526001600160a01b039091169063a9059cbb906044016020604051808303815f875af1158015613e7e573d5f803e3d5ffd5b505050506040513d601f19601f82011682018060405250810190613ea2919061593f565b5050505050565b5f818152600960205260408120815b6003820154811015613f5a575f826003018281548110613eda57613eda61580c565b5f9182526020808320909101546001600160a01b03168083526004860190915260409091205490915015613f0e5750613f48565b5f858152600d602090815260408083206001600160a01b038516845290915290205460ff1615613f3e5750613f48565b505f949350505050565b80613f5281615847565b915050613eb8565b5060019392505050565b6012546001600160a01b0316613f775750565b60105460125460405163095ea7b360e01b81526001600160a01b0391821660048201526024810184905291169063095ea7b3906044016020604051808303815f875af1158015613fc9573d5f803e3d5ffd5b505050506040513d601f19601f82011682018060405250810190613fed919061593f565b50601254604051636e553f6560e01b8152600481018390523060248201526001600160a01b0390911690636e553f65906044016020604051808303815f875af192505050801561405a575060408051601f3d908101601f191682019092526140579181019061587d565b60015b15611a27575050565b60025f540361408557604051633ee5aeb560e01b815260040160405180910390fd5b60025f55565b5f8082116140ab5760405162461bcd60e51b815260040161046190615912565b6010546040516370a0823160e01b81523060048201525f916001600160a01b0316906370a0823190602401602060405180830381865afa1580156140f1573d5f803e3d5ffd5b505050506040513d601f19601f82011682018060405250810190614115919061587d565b905082811061412657505f92915050565b5f6141318285615820565b6012549091506001600160a01b03161561439a576012546040516370a0823160e01b81523060048201525f916001600160a01b0316906307a2d13a9082906370a0823190602401602060405180830381865afa158015614193573d5f803e3d5ffd5b505050506040513d601f19601f820116820180604052508101906141b7919061587d565b6040518263ffffffff1660e01b81526004016141d591815260200190565b602060405180830381865afa1580156141f0573d5f803e3d5ffd5b505050506040513d601f19601f82011682018060405250810190614214919061587d565b9050818110156142665760405162461bcd60e51b815260206004820152601a60248201527f496e73756666696369656e74207661756c742062616c616e63650000000000006044820152606401610461565b601254604051630a28a47760e01b8152600481018490525f916001600160a01b031690630a28a47790602401602060405180830381865afa1580156142ad573d5f803e3d5ffd5b505050506040513d601f19601f820116820180604052508101906142d1919061587d565b601254604051635d043b2960e11b815260048101839052306024820181905260448201529192506001600160a01b03169063ba087652906064016020604051808303815f875af1925050508015614345575060408051601f3d908101601f191682019092526143429181019061587d565b60015b61439057858410156143855760405162461bcd60e51b815260206004820152600960248201526821776974686472617760b81b6044820152606401610461565b505f95945050505050565b5093506143de9050565b838210156143d55760405162461bcd60e51b81526020600482015260086024820152672162616c616e636560c01b6044820152606401610461565b505f9392505050565b5050919050565b5f808211801561445d57506010546040516370a0823160e01b815230600482015283916001600160a01b0316906370a0823190602401602060405180830381865afa158015614436573d5f803e3d5ffd5b505050506040513d601f19601f8201168201806040525081019061445a919061587d565b10155b61448e5760405162461bcd60e51b815260206004820152600260248201526110b160f11b6044820152606401610461565b6011546040516370a0823160e01b81523060048201525f916001600160a01b0316906370a0823190602401602060405180830381865afa1580156144d4573d5f803e3d5ffd5b505050506040513d601f19601f820116820180604052508101906144f8919061587d565b90505f61450484615038565b60105460405163095ea7b360e01b8152739c69e0b64a63aa7daa0b5dc61df3cc77ea05bcb360048201819052602482018890529293506001600160a01b039091169063095ea7b3906044016020604051808303815f875af115801561456b573d5f803e3d5ffd5b505050506040513d601f19601f8201168201806040525081019061458f919061593f565b505f816001600160a01b0316633850c7bd6040518163ffffffff1660e01b815260040160e060405180830381865afa1580156145cd573d5f803e3d5ffd5b505050506040513d601f19601f820116820180604052508101906145f19190615bef565b50505050505090505f603290505f61271082846001600160a01b03166146179190615770565b6146219190615787565b905060015f6146308386615c82565b604051630251596160e31b81529091506001600160a01b0387169063128acb089061466590309086908f908790600401615ca9565b60408051808303815f875af192505050801561469e575060408051601f3d908101601f1916820190925261469b91810190615ce2565b60015b614759576146aa615d04565b806308c379a00361470057506146be615d1d565b806146c95750614702565b806040516020016146da9190615da6565b60408051601f198184030181529082905262461bcd60e51b8252610461916004016152ed565b505b60405162461bcd60e51b815260206004820152602660248201527f434c20706f6f6c2073776170206661696c6564207769746820756e6b6e6f776e6044820152651032b93937b960d11b6064820152608401610461565b61476281615de2565b9a505050868910156147a25760405162461bcd60e51b815260206004820152600960248201526821736c69707061676560b81b6044820152606401610461565b5050505050505050919050565b5f81116147ce5760405162461bcd60e51b815260040161046190615912565b6040805160a0810182526006602160991b0181527376d8de471f54aaa87784119c60df1bbfc852c4156020820152737a378060a8a1fc5861d58bfd1a58581ca11ca70c81830152735576629f21d528a8c3e06c338dda907b945639026060820152670d18c2e2800000006080820152601154915163095ea7b360e01b815272cd58deebd7a2f1c55daec715faf8aed5b27bf860048201526024810184905290916001600160a01b03169063095ea7b3906044016020604051808303815f875af115801561489d573d5f803e3d5ffd5b505050506040513d601f19601f820116820180604052508101906148c1919061593f565b5060135460405163a99aad8960e01b81526001600160a01b039091169063a99aad89906148f890849086905f903090600401615e3b565b60408051808303815f875af1158015614913573d5f803e3d5ffd5b505050506040513d601f19601f8201168201806040525081019061242d9190615ce2565b5f818152600a60205260408120600381015482906149559042615820565b90506149676127106301e13380615770565b818360020154846001015461497c9190615770565b6149869190615770565b6149909190615787565b949350505050565b6040805160a0810182526006602160991b0181527376d8de471f54aaa87784119c60df1bbfc852c4156020820152737a378060a8a1fc5861d58bfd1a58581ca11ca70c81830152735576629f21d528a8c3e06c338dda907b945639026060820152670d18c2e2800000006080820152601054915163095ea7b360e01b815272cd58deebd7a2f1c55daec715faf8aed5b27bf86004820152602481018590525f926001600160a01b03169063095ea7b3906044016020604051808303815f875af1158015614a67573d5f803e3d5ffd5b505050506040513d601f19601f82011682018060405250810190614a8b919061593f565b506013546040516320b76e8160e01b81526001600160a01b03909116906320b76e8190614ac290849088905f903090600401615e3b565b60408051808303815f875af1158015614add573d5f803e3d5ffd5b505050506040513d601f19601f82011682018060405250810190614b019190615ce2565b5050601354604051635c2bea4960e01b81526001600160a01b0390911690635c2bea4990614b3b9084905f90889030908190600401615e81565b60408051808303815f875af1158015614b56573d5f803e3d5ffd5b505050506040513d601f19601f82011682018060405250810190614b7a9190615ce2565b50949350505050565b5f8082118015614bfb57506011546040516370a0823160e01b815230600482015283916001600160a01b0316906370a0823190602401602060405180830381865afa158015614bd4573d5f803e3d5ffd5b505050506040513d601f19601f82011682018060405250810190614bf8919061587d565b10155b614c2c5760405162461bcd60e51b815260206004820152600260248201526110b160f11b6044820152606401610461565b6010546040516370a0823160e01b8152306004820152739c69e0b64a63aa7daa0b5dc61df3cc77ea05bcb3915f916001600160a01b03909116906370a0823190602401602060405180830381865afa158015614c8a573d5f803e3d5ffd5b505050506040513d601f19601f82011682018060405250810190614cae919061587d565b60115460405163095ea7b360e01b81526001600160a01b0385811660048301526024820188905292935091169063095ea7b3906044016020604051808303815f875af1158015614d00573d5f803e3d5ffd5b505050506040513d601f19601f82011682018060405250810190614d24919061593f565b50604051630251596160e31b81526001600160a01b0383169063128acb0890614d579030905f9089908290600401615ca9565b60408051808303815f875af1925050508015614d90575060408051601f3d908101601f19168201909252614d8d91810190615ce2565b60015b614dc15760405162461bcd60e51b8152602060048201526002602482015261217360f01b6044820152606401610461565b6010546040516370a0823160e01b81523060048201525f9185916001600160a01b03909116906370a0823190602401602060405180830381865afa158015614e0b573d5f803e3d5ffd5b505050506040513d601f19601f82011682018060405250810190614e2f919061587d565b614e399190615820565b604051632e1a7d4d60e01b8152600481018290529091506006602160991b0190632e1a7d4d906024015f604051808303815f87803b158015614e79575f80fd5b505af1158015614e8b573d5f803e3d5ffd5b50929998505050505050505050565b6012545f906001600160a01b0316614eb357506101f490565b60125f9054906101000a90046001600160a01b03166001600160a01b03166301e1d1146040518163ffffffff1660e01b8152600401602060405180830381865afa925050508015614f21575060408051601f3d908101601f19168201909252614f1e9181019061587d565b60015b156150315760125f9054906101000a90046001600160a01b03166001600160a01b03166318160ddd6040518163ffffffff1660e01b8152600401602060405180830381865afa925050508015614f94575060408051601f3d908101601f19168201909252614f919181019061587d565b60015b1561502f57805f03614faa576101f49250505090565b5f81614fbe84670de0b6b3a7640000615770565b614fc89190615787565b9050670de0b6b3a764000081111561502c575f670de0b6b3a7640000612710614ff18285615820565b614ffb9190615770565b6150059190615787565b90506107d081111561501657506107d05b6101f481101561499057506101f4949350505050565b50505b505b506101f490565b5f612710615047603282615820565b6150519084615770565b61209d9190615787565b6040805160a0810182526006602160991b0181527376d8de471f54aaa87784119c60df1bbfc852c4156020820152737a378060a8a1fc5861d58bfd1a58581ca11ca70c81830152735576629f21d528a8c3e06c338dda907b945639026060820152670d18c2e2800000006080820152601154915163095ea7b360e01b815272cd58deebd7a2f1c55daec715faf8aed5b27bf86004820152602481018590525f926001600160a01b03169063095ea7b3906044016020604051808303815f875af115801561512a573d5f803e3d5ffd5b505050506040513d601f19601f8201168201806040525081019061514e919061593f565b5060135460405163a99aad8960e01b81526001600160a01b039091169063a99aad899061518590849088905f903090600401615e3b565b60408051808303815f875af11580156151a0573d5f803e3d5ffd5b505050506040513d601f19601f820116820180604052508101906151c49190615ce2565b50506013546040516350d8cd4b60e01b81526001600160a01b03909116906350d8cd4b90614b3b90849087905f9030908190600401615e81565b828054828255905f5260205f2090810192821561524f579160200282015b8281111561524f5781546001600160a01b0319166001600160a01b0384351617825560209092019160019091019061521c565b5061525b92915061525f565b5090565b5b8082111561525b575f8155600101615260565b60208082526013908201527215d155120819195c1bdcda5d0819985a5b1959606a1b604082015260600190565b5f5b838110156152ba5781810151838201526020016152a2565b50505f910152565b5f81518084526152d98160208601602086016152a0565b601f01601f19169290920160200192915050565b602081525f612b5b60208301846152c2565b6001600160a01b0381168114611a27575f80fd5b803561531e816152ff565b919050565b5f60208284031215615333575f80fd5b8135612b5b816152ff565b5f6020828403121561534e575f80fd5b5035919050565b5f8060408385031215615366575f80fd5b8235615371816152ff565b946020939093013593505050565b5f8060408385031215615390575f80fd5b8235915060208301356153a2816152ff565b809150509250929050565b634e487b7160e01b5f52604160045260245ffd5b601f8201601f1916810167ffffffffffffffff811182821017156153e7576153e76153ad565b6040525050565b5f82601f8301126153fd575f80fd5b8135602067ffffffffffffffff821115615419576154196153ad565b8160051b60405161542c838301826153c1565b92835284810182019282810187851115615444575f80fd5b83870192505b8483101561546a57823561545d816152ff565b815291830191830161544a565b509695505050505050565b5f805f60608486031215615487575f80fd5b833567ffffffffffffffff8082111561549e575f80fd5b818601915086601f8301126154b1575f80fd5b81356020828211156154c5576154c56153ad565b6040516154db601f8401601f19168301826153c1565b82815289828487010111156154ee575f80fd5b82828601838301375f928101820192909252909550860135915080821115615514575f80fd5b50615521868287016153ee565b92505061553060408501615313565b90509250925092565b5f61012060018060a01b038c1683528a602084015289604084015288606084015287608084015286151560a084015285151560c08401528060e0840152615582818401866152c2565b915050826101008301529a9950505050505050505050565b5f8083601f8401126155aa575f80fd5b50813567ffffffffffffffff8111156155c1575f80fd5b6020830191508360208285010111156155d8575f80fd5b9250929050565b5f805f604084860312156155f1575f80fd5b83359250602084013567ffffffffffffffff81111561560e575f80fd5b61561a8682870161559a565b9497909650939450505050565b5f8083601f840112615637575f80fd5b50813567ffffffffffffffff81111561564e575f80fd5b6020830191508360208260051b85010111156155d8575f80fd5b5f805f805f805f8060a0898b03121561567f575f80fd5b8835975060208901359650604089013567ffffffffffffffff808211156156a4575f80fd5b6156b08c838d01615627565b909850965060608b01359150808211156156c8575f80fd5b6156d48c838d01615627565b909650945060808b01359150808211156156ec575f80fd5b506156f98b828c0161559a565b999c989b5096995094979396929594505050565b5f805f8060608587031215615720575f80fd5b8435935060208501359250604085013567ffffffffffffffff811115615744575f80fd5b6157508782880161559a565b95989497509550505050565b634e487b7160e01b5f52601160045260245ffd5b808202811582820484141761209d5761209d61575c565b5f826157a157634e487b7160e01b5f52601260045260245ffd5b500490565b8082018082111561209d5761209d61575c565b600181811c908216806157cd57607f821691505b6020821081036134e557634e487b7160e01b5f52602260045260245ffd5b60208082526007908201526610b6b2b6b132b960c91b604082015260600190565b634e487b7160e01b5f52603260045260245ffd5b8181038181111561209d5761209d61575c565b634e487b7160e01b5f52603160045260245ffd5b5f600182016158585761585861575c565b5060010190565b6020808252600490820152632172657160e01b604082015260600190565b5f6020828403121561588d575f80fd5b5051919050565b6020808252600790820152662173686172657360c81b604082015260600190565b60208082526016908201527515d15512081dda5d1a191c985dd85b0819985a5b195960521b604082015260600190565b602080825260139082015272115512081d1c985b9cd9995c8819985a5b1959606a1b604082015260600190565b60208082526004908201526308585b5d60e21b604082015260600190565b8051801515811461531e575f80fd5b5f6020828403121561594f575f80fd5b612b5b82615930565b601f8211156159a1575f81815260208120601f850160051c8101602086101561597e5750805b601f850160051c820191505b8181101561599d5782815560010161598a565b5050505b505050565b815167ffffffffffffffff8111156159c0576159c06153ad565b6159d4816159ce84546157b9565b84615958565b602080601f831160018114615a07575f84156159f05750858301515b5f19600386901b1c1916600185901b17855561599d565b5f85815260208120601f198616915b82811015615a3557888601518255948401946001909101908401615a16565b5085821015615a5257878501515f19600388901b60f8161c191681555b5050505050600190811b01905550565b6bffffffffffffffffffffffff198860601b1681528660148201528560348201528385605483013760549301928301919091526074820152609401949350505050565b67ffffffffffffffff831115615abd57615abd6153ad565b615ad183615acb83546157b9565b83615958565b5f601f841160018114615b02575f8515615aeb5750838201355b5f19600387901b1c1916600186901b178355613ea2565b5f83815260209020601f19861690835b82811015615b325786850135825560209485019460019092019101615b12565b5086821015615b4e575f1960f88860031b161c19848701351681555b505060018560011b0183555050505050565b858152606060208083018290529082018590525f90869060808401835b88811015615bab578335615b90816152ff565b6001600160a01b031682529282019290820190600101615b7d565b5084810360408601528581528587838301375f818701830152601f909501601f1916909401909301979650505050505050565b805161ffff8116811461531e575f80fd5b5f805f805f805f60e0888a031215615c05575f80fd5b8751615c10816152ff565b8097505060208801518060020b8114615c27575f80fd5b9550615c3560408901615bde565b9450615c4360608901615bde565b9350615c5160808901615bde565b925060a088015160ff81168114615c66575f80fd5b9150615c7460c08901615930565b905092959891949750929550565b6001600160a01b03828116828216039080821115615ca257615ca261575c565b5092915050565b6001600160a01b03948516815292151560208401526040830191909152909116606082015260a0608082018190525f9082015260c00190565b5f8060408385031215615cf3575f80fd5b505080516020909101519092909150565b5f60033d1115615d1a5760045f803e505f5160e01c5b90565b5f60443d1015615d2a5790565b6040516003193d81016004833e81513d67ffffffffffffffff8160248401118184111715615d5a57505050505090565b8285019150815181811115615d725750505050505090565b843d8701016020828501011115615d8c5750505050505090565b615d9b602082860101876153c1565b509095945050505050565b74021a6103837b7b61039bbb0b8103330b4b632b21d1605d1b81525f8251615dd58160158501602087016152a0565b9190910160150192915050565b5f600160ff1b8201615df657615df661575c565b505f0390565b80516001600160a01b03908116835260208083015182169084015260408083015182169084015260608083015190911690830152608090810151910152565b5f610120615e498388615dfc565b60a08301959095525060c08101929092526001600160a01b031660e082015261010081018290525f9181019190915261014001919050565b6101208101615e908288615dfc565b60a082019590955260c08101939093526001600160a01b0391821660e0840152166101009091015291905056fea2646970667358221220273671b4f27294d6329402a30b121cd975daa984841894c4039eb6bb0b58846a64736f6c63430008140033","linkReferences":{}},"methodIdentifiers":{"BASE_YIELD_RATE()":"7200a711","BASIS_POINTS()":"e1f1c4a7","BORROWING_RATE()":"517ef1d7","CHAIN_ID()":"85e1f4d0","CHAIN_NAME()":"fe966107","DEADLINE_BUFFER()":"27117f48","DEFAULT_LTV()":"1b930720","MAX_CIRCLE_MEMBERS()":"54ab7909","MAX_LOAN_DURATION()":"0d0b2ca6","MAX_SLIPPAGE()":"f9759518","MIN_CONTRIBUTION()":"40650c91","MORPHO_IRM()":"40158af6","MORPHO_LENDING_MARKET()":"0da4c628","MORPHO_LLTV()":"289fff9e","MORPHO_ORACLE()":"dfe287d3","MORPHO_WETH_VAULT()":"463c1d0a","MORPHO_WETH_wstETH_MARKET_ID()":"cb909a60","MORPHO_wstETH_VAULT()":"5f7fdfe0","USDC()":"89a30271","VELODROME_FACTORY()":"3e8c6e43","VELODROME_FACTORY_CL()":"a3b49bcb","VELODROME_FACTORY_V2()":"d6478384","VELODROME_POOL_IMPL()":"1e634d54","VELODROME_ROUTER()":"9588dffe","VELODROME_UNIVERSAL_ROUTER()":"eb50cdb1","WETH()":"ad5c4648","WETH_wstETH_CL_POOL()":"0ecd7d55","activeLoans(bytes32)":"3781898b","addMember(address)":"ca6d56dc","allContributorsResponded(bytes32)":"fde2d68f","allLoans(uint256)":"1b8a3548","allRequests(uint256)":"9bf4ec2f","borrowDirectly(uint256,string)":"c699d774","contributeToRequest(bytes32)":"25f6a624","creator()":"02d05d3f","declineRequest(bytes32)":"ef50e2b8","deposit()":"d0e30db0","executeRequest(bytes32)":"e9c24166","factory()":"c45a0155","getBorrowingRate()":"f36b2425","getEffectiveBorrowingRate()":"a894ffe1","getExpectedContribution(bytes32,address)":"79f5995e","getMemberCount()":"997072f7","getRequestContributions(bytes32,address)":"89cde199","getUserBalance(address)":"47734892","initialize(string,address[],address)":"8c3cd02a","isCircleMember(address)":"1aeb4908","members(uint256)":"5daf08ca","morphoLendingMarket()":"677eb6f4","morphoWethVault()":"3b17bb88","name()":"06fdde03","removeMember(address)":"0b1ca49a","repayLoan(bytes32)":"3f84210f","requestCollateral(uint256,uint256,address[],uint256[],string)":"f290badb","requestDeclines(bytes32,address)":"ae99b493","requests(bytes32)":"9d866985","totalDeposits()":"7d882097","totalShares()":"3a98ef39","uniswapV3SwapCallback(int256,int256,bytes)":"fa461e33","userLoans(address,uint256)":"d8bad5bd","userRequests(address,uint256)":"263cb6b6","userShares(address)":"de69b3aa","weth()":"3fc8cef3","withdraw(uint256)":"2e1a7d4d","wstETH()":"4aa07e64","wsteth()":"d1d8bce7"},"id":22}